{
	"contracts/electionAntikode.sol": {
		"Ballot": {
			"abi": [
				{
					"inputs": [
						{
							"internalType": "string[]",
							"name": "proposalNames",
							"type": "string[]"
						}
					],
					"stateMutability": "nonpayable",
					"type": "constructor"
				},
				{
					"inputs": [],
					"name": "chairperson",
					"outputs": [
						{
							"internalType": "address",
							"name": "",
							"type": "address"
						}
					],
					"stateMutability": "view",
					"type": "function"
				},
				{
					"inputs": [
						{
							"internalType": "uint256",
							"name": "startPeriod",
							"type": "uint256"
						},
						{
							"internalType": "uint256",
							"name": "endPeriod",
							"type": "uint256"
						}
					],
					"name": "definePeriod",
					"outputs": [],
					"stateMutability": "nonpayable",
					"type": "function"
				},
				{
					"inputs": [
						{
							"internalType": "address",
							"name": "voter",
							"type": "address"
						}
					],
					"name": "giveRightToVote",
					"outputs": [],
					"stateMutability": "nonpayable",
					"type": "function"
				},
				{
					"inputs": [
						{
							"internalType": "uint256",
							"name": "",
							"type": "uint256"
						}
					],
					"name": "proposals",
					"outputs": [
						{
							"internalType": "string",
							"name": "name",
							"type": "string"
						},
						{
							"internalType": "uint256",
							"name": "voteCount",
							"type": "uint256"
						}
					],
					"stateMutability": "view",
					"type": "function"
				},
				{
					"inputs": [
						{
							"internalType": "uint256",
							"name": "proposal",
							"type": "uint256"
						}
					],
					"name": "vote",
					"outputs": [],
					"stateMutability": "nonpayable",
					"type": "function"
				},
				{
					"inputs": [
						{
							"internalType": "address",
							"name": "",
							"type": "address"
						}
					],
					"name": "voters",
					"outputs": [
						{
							"internalType": "uint256",
							"name": "weight",
							"type": "uint256"
						},
						{
							"internalType": "bool",
							"name": "voted",
							"type": "bool"
						},
						{
							"internalType": "uint256",
							"name": "vote",
							"type": "uint256"
						}
					],
					"stateMutability": "view",
					"type": "function"
				},
				{
					"inputs": [],
					"name": "votingEnd",
					"outputs": [
						{
							"internalType": "uint256",
							"name": "",
							"type": "uint256"
						}
					],
					"stateMutability": "view",
					"type": "function"
				},
				{
					"inputs": [],
					"name": "votingStart",
					"outputs": [
						{
							"internalType": "uint256",
							"name": "",
							"type": "uint256"
						}
					],
					"stateMutability": "view",
					"type": "function"
				},
				{
					"inputs": [],
					"name": "winner",
					"outputs": [
						{
							"internalType": "string",
							"name": "winnerName_",
							"type": "string"
						},
						{
							"internalType": "uint256",
							"name": "winnerCount_",
							"type": "uint256"
						}
					],
					"stateMutability": "view",
					"type": "function"
				},
				{
					"inputs": [],
					"name": "winningProposal",
					"outputs": [
						{
							"internalType": "uint256",
							"name": "winningProposal_",
							"type": "uint256"
						}
					],
					"stateMutability": "view",
					"type": "function"
				}
			],
			"devdoc": {
				"details": "Implements voting process along with vote delegation",
				"kind": "dev",
				"methods": {
					"constructor": {
						"details": "Create a new ballot to choose one of 'proposalNames'.",
						"params": {
							"proposalNames": "names of proposals"
						}
					},
					"giveRightToVote(address)": {
						"details": "Give 'voter' the right to vote on this ballot. May only be called by 'chairperson'.",
						"params": {
							"voter": "address of voter"
						}
					},
					"vote(uint256)": {
						"details": "Give your vote (including votes delegated to you) to proposal 'proposals[proposal].name'.",
						"params": {
							"proposal": "index of proposal in the proposals array"
						}
					},
					"winner()": {
						"details": "Calls winningProposal() function to get the index of the winner contained in the proposals array and then",
						"returns": {
							"winnerName_": "the name of the winner"
						}
					},
					"winningProposal()": {
						"details": "Computes the winning proposal taking all previous votes into account.",
						"returns": {
							"winningProposal_": "index of winning proposal in the proposals array"
						}
					}
				},
				"title": "Ballot",
				"version": 1
			},
			"evm": {
				"assembly": "    /* \"contracts/electionAntikode.sol\":157:4356  contract Ballot {... */\n  mstore(0x40, 0x80)\n    /* \"contracts/electionAntikode.sol\":241:242  0 */\n  0x00\n    /* \"contracts/electionAntikode.sol\":215:242  uint public votingStart = 0 */\n  0x01\n  sstore\n    /* \"contracts/electionAntikode.sol\":272:273  0 */\n  0x00\n    /* \"contracts/electionAntikode.sol\":248:273  uint public votingEnd = 0 */\n  0x02\n  sstore\n    /* \"contracts/electionAntikode.sol\":1067:1547  constructor(string[] memory proposalNames) {... */\n  callvalue\n  dup1\n  iszero\n  tag_1\n  jumpi\n  0x00\n  dup1\n  revert\ntag_1:\n  pop\n  mload(0x40)\n  sub(codesize, bytecodeSize)\n  dup1\n  bytecodeSize\n  dup4\n  codecopy\n  dup2\n  dup2\n  add\n  0x40\n  mstore\n  dup2\n  add\n  swap1\n  tag_2\n  swap2\n  swap1\n  tag_3\n  jump\t// in\ntag_2:\n    /* \"contracts/electionAntikode.sol\":1134:1144  msg.sender */\n  caller\n    /* \"contracts/electionAntikode.sol\":1120:1131  chairperson */\n  0x00\n  dup1\n    /* \"contracts/electionAntikode.sol\":1120:1144  chairperson = msg.sender */\n  0x0100\n  exp\n  dup2\n  sload\n  dup2\n  0xffffffffffffffffffffffffffffffffffffffff\n  mul\n  not\n  and\n  swap1\n  dup4\n  0xffffffffffffffffffffffffffffffffffffffff\n  and\n  mul\n  or\n  swap1\n  sstore\n  pop\n    /* \"contracts/electionAntikode.sol\":1183:1184  1 */\n  0x01\n    /* \"contracts/electionAntikode.sol\":1154:1160  voters */\n  0x03\n    /* \"contracts/electionAntikode.sol\":1154:1173  voters[chairperson] */\n  0x00\n    /* \"contracts/electionAntikode.sol\":1161:1172  chairperson */\n  dup1\n  0x00\n  swap1\n  sload\n  swap1\n  0x0100\n  exp\n  swap1\n  div\n  0xffffffffffffffffffffffffffffffffffffffff\n  and\n    /* \"contracts/electionAntikode.sol\":1154:1173  voters[chairperson] */\n  0xffffffffffffffffffffffffffffffffffffffff\n  and\n  0xffffffffffffffffffffffffffffffffffffffff\n  and\n  dup2\n  mstore\n  0x20\n  add\n  swap1\n  dup2\n  mstore\n  0x20\n  add\n  0x00\n  keccak256\n    /* \"contracts/electionAntikode.sol\":1154:1180  voters[chairperson].weight */\n  0x00\n  add\n    /* \"contracts/electionAntikode.sol\":1154:1184  voters[chairperson].weight = 1 */\n  dup2\n  swap1\n  sstore\n  pop\n    /* \"contracts/electionAntikode.sol\":1200:1206  uint i */\n  0x00\n    /* \"contracts/electionAntikode.sol\":1195:1541  for (uint i = 0; i < proposalNames.length; i++) {... */\ntag_6:\n    /* \"contracts/electionAntikode.sol\":1216:1229  proposalNames */\n  dup2\n    /* \"contracts/electionAntikode.sol\":1216:1236  proposalNames.length */\n  mload\n    /* \"contracts/electionAntikode.sol\":1212:1213  i */\n  dup2\n    /* \"contracts/electionAntikode.sol\":1212:1236  i < proposalNames.length */\n  lt\n    /* \"contracts/electionAntikode.sol\":1195:1541  for (uint i = 0; i < proposalNames.length; i++) {... */\n  iszero\n  tag_7\n  jumpi\n    /* \"contracts/electionAntikode.sol\":1420:1429  proposals */\n  0x04\n    /* \"contracts/electionAntikode.sol\":1435:1529  Proposal({... */\n  mload(0x40)\n  dup1\n  0x40\n  add\n  0x40\n  mstore\n  dup1\n    /* \"contracts/electionAntikode.sol\":1468:1481  proposalNames */\n  dup5\n    /* \"contracts/electionAntikode.sol\":1482:1483  i */\n  dup5\n    /* \"contracts/electionAntikode.sol\":1468:1484  proposalNames[i] */\n  dup2\n  mload\n  dup2\n  lt\n  tag_9\n  jumpi\n  tag_10\n  tag_11\n  jump\t// in\ntag_10:\ntag_9:\n  0x20\n  mul\n  0x20\n  add\n  add\n  mload\n    /* \"contracts/electionAntikode.sol\":1435:1529  Proposal({... */\n  dup2\n  mstore\n  0x20\n  add\n    /* \"contracts/electionAntikode.sol\":1513:1514  0 */\n  0x00\n    /* \"contracts/electionAntikode.sol\":1435:1529  Proposal({... */\n  dup2\n  mstore\n  pop\n    /* \"contracts/electionAntikode.sol\":1420:1530  proposals.push(Proposal({... */\n  swap1\n  dup1\n  0x01\n  dup2\n  sload\n  add\n  dup1\n  dup3\n  sstore\n  dup1\n  swap2\n  pop\n  pop\n  0x01\n  swap1\n  sub\n  swap1\n  0x00\n  mstore\n  keccak256(0x00, 0x20)\n  swap1\n  0x02\n  mul\n  add\n  0x00\n  swap1\n  swap2\n  swap1\n  swap2\n  swap1\n  swap2\n  pop\n  0x00\n  dup3\n  add\n  mload\n  dup2\n  0x00\n  add\n  swap1\n  dup1\n  mload\n  swap1\n  0x20\n  add\n  swap1\n  tag_13\n  swap3\n  swap2\n  swap1\n  tag_14\n  jump\t// in\ntag_13:\n  pop\n  0x20\n  dup3\n  add\n  mload\n  dup2\n  0x01\n  add\n  sstore\n  pop\n  pop\n    /* \"contracts/electionAntikode.sol\":1238:1241  i++ */\n  dup1\n  dup1\n  tag_15\n  swap1\n  tag_16\n  jump\t// in\ntag_15:\n  swap2\n  pop\n  pop\n    /* \"contracts/electionAntikode.sol\":1195:1541  for (uint i = 0; i < proposalNames.length; i++) {... */\n  jump(tag_6)\ntag_7:\n  pop\n    /* \"contracts/electionAntikode.sol\":1067:1547  constructor(string[] memory proposalNames) {... */\n  pop\n    /* \"contracts/electionAntikode.sol\":157:4356  contract Ballot {... */\n  jump(tag_17)\ntag_14:\n  dup3\n  dup1\n  sload\n  tag_18\n  swap1\n  tag_19\n  jump\t// in\ntag_18:\n  swap1\n  0x00\n  mstore\n  keccak256(0x00, 0x20)\n  swap1\n  0x1f\n  add\n  0x20\n  swap1\n  div\n  dup2\n  add\n  swap3\n  dup3\n  tag_21\n  jumpi\n  0x00\n  dup6\n  sstore\n  jump(tag_20)\ntag_21:\n  dup3\n  0x1f\n  lt\n  tag_22\n  jumpi\n  dup1\n  mload\n  not(0xff)\n  and\n  dup4\n  dup1\n  add\n  or\n  dup6\n  sstore\n  jump(tag_20)\ntag_22:\n  dup3\n  dup1\n  add\n  0x01\n  add\n  dup6\n  sstore\n  dup3\n  iszero\n  tag_20\n  jumpi\n  swap2\n  dup3\n  add\ntag_23:\n  dup3\n  dup2\n  gt\n  iszero\n  tag_24\n  jumpi\n  dup3\n  mload\n  dup3\n  sstore\n  swap2\n  0x20\n  add\n  swap2\n  swap1\n  0x01\n  add\n  swap1\n  jump(tag_23)\ntag_24:\ntag_20:\n  pop\n  swap1\n  pop\n  tag_25\n  swap2\n  swap1\n  tag_26\n  jump\t// in\ntag_25:\n  pop\n  swap1\n  jump\t// out\ntag_26:\ntag_27:\n  dup1\n  dup3\n  gt\n  iszero\n  tag_28\n  jumpi\n  0x00\n  dup2\n  0x00\n  swap1\n  sstore\n  pop\n  0x01\n  add\n  jump(tag_27)\ntag_28:\n  pop\n  swap1\n  jump\t// out\n    /* \"#utility.yul\":7:82   */\ntag_29:\n    /* \"#utility.yul\":40:46   */\n  0x00\n    /* \"#utility.yul\":73:75   */\n  0x40\n    /* \"#utility.yul\":67:76   */\n  mload\n    /* \"#utility.yul\":57:76   */\n  swap1\n  pop\n    /* \"#utility.yul\":7:82   */\n  swap1\n  jump\t// out\n    /* \"#utility.yul\":88:205   */\ntag_30:\n    /* \"#utility.yul\":197:198   */\n  0x00\n    /* \"#utility.yul\":194:195   */\n  dup1\n    /* \"#utility.yul\":187:199   */\n  revert\n    /* \"#utility.yul\":211:328   */\ntag_31:\n    /* \"#utility.yul\":320:321   */\n  0x00\n    /* \"#utility.yul\":317:318   */\n  dup1\n    /* \"#utility.yul\":310:322   */\n  revert\n    /* \"#utility.yul\":334:451   */\ntag_32:\n    /* \"#utility.yul\":443:444   */\n  0x00\n    /* \"#utility.yul\":440:441   */\n  dup1\n    /* \"#utility.yul\":433:445   */\n  revert\n    /* \"#utility.yul\":457:559   */\ntag_33:\n    /* \"#utility.yul\":498:504   */\n  0x00\n    /* \"#utility.yul\":549:551   */\n  0x1f\n    /* \"#utility.yul\":545:552   */\n  not\n    /* \"#utility.yul\":540:542   */\n  0x1f\n    /* \"#utility.yul\":533:538   */\n  dup4\n    /* \"#utility.yul\":529:543   */\n  add\n    /* \"#utility.yul\":525:553   */\n  and\n    /* \"#utility.yul\":515:553   */\n  swap1\n  pop\n    /* \"#utility.yul\":457:559   */\n  swap2\n  swap1\n  pop\n  jump\t// out\n    /* \"#utility.yul\":565:745   */\ntag_34:\n    /* \"#utility.yul\":613:690   */\n  0x4e487b7100000000000000000000000000000000000000000000000000000000\n    /* \"#utility.yul\":610:611   */\n  0x00\n    /* \"#utility.yul\":603:691   */\n  mstore\n    /* \"#utility.yul\":710:714   */\n  0x41\n    /* \"#utility.yul\":707:708   */\n  0x04\n    /* \"#utility.yul\":700:715   */\n  mstore\n    /* \"#utility.yul\":734:738   */\n  0x24\n    /* \"#utility.yul\":731:732   */\n  0x00\n    /* \"#utility.yul\":724:739   */\n  revert\n    /* \"#utility.yul\":751:1032   */\ntag_35:\n    /* \"#utility.yul\":834:861   */\n  tag_57\n    /* \"#utility.yul\":856:860   */\n  dup3\n    /* \"#utility.yul\":834:861   */\n  tag_33\n  jump\t// in\ntag_57:\n    /* \"#utility.yul\":826:832   */\n  dup2\n    /* \"#utility.yul\":822:862   */\n  add\n    /* \"#utility.yul\":964:970   */\n  dup2\n    /* \"#utility.yul\":952:962   */\n  dup2\n    /* \"#utility.yul\":949:971   */\n  lt\n    /* \"#utility.yul\":928:946   */\n  0xffffffffffffffff\n    /* \"#utility.yul\":916:926   */\n  dup3\n    /* \"#utility.yul\":913:947   */\n  gt\n    /* \"#utility.yul\":910:972   */\n  or\n    /* \"#utility.yul\":907:995   */\n  iszero\n  tag_58\n  jumpi\n    /* \"#utility.yul\":975:993   */\n  tag_59\n  tag_34\n  jump\t// in\ntag_59:\n    /* \"#utility.yul\":907:995   */\ntag_58:\n    /* \"#utility.yul\":1015:1025   */\n  dup1\n    /* \"#utility.yul\":1011:1013   */\n  0x40\n    /* \"#utility.yul\":1004:1026   */\n  mstore\n    /* \"#utility.yul\":794:1032   */\n  pop\n    /* \"#utility.yul\":751:1032   */\n  pop\n  pop\n  jump\t// out\n    /* \"#utility.yul\":1038:1167   */\ntag_36:\n    /* \"#utility.yul\":1072:1078   */\n  0x00\n    /* \"#utility.yul\":1099:1119   */\n  tag_61\n  tag_29\n  jump\t// in\ntag_61:\n    /* \"#utility.yul\":1089:1119   */\n  swap1\n  pop\n    /* \"#utility.yul\":1128:1161   */\n  tag_62\n    /* \"#utility.yul\":1156:1160   */\n  dup3\n    /* \"#utility.yul\":1148:1154   */\n  dup3\n    /* \"#utility.yul\":1128:1161   */\n  tag_35\n  jump\t// in\ntag_62:\n    /* \"#utility.yul\":1038:1167   */\n  swap2\n  swap1\n  pop\n  jump\t// out\n    /* \"#utility.yul\":1173:1494   */\ntag_37:\n    /* \"#utility.yul\":1260:1264   */\n  0x00\n    /* \"#utility.yul\":1350:1368   */\n  0xffffffffffffffff\n    /* \"#utility.yul\":1342:1348   */\n  dup3\n    /* \"#utility.yul\":1339:1369   */\n  gt\n    /* \"#utility.yul\":1336:1392   */\n  iszero\n  tag_64\n  jumpi\n    /* \"#utility.yul\":1372:1390   */\n  tag_65\n  tag_34\n  jump\t// in\ntag_65:\n    /* \"#utility.yul\":1336:1392   */\ntag_64:\n    /* \"#utility.yul\":1422:1426   */\n  0x20\n    /* \"#utility.yul\":1414:1420   */\n  dup3\n    /* \"#utility.yul\":1410:1427   */\n  mul\n    /* \"#utility.yul\":1402:1427   */\n  swap1\n  pop\n    /* \"#utility.yul\":1482:1486   */\n  0x20\n    /* \"#utility.yul\":1476:1480   */\n  dup2\n    /* \"#utility.yul\":1472:1487   */\n  add\n    /* \"#utility.yul\":1464:1487   */\n  swap1\n  pop\n    /* \"#utility.yul\":1173:1494   */\n  swap2\n  swap1\n  pop\n  jump\t// out\n    /* \"#utility.yul\":1500:1617   */\ntag_38:\n    /* \"#utility.yul\":1609:1610   */\n  0x00\n    /* \"#utility.yul\":1606:1607   */\n  dup1\n    /* \"#utility.yul\":1599:1611   */\n  revert\n    /* \"#utility.yul\":1623:1740   */\ntag_39:\n    /* \"#utility.yul\":1732:1733   */\n  0x00\n    /* \"#utility.yul\":1729:1730   */\n  dup1\n    /* \"#utility.yul\":1722:1734   */\n  revert\n    /* \"#utility.yul\":1746:2054   */\ntag_40:\n    /* \"#utility.yul\":1808:1812   */\n  0x00\n    /* \"#utility.yul\":1898:1916   */\n  0xffffffffffffffff\n    /* \"#utility.yul\":1890:1896   */\n  dup3\n    /* \"#utility.yul\":1887:1917   */\n  gt\n    /* \"#utility.yul\":1884:1940   */\n  iszero\n  tag_69\n  jumpi\n    /* \"#utility.yul\":1920:1938   */\n  tag_70\n  tag_34\n  jump\t// in\ntag_70:\n    /* \"#utility.yul\":1884:1940   */\ntag_69:\n    /* \"#utility.yul\":1958:1987   */\n  tag_71\n    /* \"#utility.yul\":1980:1986   */\n  dup3\n    /* \"#utility.yul\":1958:1987   */\n  tag_33\n  jump\t// in\ntag_71:\n    /* \"#utility.yul\":1950:1987   */\n  swap1\n  pop\n    /* \"#utility.yul\":2042:2046   */\n  0x20\n    /* \"#utility.yul\":2036:2040   */\n  dup2\n    /* \"#utility.yul\":2032:2047   */\n  add\n    /* \"#utility.yul\":2024:2047   */\n  swap1\n  pop\n    /* \"#utility.yul\":1746:2054   */\n  swap2\n  swap1\n  pop\n  jump\t// out\n    /* \"#utility.yul\":2060:2367   */\ntag_41:\n    /* \"#utility.yul\":2128:2129   */\n  0x00\n    /* \"#utility.yul\":2138:2251   */\ntag_73:\n    /* \"#utility.yul\":2152:2158   */\n  dup4\n    /* \"#utility.yul\":2149:2150   */\n  dup2\n    /* \"#utility.yul\":2146:2159   */\n  lt\n    /* \"#utility.yul\":2138:2251   */\n  iszero\n  tag_75\n  jumpi\n    /* \"#utility.yul\":2237:2238   */\n  dup1\n    /* \"#utility.yul\":2232:2235   */\n  dup3\n    /* \"#utility.yul\":2228:2239   */\n  add\n    /* \"#utility.yul\":2222:2240   */\n  mload\n    /* \"#utility.yul\":2218:2219   */\n  dup2\n    /* \"#utility.yul\":2213:2216   */\n  dup5\n    /* \"#utility.yul\":2209:2220   */\n  add\n    /* \"#utility.yul\":2202:2241   */\n  mstore\n    /* \"#utility.yul\":2174:2176   */\n  0x20\n    /* \"#utility.yul\":2171:2172   */\n  dup2\n    /* \"#utility.yul\":2167:2177   */\n  add\n    /* \"#utility.yul\":2162:2177   */\n  swap1\n  pop\n    /* \"#utility.yul\":2138:2251   */\n  jump(tag_73)\ntag_75:\n    /* \"#utility.yul\":2269:2275   */\n  dup4\n    /* \"#utility.yul\":2266:2267   */\n  dup2\n    /* \"#utility.yul\":2263:2276   */\n  gt\n    /* \"#utility.yul\":2260:2361   */\n  iszero\n  tag_76\n  jumpi\n    /* \"#utility.yul\":2349:2350   */\n  0x00\n    /* \"#utility.yul\":2340:2346   */\n  dup5\n    /* \"#utility.yul\":2335:2338   */\n  dup5\n    /* \"#utility.yul\":2331:2347   */\n  add\n    /* \"#utility.yul\":2324:2351   */\n  mstore\n    /* \"#utility.yul\":2260:2361   */\ntag_76:\n    /* \"#utility.yul\":2109:2367   */\n  pop\n    /* \"#utility.yul\":2060:2367   */\n  pop\n  pop\n  pop\n  jump\t// out\n    /* \"#utility.yul\":2373:2794   */\ntag_42:\n    /* \"#utility.yul\":2462:2467   */\n  0x00\n    /* \"#utility.yul\":2487:2553   */\n  tag_78\n    /* \"#utility.yul\":2503:2552   */\n  tag_79\n    /* \"#utility.yul\":2545:2551   */\n  dup5\n    /* \"#utility.yul\":2503:2552   */\n  tag_40\n  jump\t// in\ntag_79:\n    /* \"#utility.yul\":2487:2553   */\n  tag_36\n  jump\t// in\ntag_78:\n    /* \"#utility.yul\":2478:2553   */\n  swap1\n  pop\n    /* \"#utility.yul\":2576:2582   */\n  dup3\n    /* \"#utility.yul\":2569:2574   */\n  dup2\n    /* \"#utility.yul\":2562:2583   */\n  mstore\n    /* \"#utility.yul\":2614:2618   */\n  0x20\n    /* \"#utility.yul\":2607:2612   */\n  dup2\n    /* \"#utility.yul\":2603:2619   */\n  add\n    /* \"#utility.yul\":2652:2655   */\n  dup5\n    /* \"#utility.yul\":2643:2649   */\n  dup5\n    /* \"#utility.yul\":2638:2641   */\n  dup5\n    /* \"#utility.yul\":2634:2650   */\n  add\n    /* \"#utility.yul\":2631:2656   */\n  gt\n    /* \"#utility.yul\":2628:2740   */\n  iszero\n  tag_80\n  jumpi\n    /* \"#utility.yul\":2659:2738   */\n  tag_81\n  tag_39\n  jump\t// in\ntag_81:\n    /* \"#utility.yul\":2628:2740   */\ntag_80:\n    /* \"#utility.yul\":2749:2788   */\n  tag_82\n    /* \"#utility.yul\":2781:2787   */\n  dup5\n    /* \"#utility.yul\":2776:2779   */\n  dup3\n    /* \"#utility.yul\":2771:2774   */\n  dup6\n    /* \"#utility.yul\":2749:2788   */\n  tag_41\n  jump\t// in\ntag_82:\n    /* \"#utility.yul\":2468:2794   */\n  pop\n    /* \"#utility.yul\":2373:2794   */\n  swap4\n  swap3\n  pop\n  pop\n  pop\n  jump\t// out\n    /* \"#utility.yul\":2814:3169   */\ntag_43:\n    /* \"#utility.yul\":2881:2886   */\n  0x00\n    /* \"#utility.yul\":2930:2933   */\n  dup3\n    /* \"#utility.yul\":2923:2927   */\n  0x1f\n    /* \"#utility.yul\":2915:2921   */\n  dup4\n    /* \"#utility.yul\":2911:2928   */\n  add\n    /* \"#utility.yul\":2907:2934   */\n  slt\n    /* \"#utility.yul\":2897:3019   */\n  tag_84\n  jumpi\n    /* \"#utility.yul\":2938:3017   */\n  tag_85\n  tag_32\n  jump\t// in\ntag_85:\n    /* \"#utility.yul\":2897:3019   */\ntag_84:\n    /* \"#utility.yul\":3048:3054   */\n  dup2\n    /* \"#utility.yul\":3042:3055   */\n  mload\n    /* \"#utility.yul\":3073:3163   */\n  tag_86\n    /* \"#utility.yul\":3159:3162   */\n  dup5\n    /* \"#utility.yul\":3151:3157   */\n  dup3\n    /* \"#utility.yul\":3144:3148   */\n  0x20\n    /* \"#utility.yul\":3136:3142   */\n  dup7\n    /* \"#utility.yul\":3132:3149   */\n  add\n    /* \"#utility.yul\":3073:3163   */\n  tag_42\n  jump\t// in\ntag_86:\n    /* \"#utility.yul\":3064:3163   */\n  swap2\n  pop\n    /* \"#utility.yul\":2887:3169   */\n  pop\n    /* \"#utility.yul\":2814:3169   */\n  swap3\n  swap2\n  pop\n  pop\n  jump\t// out\n    /* \"#utility.yul\":3191:4151   */\ntag_44:\n    /* \"#utility.yul\":3308:3313   */\n  0x00\n    /* \"#utility.yul\":3333:3424   */\n  tag_88\n    /* \"#utility.yul\":3349:3423   */\n  tag_89\n    /* \"#utility.yul\":3416:3422   */\n  dup5\n    /* \"#utility.yul\":3349:3423   */\n  tag_37\n  jump\t// in\ntag_89:\n    /* \"#utility.yul\":3333:3424   */\n  tag_36\n  jump\t// in\ntag_88:\n    /* \"#utility.yul\":3324:3424   */\n  swap1\n  pop\n    /* \"#utility.yul\":3444:3449   */\n  dup1\n    /* \"#utility.yul\":3473:3479   */\n  dup4\n    /* \"#utility.yul\":3466:3471   */\n  dup3\n    /* \"#utility.yul\":3459:3480   */\n  mstore\n    /* \"#utility.yul\":3507:3511   */\n  0x20\n    /* \"#utility.yul\":3500:3505   */\n  dup3\n    /* \"#utility.yul\":3496:3512   */\n  add\n    /* \"#utility.yul\":3489:3512   */\n  swap1\n  pop\n    /* \"#utility.yul\":3560:3564   */\n  0x20\n    /* \"#utility.yul\":3552:3558   */\n  dup5\n    /* \"#utility.yul\":3548:3565   */\n  mul\n    /* \"#utility.yul\":3540:3546   */\n  dup4\n    /* \"#utility.yul\":3536:3566   */\n  add\n    /* \"#utility.yul\":3589:3592   */\n  dup6\n    /* \"#utility.yul\":3581:3587   */\n  dup2\n    /* \"#utility.yul\":3578:3593   */\n  gt\n    /* \"#utility.yul\":3575:3697   */\n  iszero\n  tag_90\n  jumpi\n    /* \"#utility.yul\":3608:3687   */\n  tag_91\n  tag_38\n  jump\t// in\ntag_91:\n    /* \"#utility.yul\":3575:3697   */\ntag_90:\n    /* \"#utility.yul\":3723:3729   */\n  dup4\n    /* \"#utility.yul\":3706:4145   */\ntag_92:\n    /* \"#utility.yul\":3740:3746   */\n  dup2\n    /* \"#utility.yul\":3735:3738   */\n  dup2\n    /* \"#utility.yul\":3732:3747   */\n  lt\n    /* \"#utility.yul\":3706:4145   */\n  iszero\n  tag_94\n  jumpi\n    /* \"#utility.yul\":3822:3825   */\n  dup1\n    /* \"#utility.yul\":3816:3826   */\n  mload\n    /* \"#utility.yul\":3858:3876   */\n  0xffffffffffffffff\n    /* \"#utility.yul\":3845:3856   */\n  dup2\n    /* \"#utility.yul\":3842:3877   */\n  gt\n    /* \"#utility.yul\":3839:3961   */\n  iszero\n  tag_95\n  jumpi\n    /* \"#utility.yul\":3880:3959   */\n  tag_96\n  tag_32\n  jump\t// in\ntag_96:\n    /* \"#utility.yul\":3839:3961   */\ntag_95:\n    /* \"#utility.yul\":4004:4015   */\n  dup1\n    /* \"#utility.yul\":3996:4002   */\n  dup7\n    /* \"#utility.yul\":3992:4016   */\n  add\n    /* \"#utility.yul\":4042:4100   */\n  tag_97\n    /* \"#utility.yul\":4096:4099   */\n  dup10\n    /* \"#utility.yul\":4084:4094   */\n  dup3\n    /* \"#utility.yul\":4042:4100   */\n  tag_43\n  jump\t// in\ntag_97:\n    /* \"#utility.yul\":4037:4040   */\n  dup6\n    /* \"#utility.yul\":4030:4101   */\n  mstore\n    /* \"#utility.yul\":4130:4134   */\n  0x20\n    /* \"#utility.yul\":4125:4128   */\n  dup6\n    /* \"#utility.yul\":4121:4135   */\n  add\n    /* \"#utility.yul\":4114:4135   */\n  swap5\n  pop\n    /* \"#utility.yul\":3782:4145   */\n  pop\n  pop\n    /* \"#utility.yul\":3766:3770   */\n  0x20\n    /* \"#utility.yul\":3761:3764   */\n  dup2\n    /* \"#utility.yul\":3757:3771   */\n  add\n    /* \"#utility.yul\":3750:3771   */\n  swap1\n  pop\n    /* \"#utility.yul\":3706:4145   */\n  jump(tag_92)\ntag_94:\n    /* \"#utility.yul\":3710:3731   */\n  pop\n    /* \"#utility.yul\":3314:4151   */\n  pop\n  pop\n    /* \"#utility.yul\":3191:4151   */\n  swap4\n  swap3\n  pop\n  pop\n  pop\n  jump\t// out\n    /* \"#utility.yul\":4173:4578   */\ntag_45:\n    /* \"#utility.yul\":4265:4270   */\n  0x00\n    /* \"#utility.yul\":4314:4317   */\n  dup3\n    /* \"#utility.yul\":4307:4311   */\n  0x1f\n    /* \"#utility.yul\":4299:4305   */\n  dup4\n    /* \"#utility.yul\":4295:4312   */\n  add\n    /* \"#utility.yul\":4291:4318   */\n  slt\n    /* \"#utility.yul\":4281:4403   */\n  tag_99\n  jumpi\n    /* \"#utility.yul\":4322:4401   */\n  tag_100\n  tag_32\n  jump\t// in\ntag_100:\n    /* \"#utility.yul\":4281:4403   */\ntag_99:\n    /* \"#utility.yul\":4432:4438   */\n  dup2\n    /* \"#utility.yul\":4426:4439   */\n  mload\n    /* \"#utility.yul\":4457:4572   */\n  tag_101\n    /* \"#utility.yul\":4568:4571   */\n  dup5\n    /* \"#utility.yul\":4560:4566   */\n  dup3\n    /* \"#utility.yul\":4553:4557   */\n  0x20\n    /* \"#utility.yul\":4545:4551   */\n  dup7\n    /* \"#utility.yul\":4541:4558   */\n  add\n    /* \"#utility.yul\":4457:4572   */\n  tag_44\n  jump\t// in\ntag_101:\n    /* \"#utility.yul\":4448:4572   */\n  swap2\n  pop\n    /* \"#utility.yul\":4271:4578   */\n  pop\n    /* \"#utility.yul\":4173:4578   */\n  swap3\n  swap2\n  pop\n  pop\n  jump\t// out\n    /* \"#utility.yul\":4584:5158   */\ntag_3:\n    /* \"#utility.yul\":4689:4695   */\n  0x00\n    /* \"#utility.yul\":4738:4740   */\n  0x20\n    /* \"#utility.yul\":4726:4735   */\n  dup3\n    /* \"#utility.yul\":4717:4724   */\n  dup5\n    /* \"#utility.yul\":4713:4736   */\n  sub\n    /* \"#utility.yul\":4709:4741   */\n  slt\n    /* \"#utility.yul\":4706:4825   */\n  iszero\n  tag_103\n  jumpi\n    /* \"#utility.yul\":4744:4823   */\n  tag_104\n  tag_30\n  jump\t// in\ntag_104:\n    /* \"#utility.yul\":4706:4825   */\ntag_103:\n    /* \"#utility.yul\":4885:4886   */\n  0x00\n    /* \"#utility.yul\":4874:4883   */\n  dup3\n    /* \"#utility.yul\":4870:4887   */\n  add\n    /* \"#utility.yul\":4864:4888   */\n  mload\n    /* \"#utility.yul\":4915:4933   */\n  0xffffffffffffffff\n    /* \"#utility.yul\":4907:4913   */\n  dup2\n    /* \"#utility.yul\":4904:4934   */\n  gt\n    /* \"#utility.yul\":4901:5018   */\n  iszero\n  tag_105\n  jumpi\n    /* \"#utility.yul\":4937:5016   */\n  tag_106\n  tag_31\n  jump\t// in\ntag_106:\n    /* \"#utility.yul\":4901:5018   */\ntag_105:\n    /* \"#utility.yul\":5042:5141   */\n  tag_107\n    /* \"#utility.yul\":5133:5140   */\n  dup5\n    /* \"#utility.yul\":5124:5130   */\n  dup3\n    /* \"#utility.yul\":5113:5122   */\n  dup6\n    /* \"#utility.yul\":5109:5131   */\n  add\n    /* \"#utility.yul\":5042:5141   */\n  tag_45\n  jump\t// in\ntag_107:\n    /* \"#utility.yul\":5032:5141   */\n  swap2\n  pop\n    /* \"#utility.yul\":4835:5151   */\n  pop\n    /* \"#utility.yul\":4584:5158   */\n  swap3\n  swap2\n  pop\n  pop\n  jump\t// out\n    /* \"#utility.yul\":5164:5344   */\ntag_11:\n    /* \"#utility.yul\":5212:5289   */\n  0x4e487b7100000000000000000000000000000000000000000000000000000000\n    /* \"#utility.yul\":5209:5210   */\n  0x00\n    /* \"#utility.yul\":5202:5290   */\n  mstore\n    /* \"#utility.yul\":5309:5313   */\n  0x32\n    /* \"#utility.yul\":5306:5307   */\n  0x04\n    /* \"#utility.yul\":5299:5314   */\n  mstore\n    /* \"#utility.yul\":5333:5337   */\n  0x24\n    /* \"#utility.yul\":5330:5331   */\n  0x00\n    /* \"#utility.yul\":5323:5338   */\n  revert\n    /* \"#utility.yul\":5350:5530   */\ntag_46:\n    /* \"#utility.yul\":5398:5475   */\n  0x4e487b7100000000000000000000000000000000000000000000000000000000\n    /* \"#utility.yul\":5395:5396   */\n  0x00\n    /* \"#utility.yul\":5388:5476   */\n  mstore\n    /* \"#utility.yul\":5495:5499   */\n  0x11\n    /* \"#utility.yul\":5492:5493   */\n  0x04\n    /* \"#utility.yul\":5485:5500   */\n  mstore\n    /* \"#utility.yul\":5519:5523   */\n  0x24\n    /* \"#utility.yul\":5516:5517   */\n  0x00\n    /* \"#utility.yul\":5509:5524   */\n  revert\n    /* \"#utility.yul\":5536:5613   */\ntag_47:\n    /* \"#utility.yul\":5573:5580   */\n  0x00\n    /* \"#utility.yul\":5602:5607   */\n  dup2\n    /* \"#utility.yul\":5591:5607   */\n  swap1\n  pop\n    /* \"#utility.yul\":5536:5613   */\n  swap2\n  swap1\n  pop\n  jump\t// out\n    /* \"#utility.yul\":5619:5852   */\ntag_16:\n    /* \"#utility.yul\":5658:5661   */\n  0x00\n    /* \"#utility.yul\":5681:5705   */\n  tag_112\n    /* \"#utility.yul\":5699:5704   */\n  dup3\n    /* \"#utility.yul\":5681:5705   */\n  tag_47\n  jump\t// in\ntag_112:\n    /* \"#utility.yul\":5672:5705   */\n  swap2\n  pop\n    /* \"#utility.yul\":5727:5793   */\n  0xffffffffffffffffffffffffffffffffffffffffffffffffffffffffffffffff\n    /* \"#utility.yul\":5720:5725   */\n  dup3\n    /* \"#utility.yul\":5717:5794   */\n  sub\n    /* \"#utility.yul\":5714:5817   */\n  tag_113\n  jumpi\n    /* \"#utility.yul\":5797:5815   */\n  tag_114\n  tag_46\n  jump\t// in\ntag_114:\n    /* \"#utility.yul\":5714:5817   */\ntag_113:\n    /* \"#utility.yul\":5844:5845   */\n  0x01\n    /* \"#utility.yul\":5837:5842   */\n  dup3\n    /* \"#utility.yul\":5833:5846   */\n  add\n    /* \"#utility.yul\":5826:5846   */\n  swap1\n  pop\n    /* \"#utility.yul\":5619:5852   */\n  swap2\n  swap1\n  pop\n  jump\t// out\n    /* \"#utility.yul\":5858:6038   */\ntag_48:\n    /* \"#utility.yul\":5906:5983   */\n  0x4e487b7100000000000000000000000000000000000000000000000000000000\n    /* \"#utility.yul\":5903:5904   */\n  0x00\n    /* \"#utility.yul\":5896:5984   */\n  mstore\n    /* \"#utility.yul\":6003:6007   */\n  0x22\n    /* \"#utility.yul\":6000:6001   */\n  0x04\n    /* \"#utility.yul\":5993:6008   */\n  mstore\n    /* \"#utility.yul\":6027:6031   */\n  0x24\n    /* \"#utility.yul\":6024:6025   */\n  0x00\n    /* \"#utility.yul\":6017:6032   */\n  revert\n    /* \"#utility.yul\":6044:6364   */\ntag_19:\n    /* \"#utility.yul\":6088:6094   */\n  0x00\n    /* \"#utility.yul\":6125:6126   */\n  0x02\n    /* \"#utility.yul\":6119:6123   */\n  dup3\n    /* \"#utility.yul\":6115:6127   */\n  div\n    /* \"#utility.yul\":6105:6127   */\n  swap1\n  pop\n    /* \"#utility.yul\":6172:6173   */\n  0x01\n    /* \"#utility.yul\":6166:6170   */\n  dup3\n    /* \"#utility.yul\":6162:6174   */\n  and\n    /* \"#utility.yul\":6193:6211   */\n  dup1\n    /* \"#utility.yul\":6183:6264   */\n  tag_117\n  jumpi\n    /* \"#utility.yul\":6249:6253   */\n  0x7f\n    /* \"#utility.yul\":6241:6247   */\n  dup3\n    /* \"#utility.yul\":6237:6254   */\n  and\n    /* \"#utility.yul\":6227:6254   */\n  swap2\n  pop\n    /* \"#utility.yul\":6183:6264   */\ntag_117:\n    /* \"#utility.yul\":6311:6313   */\n  0x20\n    /* \"#utility.yul\":6303:6309   */\n  dup3\n    /* \"#utility.yul\":6300:6314   */\n  lt\n    /* \"#utility.yul\":6280:6298   */\n  dup2\n    /* \"#utility.yul\":6277:6315   */\n  sub\n    /* \"#utility.yul\":6274:6358   */\n  tag_118\n  jumpi\n    /* \"#utility.yul\":6330:6348   */\n  tag_119\n  tag_48\n  jump\t// in\ntag_119:\n    /* \"#utility.yul\":6274:6358   */\ntag_118:\n    /* \"#utility.yul\":6095:6364   */\n  pop\n    /* \"#utility.yul\":6044:6364   */\n  swap2\n  swap1\n  pop\n  jump\t// out\n    /* \"contracts/electionAntikode.sol\":157:4356  contract Ballot {... */\ntag_17:\n  dataSize(sub_0)\n  dup1\n  dataOffset(sub_0)\n  0x00\n  codecopy\n  0x00\n  return\nstop\n\nsub_0: assembly {\n        /* \"contracts/electionAntikode.sol\":157:4356  contract Ballot {... */\n      mstore(0x40, 0x80)\n      callvalue\n      dup1\n      iszero\n      tag_1\n      jumpi\n      0x00\n      dup1\n      revert\n    tag_1:\n      pop\n      jumpi(tag_2, lt(calldatasize, 0x04))\n      shr(0xe0, calldataload(0x00))\n      dup1\n      0x85a38635\n      gt\n      tag_13\n      jumpi\n      dup1\n      0x85a38635\n      eq\n      tag_8\n      jumpi\n      dup1\n      0x9e7b8d61\n      eq\n      tag_9\n      jumpi\n      dup1\n      0xa3ec138d\n      eq\n      tag_10\n      jumpi\n      dup1\n      0xacf7b570\n      eq\n      tag_11\n      jumpi\n      dup1\n      0xdfbf53ae\n      eq\n      tag_12\n      jumpi\n      jump(tag_2)\n    tag_13:\n      dup1\n      0x0121b93f\n      eq\n      tag_3\n      jumpi\n      dup1\n      0x013cf08b\n      eq\n      tag_4\n      jumpi\n      dup1\n      0x101158af\n      eq\n      tag_5\n      jumpi\n      dup1\n      0x2e4176cf\n      eq\n      tag_6\n      jumpi\n      dup1\n      0x609ff1bd\n      eq\n      tag_7\n      jumpi\n    tag_2:\n      0x00\n      dup1\n      revert\n        /* \"contracts/electionAntikode.sol\":2755:3391  function vote(uint proposal) public {... */\n    tag_3:\n      tag_14\n      0x04\n      dup1\n      calldatasize\n      sub\n      dup2\n      add\n      swap1\n      tag_15\n      swap2\n      swap1\n      tag_16\n      jump\t// in\n    tag_15:\n      tag_17\n      jump\t// in\n    tag_14:\n      stop\n        /* \"contracts/electionAntikode.sol\":903:930  Proposal[] public proposals */\n    tag_4:\n      tag_18\n      0x04\n      dup1\n      calldatasize\n      sub\n      dup2\n      add\n      swap1\n      tag_19\n      swap2\n      swap1\n      tag_16\n      jump\t// in\n    tag_19:\n      tag_20\n      jump\t// in\n    tag_18:\n      mload(0x40)\n      tag_21\n      swap3\n      swap2\n      swap1\n      tag_22\n      jump\t// in\n    tag_21:\n      mload(0x40)\n      dup1\n      swap2\n      sub\n      swap1\n      return\n        /* \"contracts/electionAntikode.sol\":215:242  uint public votingStart = 0 */\n    tag_5:\n      tag_23\n      tag_24\n      jump\t// in\n    tag_23:\n      mload(0x40)\n      tag_25\n      swap2\n      swap1\n      tag_26\n      jump\t// in\n    tag_25:\n      mload(0x40)\n      dup1\n      swap2\n      sub\n      swap1\n      return\n        /* \"contracts/electionAntikode.sol\":183:209  address public chairperson */\n    tag_6:\n      tag_27\n      tag_28\n      jump\t// in\n    tag_27:\n      mload(0x40)\n      tag_29\n      swap2\n      swap1\n      tag_30\n      jump\t// in\n    tag_29:\n      mload(0x40)\n      dup1\n      swap2\n      sub\n      swap1\n      return\n        /* \"contracts/electionAntikode.sol\":3577:3942  function winningProposal() public view... */\n    tag_7:\n      tag_31\n      tag_32\n      jump\t// in\n    tag_31:\n      mload(0x40)\n      tag_33\n      swap2\n      swap1\n      tag_26\n      jump\t// in\n    tag_33:\n      mload(0x40)\n      dup1\n      swap2\n      sub\n      swap1\n      return\n        /* \"contracts/electionAntikode.sol\":248:273  uint public votingEnd = 0 */\n    tag_8:\n      tag_34\n      tag_35\n      jump\t// in\n    tag_34:\n      mload(0x40)\n      tag_36\n      swap2\n      swap1\n      tag_26\n      jump\t// in\n    tag_36:\n      mload(0x40)\n      dup1\n      swap2\n      sub\n      swap1\n      return\n        /* \"contracts/electionAntikode.sol\":1707:2062  function giveRightToVote(address voter) public {... */\n    tag_9:\n      tag_37\n      0x04\n      dup1\n      calldatasize\n      sub\n      dup2\n      add\n      swap1\n      tag_38\n      swap2\n      swap1\n      tag_39\n      jump\t// in\n    tag_38:\n      tag_40\n      jump\t// in\n    tag_37:\n      stop\n        /* \"contracts/electionAntikode.sol\":857:896  mapping(address => Voter) public voters */\n    tag_10:\n      tag_41\n      0x04\n      dup1\n      calldatasize\n      sub\n      dup2\n      add\n      swap1\n      tag_42\n      swap2\n      swap1\n      tag_39\n      jump\t// in\n    tag_42:\n      tag_43\n      jump\t// in\n    tag_41:\n      mload(0x40)\n      tag_44\n      swap4\n      swap3\n      swap2\n      swap1\n      tag_45\n      jump\t// in\n    tag_44:\n      mload(0x40)\n      dup1\n      swap2\n      sub\n      swap1\n      return\n        /* \"contracts/electionAntikode.sol\":2068:2567  function definePeriod (uint startPeriod, uint endPeriod) public {... */\n    tag_11:\n      tag_46\n      0x04\n      dup1\n      calldatasize\n      sub\n      dup2\n      add\n      swap1\n      tag_47\n      swap2\n      swap1\n      tag_48\n      jump\t// in\n    tag_47:\n      tag_49\n      jump\t// in\n    tag_46:\n      stop\n        /* \"contracts/electionAntikode.sol\":4133:4349  function winner() public view returns (string memory winnerName_, uint winnerCount_)... */\n    tag_12:\n      tag_50\n      tag_51\n      jump\t// in\n    tag_50:\n      mload(0x40)\n      tag_52\n      swap3\n      swap2\n      swap1\n      tag_22\n      jump\t// in\n    tag_52:\n      mload(0x40)\n      dup1\n      swap2\n      sub\n      swap1\n      return\n        /* \"contracts/electionAntikode.sol\":2755:3391  function vote(uint proposal) public {... */\n    tag_17:\n        /* \"contracts/electionAntikode.sol\":2801:2821  Voter storage sender */\n      0x00\n        /* \"contracts/electionAntikode.sol\":2824:2830  voters */\n      0x03\n        /* \"contracts/electionAntikode.sol\":2824:2842  voters[msg.sender] */\n      0x00\n        /* \"contracts/electionAntikode.sol\":2831:2841  msg.sender */\n      caller\n        /* \"contracts/electionAntikode.sol\":2824:2842  voters[msg.sender] */\n      0xffffffffffffffffffffffffffffffffffffffff\n      and\n      0xffffffffffffffffffffffffffffffffffffffff\n      and\n      dup2\n      mstore\n      0x20\n      add\n      swap1\n      dup2\n      mstore\n      0x20\n      add\n      0x00\n      keccak256\n        /* \"contracts/electionAntikode.sol\":2801:2842  Voter storage sender = voters[msg.sender] */\n      swap1\n      pop\n        /* \"contracts/electionAntikode.sol\":2875:2876  0 */\n      0x00\n        /* \"contracts/electionAntikode.sol\":2860:2871  votingStart */\n      sload(0x01)\n        /* \"contracts/electionAntikode.sol\":2860:2876  votingStart != 0 */\n      eq\n      iszero\n        /* \"contracts/electionAntikode.sol\":2860:2910  votingStart != 0 && votingStart <= block.timestamp */\n      dup1\n      iszero\n      tag_54\n      jumpi\n      pop\n        /* \"contracts/electionAntikode.sol\":2895:2910  block.timestamp */\n      timestamp\n        /* \"contracts/electionAntikode.sol\":2880:2891  votingStart */\n      sload(0x01)\n        /* \"contracts/electionAntikode.sol\":2880:2910  votingStart <= block.timestamp */\n      gt\n      iszero\n        /* \"contracts/electionAntikode.sol\":2860:2910  votingStart != 0 && votingStart <= block.timestamp */\n    tag_54:\n        /* \"contracts/electionAntikode.sol\":2852:2936  require(votingStart != 0 && votingStart <= block.timestamp, \"Vote not started yet!\") */\n      tag_55\n      jumpi\n      mload(0x40)\n      0x08c379a000000000000000000000000000000000000000000000000000000000\n      dup2\n      mstore\n      0x04\n      add\n      tag_56\n      swap1\n      tag_57\n      jump\t// in\n    tag_56:\n      mload(0x40)\n      dup1\n      swap2\n      sub\n      swap1\n      revert\n    tag_55:\n        /* \"contracts/electionAntikode.sol\":2967:2968  0 */\n      0x00\n        /* \"contracts/electionAntikode.sol\":2954:2963  votingEnd */\n      sload(0x02)\n        /* \"contracts/electionAntikode.sol\":2954:2968  votingEnd != 0 */\n      eq\n      iszero\n        /* \"contracts/electionAntikode.sol\":2954:3000  votingEnd != 0 && votingEnd >= block.timestamp */\n      dup1\n      iszero\n      tag_58\n      jumpi\n      pop\n        /* \"contracts/electionAntikode.sol\":2985:3000  block.timestamp */\n      timestamp\n        /* \"contracts/electionAntikode.sol\":2972:2981  votingEnd */\n      sload(0x02)\n        /* \"contracts/electionAntikode.sol\":2972:3000  votingEnd >= block.timestamp */\n      lt\n      iszero\n        /* \"contracts/electionAntikode.sol\":2954:3000  votingEnd != 0 && votingEnd >= block.timestamp */\n    tag_58:\n        /* \"contracts/electionAntikode.sol\":2946:3020  require(votingEnd != 0 && votingEnd >= block.timestamp, \"Vote has ended!\") */\n      tag_59\n      jumpi\n      mload(0x40)\n      0x08c379a000000000000000000000000000000000000000000000000000000000\n      dup2\n      mstore\n      0x04\n      add\n      tag_60\n      swap1\n      tag_61\n      jump\t// in\n    tag_60:\n      mload(0x40)\n      dup1\n      swap2\n      sub\n      swap1\n      revert\n    tag_59:\n        /* \"contracts/electionAntikode.sol\":3055:3056  0 */\n      0x00\n        /* \"contracts/electionAntikode.sol\":3038:3044  sender */\n      dup2\n        /* \"contracts/electionAntikode.sol\":3038:3051  sender.weight */\n      0x00\n      add\n      sload\n        /* \"contracts/electionAntikode.sol\":3038:3056  sender.weight != 0 */\n      sub\n        /* \"contracts/electionAntikode.sol\":3030:3081  require(sender.weight != 0, \"Has no right to vote\") */\n      tag_62\n      jumpi\n      mload(0x40)\n      0x08c379a000000000000000000000000000000000000000000000000000000000\n      dup2\n      mstore\n      0x04\n      add\n      tag_63\n      swap1\n      tag_64\n      jump\t// in\n    tag_63:\n      mload(0x40)\n      dup1\n      swap2\n      sub\n      swap1\n      revert\n    tag_62:\n        /* \"contracts/electionAntikode.sol\":3100:3106  sender */\n      dup1\n        /* \"contracts/electionAntikode.sol\":3100:3112  sender.voted */\n      0x01\n      add\n      0x00\n      swap1\n      sload\n      swap1\n      0x0100\n      exp\n      swap1\n      div\n      0xff\n      and\n        /* \"contracts/electionAntikode.sol\":3099:3112  !sender.voted */\n      iszero\n        /* \"contracts/electionAntikode.sol\":3091:3131  require(!sender.voted, \"Already voted.\") */\n      tag_65\n      jumpi\n      mload(0x40)\n      0x08c379a000000000000000000000000000000000000000000000000000000000\n      dup2\n      mstore\n      0x04\n      add\n      tag_66\n      swap1\n      tag_67\n      jump\t// in\n    tag_66:\n      mload(0x40)\n      dup1\n      swap2\n      sub\n      swap1\n      revert\n    tag_65:\n        /* \"contracts/electionAntikode.sol\":3156:3160  true */\n      0x01\n        /* \"contracts/electionAntikode.sol\":3141:3147  sender */\n      dup2\n        /* \"contracts/electionAntikode.sol\":3141:3153  sender.voted */\n      0x01\n      add\n      0x00\n        /* \"contracts/electionAntikode.sol\":3141:3160  sender.voted = true */\n      0x0100\n      exp\n      dup2\n      sload\n      dup2\n      0xff\n      mul\n      not\n      and\n      swap1\n      dup4\n      iszero\n      iszero\n      mul\n      or\n      swap1\n      sstore\n      pop\n        /* \"contracts/electionAntikode.sol\":3184:3192  proposal */\n      dup2\n        /* \"contracts/electionAntikode.sol\":3170:3176  sender */\n      dup2\n        /* \"contracts/electionAntikode.sol\":3170:3181  sender.vote */\n      0x02\n      add\n        /* \"contracts/electionAntikode.sol\":3170:3192  sender.vote = proposal */\n      dup2\n      swap1\n      sstore\n      pop\n        /* \"contracts/electionAntikode.sol\":3371:3377  sender */\n      dup1\n        /* \"contracts/electionAntikode.sol\":3371:3384  sender.weight */\n      0x00\n      add\n      sload\n        /* \"contracts/electionAntikode.sol\":3338:3347  proposals */\n      0x04\n        /* \"contracts/electionAntikode.sol\":3348:3356  proposal */\n      dup4\n        /* \"contracts/electionAntikode.sol\":3338:3357  proposals[proposal] */\n      dup2\n      sload\n      dup2\n      lt\n      tag_68\n      jumpi\n      tag_69\n      tag_70\n      jump\t// in\n    tag_69:\n    tag_68:\n      swap1\n      0x00\n      mstore\n      keccak256(0x00, 0x20)\n      swap1\n      0x02\n      mul\n      add\n        /* \"contracts/electionAntikode.sol\":3338:3367  proposals[proposal].voteCount */\n      0x01\n      add\n      0x00\n        /* \"contracts/electionAntikode.sol\":3338:3384  proposals[proposal].voteCount += sender.weight */\n      dup3\n      dup3\n      sload\n      tag_72\n      swap2\n      swap1\n      tag_73\n      jump\t// in\n    tag_72:\n      swap3\n      pop\n      pop\n      dup2\n      swap1\n      sstore\n      pop\n        /* \"contracts/electionAntikode.sol\":2791:3391  {... */\n      pop\n        /* \"contracts/electionAntikode.sol\":2755:3391  function vote(uint proposal) public {... */\n      pop\n      jump\t// out\n        /* \"contracts/electionAntikode.sol\":903:930  Proposal[] public proposals */\n    tag_20:\n      0x04\n      dup2\n      dup2\n      sload\n      dup2\n      lt\n      tag_74\n      jumpi\n      0x00\n      dup1\n      revert\n    tag_74:\n      swap1\n      0x00\n      mstore\n      keccak256(0x00, 0x20)\n      swap1\n      0x02\n      mul\n      add\n      0x00\n      swap2\n      pop\n      swap1\n      pop\n      dup1\n      0x00\n      add\n      dup1\n      sload\n      tag_76\n      swap1\n      tag_77\n      jump\t// in\n    tag_76:\n      dup1\n      0x1f\n      add\n      0x20\n      dup1\n      swap2\n      div\n      mul\n      0x20\n      add\n      mload(0x40)\n      swap1\n      dup2\n      add\n      0x40\n      mstore\n      dup1\n      swap3\n      swap2\n      swap1\n      dup2\n      dup2\n      mstore\n      0x20\n      add\n      dup3\n      dup1\n      sload\n      tag_78\n      swap1\n      tag_77\n      jump\t// in\n    tag_78:\n      dup1\n      iszero\n      tag_79\n      jumpi\n      dup1\n      0x1f\n      lt\n      tag_80\n      jumpi\n      0x0100\n      dup1\n      dup4\n      sload\n      div\n      mul\n      dup4\n      mstore\n      swap2\n      0x20\n      add\n      swap2\n      jump(tag_79)\n    tag_80:\n      dup3\n      add\n      swap2\n      swap1\n      0x00\n      mstore\n      keccak256(0x00, 0x20)\n      swap1\n    tag_81:\n      dup2\n      sload\n      dup2\n      mstore\n      swap1\n      0x01\n      add\n      swap1\n      0x20\n      add\n      dup1\n      dup4\n      gt\n      tag_81\n      jumpi\n      dup3\n      swap1\n      sub\n      0x1f\n      and\n      dup3\n      add\n      swap2\n    tag_79:\n      pop\n      pop\n      pop\n      pop\n      pop\n      swap1\n      dup1\n      0x01\n      add\n      sload\n      swap1\n      pop\n      dup3\n      jump\t// out\n        /* \"contracts/electionAntikode.sol\":215:242  uint public votingStart = 0 */\n    tag_24:\n      sload(0x01)\n      dup2\n      jump\t// out\n        /* \"contracts/electionAntikode.sol\":183:209  address public chairperson */\n    tag_28:\n      0x00\n      dup1\n      sload\n      swap1\n      0x0100\n      exp\n      swap1\n      div\n      0xffffffffffffffffffffffffffffffffffffffff\n      and\n      dup2\n      jump\t// out\n        /* \"contracts/electionAntikode.sol\":3577:3942  function winningProposal() public view... */\n    tag_32:\n        /* \"contracts/electionAntikode.sol\":3637:3658  uint winningProposal_ */\n      0x00\n        /* \"contracts/electionAntikode.sol\":3674:3695  uint winningVoteCount */\n      dup1\n        /* \"contracts/electionAntikode.sol\":3698:3699  0 */\n      0x00\n        /* \"contracts/electionAntikode.sol\":3674:3699  uint winningVoteCount = 0 */\n      swap1\n      pop\n        /* \"contracts/electionAntikode.sol\":3714:3720  uint p */\n      0x00\n        /* \"contracts/electionAntikode.sol\":3709:3936  for (uint p = 0; p < proposals.length; p++) {... */\n    tag_83:\n        /* \"contracts/electionAntikode.sol\":3730:3739  proposals */\n      0x04\n        /* \"contracts/electionAntikode.sol\":3730:3746  proposals.length */\n      dup1\n      sload\n      swap1\n      pop\n        /* \"contracts/electionAntikode.sol\":3726:3727  p */\n      dup2\n        /* \"contracts/electionAntikode.sol\":3726:3746  p < proposals.length */\n      lt\n        /* \"contracts/electionAntikode.sol\":3709:3936  for (uint p = 0; p < proposals.length; p++) {... */\n      iszero\n      tag_84\n      jumpi\n        /* \"contracts/electionAntikode.sol\":3796:3812  winningVoteCount */\n      dup2\n        /* \"contracts/electionAntikode.sol\":3771:3780  proposals */\n      0x04\n        /* \"contracts/electionAntikode.sol\":3781:3782  p */\n      dup3\n        /* \"contracts/electionAntikode.sol\":3771:3783  proposals[p] */\n      dup2\n      sload\n      dup2\n      lt\n      tag_86\n      jumpi\n      tag_87\n      tag_70\n      jump\t// in\n    tag_87:\n    tag_86:\n      swap1\n      0x00\n      mstore\n      keccak256(0x00, 0x20)\n      swap1\n      0x02\n      mul\n      add\n        /* \"contracts/electionAntikode.sol\":3771:3793  proposals[p].voteCount */\n      0x01\n      add\n      sload\n        /* \"contracts/electionAntikode.sol\":3771:3812  proposals[p].voteCount > winningVoteCount */\n      gt\n        /* \"contracts/electionAntikode.sol\":3767:3926  if (proposals[p].voteCount > winningVoteCount) {... */\n      iszero\n      tag_89\n      jumpi\n        /* \"contracts/electionAntikode.sol\":3851:3860  proposals */\n      0x04\n        /* \"contracts/electionAntikode.sol\":3861:3862  p */\n      dup2\n        /* \"contracts/electionAntikode.sol\":3851:3863  proposals[p] */\n      dup2\n      sload\n      dup2\n      lt\n      tag_90\n      jumpi\n      tag_91\n      tag_70\n      jump\t// in\n    tag_91:\n    tag_90:\n      swap1\n      0x00\n      mstore\n      keccak256(0x00, 0x20)\n      swap1\n      0x02\n      mul\n      add\n        /* \"contracts/electionAntikode.sol\":3851:3873  proposals[p].voteCount */\n      0x01\n      add\n      sload\n        /* \"contracts/electionAntikode.sol\":3832:3873  winningVoteCount = proposals[p].voteCount */\n      swap2\n      pop\n        /* \"contracts/electionAntikode.sol\":3910:3911  p */\n      dup1\n        /* \"contracts/electionAntikode.sol\":3891:3911  winningProposal_ = p */\n      swap3\n      pop\n        /* \"contracts/electionAntikode.sol\":3767:3926  if (proposals[p].voteCount > winningVoteCount) {... */\n    tag_89:\n        /* \"contracts/electionAntikode.sol\":3748:3751  p++ */\n      dup1\n      dup1\n      tag_93\n      swap1\n      tag_94\n      jump\t// in\n    tag_93:\n      swap2\n      pop\n      pop\n        /* \"contracts/electionAntikode.sol\":3709:3936  for (uint p = 0; p < proposals.length; p++) {... */\n      jump(tag_83)\n    tag_84:\n      pop\n        /* \"contracts/electionAntikode.sol\":3664:3942  {... */\n      pop\n        /* \"contracts/electionAntikode.sol\":3577:3942  function winningProposal() public view... */\n      swap1\n      jump\t// out\n        /* \"contracts/electionAntikode.sol\":248:273  uint public votingEnd = 0 */\n    tag_35:\n      sload(0x02)\n      dup2\n      jump\t// out\n        /* \"contracts/electionAntikode.sol\":1707:2062  function giveRightToVote(address voter) public {... */\n    tag_40:\n        /* \"contracts/electionAntikode.sol\":1799:1810  chairperson */\n      0x00\n      dup1\n      sload\n      swap1\n      0x0100\n      exp\n      swap1\n      div\n      0xffffffffffffffffffffffffffffffffffffffff\n      and\n        /* \"contracts/electionAntikode.sol\":1785:1810  msg.sender == chairperson */\n      0xffffffffffffffffffffffffffffffffffffffff\n      and\n        /* \"contracts/electionAntikode.sol\":1785:1795  msg.sender */\n      caller\n        /* \"contracts/electionAntikode.sol\":1785:1810  msg.sender == chairperson */\n      0xffffffffffffffffffffffffffffffffffffffff\n      and\n      eq\n        /* \"contracts/electionAntikode.sol\":1764:1876  require(... */\n      tag_96\n      jumpi\n      mload(0x40)\n      0x08c379a000000000000000000000000000000000000000000000000000000000\n      dup2\n      mstore\n      0x04\n      add\n      tag_97\n      swap1\n      tag_98\n      jump\t// in\n    tag_97:\n      mload(0x40)\n      dup1\n      swap2\n      sub\n      swap1\n      revert\n    tag_96:\n        /* \"contracts/electionAntikode.sol\":1908:1914  voters */\n      0x03\n        /* \"contracts/electionAntikode.sol\":1908:1921  voters[voter] */\n      0x00\n        /* \"contracts/electionAntikode.sol\":1915:1920  voter */\n      dup3\n        /* \"contracts/electionAntikode.sol\":1908:1921  voters[voter] */\n      0xffffffffffffffffffffffffffffffffffffffff\n      and\n      0xffffffffffffffffffffffffffffffffffffffff\n      and\n      dup2\n      mstore\n      0x20\n      add\n      swap1\n      dup2\n      mstore\n      0x20\n      add\n      0x00\n      keccak256\n        /* \"contracts/electionAntikode.sol\":1908:1927  voters[voter].voted */\n      0x01\n      add\n      0x00\n      swap1\n      sload\n      swap1\n      0x0100\n      exp\n      swap1\n      div\n      0xff\n      and\n        /* \"contracts/electionAntikode.sol\":1907:1927  !voters[voter].voted */\n      iszero\n        /* \"contracts/electionAntikode.sol\":1886:1977  require(... */\n      tag_99\n      jumpi\n      mload(0x40)\n      0x08c379a000000000000000000000000000000000000000000000000000000000\n      dup2\n      mstore\n      0x04\n      add\n      tag_100\n      swap1\n      tag_101\n      jump\t// in\n    tag_100:\n      mload(0x40)\n      dup1\n      swap2\n      sub\n      swap1\n      revert\n    tag_99:\n        /* \"contracts/electionAntikode.sol\":2019:2020  0 */\n      0x00\n        /* \"contracts/electionAntikode.sol\":1995:2001  voters */\n      0x03\n        /* \"contracts/electionAntikode.sol\":1995:2008  voters[voter] */\n      0x00\n        /* \"contracts/electionAntikode.sol\":2002:2007  voter */\n      dup4\n        /* \"contracts/electionAntikode.sol\":1995:2008  voters[voter] */\n      0xffffffffffffffffffffffffffffffffffffffff\n      and\n      0xffffffffffffffffffffffffffffffffffffffff\n      and\n      dup2\n      mstore\n      0x20\n      add\n      swap1\n      dup2\n      mstore\n      0x20\n      add\n      0x00\n      keccak256\n        /* \"contracts/electionAntikode.sol\":1995:2015  voters[voter].weight */\n      0x00\n      add\n      sload\n        /* \"contracts/electionAntikode.sol\":1995:2020  voters[voter].weight == 0 */\n      eq\n        /* \"contracts/electionAntikode.sol\":1987:2021  require(voters[voter].weight == 0) */\n      tag_102\n      jumpi\n      0x00\n      dup1\n      revert\n    tag_102:\n        /* \"contracts/electionAntikode.sol\":2054:2055  1 */\n      0x01\n        /* \"contracts/electionAntikode.sol\":2031:2037  voters */\n      0x03\n        /* \"contracts/electionAntikode.sol\":2031:2044  voters[voter] */\n      0x00\n        /* \"contracts/electionAntikode.sol\":2038:2043  voter */\n      dup4\n        /* \"contracts/electionAntikode.sol\":2031:2044  voters[voter] */\n      0xffffffffffffffffffffffffffffffffffffffff\n      and\n      0xffffffffffffffffffffffffffffffffffffffff\n      and\n      dup2\n      mstore\n      0x20\n      add\n      swap1\n      dup2\n      mstore\n      0x20\n      add\n      0x00\n      keccak256\n        /* \"contracts/electionAntikode.sol\":2031:2051  voters[voter].weight */\n      0x00\n      add\n        /* \"contracts/electionAntikode.sol\":2031:2055  voters[voter].weight = 1 */\n      dup2\n      swap1\n      sstore\n      pop\n        /* \"contracts/electionAntikode.sol\":1707:2062  function giveRightToVote(address voter) public {... */\n      pop\n      jump\t// out\n        /* \"contracts/electionAntikode.sol\":857:896  mapping(address => Voter) public voters */\n    tag_43:\n      mstore(0x20, 0x03)\n      dup1\n      0x00\n      mstore\n      keccak256(0x00, 0x40)\n      0x00\n      swap2\n      pop\n      swap1\n      pop\n      dup1\n      0x00\n      add\n      sload\n      swap1\n      dup1\n      0x01\n      add\n      0x00\n      swap1\n      sload\n      swap1\n      0x0100\n      exp\n      swap1\n      div\n      0xff\n      and\n      swap1\n      dup1\n      0x02\n      add\n      sload\n      swap1\n      pop\n      dup4\n      jump\t// out\n        /* \"contracts/electionAntikode.sol\":2068:2567  function definePeriod (uint startPeriod, uint endPeriod) public {... */\n    tag_49:\n        /* \"contracts/electionAntikode.sol\":2177:2188  chairperson */\n      0x00\n      dup1\n      sload\n      swap1\n      0x0100\n      exp\n      swap1\n      div\n      0xffffffffffffffffffffffffffffffffffffffff\n      and\n        /* \"contracts/electionAntikode.sol\":2163:2188  msg.sender == chairperson */\n      0xffffffffffffffffffffffffffffffffffffffff\n      and\n        /* \"contracts/electionAntikode.sol\":2163:2173  msg.sender */\n      caller\n        /* \"contracts/electionAntikode.sol\":2163:2188  msg.sender == chairperson */\n      0xffffffffffffffffffffffffffffffffffffffff\n      and\n      eq\n        /* \"contracts/electionAntikode.sol\":2142:2256  require(... */\n      tag_104\n      jumpi\n      mload(0x40)\n      0x08c379a000000000000000000000000000000000000000000000000000000000\n      dup2\n      mstore\n      0x04\n      add\n      tag_105\n      swap1\n      tag_106\n      jump\t// in\n    tag_105:\n      mload(0x40)\n      dup1\n      swap2\n      sub\n      swap1\n      revert\n    tag_104:\n        /* \"contracts/electionAntikode.sol\":2314:2323  1 minutes */\n      0x3c\n        /* \"contracts/electionAntikode.sol\":2300:2311  startPeriod */\n      dup3\n        /* \"contracts/electionAntikode.sol\":2300:2323  startPeriod * 1 minutes */\n      tag_107\n      swap2\n      swap1\n      tag_108\n      jump\t// in\n    tag_107:\n        /* \"contracts/electionAntikode.sol\":2281:2296  block.timestamp */\n      timestamp\n        /* \"contracts/electionAntikode.sol\":2281:2324  block.timestamp + (startPeriod * 1 minutes) */\n      tag_109\n      swap2\n      swap1\n      tag_73\n      jump\t// in\n    tag_109:\n        /* \"contracts/electionAntikode.sol\":2267:2278  votingStart */\n      0x01\n        /* \"contracts/electionAntikode.sol\":2267:2324  votingStart = block.timestamp + (startPeriod * 1 minutes) */\n      dup2\n      swap1\n      sstore\n      pop\n        /* \"contracts/electionAntikode.sol\":2377:2386  1 minutes */\n      0x3c\n        /* \"contracts/electionAntikode.sol\":2365:2374  endPeriod */\n      dup2\n        /* \"contracts/electionAntikode.sol\":2365:2386  endPeriod * 1 minutes */\n      tag_110\n      swap2\n      swap1\n      tag_108\n      jump\t// in\n    tag_110:\n        /* \"contracts/electionAntikode.sol\":2346:2361  block.timestamp */\n      timestamp\n        /* \"contracts/electionAntikode.sol\":2346:2387  block.timestamp + (endPeriod * 1 minutes) */\n      tag_111\n      swap2\n      swap1\n      tag_73\n      jump\t// in\n    tag_111:\n        /* \"contracts/electionAntikode.sol\":2334:2343  votingEnd */\n      0x02\n        /* \"contracts/electionAntikode.sol\":2334:2387  votingEnd = block.timestamp + (endPeriod * 1 minutes) */\n      dup2\n      swap1\n      sstore\n      pop\n        /* \"contracts/electionAntikode.sol\":2433:2434  0 */\n      0x00\n        /* \"contracts/electionAntikode.sol\":2419:2430  votingStart */\n      sload(0x01)\n        /* \"contracts/electionAntikode.sol\":2419:2434  votingStart > 0 */\n      gt\n        /* \"contracts/electionAntikode.sol\":2419:2461  votingStart > 0 && votingStart < votingEnd */\n      dup1\n      iszero\n      tag_112\n      jumpi\n      pop\n        /* \"contracts/electionAntikode.sol\":2452:2461  votingEnd */\n      sload(0x02)\n        /* \"contracts/electionAntikode.sol\":2438:2449  votingStart */\n      sload(0x01)\n        /* \"contracts/electionAntikode.sol\":2438:2461  votingStart < votingEnd */\n      lt\n        /* \"contracts/electionAntikode.sol\":2419:2461  votingStart > 0 && votingStart < votingEnd */\n    tag_112:\n        /* \"contracts/electionAntikode.sol\":2398:2560  require(... */\n      tag_113\n      jumpi\n      mload(0x40)\n      0x08c379a000000000000000000000000000000000000000000000000000000000\n      dup2\n      mstore\n      0x04\n      add\n      tag_114\n      swap1\n      tag_115\n      jump\t// in\n    tag_114:\n      mload(0x40)\n      dup1\n      swap2\n      sub\n      swap1\n      revert\n    tag_113:\n        /* \"contracts/electionAntikode.sol\":2068:2567  function definePeriod (uint startPeriod, uint endPeriod) public {... */\n      pop\n      pop\n      jump\t// out\n        /* \"contracts/electionAntikode.sol\":4133:4349  function winner() public view returns (string memory winnerName_, uint winnerCount_)... */\n    tag_51:\n        /* \"contracts/electionAntikode.sol\":4172:4197  string memory winnerName_ */\n      0x60\n        /* \"contracts/electionAntikode.sol\":4199:4216  uint winnerCount_ */\n      0x00\n        /* \"contracts/electionAntikode.sol\":4246:4255  proposals */\n      0x04\n        /* \"contracts/electionAntikode.sol\":4256:4273  winningProposal() */\n      tag_117\n        /* \"contracts/electionAntikode.sol\":4256:4271  winningProposal */\n      tag_32\n        /* \"contracts/electionAntikode.sol\":4256:4273  winningProposal() */\n      jump\t// in\n    tag_117:\n        /* \"contracts/electionAntikode.sol\":4246:4274  proposals[winningProposal()] */\n      dup2\n      sload\n      dup2\n      lt\n      tag_118\n      jumpi\n      tag_119\n      tag_70\n      jump\t// in\n    tag_119:\n    tag_118:\n      swap1\n      0x00\n      mstore\n      keccak256(0x00, 0x20)\n      swap1\n      0x02\n      mul\n      add\n        /* \"contracts/electionAntikode.sol\":4246:4279  proposals[winningProposal()].name */\n      0x00\n      add\n        /* \"contracts/electionAntikode.sol\":4232:4279  winnerName_ = proposals[winningProposal()].name */\n      dup1\n      sload\n      tag_121\n      swap1\n      tag_77\n      jump\t// in\n    tag_121:\n      dup1\n      0x1f\n      add\n      0x20\n      dup1\n      swap2\n      div\n      mul\n      0x20\n      add\n      mload(0x40)\n      swap1\n      dup2\n      add\n      0x40\n      mstore\n      dup1\n      swap3\n      swap2\n      swap1\n      dup2\n      dup2\n      mstore\n      0x20\n      add\n      dup3\n      dup1\n      sload\n      tag_122\n      swap1\n      tag_77\n      jump\t// in\n    tag_122:\n      dup1\n      iszero\n      tag_123\n      jumpi\n      dup1\n      0x1f\n      lt\n      tag_124\n      jumpi\n      0x0100\n      dup1\n      dup4\n      sload\n      div\n      mul\n      dup4\n      mstore\n      swap2\n      0x20\n      add\n      swap2\n      jump(tag_123)\n    tag_124:\n      dup3\n      add\n      swap2\n      swap1\n      0x00\n      mstore\n      keccak256(0x00, 0x20)\n      swap1\n    tag_125:\n      dup2\n      sload\n      dup2\n      mstore\n      swap1\n      0x01\n      add\n      swap1\n      0x20\n      add\n      dup1\n      dup4\n      gt\n      tag_125\n      jumpi\n      dup3\n      swap1\n      sub\n      0x1f\n      and\n      dup3\n      add\n      swap2\n    tag_123:\n      pop\n      pop\n      pop\n      pop\n      pop\n      swap2\n      pop\n        /* \"contracts/electionAntikode.sol\":4304:4313  proposals */\n      0x04\n        /* \"contracts/electionAntikode.sol\":4314:4331  winningProposal() */\n      tag_126\n        /* \"contracts/electionAntikode.sol\":4314:4329  winningProposal */\n      tag_32\n        /* \"contracts/electionAntikode.sol\":4314:4331  winningProposal() */\n      jump\t// in\n    tag_126:\n        /* \"contracts/electionAntikode.sol\":4304:4332  proposals[winningProposal()] */\n      dup2\n      sload\n      dup2\n      lt\n      tag_127\n      jumpi\n      tag_128\n      tag_70\n      jump\t// in\n    tag_128:\n    tag_127:\n      swap1\n      0x00\n      mstore\n      keccak256(0x00, 0x20)\n      swap1\n      0x02\n      mul\n      add\n        /* \"contracts/electionAntikode.sol\":4304:4342  proposals[winningProposal()].voteCount */\n      0x01\n      add\n      sload\n        /* \"contracts/electionAntikode.sol\":4289:4342  winnerCount_ = proposals[winningProposal()].voteCount */\n      swap1\n      pop\n        /* \"contracts/electionAntikode.sol\":4133:4349  function winner() public view returns (string memory winnerName_, uint winnerCount_)... */\n      swap1\n      swap2\n      jump\t// out\n        /* \"#utility.yul\":88:205   */\n    tag_131:\n        /* \"#utility.yul\":197:198   */\n      0x00\n        /* \"#utility.yul\":194:195   */\n      dup1\n        /* \"#utility.yul\":187:199   */\n      revert\n        /* \"#utility.yul\":334:411   */\n    tag_133:\n        /* \"#utility.yul\":371:378   */\n      0x00\n        /* \"#utility.yul\":400:405   */\n      dup2\n        /* \"#utility.yul\":389:405   */\n      swap1\n      pop\n        /* \"#utility.yul\":334:411   */\n      swap2\n      swap1\n      pop\n      jump\t// out\n        /* \"#utility.yul\":417:539   */\n    tag_134:\n        /* \"#utility.yul\":490:514   */\n      tag_173\n        /* \"#utility.yul\":508:513   */\n      dup2\n        /* \"#utility.yul\":490:514   */\n      tag_133\n      jump\t// in\n    tag_173:\n        /* \"#utility.yul\":483:488   */\n      dup2\n        /* \"#utility.yul\":480:515   */\n      eq\n        /* \"#utility.yul\":470:533   */\n      tag_174\n      jumpi\n        /* \"#utility.yul\":529:530   */\n      0x00\n        /* \"#utility.yul\":526:527   */\n      dup1\n        /* \"#utility.yul\":519:531   */\n      revert\n        /* \"#utility.yul\":470:533   */\n    tag_174:\n        /* \"#utility.yul\":417:539   */\n      pop\n      jump\t// out\n        /* \"#utility.yul\":545:684   */\n    tag_135:\n        /* \"#utility.yul\":591:596   */\n      0x00\n        /* \"#utility.yul\":629:635   */\n      dup2\n        /* \"#utility.yul\":616:636   */\n      calldataload\n        /* \"#utility.yul\":607:636   */\n      swap1\n      pop\n        /* \"#utility.yul\":645:678   */\n      tag_176\n        /* \"#utility.yul\":672:677   */\n      dup2\n        /* \"#utility.yul\":645:678   */\n      tag_134\n      jump\t// in\n    tag_176:\n        /* \"#utility.yul\":545:684   */\n      swap3\n      swap2\n      pop\n      pop\n      jump\t// out\n        /* \"#utility.yul\":690:1019   */\n    tag_16:\n        /* \"#utility.yul\":749:755   */\n      0x00\n        /* \"#utility.yul\":798:800   */\n      0x20\n        /* \"#utility.yul\":786:795   */\n      dup3\n        /* \"#utility.yul\":777:784   */\n      dup5\n        /* \"#utility.yul\":773:796   */\n      sub\n        /* \"#utility.yul\":769:801   */\n      slt\n        /* \"#utility.yul\":766:885   */\n      iszero\n      tag_178\n      jumpi\n        /* \"#utility.yul\":804:883   */\n      tag_179\n      tag_131\n      jump\t// in\n    tag_179:\n        /* \"#utility.yul\":766:885   */\n    tag_178:\n        /* \"#utility.yul\":924:925   */\n      0x00\n        /* \"#utility.yul\":949:1002   */\n      tag_180\n        /* \"#utility.yul\":994:1001   */\n      dup5\n        /* \"#utility.yul\":985:991   */\n      dup3\n        /* \"#utility.yul\":974:983   */\n      dup6\n        /* \"#utility.yul\":970:992   */\n      add\n        /* \"#utility.yul\":949:1002   */\n      tag_135\n      jump\t// in\n    tag_180:\n        /* \"#utility.yul\":939:1002   */\n      swap2\n      pop\n        /* \"#utility.yul\":895:1012   */\n      pop\n        /* \"#utility.yul\":690:1019   */\n      swap3\n      swap2\n      pop\n      pop\n      jump\t// out\n        /* \"#utility.yul\":1025:1124   */\n    tag_136:\n        /* \"#utility.yul\":1077:1083   */\n      0x00\n        /* \"#utility.yul\":1111:1116   */\n      dup2\n        /* \"#utility.yul\":1105:1117   */\n      mload\n        /* \"#utility.yul\":1095:1117   */\n      swap1\n      pop\n        /* \"#utility.yul\":1025:1124   */\n      swap2\n      swap1\n      pop\n      jump\t// out\n        /* \"#utility.yul\":1130:1299   */\n    tag_137:\n        /* \"#utility.yul\":1214:1225   */\n      0x00\n        /* \"#utility.yul\":1248:1254   */\n      dup3\n        /* \"#utility.yul\":1243:1246   */\n      dup3\n        /* \"#utility.yul\":1236:1255   */\n      mstore\n        /* \"#utility.yul\":1288:1292   */\n      0x20\n        /* \"#utility.yul\":1283:1286   */\n      dup3\n        /* \"#utility.yul\":1279:1293   */\n      add\n        /* \"#utility.yul\":1264:1293   */\n      swap1\n      pop\n        /* \"#utility.yul\":1130:1299   */\n      swap3\n      swap2\n      pop\n      pop\n      jump\t// out\n        /* \"#utility.yul\":1305:1612   */\n    tag_138:\n        /* \"#utility.yul\":1373:1374   */\n      0x00\n        /* \"#utility.yul\":1383:1496   */\n    tag_184:\n        /* \"#utility.yul\":1397:1403   */\n      dup4\n        /* \"#utility.yul\":1394:1395   */\n      dup2\n        /* \"#utility.yul\":1391:1404   */\n      lt\n        /* \"#utility.yul\":1383:1496   */\n      iszero\n      tag_186\n      jumpi\n        /* \"#utility.yul\":1482:1483   */\n      dup1\n        /* \"#utility.yul\":1477:1480   */\n      dup3\n        /* \"#utility.yul\":1473:1484   */\n      add\n        /* \"#utility.yul\":1467:1485   */\n      mload\n        /* \"#utility.yul\":1463:1464   */\n      dup2\n        /* \"#utility.yul\":1458:1461   */\n      dup5\n        /* \"#utility.yul\":1454:1465   */\n      add\n        /* \"#utility.yul\":1447:1486   */\n      mstore\n        /* \"#utility.yul\":1419:1421   */\n      0x20\n        /* \"#utility.yul\":1416:1417   */\n      dup2\n        /* \"#utility.yul\":1412:1422   */\n      add\n        /* \"#utility.yul\":1407:1422   */\n      swap1\n      pop\n        /* \"#utility.yul\":1383:1496   */\n      jump(tag_184)\n    tag_186:\n        /* \"#utility.yul\":1514:1520   */\n      dup4\n        /* \"#utility.yul\":1511:1512   */\n      dup2\n        /* \"#utility.yul\":1508:1521   */\n      gt\n        /* \"#utility.yul\":1505:1606   */\n      iszero\n      tag_187\n      jumpi\n        /* \"#utility.yul\":1594:1595   */\n      0x00\n        /* \"#utility.yul\":1585:1591   */\n      dup5\n        /* \"#utility.yul\":1580:1583   */\n      dup5\n        /* \"#utility.yul\":1576:1592   */\n      add\n        /* \"#utility.yul\":1569:1596   */\n      mstore\n        /* \"#utility.yul\":1505:1606   */\n    tag_187:\n        /* \"#utility.yul\":1354:1612   */\n      pop\n        /* \"#utility.yul\":1305:1612   */\n      pop\n      pop\n      pop\n      jump\t// out\n        /* \"#utility.yul\":1618:1720   */\n    tag_139:\n        /* \"#utility.yul\":1659:1665   */\n      0x00\n        /* \"#utility.yul\":1710:1712   */\n      0x1f\n        /* \"#utility.yul\":1706:1713   */\n      not\n        /* \"#utility.yul\":1701:1703   */\n      0x1f\n        /* \"#utility.yul\":1694:1699   */\n      dup4\n        /* \"#utility.yul\":1690:1704   */\n      add\n        /* \"#utility.yul\":1686:1714   */\n      and\n        /* \"#utility.yul\":1676:1714   */\n      swap1\n      pop\n        /* \"#utility.yul\":1618:1720   */\n      swap2\n      swap1\n      pop\n      jump\t// out\n        /* \"#utility.yul\":1726:2090   */\n    tag_140:\n        /* \"#utility.yul\":1814:1817   */\n      0x00\n        /* \"#utility.yul\":1842:1881   */\n      tag_190\n        /* \"#utility.yul\":1875:1880   */\n      dup3\n        /* \"#utility.yul\":1842:1881   */\n      tag_136\n      jump\t// in\n    tag_190:\n        /* \"#utility.yul\":1897:1968   */\n      tag_191\n        /* \"#utility.yul\":1961:1967   */\n      dup2\n        /* \"#utility.yul\":1956:1959   */\n      dup6\n        /* \"#utility.yul\":1897:1968   */\n      tag_137\n      jump\t// in\n    tag_191:\n        /* \"#utility.yul\":1890:1968   */\n      swap4\n      pop\n        /* \"#utility.yul\":1977:2029   */\n      tag_192\n        /* \"#utility.yul\":2022:2028   */\n      dup2\n        /* \"#utility.yul\":2017:2020   */\n      dup6\n        /* \"#utility.yul\":2010:2014   */\n      0x20\n        /* \"#utility.yul\":2003:2008   */\n      dup7\n        /* \"#utility.yul\":1999:2015   */\n      add\n        /* \"#utility.yul\":1977:2029   */\n      tag_138\n      jump\t// in\n    tag_192:\n        /* \"#utility.yul\":2054:2083   */\n      tag_193\n        /* \"#utility.yul\":2076:2082   */\n      dup2\n        /* \"#utility.yul\":2054:2083   */\n      tag_139\n      jump\t// in\n    tag_193:\n        /* \"#utility.yul\":2049:2052   */\n      dup5\n        /* \"#utility.yul\":2045:2084   */\n      add\n        /* \"#utility.yul\":2038:2084   */\n      swap2\n      pop\n        /* \"#utility.yul\":1818:2090   */\n      pop\n        /* \"#utility.yul\":1726:2090   */\n      swap3\n      swap2\n      pop\n      pop\n      jump\t// out\n        /* \"#utility.yul\":2096:2214   */\n    tag_141:\n        /* \"#utility.yul\":2183:2207   */\n      tag_195\n        /* \"#utility.yul\":2201:2206   */\n      dup2\n        /* \"#utility.yul\":2183:2207   */\n      tag_133\n      jump\t// in\n    tag_195:\n        /* \"#utility.yul\":2178:2181   */\n      dup3\n        /* \"#utility.yul\":2171:2208   */\n      mstore\n        /* \"#utility.yul\":2096:2214   */\n      pop\n      pop\n      jump\t// out\n        /* \"#utility.yul\":2220:2643   */\n    tag_22:\n        /* \"#utility.yul\":2361:2365   */\n      0x00\n        /* \"#utility.yul\":2399:2401   */\n      0x40\n        /* \"#utility.yul\":2388:2397   */\n      dup3\n        /* \"#utility.yul\":2384:2402   */\n      add\n        /* \"#utility.yul\":2376:2402   */\n      swap1\n      pop\n        /* \"#utility.yul\":2448:2457   */\n      dup2\n        /* \"#utility.yul\":2442:2446   */\n      dup2\n        /* \"#utility.yul\":2438:2458   */\n      sub\n        /* \"#utility.yul\":2434:2435   */\n      0x00\n        /* \"#utility.yul\":2423:2432   */\n      dup4\n        /* \"#utility.yul\":2419:2436   */\n      add\n        /* \"#utility.yul\":2412:2459   */\n      mstore\n        /* \"#utility.yul\":2476:2554   */\n      tag_197\n        /* \"#utility.yul\":2549:2553   */\n      dup2\n        /* \"#utility.yul\":2540:2546   */\n      dup6\n        /* \"#utility.yul\":2476:2554   */\n      tag_140\n      jump\t// in\n    tag_197:\n        /* \"#utility.yul\":2468:2554   */\n      swap1\n      pop\n        /* \"#utility.yul\":2564:2636   */\n      tag_198\n        /* \"#utility.yul\":2632:2634   */\n      0x20\n        /* \"#utility.yul\":2621:2630   */\n      dup4\n        /* \"#utility.yul\":2617:2635   */\n      add\n        /* \"#utility.yul\":2608:2614   */\n      dup5\n        /* \"#utility.yul\":2564:2636   */\n      tag_141\n      jump\t// in\n    tag_198:\n        /* \"#utility.yul\":2220:2643   */\n      swap4\n      swap3\n      pop\n      pop\n      pop\n      jump\t// out\n        /* \"#utility.yul\":2649:2871   */\n    tag_26:\n        /* \"#utility.yul\":2742:2746   */\n      0x00\n        /* \"#utility.yul\":2780:2782   */\n      0x20\n        /* \"#utility.yul\":2769:2778   */\n      dup3\n        /* \"#utility.yul\":2765:2783   */\n      add\n        /* \"#utility.yul\":2757:2783   */\n      swap1\n      pop\n        /* \"#utility.yul\":2793:2864   */\n      tag_200\n        /* \"#utility.yul\":2861:2862   */\n      0x00\n        /* \"#utility.yul\":2850:2859   */\n      dup4\n        /* \"#utility.yul\":2846:2863   */\n      add\n        /* \"#utility.yul\":2837:2843   */\n      dup5\n        /* \"#utility.yul\":2793:2864   */\n      tag_141\n      jump\t// in\n    tag_200:\n        /* \"#utility.yul\":2649:2871   */\n      swap3\n      swap2\n      pop\n      pop\n      jump\t// out\n        /* \"#utility.yul\":2877:3003   */\n    tag_142:\n        /* \"#utility.yul\":2914:2921   */\n      0x00\n        /* \"#utility.yul\":2954:2996   */\n      0xffffffffffffffffffffffffffffffffffffffff\n        /* \"#utility.yul\":2947:2952   */\n      dup3\n        /* \"#utility.yul\":2943:2997   */\n      and\n        /* \"#utility.yul\":2932:2997   */\n      swap1\n      pop\n        /* \"#utility.yul\":2877:3003   */\n      swap2\n      swap1\n      pop\n      jump\t// out\n        /* \"#utility.yul\":3009:3105   */\n    tag_143:\n        /* \"#utility.yul\":3046:3053   */\n      0x00\n        /* \"#utility.yul\":3075:3099   */\n      tag_203\n        /* \"#utility.yul\":3093:3098   */\n      dup3\n        /* \"#utility.yul\":3075:3099   */\n      tag_142\n      jump\t// in\n    tag_203:\n        /* \"#utility.yul\":3064:3099   */\n      swap1\n      pop\n        /* \"#utility.yul\":3009:3105   */\n      swap2\n      swap1\n      pop\n      jump\t// out\n        /* \"#utility.yul\":3111:3229   */\n    tag_144:\n        /* \"#utility.yul\":3198:3222   */\n      tag_205\n        /* \"#utility.yul\":3216:3221   */\n      dup2\n        /* \"#utility.yul\":3198:3222   */\n      tag_143\n      jump\t// in\n    tag_205:\n        /* \"#utility.yul\":3193:3196   */\n      dup3\n        /* \"#utility.yul\":3186:3223   */\n      mstore\n        /* \"#utility.yul\":3111:3229   */\n      pop\n      pop\n      jump\t// out\n        /* \"#utility.yul\":3235:3457   */\n    tag_30:\n        /* \"#utility.yul\":3328:3332   */\n      0x00\n        /* \"#utility.yul\":3366:3368   */\n      0x20\n        /* \"#utility.yul\":3355:3364   */\n      dup3\n        /* \"#utility.yul\":3351:3369   */\n      add\n        /* \"#utility.yul\":3343:3369   */\n      swap1\n      pop\n        /* \"#utility.yul\":3379:3450   */\n      tag_207\n        /* \"#utility.yul\":3447:3448   */\n      0x00\n        /* \"#utility.yul\":3436:3445   */\n      dup4\n        /* \"#utility.yul\":3432:3449   */\n      add\n        /* \"#utility.yul\":3423:3429   */\n      dup5\n        /* \"#utility.yul\":3379:3450   */\n      tag_144\n      jump\t// in\n    tag_207:\n        /* \"#utility.yul\":3235:3457   */\n      swap3\n      swap2\n      pop\n      pop\n      jump\t// out\n        /* \"#utility.yul\":3463:3585   */\n    tag_145:\n        /* \"#utility.yul\":3536:3560   */\n      tag_209\n        /* \"#utility.yul\":3554:3559   */\n      dup2\n        /* \"#utility.yul\":3536:3560   */\n      tag_143\n      jump\t// in\n    tag_209:\n        /* \"#utility.yul\":3529:3534   */\n      dup2\n        /* \"#utility.yul\":3526:3561   */\n      eq\n        /* \"#utility.yul\":3516:3579   */\n      tag_210\n      jumpi\n        /* \"#utility.yul\":3575:3576   */\n      0x00\n        /* \"#utility.yul\":3572:3573   */\n      dup1\n        /* \"#utility.yul\":3565:3577   */\n      revert\n        /* \"#utility.yul\":3516:3579   */\n    tag_210:\n        /* \"#utility.yul\":3463:3585   */\n      pop\n      jump\t// out\n        /* \"#utility.yul\":3591:3730   */\n    tag_146:\n        /* \"#utility.yul\":3637:3642   */\n      0x00\n        /* \"#utility.yul\":3675:3681   */\n      dup2\n        /* \"#utility.yul\":3662:3682   */\n      calldataload\n        /* \"#utility.yul\":3653:3682   */\n      swap1\n      pop\n        /* \"#utility.yul\":3691:3724   */\n      tag_212\n        /* \"#utility.yul\":3718:3723   */\n      dup2\n        /* \"#utility.yul\":3691:3724   */\n      tag_145\n      jump\t// in\n    tag_212:\n        /* \"#utility.yul\":3591:3730   */\n      swap3\n      swap2\n      pop\n      pop\n      jump\t// out\n        /* \"#utility.yul\":3736:4065   */\n    tag_39:\n        /* \"#utility.yul\":3795:3801   */\n      0x00\n        /* \"#utility.yul\":3844:3846   */\n      0x20\n        /* \"#utility.yul\":3832:3841   */\n      dup3\n        /* \"#utility.yul\":3823:3830   */\n      dup5\n        /* \"#utility.yul\":3819:3842   */\n      sub\n        /* \"#utility.yul\":3815:3847   */\n      slt\n        /* \"#utility.yul\":3812:3931   */\n      iszero\n      tag_214\n      jumpi\n        /* \"#utility.yul\":3850:3929   */\n      tag_215\n      tag_131\n      jump\t// in\n    tag_215:\n        /* \"#utility.yul\":3812:3931   */\n    tag_214:\n        /* \"#utility.yul\":3970:3971   */\n      0x00\n        /* \"#utility.yul\":3995:4048   */\n      tag_216\n        /* \"#utility.yul\":4040:4047   */\n      dup5\n        /* \"#utility.yul\":4031:4037   */\n      dup3\n        /* \"#utility.yul\":4020:4029   */\n      dup6\n        /* \"#utility.yul\":4016:4038   */\n      add\n        /* \"#utility.yul\":3995:4048   */\n      tag_146\n      jump\t// in\n    tag_216:\n        /* \"#utility.yul\":3985:4048   */\n      swap2\n      pop\n        /* \"#utility.yul\":3941:4058   */\n      pop\n        /* \"#utility.yul\":3736:4065   */\n      swap3\n      swap2\n      pop\n      pop\n      jump\t// out\n        /* \"#utility.yul\":4071:4161   */\n    tag_147:\n        /* \"#utility.yul\":4105:4112   */\n      0x00\n        /* \"#utility.yul\":4148:4153   */\n      dup2\n        /* \"#utility.yul\":4141:4154   */\n      iszero\n        /* \"#utility.yul\":4134:4155   */\n      iszero\n        /* \"#utility.yul\":4123:4155   */\n      swap1\n      pop\n        /* \"#utility.yul\":4071:4161   */\n      swap2\n      swap1\n      pop\n      jump\t// out\n        /* \"#utility.yul\":4167:4276   */\n    tag_148:\n        /* \"#utility.yul\":4248:4269   */\n      tag_219\n        /* \"#utility.yul\":4263:4268   */\n      dup2\n        /* \"#utility.yul\":4248:4269   */\n      tag_147\n      jump\t// in\n    tag_219:\n        /* \"#utility.yul\":4243:4246   */\n      dup3\n        /* \"#utility.yul\":4236:4270   */\n      mstore\n        /* \"#utility.yul\":4167:4276   */\n      pop\n      pop\n      jump\t// out\n        /* \"#utility.yul\":4282:4712   */\n    tag_45:\n        /* \"#utility.yul\":4425:4429   */\n      0x00\n        /* \"#utility.yul\":4463:4465   */\n      0x60\n        /* \"#utility.yul\":4452:4461   */\n      dup3\n        /* \"#utility.yul\":4448:4466   */\n      add\n        /* \"#utility.yul\":4440:4466   */\n      swap1\n      pop\n        /* \"#utility.yul\":4476:4547   */\n      tag_221\n        /* \"#utility.yul\":4544:4545   */\n      0x00\n        /* \"#utility.yul\":4533:4542   */\n      dup4\n        /* \"#utility.yul\":4529:4546   */\n      add\n        /* \"#utility.yul\":4520:4526   */\n      dup7\n        /* \"#utility.yul\":4476:4547   */\n      tag_141\n      jump\t// in\n    tag_221:\n        /* \"#utility.yul\":4557:4623   */\n      tag_222\n        /* \"#utility.yul\":4619:4621   */\n      0x20\n        /* \"#utility.yul\":4608:4617   */\n      dup4\n        /* \"#utility.yul\":4604:4622   */\n      add\n        /* \"#utility.yul\":4595:4601   */\n      dup6\n        /* \"#utility.yul\":4557:4623   */\n      tag_148\n      jump\t// in\n    tag_222:\n        /* \"#utility.yul\":4633:4705   */\n      tag_223\n        /* \"#utility.yul\":4701:4703   */\n      0x40\n        /* \"#utility.yul\":4690:4699   */\n      dup4\n        /* \"#utility.yul\":4686:4704   */\n      add\n        /* \"#utility.yul\":4677:4683   */\n      dup5\n        /* \"#utility.yul\":4633:4705   */\n      tag_141\n      jump\t// in\n    tag_223:\n        /* \"#utility.yul\":4282:4712   */\n      swap5\n      swap4\n      pop\n      pop\n      pop\n      pop\n      jump\t// out\n        /* \"#utility.yul\":4718:5192   */\n    tag_48:\n        /* \"#utility.yul\":4786:4792   */\n      0x00\n        /* \"#utility.yul\":4794:4800   */\n      dup1\n        /* \"#utility.yul\":4843:4845   */\n      0x40\n        /* \"#utility.yul\":4831:4840   */\n      dup4\n        /* \"#utility.yul\":4822:4829   */\n      dup6\n        /* \"#utility.yul\":4818:4841   */\n      sub\n        /* \"#utility.yul\":4814:4846   */\n      slt\n        /* \"#utility.yul\":4811:4930   */\n      iszero\n      tag_225\n      jumpi\n        /* \"#utility.yul\":4849:4928   */\n      tag_226\n      tag_131\n      jump\t// in\n    tag_226:\n        /* \"#utility.yul\":4811:4930   */\n    tag_225:\n        /* \"#utility.yul\":4969:4970   */\n      0x00\n        /* \"#utility.yul\":4994:5047   */\n      tag_227\n        /* \"#utility.yul\":5039:5046   */\n      dup6\n        /* \"#utility.yul\":5030:5036   */\n      dup3\n        /* \"#utility.yul\":5019:5028   */\n      dup7\n        /* \"#utility.yul\":5015:5037   */\n      add\n        /* \"#utility.yul\":4994:5047   */\n      tag_135\n      jump\t// in\n    tag_227:\n        /* \"#utility.yul\":4984:5047   */\n      swap3\n      pop\n        /* \"#utility.yul\":4940:5057   */\n      pop\n        /* \"#utility.yul\":5096:5098   */\n      0x20\n        /* \"#utility.yul\":5122:5175   */\n      tag_228\n        /* \"#utility.yul\":5167:5174   */\n      dup6\n        /* \"#utility.yul\":5158:5164   */\n      dup3\n        /* \"#utility.yul\":5147:5156   */\n      dup7\n        /* \"#utility.yul\":5143:5165   */\n      add\n        /* \"#utility.yul\":5122:5175   */\n      tag_135\n      jump\t// in\n    tag_228:\n        /* \"#utility.yul\":5112:5175   */\n      swap2\n      pop\n        /* \"#utility.yul\":5067:5185   */\n      pop\n        /* \"#utility.yul\":4718:5192   */\n      swap3\n      pop\n      swap3\n      swap1\n      pop\n      jump\t// out\n        /* \"#utility.yul\":5198:5369   */\n    tag_149:\n        /* \"#utility.yul\":5338:5361   */\n      0x566f7465206e6f74207374617274656420796574210000000000000000000000\n        /* \"#utility.yul\":5334:5335   */\n      0x00\n        /* \"#utility.yul\":5326:5332   */\n      dup3\n        /* \"#utility.yul\":5322:5336   */\n      add\n        /* \"#utility.yul\":5315:5362   */\n      mstore\n        /* \"#utility.yul\":5198:5369   */\n      pop\n      jump\t// out\n        /* \"#utility.yul\":5375:5741   */\n    tag_150:\n        /* \"#utility.yul\":5517:5520   */\n      0x00\n        /* \"#utility.yul\":5538:5605   */\n      tag_231\n        /* \"#utility.yul\":5602:5604   */\n      0x15\n        /* \"#utility.yul\":5597:5600   */\n      dup4\n        /* \"#utility.yul\":5538:5605   */\n      tag_137\n      jump\t// in\n    tag_231:\n        /* \"#utility.yul\":5531:5605   */\n      swap2\n      pop\n        /* \"#utility.yul\":5614:5707   */\n      tag_232\n        /* \"#utility.yul\":5703:5706   */\n      dup3\n        /* \"#utility.yul\":5614:5707   */\n      tag_149\n      jump\t// in\n    tag_232:\n        /* \"#utility.yul\":5732:5734   */\n      0x20\n        /* \"#utility.yul\":5727:5730   */\n      dup3\n        /* \"#utility.yul\":5723:5735   */\n      add\n        /* \"#utility.yul\":5716:5735   */\n      swap1\n      pop\n        /* \"#utility.yul\":5375:5741   */\n      swap2\n      swap1\n      pop\n      jump\t// out\n        /* \"#utility.yul\":5747:6166   */\n    tag_57:\n        /* \"#utility.yul\":5913:5917   */\n      0x00\n        /* \"#utility.yul\":5951:5953   */\n      0x20\n        /* \"#utility.yul\":5940:5949   */\n      dup3\n        /* \"#utility.yul\":5936:5954   */\n      add\n        /* \"#utility.yul\":5928:5954   */\n      swap1\n      pop\n        /* \"#utility.yul\":6000:6009   */\n      dup2\n        /* \"#utility.yul\":5994:5998   */\n      dup2\n        /* \"#utility.yul\":5990:6010   */\n      sub\n        /* \"#utility.yul\":5986:5987   */\n      0x00\n        /* \"#utility.yul\":5975:5984   */\n      dup4\n        /* \"#utility.yul\":5971:5988   */\n      add\n        /* \"#utility.yul\":5964:6011   */\n      mstore\n        /* \"#utility.yul\":6028:6159   */\n      tag_234\n        /* \"#utility.yul\":6154:6158   */\n      dup2\n        /* \"#utility.yul\":6028:6159   */\n      tag_150\n      jump\t// in\n    tag_234:\n        /* \"#utility.yul\":6020:6159   */\n      swap1\n      pop\n        /* \"#utility.yul\":5747:6166   */\n      swap2\n      swap1\n      pop\n      jump\t// out\n        /* \"#utility.yul\":6172:6337   */\n    tag_151:\n        /* \"#utility.yul\":6312:6329   */\n      0x566f74652068617320656e646564210000000000000000000000000000000000\n        /* \"#utility.yul\":6308:6309   */\n      0x00\n        /* \"#utility.yul\":6300:6306   */\n      dup3\n        /* \"#utility.yul\":6296:6310   */\n      add\n        /* \"#utility.yul\":6289:6330   */\n      mstore\n        /* \"#utility.yul\":6172:6337   */\n      pop\n      jump\t// out\n        /* \"#utility.yul\":6343:6709   */\n    tag_152:\n        /* \"#utility.yul\":6485:6488   */\n      0x00\n        /* \"#utility.yul\":6506:6573   */\n      tag_237\n        /* \"#utility.yul\":6570:6572   */\n      0x0f\n        /* \"#utility.yul\":6565:6568   */\n      dup4\n        /* \"#utility.yul\":6506:6573   */\n      tag_137\n      jump\t// in\n    tag_237:\n        /* \"#utility.yul\":6499:6573   */\n      swap2\n      pop\n        /* \"#utility.yul\":6582:6675   */\n      tag_238\n        /* \"#utility.yul\":6671:6674   */\n      dup3\n        /* \"#utility.yul\":6582:6675   */\n      tag_151\n      jump\t// in\n    tag_238:\n        /* \"#utility.yul\":6700:6702   */\n      0x20\n        /* \"#utility.yul\":6695:6698   */\n      dup3\n        /* \"#utility.yul\":6691:6703   */\n      add\n        /* \"#utility.yul\":6684:6703   */\n      swap1\n      pop\n        /* \"#utility.yul\":6343:6709   */\n      swap2\n      swap1\n      pop\n      jump\t// out\n        /* \"#utility.yul\":6715:7134   */\n    tag_61:\n        /* \"#utility.yul\":6881:6885   */\n      0x00\n        /* \"#utility.yul\":6919:6921   */\n      0x20\n        /* \"#utility.yul\":6908:6917   */\n      dup3\n        /* \"#utility.yul\":6904:6922   */\n      add\n        /* \"#utility.yul\":6896:6922   */\n      swap1\n      pop\n        /* \"#utility.yul\":6968:6977   */\n      dup2\n        /* \"#utility.yul\":6962:6966   */\n      dup2\n        /* \"#utility.yul\":6958:6978   */\n      sub\n        /* \"#utility.yul\":6954:6955   */\n      0x00\n        /* \"#utility.yul\":6943:6952   */\n      dup4\n        /* \"#utility.yul\":6939:6956   */\n      add\n        /* \"#utility.yul\":6932:6979   */\n      mstore\n        /* \"#utility.yul\":6996:7127   */\n      tag_240\n        /* \"#utility.yul\":7122:7126   */\n      dup2\n        /* \"#utility.yul\":6996:7127   */\n      tag_152\n      jump\t// in\n    tag_240:\n        /* \"#utility.yul\":6988:7127   */\n      swap1\n      pop\n        /* \"#utility.yul\":6715:7134   */\n      swap2\n      swap1\n      pop\n      jump\t// out\n        /* \"#utility.yul\":7140:7310   */\n    tag_153:\n        /* \"#utility.yul\":7280:7302   */\n      0x486173206e6f20726967687420746f20766f7465000000000000000000000000\n        /* \"#utility.yul\":7276:7277   */\n      0x00\n        /* \"#utility.yul\":7268:7274   */\n      dup3\n        /* \"#utility.yul\":7264:7278   */\n      add\n        /* \"#utility.yul\":7257:7303   */\n      mstore\n        /* \"#utility.yul\":7140:7310   */\n      pop\n      jump\t// out\n        /* \"#utility.yul\":7316:7682   */\n    tag_154:\n        /* \"#utility.yul\":7458:7461   */\n      0x00\n        /* \"#utility.yul\":7479:7546   */\n      tag_243\n        /* \"#utility.yul\":7543:7545   */\n      0x14\n        /* \"#utility.yul\":7538:7541   */\n      dup4\n        /* \"#utility.yul\":7479:7546   */\n      tag_137\n      jump\t// in\n    tag_243:\n        /* \"#utility.yul\":7472:7546   */\n      swap2\n      pop\n        /* \"#utility.yul\":7555:7648   */\n      tag_244\n        /* \"#utility.yul\":7644:7647   */\n      dup3\n        /* \"#utility.yul\":7555:7648   */\n      tag_153\n      jump\t// in\n    tag_244:\n        /* \"#utility.yul\":7673:7675   */\n      0x20\n        /* \"#utility.yul\":7668:7671   */\n      dup3\n        /* \"#utility.yul\":7664:7676   */\n      add\n        /* \"#utility.yul\":7657:7676   */\n      swap1\n      pop\n        /* \"#utility.yul\":7316:7682   */\n      swap2\n      swap1\n      pop\n      jump\t// out\n        /* \"#utility.yul\":7688:8107   */\n    tag_64:\n        /* \"#utility.yul\":7854:7858   */\n      0x00\n        /* \"#utility.yul\":7892:7894   */\n      0x20\n        /* \"#utility.yul\":7881:7890   */\n      dup3\n        /* \"#utility.yul\":7877:7895   */\n      add\n        /* \"#utility.yul\":7869:7895   */\n      swap1\n      pop\n        /* \"#utility.yul\":7941:7950   */\n      dup2\n        /* \"#utility.yul\":7935:7939   */\n      dup2\n        /* \"#utility.yul\":7931:7951   */\n      sub\n        /* \"#utility.yul\":7927:7928   */\n      0x00\n        /* \"#utility.yul\":7916:7925   */\n      dup4\n        /* \"#utility.yul\":7912:7929   */\n      add\n        /* \"#utility.yul\":7905:7952   */\n      mstore\n        /* \"#utility.yul\":7969:8100   */\n      tag_246\n        /* \"#utility.yul\":8095:8099   */\n      dup2\n        /* \"#utility.yul\":7969:8100   */\n      tag_154\n      jump\t// in\n    tag_246:\n        /* \"#utility.yul\":7961:8100   */\n      swap1\n      pop\n        /* \"#utility.yul\":7688:8107   */\n      swap2\n      swap1\n      pop\n      jump\t// out\n        /* \"#utility.yul\":8113:8277   */\n    tag_155:\n        /* \"#utility.yul\":8253:8269   */\n      0x416c726561647920766f7465642e000000000000000000000000000000000000\n        /* \"#utility.yul\":8249:8250   */\n      0x00\n        /* \"#utility.yul\":8241:8247   */\n      dup3\n        /* \"#utility.yul\":8237:8251   */\n      add\n        /* \"#utility.yul\":8230:8270   */\n      mstore\n        /* \"#utility.yul\":8113:8277   */\n      pop\n      jump\t// out\n        /* \"#utility.yul\":8283:8649   */\n    tag_156:\n        /* \"#utility.yul\":8425:8428   */\n      0x00\n        /* \"#utility.yul\":8446:8513   */\n      tag_249\n        /* \"#utility.yul\":8510:8512   */\n      0x0e\n        /* \"#utility.yul\":8505:8508   */\n      dup4\n        /* \"#utility.yul\":8446:8513   */\n      tag_137\n      jump\t// in\n    tag_249:\n        /* \"#utility.yul\":8439:8513   */\n      swap2\n      pop\n        /* \"#utility.yul\":8522:8615   */\n      tag_250\n        /* \"#utility.yul\":8611:8614   */\n      dup3\n        /* \"#utility.yul\":8522:8615   */\n      tag_155\n      jump\t// in\n    tag_250:\n        /* \"#utility.yul\":8640:8642   */\n      0x20\n        /* \"#utility.yul\":8635:8638   */\n      dup3\n        /* \"#utility.yul\":8631:8643   */\n      add\n        /* \"#utility.yul\":8624:8643   */\n      swap1\n      pop\n        /* \"#utility.yul\":8283:8649   */\n      swap2\n      swap1\n      pop\n      jump\t// out\n        /* \"#utility.yul\":8655:9074   */\n    tag_67:\n        /* \"#utility.yul\":8821:8825   */\n      0x00\n        /* \"#utility.yul\":8859:8861   */\n      0x20\n        /* \"#utility.yul\":8848:8857   */\n      dup3\n        /* \"#utility.yul\":8844:8862   */\n      add\n        /* \"#utility.yul\":8836:8862   */\n      swap1\n      pop\n        /* \"#utility.yul\":8908:8917   */\n      dup2\n        /* \"#utility.yul\":8902:8906   */\n      dup2\n        /* \"#utility.yul\":8898:8918   */\n      sub\n        /* \"#utility.yul\":8894:8895   */\n      0x00\n        /* \"#utility.yul\":8883:8892   */\n      dup4\n        /* \"#utility.yul\":8879:8896   */\n      add\n        /* \"#utility.yul\":8872:8919   */\n      mstore\n        /* \"#utility.yul\":8936:9067   */\n      tag_252\n        /* \"#utility.yul\":9062:9066   */\n      dup2\n        /* \"#utility.yul\":8936:9067   */\n      tag_156\n      jump\t// in\n    tag_252:\n        /* \"#utility.yul\":8928:9067   */\n      swap1\n      pop\n        /* \"#utility.yul\":8655:9074   */\n      swap2\n      swap1\n      pop\n      jump\t// out\n        /* \"#utility.yul\":9080:9260   */\n    tag_70:\n        /* \"#utility.yul\":9128:9205   */\n      0x4e487b7100000000000000000000000000000000000000000000000000000000\n        /* \"#utility.yul\":9125:9126   */\n      0x00\n        /* \"#utility.yul\":9118:9206   */\n      mstore\n        /* \"#utility.yul\":9225:9229   */\n      0x32\n        /* \"#utility.yul\":9222:9223   */\n      0x04\n        /* \"#utility.yul\":9215:9230   */\n      mstore\n        /* \"#utility.yul\":9249:9253   */\n      0x24\n        /* \"#utility.yul\":9246:9247   */\n      0x00\n        /* \"#utility.yul\":9239:9254   */\n      revert\n        /* \"#utility.yul\":9266:9446   */\n    tag_157:\n        /* \"#utility.yul\":9314:9391   */\n      0x4e487b7100000000000000000000000000000000000000000000000000000000\n        /* \"#utility.yul\":9311:9312   */\n      0x00\n        /* \"#utility.yul\":9304:9392   */\n      mstore\n        /* \"#utility.yul\":9411:9415   */\n      0x11\n        /* \"#utility.yul\":9408:9409   */\n      0x04\n        /* \"#utility.yul\":9401:9416   */\n      mstore\n        /* \"#utility.yul\":9435:9439   */\n      0x24\n        /* \"#utility.yul\":9432:9433   */\n      0x00\n        /* \"#utility.yul\":9425:9440   */\n      revert\n        /* \"#utility.yul\":9452:9757   */\n    tag_73:\n        /* \"#utility.yul\":9492:9495   */\n      0x00\n        /* \"#utility.yul\":9511:9531   */\n      tag_256\n        /* \"#utility.yul\":9529:9530   */\n      dup3\n        /* \"#utility.yul\":9511:9531   */\n      tag_133\n      jump\t// in\n    tag_256:\n        /* \"#utility.yul\":9506:9531   */\n      swap2\n      pop\n        /* \"#utility.yul\":9545:9565   */\n      tag_257\n        /* \"#utility.yul\":9563:9564   */\n      dup4\n        /* \"#utility.yul\":9545:9565   */\n      tag_133\n      jump\t// in\n    tag_257:\n        /* \"#utility.yul\":9540:9565   */\n      swap3\n      pop\n        /* \"#utility.yul\":9699:9700   */\n      dup3\n        /* \"#utility.yul\":9631:9697   */\n      0xffffffffffffffffffffffffffffffffffffffffffffffffffffffffffffffff\n        /* \"#utility.yul\":9627:9701   */\n      sub\n        /* \"#utility.yul\":9624:9625   */\n      dup3\n        /* \"#utility.yul\":9621:9702   */\n      gt\n        /* \"#utility.yul\":9618:9725   */\n      iszero\n      tag_258\n      jumpi\n        /* \"#utility.yul\":9705:9723   */\n      tag_259\n      tag_157\n      jump\t// in\n    tag_259:\n        /* \"#utility.yul\":9618:9725   */\n    tag_258:\n        /* \"#utility.yul\":9749:9750   */\n      dup3\n        /* \"#utility.yul\":9746:9747   */\n      dup3\n        /* \"#utility.yul\":9742:9751   */\n      add\n        /* \"#utility.yul\":9735:9751   */\n      swap1\n      pop\n        /* \"#utility.yul\":9452:9757   */\n      swap3\n      swap2\n      pop\n      pop\n      jump\t// out\n        /* \"#utility.yul\":9763:9943   */\n    tag_158:\n        /* \"#utility.yul\":9811:9888   */\n      0x4e487b7100000000000000000000000000000000000000000000000000000000\n        /* \"#utility.yul\":9808:9809   */\n      0x00\n        /* \"#utility.yul\":9801:9889   */\n      mstore\n        /* \"#utility.yul\":9908:9912   */\n      0x22\n        /* \"#utility.yul\":9905:9906   */\n      0x04\n        /* \"#utility.yul\":9898:9913   */\n      mstore\n        /* \"#utility.yul\":9932:9936   */\n      0x24\n        /* \"#utility.yul\":9929:9930   */\n      0x00\n        /* \"#utility.yul\":9922:9937   */\n      revert\n        /* \"#utility.yul\":9949:10269   */\n    tag_77:\n        /* \"#utility.yul\":9993:9999   */\n      0x00\n        /* \"#utility.yul\":10030:10031   */\n      0x02\n        /* \"#utility.yul\":10024:10028   */\n      dup3\n        /* \"#utility.yul\":10020:10032   */\n      div\n        /* \"#utility.yul\":10010:10032   */\n      swap1\n      pop\n        /* \"#utility.yul\":10077:10078   */\n      0x01\n        /* \"#utility.yul\":10071:10075   */\n      dup3\n        /* \"#utility.yul\":10067:10079   */\n      and\n        /* \"#utility.yul\":10098:10116   */\n      dup1\n        /* \"#utility.yul\":10088:10169   */\n      tag_262\n      jumpi\n        /* \"#utility.yul\":10154:10158   */\n      0x7f\n        /* \"#utility.yul\":10146:10152   */\n      dup3\n        /* \"#utility.yul\":10142:10159   */\n      and\n        /* \"#utility.yul\":10132:10159   */\n      swap2\n      pop\n        /* \"#utility.yul\":10088:10169   */\n    tag_262:\n        /* \"#utility.yul\":10216:10218   */\n      0x20\n        /* \"#utility.yul\":10208:10214   */\n      dup3\n        /* \"#utility.yul\":10205:10219   */\n      lt\n        /* \"#utility.yul\":10185:10203   */\n      dup2\n        /* \"#utility.yul\":10182:10220   */\n      sub\n        /* \"#utility.yul\":10179:10263   */\n      tag_263\n      jumpi\n        /* \"#utility.yul\":10235:10253   */\n      tag_264\n      tag_158\n      jump\t// in\n    tag_264:\n        /* \"#utility.yul\":10179:10263   */\n    tag_263:\n        /* \"#utility.yul\":10000:10269   */\n      pop\n        /* \"#utility.yul\":9949:10269   */\n      swap2\n      swap1\n      pop\n      jump\t// out\n        /* \"#utility.yul\":10275:10508   */\n    tag_94:\n        /* \"#utility.yul\":10314:10317   */\n      0x00\n        /* \"#utility.yul\":10337:10361   */\n      tag_266\n        /* \"#utility.yul\":10355:10360   */\n      dup3\n        /* \"#utility.yul\":10337:10361   */\n      tag_133\n      jump\t// in\n    tag_266:\n        /* \"#utility.yul\":10328:10361   */\n      swap2\n      pop\n        /* \"#utility.yul\":10383:10449   */\n      0xffffffffffffffffffffffffffffffffffffffffffffffffffffffffffffffff\n        /* \"#utility.yul\":10376:10381   */\n      dup3\n        /* \"#utility.yul\":10373:10450   */\n      sub\n        /* \"#utility.yul\":10370:10473   */\n      tag_267\n      jumpi\n        /* \"#utility.yul\":10453:10471   */\n      tag_268\n      tag_157\n      jump\t// in\n    tag_268:\n        /* \"#utility.yul\":10370:10473   */\n    tag_267:\n        /* \"#utility.yul\":10500:10501   */\n      0x01\n        /* \"#utility.yul\":10493:10498   */\n      dup3\n        /* \"#utility.yul\":10489:10502   */\n      add\n        /* \"#utility.yul\":10482:10502   */\n      swap1\n      pop\n        /* \"#utility.yul\":10275:10508   */\n      swap2\n      swap1\n      pop\n      jump\t// out\n        /* \"#utility.yul\":10514:10741   */\n    tag_159:\n        /* \"#utility.yul\":10654:10688   */\n      0x4f6e6c79206368616972706572736f6e2063616e206769766520726967687420\n        /* \"#utility.yul\":10650:10651   */\n      0x00\n        /* \"#utility.yul\":10642:10648   */\n      dup3\n        /* \"#utility.yul\":10638:10652   */\n      add\n        /* \"#utility.yul\":10631:10689   */\n      mstore\n        /* \"#utility.yul\":10723:10733   */\n      0x746f20766f74652e000000000000000000000000000000000000000000000000\n        /* \"#utility.yul\":10718:10720   */\n      0x20\n        /* \"#utility.yul\":10710:10716   */\n      dup3\n        /* \"#utility.yul\":10706:10721   */\n      add\n        /* \"#utility.yul\":10699:10734   */\n      mstore\n        /* \"#utility.yul\":10514:10741   */\n      pop\n      jump\t// out\n        /* \"#utility.yul\":10747:11113   */\n    tag_160:\n        /* \"#utility.yul\":10889:10892   */\n      0x00\n        /* \"#utility.yul\":10910:10977   */\n      tag_271\n        /* \"#utility.yul\":10974:10976   */\n      0x28\n        /* \"#utility.yul\":10969:10972   */\n      dup4\n        /* \"#utility.yul\":10910:10977   */\n      tag_137\n      jump\t// in\n    tag_271:\n        /* \"#utility.yul\":10903:10977   */\n      swap2\n      pop\n        /* \"#utility.yul\":10986:11079   */\n      tag_272\n        /* \"#utility.yul\":11075:11078   */\n      dup3\n        /* \"#utility.yul\":10986:11079   */\n      tag_159\n      jump\t// in\n    tag_272:\n        /* \"#utility.yul\":11104:11106   */\n      0x40\n        /* \"#utility.yul\":11099:11102   */\n      dup3\n        /* \"#utility.yul\":11095:11107   */\n      add\n        /* \"#utility.yul\":11088:11107   */\n      swap1\n      pop\n        /* \"#utility.yul\":10747:11113   */\n      swap2\n      swap1\n      pop\n      jump\t// out\n        /* \"#utility.yul\":11119:11538   */\n    tag_98:\n        /* \"#utility.yul\":11285:11289   */\n      0x00\n        /* \"#utility.yul\":11323:11325   */\n      0x20\n        /* \"#utility.yul\":11312:11321   */\n      dup3\n        /* \"#utility.yul\":11308:11326   */\n      add\n        /* \"#utility.yul\":11300:11326   */\n      swap1\n      pop\n        /* \"#utility.yul\":11372:11381   */\n      dup2\n        /* \"#utility.yul\":11366:11370   */\n      dup2\n        /* \"#utility.yul\":11362:11382   */\n      sub\n        /* \"#utility.yul\":11358:11359   */\n      0x00\n        /* \"#utility.yul\":11347:11356   */\n      dup4\n        /* \"#utility.yul\":11343:11360   */\n      add\n        /* \"#utility.yul\":11336:11383   */\n      mstore\n        /* \"#utility.yul\":11400:11531   */\n      tag_274\n        /* \"#utility.yul\":11526:11530   */\n      dup2\n        /* \"#utility.yul\":11400:11531   */\n      tag_160\n      jump\t// in\n    tag_274:\n        /* \"#utility.yul\":11392:11531   */\n      swap1\n      pop\n        /* \"#utility.yul\":11119:11538   */\n      swap2\n      swap1\n      pop\n      jump\t// out\n        /* \"#utility.yul\":11544:11718   */\n    tag_161:\n        /* \"#utility.yul\":11684:11710   */\n      0x54686520766f74657220616c726561647920766f7465642e0000000000000000\n        /* \"#utility.yul\":11680:11681   */\n      0x00\n        /* \"#utility.yul\":11672:11678   */\n      dup3\n        /* \"#utility.yul\":11668:11682   */\n      add\n        /* \"#utility.yul\":11661:11711   */\n      mstore\n        /* \"#utility.yul\":11544:11718   */\n      pop\n      jump\t// out\n        /* \"#utility.yul\":11724:12090   */\n    tag_162:\n        /* \"#utility.yul\":11866:11869   */\n      0x00\n        /* \"#utility.yul\":11887:11954   */\n      tag_277\n        /* \"#utility.yul\":11951:11953   */\n      0x18\n        /* \"#utility.yul\":11946:11949   */\n      dup4\n        /* \"#utility.yul\":11887:11954   */\n      tag_137\n      jump\t// in\n    tag_277:\n        /* \"#utility.yul\":11880:11954   */\n      swap2\n      pop\n        /* \"#utility.yul\":11963:12056   */\n      tag_278\n        /* \"#utility.yul\":12052:12055   */\n      dup3\n        /* \"#utility.yul\":11963:12056   */\n      tag_161\n      jump\t// in\n    tag_278:\n        /* \"#utility.yul\":12081:12083   */\n      0x20\n        /* \"#utility.yul\":12076:12079   */\n      dup3\n        /* \"#utility.yul\":12072:12084   */\n      add\n        /* \"#utility.yul\":12065:12084   */\n      swap1\n      pop\n        /* \"#utility.yul\":11724:12090   */\n      swap2\n      swap1\n      pop\n      jump\t// out\n        /* \"#utility.yul\":12096:12515   */\n    tag_101:\n        /* \"#utility.yul\":12262:12266   */\n      0x00\n        /* \"#utility.yul\":12300:12302   */\n      0x20\n        /* \"#utility.yul\":12289:12298   */\n      dup3\n        /* \"#utility.yul\":12285:12303   */\n      add\n        /* \"#utility.yul\":12277:12303   */\n      swap1\n      pop\n        /* \"#utility.yul\":12349:12358   */\n      dup2\n        /* \"#utility.yul\":12343:12347   */\n      dup2\n        /* \"#utility.yul\":12339:12359   */\n      sub\n        /* \"#utility.yul\":12335:12336   */\n      0x00\n        /* \"#utility.yul\":12324:12333   */\n      dup4\n        /* \"#utility.yul\":12320:12337   */\n      add\n        /* \"#utility.yul\":12313:12360   */\n      mstore\n        /* \"#utility.yul\":12377:12508   */\n      tag_280\n        /* \"#utility.yul\":12503:12507   */\n      dup2\n        /* \"#utility.yul\":12377:12508   */\n      tag_162\n      jump\t// in\n    tag_280:\n        /* \"#utility.yul\":12369:12508   */\n      swap1\n      pop\n        /* \"#utility.yul\":12096:12515   */\n      swap2\n      swap1\n      pop\n      jump\t// out\n        /* \"#utility.yul\":12521:12750   */\n    tag_163:\n        /* \"#utility.yul\":12661:12695   */\n      0x4f6e6c79206368616972706572736f6e2063616e20646566696e6520766f7469\n        /* \"#utility.yul\":12657:12658   */\n      0x00\n        /* \"#utility.yul\":12649:12655   */\n      dup3\n        /* \"#utility.yul\":12645:12659   */\n      add\n        /* \"#utility.yul\":12638:12696   */\n      mstore\n        /* \"#utility.yul\":12730:12742   */\n      0x6e6720706572696f642e00000000000000000000000000000000000000000000\n        /* \"#utility.yul\":12725:12727   */\n      0x20\n        /* \"#utility.yul\":12717:12723   */\n      dup3\n        /* \"#utility.yul\":12713:12728   */\n      add\n        /* \"#utility.yul\":12706:12743   */\n      mstore\n        /* \"#utility.yul\":12521:12750   */\n      pop\n      jump\t// out\n        /* \"#utility.yul\":12756:13122   */\n    tag_164:\n        /* \"#utility.yul\":12898:12901   */\n      0x00\n        /* \"#utility.yul\":12919:12986   */\n      tag_283\n        /* \"#utility.yul\":12983:12985   */\n      0x2a\n        /* \"#utility.yul\":12978:12981   */\n      dup4\n        /* \"#utility.yul\":12919:12986   */\n      tag_137\n      jump\t// in\n    tag_283:\n        /* \"#utility.yul\":12912:12986   */\n      swap2\n      pop\n        /* \"#utility.yul\":12995:13088   */\n      tag_284\n        /* \"#utility.yul\":13084:13087   */\n      dup3\n        /* \"#utility.yul\":12995:13088   */\n      tag_163\n      jump\t// in\n    tag_284:\n        /* \"#utility.yul\":13113:13115   */\n      0x40\n        /* \"#utility.yul\":13108:13111   */\n      dup3\n        /* \"#utility.yul\":13104:13116   */\n      add\n        /* \"#utility.yul\":13097:13116   */\n      swap1\n      pop\n        /* \"#utility.yul\":12756:13122   */\n      swap2\n      swap1\n      pop\n      jump\t// out\n        /* \"#utility.yul\":13128:13547   */\n    tag_106:\n        /* \"#utility.yul\":13294:13298   */\n      0x00\n        /* \"#utility.yul\":13332:13334   */\n      0x20\n        /* \"#utility.yul\":13321:13330   */\n      dup3\n        /* \"#utility.yul\":13317:13335   */\n      add\n        /* \"#utility.yul\":13309:13335   */\n      swap1\n      pop\n        /* \"#utility.yul\":13381:13390   */\n      dup2\n        /* \"#utility.yul\":13375:13379   */\n      dup2\n        /* \"#utility.yul\":13371:13391   */\n      sub\n        /* \"#utility.yul\":13367:13368   */\n      0x00\n        /* \"#utility.yul\":13356:13365   */\n      dup4\n        /* \"#utility.yul\":13352:13369   */\n      add\n        /* \"#utility.yul\":13345:13392   */\n      mstore\n        /* \"#utility.yul\":13409:13540   */\n      tag_286\n        /* \"#utility.yul\":13535:13539   */\n      dup2\n        /* \"#utility.yul\":13409:13540   */\n      tag_164\n      jump\t// in\n    tag_286:\n        /* \"#utility.yul\":13401:13540   */\n      swap1\n      pop\n        /* \"#utility.yul\":13128:13547   */\n      swap2\n      swap1\n      pop\n      jump\t// out\n        /* \"#utility.yul\":13553:13901   */\n    tag_108:\n        /* \"#utility.yul\":13593:13600   */\n      0x00\n        /* \"#utility.yul\":13616:13636   */\n      tag_288\n        /* \"#utility.yul\":13634:13635   */\n      dup3\n        /* \"#utility.yul\":13616:13636   */\n      tag_133\n      jump\t// in\n    tag_288:\n        /* \"#utility.yul\":13611:13636   */\n      swap2\n      pop\n        /* \"#utility.yul\":13650:13670   */\n      tag_289\n        /* \"#utility.yul\":13668:13669   */\n      dup4\n        /* \"#utility.yul\":13650:13670   */\n      tag_133\n      jump\t// in\n    tag_289:\n        /* \"#utility.yul\":13645:13670   */\n      swap3\n      pop\n        /* \"#utility.yul\":13838:13839   */\n      dup2\n        /* \"#utility.yul\":13770:13836   */\n      0xffffffffffffffffffffffffffffffffffffffffffffffffffffffffffffffff\n        /* \"#utility.yul\":13766:13840   */\n      div\n        /* \"#utility.yul\":13763:13764   */\n      dup4\n        /* \"#utility.yul\":13760:13841   */\n      gt\n        /* \"#utility.yul\":13755:13756   */\n      dup3\n        /* \"#utility.yul\":13748:13757   */\n      iszero\n        /* \"#utility.yul\":13741:13758   */\n      iszero\n        /* \"#utility.yul\":13737:13842   */\n      and\n        /* \"#utility.yul\":13734:13865   */\n      iszero\n      tag_290\n      jumpi\n        /* \"#utility.yul\":13845:13863   */\n      tag_291\n      tag_157\n      jump\t// in\n    tag_291:\n        /* \"#utility.yul\":13734:13865   */\n    tag_290:\n        /* \"#utility.yul\":13893:13894   */\n      dup3\n        /* \"#utility.yul\":13890:13891   */\n      dup3\n        /* \"#utility.yul\":13886:13895   */\n      mul\n        /* \"#utility.yul\":13875:13895   */\n      swap1\n      pop\n        /* \"#utility.yul\":13553:13901   */\n      swap3\n      swap2\n      pop\n      pop\n      jump\t// out\n        /* \"#utility.yul\":13907:14204   */\n    tag_165:\n        /* \"#utility.yul\":14047:14081   */\n      0x496e76616c696420506572696f642c20766f74696e6720656e64206d696e7574\n        /* \"#utility.yul\":14043:14044   */\n      0x00\n        /* \"#utility.yul\":14035:14041   */\n      dup3\n        /* \"#utility.yul\":14031:14045   */\n      add\n        /* \"#utility.yul\":14024:14082   */\n      mstore\n        /* \"#utility.yul\":14116:14150   */\n      0x6573206d7573742067726561746572207468616e20766f74696e672073746172\n        /* \"#utility.yul\":14111:14113   */\n      0x20\n        /* \"#utility.yul\":14103:14109   */\n      dup3\n        /* \"#utility.yul\":14099:14114   */\n      add\n        /* \"#utility.yul\":14092:14151   */\n      mstore\n        /* \"#utility.yul\":14185:14196   */\n      0x74206d696e757465730000000000000000000000000000000000000000000000\n        /* \"#utility.yul\":14180:14182   */\n      0x40\n        /* \"#utility.yul\":14172:14178   */\n      dup3\n        /* \"#utility.yul\":14168:14183   */\n      add\n        /* \"#utility.yul\":14161:14197   */\n      mstore\n        /* \"#utility.yul\":13907:14204   */\n      pop\n      jump\t// out\n        /* \"#utility.yul\":14210:14576   */\n    tag_166:\n        /* \"#utility.yul\":14352:14355   */\n      0x00\n        /* \"#utility.yul\":14373:14440   */\n      tag_294\n        /* \"#utility.yul\":14437:14439   */\n      0x49\n        /* \"#utility.yul\":14432:14435   */\n      dup4\n        /* \"#utility.yul\":14373:14440   */\n      tag_137\n      jump\t// in\n    tag_294:\n        /* \"#utility.yul\":14366:14440   */\n      swap2\n      pop\n        /* \"#utility.yul\":14449:14542   */\n      tag_295\n        /* \"#utility.yul\":14538:14541   */\n      dup3\n        /* \"#utility.yul\":14449:14542   */\n      tag_165\n      jump\t// in\n    tag_295:\n        /* \"#utility.yul\":14567:14569   */\n      0x60\n        /* \"#utility.yul\":14562:14565   */\n      dup3\n        /* \"#utility.yul\":14558:14570   */\n      add\n        /* \"#utility.yul\":14551:14570   */\n      swap1\n      pop\n        /* \"#utility.yul\":14210:14576   */\n      swap2\n      swap1\n      pop\n      jump\t// out\n        /* \"#utility.yul\":14582:15001   */\n    tag_115:\n        /* \"#utility.yul\":14748:14752   */\n      0x00\n        /* \"#utility.yul\":14786:14788   */\n      0x20\n        /* \"#utility.yul\":14775:14784   */\n      dup3\n        /* \"#utility.yul\":14771:14789   */\n      add\n        /* \"#utility.yul\":14763:14789   */\n      swap1\n      pop\n        /* \"#utility.yul\":14835:14844   */\n      dup2\n        /* \"#utility.yul\":14829:14833   */\n      dup2\n        /* \"#utility.yul\":14825:14845   */\n      sub\n        /* \"#utility.yul\":14821:14822   */\n      0x00\n        /* \"#utility.yul\":14810:14819   */\n      dup4\n        /* \"#utility.yul\":14806:14823   */\n      add\n        /* \"#utility.yul\":14799:14846   */\n      mstore\n        /* \"#utility.yul\":14863:14994   */\n      tag_297\n        /* \"#utility.yul\":14989:14993   */\n      dup2\n        /* \"#utility.yul\":14863:14994   */\n      tag_166\n      jump\t// in\n    tag_297:\n        /* \"#utility.yul\":14855:14994   */\n      swap1\n      pop\n        /* \"#utility.yul\":14582:15001   */\n      swap2\n      swap1\n      pop\n      jump\t// out\n\n    auxdata: 0xa2646970667358221220a52e3feb9df581f176c0188729bb228024ea3875a0235581d4d1f9f3b019fc4664736f6c634300080d0033\n}\n",
				"bytecode": {
					"linkReferences": {},
					"object": "6080604052600060015560006002553480156200001b57600080fd5b5060405162001839380380620018398339818101604052810190620000419190620004e7565b336000806101000a81548173ffffffffffffffffffffffffffffffffffffffff021916908373ffffffffffffffffffffffffffffffffffffffff1602179055506001600360008060009054906101000a900473ffffffffffffffffffffffffffffffffffffffff1673ffffffffffffffffffffffffffffffffffffffff1673ffffffffffffffffffffffffffffffffffffffff1681526020019081526020016000206000018190555060005b81518110156200019657600460405180604001604052808484815181106200011a576200011962000538565b5b60200260200101518152602001600081525090806001815401808255809150506001900390600052602060002090600202016000909190919091506000820151816000019080519060200190620001739291906200019e565b5060208201518160010155505080806200018d90620005a0565b915050620000ed565b505062000651565b828054620001ac906200061c565b90600052602060002090601f016020900481019282620001d057600085556200021c565b82601f10620001eb57805160ff19168380011785556200021c565b828001600101855582156200021c579182015b828111156200021b578251825591602001919060010190620001fe565b5b5090506200022b91906200022f565b5090565b5b808211156200024a57600081600090555060010162000230565b5090565b6000604051905090565b600080fd5b600080fd5b600080fd5b6000601f19601f8301169050919050565b7f4e487b7100000000000000000000000000000000000000000000000000000000600052604160045260246000fd5b620002b28262000267565b810181811067ffffffffffffffff82111715620002d457620002d362000278565b5b80604052505050565b6000620002e96200024e565b9050620002f78282620002a7565b919050565b600067ffffffffffffffff8211156200031a576200031962000278565b5b602082029050602081019050919050565b600080fd5b600080fd5b600067ffffffffffffffff82111562000353576200035262000278565b5b6200035e8262000267565b9050602081019050919050565b60005b838110156200038b5780820151818401526020810190506200036e565b838111156200039b576000848401525b50505050565b6000620003b8620003b28462000335565b620002dd565b905082815260208101848484011115620003d757620003d662000330565b5b620003e48482856200036b565b509392505050565b600082601f83011262000404576200040362000262565b5b815162000416848260208601620003a1565b91505092915050565b6000620004366200043084620002fc565b620002dd565b905080838252602082019050602084028301858111156200045c576200045b6200032b565b5b835b81811015620004aa57805167ffffffffffffffff81111562000485576200048462000262565b5b808601620004948982620003ec565b855260208501945050506020810190506200045e565b5050509392505050565b600082601f830112620004cc57620004cb62000262565b5b8151620004de8482602086016200041f565b91505092915050565b6000602082840312156200050057620004ff62000258565b5b600082015167ffffffffffffffff8111156200052157620005206200025d565b5b6200052f84828501620004b4565b91505092915050565b7f4e487b7100000000000000000000000000000000000000000000000000000000600052603260045260246000fd5b7f4e487b7100000000000000000000000000000000000000000000000000000000600052601160045260246000fd5b6000819050919050565b6000620005ad8262000596565b91507fffffffffffffffffffffffffffffffffffffffffffffffffffffffffffffffff8203620005e257620005e162000567565b5b600182019050919050565b7f4e487b7100000000000000000000000000000000000000000000000000000000600052602260045260246000fd5b600060028204905060018216806200063557607f821691505b6020821081036200064b576200064a620005ed565b5b50919050565b6111d880620006616000396000f3fe608060405234801561001057600080fd5b506004361061009e5760003560e01c806385a386351161006657806385a386351461014a5780639e7b8d6114610168578063a3ec138d14610184578063acf7b570146101b6578063dfbf53ae146101d25761009e565b80630121b93f146100a3578063013cf08b146100bf578063101158af146100f05780632e4176cf1461010e578063609ff1bd1461012c575b600080fd5b6100bd60048036038101906100b8919061098d565b6101f1565b005b6100d960048036038101906100d4919061098d565b6103df565b6040516100e7929190610a62565b60405180910390f35b6100f861049b565b6040516101059190610a92565b60405180910390f35b6101166104a1565b6040516101239190610aee565b60405180910390f35b6101346104c5565b6040516101419190610a92565b60405180910390f35b61015261054d565b60405161015f9190610a92565b60405180910390f35b610182600480360381019061017d9190610b35565b610553565b005b61019e60048036038101906101999190610b35565b61070b565b6040516101ad93929190610b7d565b60405180910390f35b6101d060048036038101906101cb9190610bb4565b610742565b005b6101da610864565b6040516101e8929190610a62565b60405180910390f35b6000600360003373ffffffffffffffffffffffffffffffffffffffff1673ffffffffffffffffffffffffffffffffffffffff168152602001908152602001600020905060006001541415801561024957504260015411155b610288576040517f08c379a000000000000000000000000000000000000000000000000000000000815260040161027f90610c40565b60405180910390fd5b60006002541415801561029d57504260025410155b6102dc576040517f08c379a00000000000000000000000000000000000000000000000000000000081526004016102d390610cac565b60405180910390fd5b6000816000015403610323576040517f08c379a000000000000000000000000000000000000000000000000000000000815260040161031a90610d18565b60405180910390fd5b8060010160009054906101000a900460ff1615610375576040517f08c379a000000000000000000000000000000000000000000000000000000000815260040161036c90610d84565b60405180910390fd5b60018160010160006101000a81548160ff0219169083151502179055508181600201819055508060000154600483815481106103b4576103b3610da4565b5b906000526020600020906002020160010160008282546103d49190610e02565b925050819055505050565b600481815481106103ef57600080fd5b906000526020600020906002020160009150905080600001805461041290610e87565b80601f016020809104026020016040519081016040528092919081815260200182805461043e90610e87565b801561048b5780601f106104605761010080835404028352916020019161048b565b820191906000526020600020905b81548152906001019060200180831161046e57829003601f168201915b5050505050908060010154905082565b60015481565b60008054906101000a900473ffffffffffffffffffffffffffffffffffffffff1681565b6000806000905060005b6004805490508110156105485781600482815481106104f1576104f0610da4565b5b9060005260206000209060020201600101541115610535576004818154811061051d5761051c610da4565b5b90600052602060002090600202016001015491508092505b808061054090610eb8565b9150506104cf565b505090565b60025481565b60008054906101000a900473ffffffffffffffffffffffffffffffffffffffff1673ffffffffffffffffffffffffffffffffffffffff163373ffffffffffffffffffffffffffffffffffffffff16146105e1576040517f08c379a00000000000000000000000000000000000000000000000000000000081526004016105d890610f72565b60405180910390fd5b600360008273ffffffffffffffffffffffffffffffffffffffff1673ffffffffffffffffffffffffffffffffffffffff16815260200190815260200160002060010160009054906101000a900460ff1615610671576040517f08c379a000000000000000000000000000000000000000000000000000000000815260040161066890610fde565b60405180910390fd5b6000600360008373ffffffffffffffffffffffffffffffffffffffff1673ffffffffffffffffffffffffffffffffffffffff16815260200190815260200160002060000154146106c057600080fd5b6001600360008373ffffffffffffffffffffffffffffffffffffffff1673ffffffffffffffffffffffffffffffffffffffff1681526020019081526020016000206000018190555050565b60036020528060005260406000206000915090508060000154908060010160009054906101000a900460ff16908060020154905083565b60008054906101000a900473ffffffffffffffffffffffffffffffffffffffff1673ffffffffffffffffffffffffffffffffffffffff163373ffffffffffffffffffffffffffffffffffffffff16146107d0576040517f08c379a00000000000000000000000000000000000000000000000000000000081526004016107c790611070565b60405180910390fd5b603c826107dd9190611090565b426107e89190610e02565b600181905550603c816107fb9190611090565b426108069190610e02565b60028190555060006001541180156108215750600254600154105b610860576040517f08c379a000000000000000000000000000000000000000000000000000000000815260040161085790611182565b60405180910390fd5b5050565b6060600060046108726104c5565b8154811061088357610882610da4565b5b9060005260206000209060020201600001805461089f90610e87565b80601f01602080910402602001604051908101604052809291908181526020018280546108cb90610e87565b80156109185780601f106108ed57610100808354040283529160200191610918565b820191906000526020600020905b8154815290600101906020018083116108fb57829003601f168201915b5050505050915060046109296104c5565b8154811061093a57610939610da4565b5b90600052602060002090600202016001015490509091565b600080fd5b6000819050919050565b61096a81610957565b811461097557600080fd5b50565b60008135905061098781610961565b92915050565b6000602082840312156109a3576109a2610952565b5b60006109b184828501610978565b91505092915050565b600081519050919050565b600082825260208201905092915050565b60005b838110156109f45780820151818401526020810190506109d9565b83811115610a03576000848401525b50505050565b6000601f19601f8301169050919050565b6000610a25826109ba565b610a2f81856109c5565b9350610a3f8185602086016109d6565b610a4881610a09565b840191505092915050565b610a5c81610957565b82525050565b60006040820190508181036000830152610a7c8185610a1a565b9050610a8b6020830184610a53565b9392505050565b6000602082019050610aa76000830184610a53565b92915050565b600073ffffffffffffffffffffffffffffffffffffffff82169050919050565b6000610ad882610aad565b9050919050565b610ae881610acd565b82525050565b6000602082019050610b036000830184610adf565b92915050565b610b1281610acd565b8114610b1d57600080fd5b50565b600081359050610b2f81610b09565b92915050565b600060208284031215610b4b57610b4a610952565b5b6000610b5984828501610b20565b91505092915050565b60008115159050919050565b610b7781610b62565b82525050565b6000606082019050610b926000830186610a53565b610b9f6020830185610b6e565b610bac6040830184610a53565b949350505050565b60008060408385031215610bcb57610bca610952565b5b6000610bd985828601610978565b9250506020610bea85828601610978565b9150509250929050565b7f566f7465206e6f74207374617274656420796574210000000000000000000000600082015250565b6000610c2a6015836109c5565b9150610c3582610bf4565b602082019050919050565b60006020820190508181036000830152610c5981610c1d565b9050919050565b7f566f74652068617320656e646564210000000000000000000000000000000000600082015250565b6000610c96600f836109c5565b9150610ca182610c60565b602082019050919050565b60006020820190508181036000830152610cc581610c89565b9050919050565b7f486173206e6f20726967687420746f20766f7465000000000000000000000000600082015250565b6000610d026014836109c5565b9150610d0d82610ccc565b602082019050919050565b60006020820190508181036000830152610d3181610cf5565b9050919050565b7f416c726561647920766f7465642e000000000000000000000000000000000000600082015250565b6000610d6e600e836109c5565b9150610d7982610d38565b602082019050919050565b60006020820190508181036000830152610d9d81610d61565b9050919050565b7f4e487b7100000000000000000000000000000000000000000000000000000000600052603260045260246000fd5b7f4e487b7100000000000000000000000000000000000000000000000000000000600052601160045260246000fd5b6000610e0d82610957565b9150610e1883610957565b9250827fffffffffffffffffffffffffffffffffffffffffffffffffffffffffffffffff03821115610e4d57610e4c610dd3565b5b828201905092915050565b7f4e487b7100000000000000000000000000000000000000000000000000000000600052602260045260246000fd5b60006002820490506001821680610e9f57607f821691505b602082108103610eb257610eb1610e58565b5b50919050565b6000610ec382610957565b91507fffffffffffffffffffffffffffffffffffffffffffffffffffffffffffffffff8203610ef557610ef4610dd3565b5b600182019050919050565b7f4f6e6c79206368616972706572736f6e2063616e20676976652072696768742060008201527f746f20766f74652e000000000000000000000000000000000000000000000000602082015250565b6000610f5c6028836109c5565b9150610f6782610f00565b604082019050919050565b60006020820190508181036000830152610f8b81610f4f565b9050919050565b7f54686520766f74657220616c726561647920766f7465642e0000000000000000600082015250565b6000610fc86018836109c5565b9150610fd382610f92565b602082019050919050565b60006020820190508181036000830152610ff781610fbb565b9050919050565b7f4f6e6c79206368616972706572736f6e2063616e20646566696e6520766f746960008201527f6e6720706572696f642e00000000000000000000000000000000000000000000602082015250565b600061105a602a836109c5565b915061106582610ffe565b604082019050919050565b600060208201905081810360008301526110898161104d565b9050919050565b600061109b82610957565b91506110a683610957565b9250817fffffffffffffffffffffffffffffffffffffffffffffffffffffffffffffffff04831182151516156110df576110de610dd3565b5b828202905092915050565b7f496e76616c696420506572696f642c20766f74696e6720656e64206d696e757460008201527f6573206d7573742067726561746572207468616e20766f74696e67207374617260208201527f74206d696e757465730000000000000000000000000000000000000000000000604082015250565b600061116c6049836109c5565b9150611177826110ea565b606082019050919050565b6000602082019050818103600083015261119b8161115f565b905091905056fea2646970667358221220a52e3feb9df581f176c0188729bb228024ea3875a0235581d4d1f9f3b019fc4664736f6c634300080d0033",
					"opcodes": "PUSH1 0x80 PUSH1 0x40 MSTORE PUSH1 0x0 PUSH1 0x1 SSTORE PUSH1 0x0 PUSH1 0x2 SSTORE CALLVALUE DUP1 ISZERO PUSH3 0x1B JUMPI PUSH1 0x0 DUP1 REVERT JUMPDEST POP PUSH1 0x40 MLOAD PUSH3 0x1839 CODESIZE SUB DUP1 PUSH3 0x1839 DUP4 CODECOPY DUP2 DUP2 ADD PUSH1 0x40 MSTORE DUP2 ADD SWAP1 PUSH3 0x41 SWAP2 SWAP1 PUSH3 0x4E7 JUMP JUMPDEST CALLER PUSH1 0x0 DUP1 PUSH2 0x100 EXP DUP2 SLOAD DUP2 PUSH20 0xFFFFFFFFFFFFFFFFFFFFFFFFFFFFFFFFFFFFFFFF MUL NOT AND SWAP1 DUP4 PUSH20 0xFFFFFFFFFFFFFFFFFFFFFFFFFFFFFFFFFFFFFFFF AND MUL OR SWAP1 SSTORE POP PUSH1 0x1 PUSH1 0x3 PUSH1 0x0 DUP1 PUSH1 0x0 SWAP1 SLOAD SWAP1 PUSH2 0x100 EXP SWAP1 DIV PUSH20 0xFFFFFFFFFFFFFFFFFFFFFFFFFFFFFFFFFFFFFFFF AND PUSH20 0xFFFFFFFFFFFFFFFFFFFFFFFFFFFFFFFFFFFFFFFF AND PUSH20 0xFFFFFFFFFFFFFFFFFFFFFFFFFFFFFFFFFFFFFFFF AND DUP2 MSTORE PUSH1 0x20 ADD SWAP1 DUP2 MSTORE PUSH1 0x20 ADD PUSH1 0x0 KECCAK256 PUSH1 0x0 ADD DUP2 SWAP1 SSTORE POP PUSH1 0x0 JUMPDEST DUP2 MLOAD DUP2 LT ISZERO PUSH3 0x196 JUMPI PUSH1 0x4 PUSH1 0x40 MLOAD DUP1 PUSH1 0x40 ADD PUSH1 0x40 MSTORE DUP1 DUP5 DUP5 DUP2 MLOAD DUP2 LT PUSH3 0x11A JUMPI PUSH3 0x119 PUSH3 0x538 JUMP JUMPDEST JUMPDEST PUSH1 0x20 MUL PUSH1 0x20 ADD ADD MLOAD DUP2 MSTORE PUSH1 0x20 ADD PUSH1 0x0 DUP2 MSTORE POP SWAP1 DUP1 PUSH1 0x1 DUP2 SLOAD ADD DUP1 DUP3 SSTORE DUP1 SWAP2 POP POP PUSH1 0x1 SWAP1 SUB SWAP1 PUSH1 0x0 MSTORE PUSH1 0x20 PUSH1 0x0 KECCAK256 SWAP1 PUSH1 0x2 MUL ADD PUSH1 0x0 SWAP1 SWAP2 SWAP1 SWAP2 SWAP1 SWAP2 POP PUSH1 0x0 DUP3 ADD MLOAD DUP2 PUSH1 0x0 ADD SWAP1 DUP1 MLOAD SWAP1 PUSH1 0x20 ADD SWAP1 PUSH3 0x173 SWAP3 SWAP2 SWAP1 PUSH3 0x19E JUMP JUMPDEST POP PUSH1 0x20 DUP3 ADD MLOAD DUP2 PUSH1 0x1 ADD SSTORE POP POP DUP1 DUP1 PUSH3 0x18D SWAP1 PUSH3 0x5A0 JUMP JUMPDEST SWAP2 POP POP PUSH3 0xED JUMP JUMPDEST POP POP PUSH3 0x651 JUMP JUMPDEST DUP3 DUP1 SLOAD PUSH3 0x1AC SWAP1 PUSH3 0x61C JUMP JUMPDEST SWAP1 PUSH1 0x0 MSTORE PUSH1 0x20 PUSH1 0x0 KECCAK256 SWAP1 PUSH1 0x1F ADD PUSH1 0x20 SWAP1 DIV DUP2 ADD SWAP3 DUP3 PUSH3 0x1D0 JUMPI PUSH1 0x0 DUP6 SSTORE PUSH3 0x21C JUMP JUMPDEST DUP3 PUSH1 0x1F LT PUSH3 0x1EB JUMPI DUP1 MLOAD PUSH1 0xFF NOT AND DUP4 DUP1 ADD OR DUP6 SSTORE PUSH3 0x21C JUMP JUMPDEST DUP3 DUP1 ADD PUSH1 0x1 ADD DUP6 SSTORE DUP3 ISZERO PUSH3 0x21C JUMPI SWAP2 DUP3 ADD JUMPDEST DUP3 DUP2 GT ISZERO PUSH3 0x21B JUMPI DUP3 MLOAD DUP3 SSTORE SWAP2 PUSH1 0x20 ADD SWAP2 SWAP1 PUSH1 0x1 ADD SWAP1 PUSH3 0x1FE JUMP JUMPDEST JUMPDEST POP SWAP1 POP PUSH3 0x22B SWAP2 SWAP1 PUSH3 0x22F JUMP JUMPDEST POP SWAP1 JUMP JUMPDEST JUMPDEST DUP1 DUP3 GT ISZERO PUSH3 0x24A JUMPI PUSH1 0x0 DUP2 PUSH1 0x0 SWAP1 SSTORE POP PUSH1 0x1 ADD PUSH3 0x230 JUMP JUMPDEST POP SWAP1 JUMP JUMPDEST PUSH1 0x0 PUSH1 0x40 MLOAD SWAP1 POP SWAP1 JUMP JUMPDEST PUSH1 0x0 DUP1 REVERT JUMPDEST PUSH1 0x0 DUP1 REVERT JUMPDEST PUSH1 0x0 DUP1 REVERT JUMPDEST PUSH1 0x0 PUSH1 0x1F NOT PUSH1 0x1F DUP4 ADD AND SWAP1 POP SWAP2 SWAP1 POP JUMP JUMPDEST PUSH32 0x4E487B7100000000000000000000000000000000000000000000000000000000 PUSH1 0x0 MSTORE PUSH1 0x41 PUSH1 0x4 MSTORE PUSH1 0x24 PUSH1 0x0 REVERT JUMPDEST PUSH3 0x2B2 DUP3 PUSH3 0x267 JUMP JUMPDEST DUP2 ADD DUP2 DUP2 LT PUSH8 0xFFFFFFFFFFFFFFFF DUP3 GT OR ISZERO PUSH3 0x2D4 JUMPI PUSH3 0x2D3 PUSH3 0x278 JUMP JUMPDEST JUMPDEST DUP1 PUSH1 0x40 MSTORE POP POP POP JUMP JUMPDEST PUSH1 0x0 PUSH3 0x2E9 PUSH3 0x24E JUMP JUMPDEST SWAP1 POP PUSH3 0x2F7 DUP3 DUP3 PUSH3 0x2A7 JUMP JUMPDEST SWAP2 SWAP1 POP JUMP JUMPDEST PUSH1 0x0 PUSH8 0xFFFFFFFFFFFFFFFF DUP3 GT ISZERO PUSH3 0x31A JUMPI PUSH3 0x319 PUSH3 0x278 JUMP JUMPDEST JUMPDEST PUSH1 0x20 DUP3 MUL SWAP1 POP PUSH1 0x20 DUP2 ADD SWAP1 POP SWAP2 SWAP1 POP JUMP JUMPDEST PUSH1 0x0 DUP1 REVERT JUMPDEST PUSH1 0x0 DUP1 REVERT JUMPDEST PUSH1 0x0 PUSH8 0xFFFFFFFFFFFFFFFF DUP3 GT ISZERO PUSH3 0x353 JUMPI PUSH3 0x352 PUSH3 0x278 JUMP JUMPDEST JUMPDEST PUSH3 0x35E DUP3 PUSH3 0x267 JUMP JUMPDEST SWAP1 POP PUSH1 0x20 DUP2 ADD SWAP1 POP SWAP2 SWAP1 POP JUMP JUMPDEST PUSH1 0x0 JUMPDEST DUP4 DUP2 LT ISZERO PUSH3 0x38B JUMPI DUP1 DUP3 ADD MLOAD DUP2 DUP5 ADD MSTORE PUSH1 0x20 DUP2 ADD SWAP1 POP PUSH3 0x36E JUMP JUMPDEST DUP4 DUP2 GT ISZERO PUSH3 0x39B JUMPI PUSH1 0x0 DUP5 DUP5 ADD MSTORE JUMPDEST POP POP POP POP JUMP JUMPDEST PUSH1 0x0 PUSH3 0x3B8 PUSH3 0x3B2 DUP5 PUSH3 0x335 JUMP JUMPDEST PUSH3 0x2DD JUMP JUMPDEST SWAP1 POP DUP3 DUP2 MSTORE PUSH1 0x20 DUP2 ADD DUP5 DUP5 DUP5 ADD GT ISZERO PUSH3 0x3D7 JUMPI PUSH3 0x3D6 PUSH3 0x330 JUMP JUMPDEST JUMPDEST PUSH3 0x3E4 DUP5 DUP3 DUP6 PUSH3 0x36B JUMP JUMPDEST POP SWAP4 SWAP3 POP POP POP JUMP JUMPDEST PUSH1 0x0 DUP3 PUSH1 0x1F DUP4 ADD SLT PUSH3 0x404 JUMPI PUSH3 0x403 PUSH3 0x262 JUMP JUMPDEST JUMPDEST DUP2 MLOAD PUSH3 0x416 DUP5 DUP3 PUSH1 0x20 DUP7 ADD PUSH3 0x3A1 JUMP JUMPDEST SWAP2 POP POP SWAP3 SWAP2 POP POP JUMP JUMPDEST PUSH1 0x0 PUSH3 0x436 PUSH3 0x430 DUP5 PUSH3 0x2FC JUMP JUMPDEST PUSH3 0x2DD JUMP JUMPDEST SWAP1 POP DUP1 DUP4 DUP3 MSTORE PUSH1 0x20 DUP3 ADD SWAP1 POP PUSH1 0x20 DUP5 MUL DUP4 ADD DUP6 DUP2 GT ISZERO PUSH3 0x45C JUMPI PUSH3 0x45B PUSH3 0x32B JUMP JUMPDEST JUMPDEST DUP4 JUMPDEST DUP2 DUP2 LT ISZERO PUSH3 0x4AA JUMPI DUP1 MLOAD PUSH8 0xFFFFFFFFFFFFFFFF DUP2 GT ISZERO PUSH3 0x485 JUMPI PUSH3 0x484 PUSH3 0x262 JUMP JUMPDEST JUMPDEST DUP1 DUP7 ADD PUSH3 0x494 DUP10 DUP3 PUSH3 0x3EC JUMP JUMPDEST DUP6 MSTORE PUSH1 0x20 DUP6 ADD SWAP5 POP POP POP PUSH1 0x20 DUP2 ADD SWAP1 POP PUSH3 0x45E JUMP JUMPDEST POP POP POP SWAP4 SWAP3 POP POP POP JUMP JUMPDEST PUSH1 0x0 DUP3 PUSH1 0x1F DUP4 ADD SLT PUSH3 0x4CC JUMPI PUSH3 0x4CB PUSH3 0x262 JUMP JUMPDEST JUMPDEST DUP2 MLOAD PUSH3 0x4DE DUP5 DUP3 PUSH1 0x20 DUP7 ADD PUSH3 0x41F JUMP JUMPDEST SWAP2 POP POP SWAP3 SWAP2 POP POP JUMP JUMPDEST PUSH1 0x0 PUSH1 0x20 DUP3 DUP5 SUB SLT ISZERO PUSH3 0x500 JUMPI PUSH3 0x4FF PUSH3 0x258 JUMP JUMPDEST JUMPDEST PUSH1 0x0 DUP3 ADD MLOAD PUSH8 0xFFFFFFFFFFFFFFFF DUP2 GT ISZERO PUSH3 0x521 JUMPI PUSH3 0x520 PUSH3 0x25D JUMP JUMPDEST JUMPDEST PUSH3 0x52F DUP5 DUP3 DUP6 ADD PUSH3 0x4B4 JUMP JUMPDEST SWAP2 POP POP SWAP3 SWAP2 POP POP JUMP JUMPDEST PUSH32 0x4E487B7100000000000000000000000000000000000000000000000000000000 PUSH1 0x0 MSTORE PUSH1 0x32 PUSH1 0x4 MSTORE PUSH1 0x24 PUSH1 0x0 REVERT JUMPDEST PUSH32 0x4E487B7100000000000000000000000000000000000000000000000000000000 PUSH1 0x0 MSTORE PUSH1 0x11 PUSH1 0x4 MSTORE PUSH1 0x24 PUSH1 0x0 REVERT JUMPDEST PUSH1 0x0 DUP2 SWAP1 POP SWAP2 SWAP1 POP JUMP JUMPDEST PUSH1 0x0 PUSH3 0x5AD DUP3 PUSH3 0x596 JUMP JUMPDEST SWAP2 POP PUSH32 0xFFFFFFFFFFFFFFFFFFFFFFFFFFFFFFFFFFFFFFFFFFFFFFFFFFFFFFFFFFFFFFFF DUP3 SUB PUSH3 0x5E2 JUMPI PUSH3 0x5E1 PUSH3 0x567 JUMP JUMPDEST JUMPDEST PUSH1 0x1 DUP3 ADD SWAP1 POP SWAP2 SWAP1 POP JUMP JUMPDEST PUSH32 0x4E487B7100000000000000000000000000000000000000000000000000000000 PUSH1 0x0 MSTORE PUSH1 0x22 PUSH1 0x4 MSTORE PUSH1 0x24 PUSH1 0x0 REVERT JUMPDEST PUSH1 0x0 PUSH1 0x2 DUP3 DIV SWAP1 POP PUSH1 0x1 DUP3 AND DUP1 PUSH3 0x635 JUMPI PUSH1 0x7F DUP3 AND SWAP2 POP JUMPDEST PUSH1 0x20 DUP3 LT DUP2 SUB PUSH3 0x64B JUMPI PUSH3 0x64A PUSH3 0x5ED JUMP JUMPDEST JUMPDEST POP SWAP2 SWAP1 POP JUMP JUMPDEST PUSH2 0x11D8 DUP1 PUSH3 0x661 PUSH1 0x0 CODECOPY PUSH1 0x0 RETURN INVALID PUSH1 0x80 PUSH1 0x40 MSTORE CALLVALUE DUP1 ISZERO PUSH2 0x10 JUMPI PUSH1 0x0 DUP1 REVERT JUMPDEST POP PUSH1 0x4 CALLDATASIZE LT PUSH2 0x9E JUMPI PUSH1 0x0 CALLDATALOAD PUSH1 0xE0 SHR DUP1 PUSH4 0x85A38635 GT PUSH2 0x66 JUMPI DUP1 PUSH4 0x85A38635 EQ PUSH2 0x14A JUMPI DUP1 PUSH4 0x9E7B8D61 EQ PUSH2 0x168 JUMPI DUP1 PUSH4 0xA3EC138D EQ PUSH2 0x184 JUMPI DUP1 PUSH4 0xACF7B570 EQ PUSH2 0x1B6 JUMPI DUP1 PUSH4 0xDFBF53AE EQ PUSH2 0x1D2 JUMPI PUSH2 0x9E JUMP JUMPDEST DUP1 PUSH4 0x121B93F EQ PUSH2 0xA3 JUMPI DUP1 PUSH4 0x13CF08B EQ PUSH2 0xBF JUMPI DUP1 PUSH4 0x101158AF EQ PUSH2 0xF0 JUMPI DUP1 PUSH4 0x2E4176CF EQ PUSH2 0x10E JUMPI DUP1 PUSH4 0x609FF1BD EQ PUSH2 0x12C JUMPI JUMPDEST PUSH1 0x0 DUP1 REVERT JUMPDEST PUSH2 0xBD PUSH1 0x4 DUP1 CALLDATASIZE SUB DUP2 ADD SWAP1 PUSH2 0xB8 SWAP2 SWAP1 PUSH2 0x98D JUMP JUMPDEST PUSH2 0x1F1 JUMP JUMPDEST STOP JUMPDEST PUSH2 0xD9 PUSH1 0x4 DUP1 CALLDATASIZE SUB DUP2 ADD SWAP1 PUSH2 0xD4 SWAP2 SWAP1 PUSH2 0x98D JUMP JUMPDEST PUSH2 0x3DF JUMP JUMPDEST PUSH1 0x40 MLOAD PUSH2 0xE7 SWAP3 SWAP2 SWAP1 PUSH2 0xA62 JUMP JUMPDEST PUSH1 0x40 MLOAD DUP1 SWAP2 SUB SWAP1 RETURN JUMPDEST PUSH2 0xF8 PUSH2 0x49B JUMP JUMPDEST PUSH1 0x40 MLOAD PUSH2 0x105 SWAP2 SWAP1 PUSH2 0xA92 JUMP JUMPDEST PUSH1 0x40 MLOAD DUP1 SWAP2 SUB SWAP1 RETURN JUMPDEST PUSH2 0x116 PUSH2 0x4A1 JUMP JUMPDEST PUSH1 0x40 MLOAD PUSH2 0x123 SWAP2 SWAP1 PUSH2 0xAEE JUMP JUMPDEST PUSH1 0x40 MLOAD DUP1 SWAP2 SUB SWAP1 RETURN JUMPDEST PUSH2 0x134 PUSH2 0x4C5 JUMP JUMPDEST PUSH1 0x40 MLOAD PUSH2 0x141 SWAP2 SWAP1 PUSH2 0xA92 JUMP JUMPDEST PUSH1 0x40 MLOAD DUP1 SWAP2 SUB SWAP1 RETURN JUMPDEST PUSH2 0x152 PUSH2 0x54D JUMP JUMPDEST PUSH1 0x40 MLOAD PUSH2 0x15F SWAP2 SWAP1 PUSH2 0xA92 JUMP JUMPDEST PUSH1 0x40 MLOAD DUP1 SWAP2 SUB SWAP1 RETURN JUMPDEST PUSH2 0x182 PUSH1 0x4 DUP1 CALLDATASIZE SUB DUP2 ADD SWAP1 PUSH2 0x17D SWAP2 SWAP1 PUSH2 0xB35 JUMP JUMPDEST PUSH2 0x553 JUMP JUMPDEST STOP JUMPDEST PUSH2 0x19E PUSH1 0x4 DUP1 CALLDATASIZE SUB DUP2 ADD SWAP1 PUSH2 0x199 SWAP2 SWAP1 PUSH2 0xB35 JUMP JUMPDEST PUSH2 0x70B JUMP JUMPDEST PUSH1 0x40 MLOAD PUSH2 0x1AD SWAP4 SWAP3 SWAP2 SWAP1 PUSH2 0xB7D JUMP JUMPDEST PUSH1 0x40 MLOAD DUP1 SWAP2 SUB SWAP1 RETURN JUMPDEST PUSH2 0x1D0 PUSH1 0x4 DUP1 CALLDATASIZE SUB DUP2 ADD SWAP1 PUSH2 0x1CB SWAP2 SWAP1 PUSH2 0xBB4 JUMP JUMPDEST PUSH2 0x742 JUMP JUMPDEST STOP JUMPDEST PUSH2 0x1DA PUSH2 0x864 JUMP JUMPDEST PUSH1 0x40 MLOAD PUSH2 0x1E8 SWAP3 SWAP2 SWAP1 PUSH2 0xA62 JUMP JUMPDEST PUSH1 0x40 MLOAD DUP1 SWAP2 SUB SWAP1 RETURN JUMPDEST PUSH1 0x0 PUSH1 0x3 PUSH1 0x0 CALLER PUSH20 0xFFFFFFFFFFFFFFFFFFFFFFFFFFFFFFFFFFFFFFFF AND PUSH20 0xFFFFFFFFFFFFFFFFFFFFFFFFFFFFFFFFFFFFFFFF AND DUP2 MSTORE PUSH1 0x20 ADD SWAP1 DUP2 MSTORE PUSH1 0x20 ADD PUSH1 0x0 KECCAK256 SWAP1 POP PUSH1 0x0 PUSH1 0x1 SLOAD EQ ISZERO DUP1 ISZERO PUSH2 0x249 JUMPI POP TIMESTAMP PUSH1 0x1 SLOAD GT ISZERO JUMPDEST PUSH2 0x288 JUMPI PUSH1 0x40 MLOAD PUSH32 0x8C379A000000000000000000000000000000000000000000000000000000000 DUP2 MSTORE PUSH1 0x4 ADD PUSH2 0x27F SWAP1 PUSH2 0xC40 JUMP JUMPDEST PUSH1 0x40 MLOAD DUP1 SWAP2 SUB SWAP1 REVERT JUMPDEST PUSH1 0x0 PUSH1 0x2 SLOAD EQ ISZERO DUP1 ISZERO PUSH2 0x29D JUMPI POP TIMESTAMP PUSH1 0x2 SLOAD LT ISZERO JUMPDEST PUSH2 0x2DC JUMPI PUSH1 0x40 MLOAD PUSH32 0x8C379A000000000000000000000000000000000000000000000000000000000 DUP2 MSTORE PUSH1 0x4 ADD PUSH2 0x2D3 SWAP1 PUSH2 0xCAC JUMP JUMPDEST PUSH1 0x40 MLOAD DUP1 SWAP2 SUB SWAP1 REVERT JUMPDEST PUSH1 0x0 DUP2 PUSH1 0x0 ADD SLOAD SUB PUSH2 0x323 JUMPI PUSH1 0x40 MLOAD PUSH32 0x8C379A000000000000000000000000000000000000000000000000000000000 DUP2 MSTORE PUSH1 0x4 ADD PUSH2 0x31A SWAP1 PUSH2 0xD18 JUMP JUMPDEST PUSH1 0x40 MLOAD DUP1 SWAP2 SUB SWAP1 REVERT JUMPDEST DUP1 PUSH1 0x1 ADD PUSH1 0x0 SWAP1 SLOAD SWAP1 PUSH2 0x100 EXP SWAP1 DIV PUSH1 0xFF AND ISZERO PUSH2 0x375 JUMPI PUSH1 0x40 MLOAD PUSH32 0x8C379A000000000000000000000000000000000000000000000000000000000 DUP2 MSTORE PUSH1 0x4 ADD PUSH2 0x36C SWAP1 PUSH2 0xD84 JUMP JUMPDEST PUSH1 0x40 MLOAD DUP1 SWAP2 SUB SWAP1 REVERT JUMPDEST PUSH1 0x1 DUP2 PUSH1 0x1 ADD PUSH1 0x0 PUSH2 0x100 EXP DUP2 SLOAD DUP2 PUSH1 0xFF MUL NOT AND SWAP1 DUP4 ISZERO ISZERO MUL OR SWAP1 SSTORE POP DUP2 DUP2 PUSH1 0x2 ADD DUP2 SWAP1 SSTORE POP DUP1 PUSH1 0x0 ADD SLOAD PUSH1 0x4 DUP4 DUP2 SLOAD DUP2 LT PUSH2 0x3B4 JUMPI PUSH2 0x3B3 PUSH2 0xDA4 JUMP JUMPDEST JUMPDEST SWAP1 PUSH1 0x0 MSTORE PUSH1 0x20 PUSH1 0x0 KECCAK256 SWAP1 PUSH1 0x2 MUL ADD PUSH1 0x1 ADD PUSH1 0x0 DUP3 DUP3 SLOAD PUSH2 0x3D4 SWAP2 SWAP1 PUSH2 0xE02 JUMP JUMPDEST SWAP3 POP POP DUP2 SWAP1 SSTORE POP POP POP JUMP JUMPDEST PUSH1 0x4 DUP2 DUP2 SLOAD DUP2 LT PUSH2 0x3EF JUMPI PUSH1 0x0 DUP1 REVERT JUMPDEST SWAP1 PUSH1 0x0 MSTORE PUSH1 0x20 PUSH1 0x0 KECCAK256 SWAP1 PUSH1 0x2 MUL ADD PUSH1 0x0 SWAP2 POP SWAP1 POP DUP1 PUSH1 0x0 ADD DUP1 SLOAD PUSH2 0x412 SWAP1 PUSH2 0xE87 JUMP JUMPDEST DUP1 PUSH1 0x1F ADD PUSH1 0x20 DUP1 SWAP2 DIV MUL PUSH1 0x20 ADD PUSH1 0x40 MLOAD SWAP1 DUP2 ADD PUSH1 0x40 MSTORE DUP1 SWAP3 SWAP2 SWAP1 DUP2 DUP2 MSTORE PUSH1 0x20 ADD DUP3 DUP1 SLOAD PUSH2 0x43E SWAP1 PUSH2 0xE87 JUMP JUMPDEST DUP1 ISZERO PUSH2 0x48B JUMPI DUP1 PUSH1 0x1F LT PUSH2 0x460 JUMPI PUSH2 0x100 DUP1 DUP4 SLOAD DIV MUL DUP4 MSTORE SWAP2 PUSH1 0x20 ADD SWAP2 PUSH2 0x48B JUMP JUMPDEST DUP3 ADD SWAP2 SWAP1 PUSH1 0x0 MSTORE PUSH1 0x20 PUSH1 0x0 KECCAK256 SWAP1 JUMPDEST DUP2 SLOAD DUP2 MSTORE SWAP1 PUSH1 0x1 ADD SWAP1 PUSH1 0x20 ADD DUP1 DUP4 GT PUSH2 0x46E JUMPI DUP3 SWAP1 SUB PUSH1 0x1F AND DUP3 ADD SWAP2 JUMPDEST POP POP POP POP POP SWAP1 DUP1 PUSH1 0x1 ADD SLOAD SWAP1 POP DUP3 JUMP JUMPDEST PUSH1 0x1 SLOAD DUP2 JUMP JUMPDEST PUSH1 0x0 DUP1 SLOAD SWAP1 PUSH2 0x100 EXP SWAP1 DIV PUSH20 0xFFFFFFFFFFFFFFFFFFFFFFFFFFFFFFFFFFFFFFFF AND DUP2 JUMP JUMPDEST PUSH1 0x0 DUP1 PUSH1 0x0 SWAP1 POP PUSH1 0x0 JUMPDEST PUSH1 0x4 DUP1 SLOAD SWAP1 POP DUP2 LT ISZERO PUSH2 0x548 JUMPI DUP2 PUSH1 0x4 DUP3 DUP2 SLOAD DUP2 LT PUSH2 0x4F1 JUMPI PUSH2 0x4F0 PUSH2 0xDA4 JUMP JUMPDEST JUMPDEST SWAP1 PUSH1 0x0 MSTORE PUSH1 0x20 PUSH1 0x0 KECCAK256 SWAP1 PUSH1 0x2 MUL ADD PUSH1 0x1 ADD SLOAD GT ISZERO PUSH2 0x535 JUMPI PUSH1 0x4 DUP2 DUP2 SLOAD DUP2 LT PUSH2 0x51D JUMPI PUSH2 0x51C PUSH2 0xDA4 JUMP JUMPDEST JUMPDEST SWAP1 PUSH1 0x0 MSTORE PUSH1 0x20 PUSH1 0x0 KECCAK256 SWAP1 PUSH1 0x2 MUL ADD PUSH1 0x1 ADD SLOAD SWAP2 POP DUP1 SWAP3 POP JUMPDEST DUP1 DUP1 PUSH2 0x540 SWAP1 PUSH2 0xEB8 JUMP JUMPDEST SWAP2 POP POP PUSH2 0x4CF JUMP JUMPDEST POP POP SWAP1 JUMP JUMPDEST PUSH1 0x2 SLOAD DUP2 JUMP JUMPDEST PUSH1 0x0 DUP1 SLOAD SWAP1 PUSH2 0x100 EXP SWAP1 DIV PUSH20 0xFFFFFFFFFFFFFFFFFFFFFFFFFFFFFFFFFFFFFFFF AND PUSH20 0xFFFFFFFFFFFFFFFFFFFFFFFFFFFFFFFFFFFFFFFF AND CALLER PUSH20 0xFFFFFFFFFFFFFFFFFFFFFFFFFFFFFFFFFFFFFFFF AND EQ PUSH2 0x5E1 JUMPI PUSH1 0x40 MLOAD PUSH32 0x8C379A000000000000000000000000000000000000000000000000000000000 DUP2 MSTORE PUSH1 0x4 ADD PUSH2 0x5D8 SWAP1 PUSH2 0xF72 JUMP JUMPDEST PUSH1 0x40 MLOAD DUP1 SWAP2 SUB SWAP1 REVERT JUMPDEST PUSH1 0x3 PUSH1 0x0 DUP3 PUSH20 0xFFFFFFFFFFFFFFFFFFFFFFFFFFFFFFFFFFFFFFFF AND PUSH20 0xFFFFFFFFFFFFFFFFFFFFFFFFFFFFFFFFFFFFFFFF AND DUP2 MSTORE PUSH1 0x20 ADD SWAP1 DUP2 MSTORE PUSH1 0x20 ADD PUSH1 0x0 KECCAK256 PUSH1 0x1 ADD PUSH1 0x0 SWAP1 SLOAD SWAP1 PUSH2 0x100 EXP SWAP1 DIV PUSH1 0xFF AND ISZERO PUSH2 0x671 JUMPI PUSH1 0x40 MLOAD PUSH32 0x8C379A000000000000000000000000000000000000000000000000000000000 DUP2 MSTORE PUSH1 0x4 ADD PUSH2 0x668 SWAP1 PUSH2 0xFDE JUMP JUMPDEST PUSH1 0x40 MLOAD DUP1 SWAP2 SUB SWAP1 REVERT JUMPDEST PUSH1 0x0 PUSH1 0x3 PUSH1 0x0 DUP4 PUSH20 0xFFFFFFFFFFFFFFFFFFFFFFFFFFFFFFFFFFFFFFFF AND PUSH20 0xFFFFFFFFFFFFFFFFFFFFFFFFFFFFFFFFFFFFFFFF AND DUP2 MSTORE PUSH1 0x20 ADD SWAP1 DUP2 MSTORE PUSH1 0x20 ADD PUSH1 0x0 KECCAK256 PUSH1 0x0 ADD SLOAD EQ PUSH2 0x6C0 JUMPI PUSH1 0x0 DUP1 REVERT JUMPDEST PUSH1 0x1 PUSH1 0x3 PUSH1 0x0 DUP4 PUSH20 0xFFFFFFFFFFFFFFFFFFFFFFFFFFFFFFFFFFFFFFFF AND PUSH20 0xFFFFFFFFFFFFFFFFFFFFFFFFFFFFFFFFFFFFFFFF AND DUP2 MSTORE PUSH1 0x20 ADD SWAP1 DUP2 MSTORE PUSH1 0x20 ADD PUSH1 0x0 KECCAK256 PUSH1 0x0 ADD DUP2 SWAP1 SSTORE POP POP JUMP JUMPDEST PUSH1 0x3 PUSH1 0x20 MSTORE DUP1 PUSH1 0x0 MSTORE PUSH1 0x40 PUSH1 0x0 KECCAK256 PUSH1 0x0 SWAP2 POP SWAP1 POP DUP1 PUSH1 0x0 ADD SLOAD SWAP1 DUP1 PUSH1 0x1 ADD PUSH1 0x0 SWAP1 SLOAD SWAP1 PUSH2 0x100 EXP SWAP1 DIV PUSH1 0xFF AND SWAP1 DUP1 PUSH1 0x2 ADD SLOAD SWAP1 POP DUP4 JUMP JUMPDEST PUSH1 0x0 DUP1 SLOAD SWAP1 PUSH2 0x100 EXP SWAP1 DIV PUSH20 0xFFFFFFFFFFFFFFFFFFFFFFFFFFFFFFFFFFFFFFFF AND PUSH20 0xFFFFFFFFFFFFFFFFFFFFFFFFFFFFFFFFFFFFFFFF AND CALLER PUSH20 0xFFFFFFFFFFFFFFFFFFFFFFFFFFFFFFFFFFFFFFFF AND EQ PUSH2 0x7D0 JUMPI PUSH1 0x40 MLOAD PUSH32 0x8C379A000000000000000000000000000000000000000000000000000000000 DUP2 MSTORE PUSH1 0x4 ADD PUSH2 0x7C7 SWAP1 PUSH2 0x1070 JUMP JUMPDEST PUSH1 0x40 MLOAD DUP1 SWAP2 SUB SWAP1 REVERT JUMPDEST PUSH1 0x3C DUP3 PUSH2 0x7DD SWAP2 SWAP1 PUSH2 0x1090 JUMP JUMPDEST TIMESTAMP PUSH2 0x7E8 SWAP2 SWAP1 PUSH2 0xE02 JUMP JUMPDEST PUSH1 0x1 DUP2 SWAP1 SSTORE POP PUSH1 0x3C DUP2 PUSH2 0x7FB SWAP2 SWAP1 PUSH2 0x1090 JUMP JUMPDEST TIMESTAMP PUSH2 0x806 SWAP2 SWAP1 PUSH2 0xE02 JUMP JUMPDEST PUSH1 0x2 DUP2 SWAP1 SSTORE POP PUSH1 0x0 PUSH1 0x1 SLOAD GT DUP1 ISZERO PUSH2 0x821 JUMPI POP PUSH1 0x2 SLOAD PUSH1 0x1 SLOAD LT JUMPDEST PUSH2 0x860 JUMPI PUSH1 0x40 MLOAD PUSH32 0x8C379A000000000000000000000000000000000000000000000000000000000 DUP2 MSTORE PUSH1 0x4 ADD PUSH2 0x857 SWAP1 PUSH2 0x1182 JUMP JUMPDEST PUSH1 0x40 MLOAD DUP1 SWAP2 SUB SWAP1 REVERT JUMPDEST POP POP JUMP JUMPDEST PUSH1 0x60 PUSH1 0x0 PUSH1 0x4 PUSH2 0x872 PUSH2 0x4C5 JUMP JUMPDEST DUP2 SLOAD DUP2 LT PUSH2 0x883 JUMPI PUSH2 0x882 PUSH2 0xDA4 JUMP JUMPDEST JUMPDEST SWAP1 PUSH1 0x0 MSTORE PUSH1 0x20 PUSH1 0x0 KECCAK256 SWAP1 PUSH1 0x2 MUL ADD PUSH1 0x0 ADD DUP1 SLOAD PUSH2 0x89F SWAP1 PUSH2 0xE87 JUMP JUMPDEST DUP1 PUSH1 0x1F ADD PUSH1 0x20 DUP1 SWAP2 DIV MUL PUSH1 0x20 ADD PUSH1 0x40 MLOAD SWAP1 DUP2 ADD PUSH1 0x40 MSTORE DUP1 SWAP3 SWAP2 SWAP1 DUP2 DUP2 MSTORE PUSH1 0x20 ADD DUP3 DUP1 SLOAD PUSH2 0x8CB SWAP1 PUSH2 0xE87 JUMP JUMPDEST DUP1 ISZERO PUSH2 0x918 JUMPI DUP1 PUSH1 0x1F LT PUSH2 0x8ED JUMPI PUSH2 0x100 DUP1 DUP4 SLOAD DIV MUL DUP4 MSTORE SWAP2 PUSH1 0x20 ADD SWAP2 PUSH2 0x918 JUMP JUMPDEST DUP3 ADD SWAP2 SWAP1 PUSH1 0x0 MSTORE PUSH1 0x20 PUSH1 0x0 KECCAK256 SWAP1 JUMPDEST DUP2 SLOAD DUP2 MSTORE SWAP1 PUSH1 0x1 ADD SWAP1 PUSH1 0x20 ADD DUP1 DUP4 GT PUSH2 0x8FB JUMPI DUP3 SWAP1 SUB PUSH1 0x1F AND DUP3 ADD SWAP2 JUMPDEST POP POP POP POP POP SWAP2 POP PUSH1 0x4 PUSH2 0x929 PUSH2 0x4C5 JUMP JUMPDEST DUP2 SLOAD DUP2 LT PUSH2 0x93A JUMPI PUSH2 0x939 PUSH2 0xDA4 JUMP JUMPDEST JUMPDEST SWAP1 PUSH1 0x0 MSTORE PUSH1 0x20 PUSH1 0x0 KECCAK256 SWAP1 PUSH1 0x2 MUL ADD PUSH1 0x1 ADD SLOAD SWAP1 POP SWAP1 SWAP2 JUMP JUMPDEST PUSH1 0x0 DUP1 REVERT JUMPDEST PUSH1 0x0 DUP2 SWAP1 POP SWAP2 SWAP1 POP JUMP JUMPDEST PUSH2 0x96A DUP2 PUSH2 0x957 JUMP JUMPDEST DUP2 EQ PUSH2 0x975 JUMPI PUSH1 0x0 DUP1 REVERT JUMPDEST POP JUMP JUMPDEST PUSH1 0x0 DUP2 CALLDATALOAD SWAP1 POP PUSH2 0x987 DUP2 PUSH2 0x961 JUMP JUMPDEST SWAP3 SWAP2 POP POP JUMP JUMPDEST PUSH1 0x0 PUSH1 0x20 DUP3 DUP5 SUB SLT ISZERO PUSH2 0x9A3 JUMPI PUSH2 0x9A2 PUSH2 0x952 JUMP JUMPDEST JUMPDEST PUSH1 0x0 PUSH2 0x9B1 DUP5 DUP3 DUP6 ADD PUSH2 0x978 JUMP JUMPDEST SWAP2 POP POP SWAP3 SWAP2 POP POP JUMP JUMPDEST PUSH1 0x0 DUP2 MLOAD SWAP1 POP SWAP2 SWAP1 POP JUMP JUMPDEST PUSH1 0x0 DUP3 DUP3 MSTORE PUSH1 0x20 DUP3 ADD SWAP1 POP SWAP3 SWAP2 POP POP JUMP JUMPDEST PUSH1 0x0 JUMPDEST DUP4 DUP2 LT ISZERO PUSH2 0x9F4 JUMPI DUP1 DUP3 ADD MLOAD DUP2 DUP5 ADD MSTORE PUSH1 0x20 DUP2 ADD SWAP1 POP PUSH2 0x9D9 JUMP JUMPDEST DUP4 DUP2 GT ISZERO PUSH2 0xA03 JUMPI PUSH1 0x0 DUP5 DUP5 ADD MSTORE JUMPDEST POP POP POP POP JUMP JUMPDEST PUSH1 0x0 PUSH1 0x1F NOT PUSH1 0x1F DUP4 ADD AND SWAP1 POP SWAP2 SWAP1 POP JUMP JUMPDEST PUSH1 0x0 PUSH2 0xA25 DUP3 PUSH2 0x9BA JUMP JUMPDEST PUSH2 0xA2F DUP2 DUP6 PUSH2 0x9C5 JUMP JUMPDEST SWAP4 POP PUSH2 0xA3F DUP2 DUP6 PUSH1 0x20 DUP7 ADD PUSH2 0x9D6 JUMP JUMPDEST PUSH2 0xA48 DUP2 PUSH2 0xA09 JUMP JUMPDEST DUP5 ADD SWAP2 POP POP SWAP3 SWAP2 POP POP JUMP JUMPDEST PUSH2 0xA5C DUP2 PUSH2 0x957 JUMP JUMPDEST DUP3 MSTORE POP POP JUMP JUMPDEST PUSH1 0x0 PUSH1 0x40 DUP3 ADD SWAP1 POP DUP2 DUP2 SUB PUSH1 0x0 DUP4 ADD MSTORE PUSH2 0xA7C DUP2 DUP6 PUSH2 0xA1A JUMP JUMPDEST SWAP1 POP PUSH2 0xA8B PUSH1 0x20 DUP4 ADD DUP5 PUSH2 0xA53 JUMP JUMPDEST SWAP4 SWAP3 POP POP POP JUMP JUMPDEST PUSH1 0x0 PUSH1 0x20 DUP3 ADD SWAP1 POP PUSH2 0xAA7 PUSH1 0x0 DUP4 ADD DUP5 PUSH2 0xA53 JUMP JUMPDEST SWAP3 SWAP2 POP POP JUMP JUMPDEST PUSH1 0x0 PUSH20 0xFFFFFFFFFFFFFFFFFFFFFFFFFFFFFFFFFFFFFFFF DUP3 AND SWAP1 POP SWAP2 SWAP1 POP JUMP JUMPDEST PUSH1 0x0 PUSH2 0xAD8 DUP3 PUSH2 0xAAD JUMP JUMPDEST SWAP1 POP SWAP2 SWAP1 POP JUMP JUMPDEST PUSH2 0xAE8 DUP2 PUSH2 0xACD JUMP JUMPDEST DUP3 MSTORE POP POP JUMP JUMPDEST PUSH1 0x0 PUSH1 0x20 DUP3 ADD SWAP1 POP PUSH2 0xB03 PUSH1 0x0 DUP4 ADD DUP5 PUSH2 0xADF JUMP JUMPDEST SWAP3 SWAP2 POP POP JUMP JUMPDEST PUSH2 0xB12 DUP2 PUSH2 0xACD JUMP JUMPDEST DUP2 EQ PUSH2 0xB1D JUMPI PUSH1 0x0 DUP1 REVERT JUMPDEST POP JUMP JUMPDEST PUSH1 0x0 DUP2 CALLDATALOAD SWAP1 POP PUSH2 0xB2F DUP2 PUSH2 0xB09 JUMP JUMPDEST SWAP3 SWAP2 POP POP JUMP JUMPDEST PUSH1 0x0 PUSH1 0x20 DUP3 DUP5 SUB SLT ISZERO PUSH2 0xB4B JUMPI PUSH2 0xB4A PUSH2 0x952 JUMP JUMPDEST JUMPDEST PUSH1 0x0 PUSH2 0xB59 DUP5 DUP3 DUP6 ADD PUSH2 0xB20 JUMP JUMPDEST SWAP2 POP POP SWAP3 SWAP2 POP POP JUMP JUMPDEST PUSH1 0x0 DUP2 ISZERO ISZERO SWAP1 POP SWAP2 SWAP1 POP JUMP JUMPDEST PUSH2 0xB77 DUP2 PUSH2 0xB62 JUMP JUMPDEST DUP3 MSTORE POP POP JUMP JUMPDEST PUSH1 0x0 PUSH1 0x60 DUP3 ADD SWAP1 POP PUSH2 0xB92 PUSH1 0x0 DUP4 ADD DUP7 PUSH2 0xA53 JUMP JUMPDEST PUSH2 0xB9F PUSH1 0x20 DUP4 ADD DUP6 PUSH2 0xB6E JUMP JUMPDEST PUSH2 0xBAC PUSH1 0x40 DUP4 ADD DUP5 PUSH2 0xA53 JUMP JUMPDEST SWAP5 SWAP4 POP POP POP POP JUMP JUMPDEST PUSH1 0x0 DUP1 PUSH1 0x40 DUP4 DUP6 SUB SLT ISZERO PUSH2 0xBCB JUMPI PUSH2 0xBCA PUSH2 0x952 JUMP JUMPDEST JUMPDEST PUSH1 0x0 PUSH2 0xBD9 DUP6 DUP3 DUP7 ADD PUSH2 0x978 JUMP JUMPDEST SWAP3 POP POP PUSH1 0x20 PUSH2 0xBEA DUP6 DUP3 DUP7 ADD PUSH2 0x978 JUMP JUMPDEST SWAP2 POP POP SWAP3 POP SWAP3 SWAP1 POP JUMP JUMPDEST PUSH32 0x566F7465206E6F74207374617274656420796574210000000000000000000000 PUSH1 0x0 DUP3 ADD MSTORE POP JUMP JUMPDEST PUSH1 0x0 PUSH2 0xC2A PUSH1 0x15 DUP4 PUSH2 0x9C5 JUMP JUMPDEST SWAP2 POP PUSH2 0xC35 DUP3 PUSH2 0xBF4 JUMP JUMPDEST PUSH1 0x20 DUP3 ADD SWAP1 POP SWAP2 SWAP1 POP JUMP JUMPDEST PUSH1 0x0 PUSH1 0x20 DUP3 ADD SWAP1 POP DUP2 DUP2 SUB PUSH1 0x0 DUP4 ADD MSTORE PUSH2 0xC59 DUP2 PUSH2 0xC1D JUMP JUMPDEST SWAP1 POP SWAP2 SWAP1 POP JUMP JUMPDEST PUSH32 0x566F74652068617320656E646564210000000000000000000000000000000000 PUSH1 0x0 DUP3 ADD MSTORE POP JUMP JUMPDEST PUSH1 0x0 PUSH2 0xC96 PUSH1 0xF DUP4 PUSH2 0x9C5 JUMP JUMPDEST SWAP2 POP PUSH2 0xCA1 DUP3 PUSH2 0xC60 JUMP JUMPDEST PUSH1 0x20 DUP3 ADD SWAP1 POP SWAP2 SWAP1 POP JUMP JUMPDEST PUSH1 0x0 PUSH1 0x20 DUP3 ADD SWAP1 POP DUP2 DUP2 SUB PUSH1 0x0 DUP4 ADD MSTORE PUSH2 0xCC5 DUP2 PUSH2 0xC89 JUMP JUMPDEST SWAP1 POP SWAP2 SWAP1 POP JUMP JUMPDEST PUSH32 0x486173206E6F20726967687420746F20766F7465000000000000000000000000 PUSH1 0x0 DUP3 ADD MSTORE POP JUMP JUMPDEST PUSH1 0x0 PUSH2 0xD02 PUSH1 0x14 DUP4 PUSH2 0x9C5 JUMP JUMPDEST SWAP2 POP PUSH2 0xD0D DUP3 PUSH2 0xCCC JUMP JUMPDEST PUSH1 0x20 DUP3 ADD SWAP1 POP SWAP2 SWAP1 POP JUMP JUMPDEST PUSH1 0x0 PUSH1 0x20 DUP3 ADD SWAP1 POP DUP2 DUP2 SUB PUSH1 0x0 DUP4 ADD MSTORE PUSH2 0xD31 DUP2 PUSH2 0xCF5 JUMP JUMPDEST SWAP1 POP SWAP2 SWAP1 POP JUMP JUMPDEST PUSH32 0x416C726561647920766F7465642E000000000000000000000000000000000000 PUSH1 0x0 DUP3 ADD MSTORE POP JUMP JUMPDEST PUSH1 0x0 PUSH2 0xD6E PUSH1 0xE DUP4 PUSH2 0x9C5 JUMP JUMPDEST SWAP2 POP PUSH2 0xD79 DUP3 PUSH2 0xD38 JUMP JUMPDEST PUSH1 0x20 DUP3 ADD SWAP1 POP SWAP2 SWAP1 POP JUMP JUMPDEST PUSH1 0x0 PUSH1 0x20 DUP3 ADD SWAP1 POP DUP2 DUP2 SUB PUSH1 0x0 DUP4 ADD MSTORE PUSH2 0xD9D DUP2 PUSH2 0xD61 JUMP JUMPDEST SWAP1 POP SWAP2 SWAP1 POP JUMP JUMPDEST PUSH32 0x4E487B7100000000000000000000000000000000000000000000000000000000 PUSH1 0x0 MSTORE PUSH1 0x32 PUSH1 0x4 MSTORE PUSH1 0x24 PUSH1 0x0 REVERT JUMPDEST PUSH32 0x4E487B7100000000000000000000000000000000000000000000000000000000 PUSH1 0x0 MSTORE PUSH1 0x11 PUSH1 0x4 MSTORE PUSH1 0x24 PUSH1 0x0 REVERT JUMPDEST PUSH1 0x0 PUSH2 0xE0D DUP3 PUSH2 0x957 JUMP JUMPDEST SWAP2 POP PUSH2 0xE18 DUP4 PUSH2 0x957 JUMP JUMPDEST SWAP3 POP DUP3 PUSH32 0xFFFFFFFFFFFFFFFFFFFFFFFFFFFFFFFFFFFFFFFFFFFFFFFFFFFFFFFFFFFFFFFF SUB DUP3 GT ISZERO PUSH2 0xE4D JUMPI PUSH2 0xE4C PUSH2 0xDD3 JUMP JUMPDEST JUMPDEST DUP3 DUP3 ADD SWAP1 POP SWAP3 SWAP2 POP POP JUMP JUMPDEST PUSH32 0x4E487B7100000000000000000000000000000000000000000000000000000000 PUSH1 0x0 MSTORE PUSH1 0x22 PUSH1 0x4 MSTORE PUSH1 0x24 PUSH1 0x0 REVERT JUMPDEST PUSH1 0x0 PUSH1 0x2 DUP3 DIV SWAP1 POP PUSH1 0x1 DUP3 AND DUP1 PUSH2 0xE9F JUMPI PUSH1 0x7F DUP3 AND SWAP2 POP JUMPDEST PUSH1 0x20 DUP3 LT DUP2 SUB PUSH2 0xEB2 JUMPI PUSH2 0xEB1 PUSH2 0xE58 JUMP JUMPDEST JUMPDEST POP SWAP2 SWAP1 POP JUMP JUMPDEST PUSH1 0x0 PUSH2 0xEC3 DUP3 PUSH2 0x957 JUMP JUMPDEST SWAP2 POP PUSH32 0xFFFFFFFFFFFFFFFFFFFFFFFFFFFFFFFFFFFFFFFFFFFFFFFFFFFFFFFFFFFFFFFF DUP3 SUB PUSH2 0xEF5 JUMPI PUSH2 0xEF4 PUSH2 0xDD3 JUMP JUMPDEST JUMPDEST PUSH1 0x1 DUP3 ADD SWAP1 POP SWAP2 SWAP1 POP JUMP JUMPDEST PUSH32 0x4F6E6C79206368616972706572736F6E2063616E206769766520726967687420 PUSH1 0x0 DUP3 ADD MSTORE PUSH32 0x746F20766F74652E000000000000000000000000000000000000000000000000 PUSH1 0x20 DUP3 ADD MSTORE POP JUMP JUMPDEST PUSH1 0x0 PUSH2 0xF5C PUSH1 0x28 DUP4 PUSH2 0x9C5 JUMP JUMPDEST SWAP2 POP PUSH2 0xF67 DUP3 PUSH2 0xF00 JUMP JUMPDEST PUSH1 0x40 DUP3 ADD SWAP1 POP SWAP2 SWAP1 POP JUMP JUMPDEST PUSH1 0x0 PUSH1 0x20 DUP3 ADD SWAP1 POP DUP2 DUP2 SUB PUSH1 0x0 DUP4 ADD MSTORE PUSH2 0xF8B DUP2 PUSH2 0xF4F JUMP JUMPDEST SWAP1 POP SWAP2 SWAP1 POP JUMP JUMPDEST PUSH32 0x54686520766F74657220616C726561647920766F7465642E0000000000000000 PUSH1 0x0 DUP3 ADD MSTORE POP JUMP JUMPDEST PUSH1 0x0 PUSH2 0xFC8 PUSH1 0x18 DUP4 PUSH2 0x9C5 JUMP JUMPDEST SWAP2 POP PUSH2 0xFD3 DUP3 PUSH2 0xF92 JUMP JUMPDEST PUSH1 0x20 DUP3 ADD SWAP1 POP SWAP2 SWAP1 POP JUMP JUMPDEST PUSH1 0x0 PUSH1 0x20 DUP3 ADD SWAP1 POP DUP2 DUP2 SUB PUSH1 0x0 DUP4 ADD MSTORE PUSH2 0xFF7 DUP2 PUSH2 0xFBB JUMP JUMPDEST SWAP1 POP SWAP2 SWAP1 POP JUMP JUMPDEST PUSH32 0x4F6E6C79206368616972706572736F6E2063616E20646566696E6520766F7469 PUSH1 0x0 DUP3 ADD MSTORE PUSH32 0x6E6720706572696F642E00000000000000000000000000000000000000000000 PUSH1 0x20 DUP3 ADD MSTORE POP JUMP JUMPDEST PUSH1 0x0 PUSH2 0x105A PUSH1 0x2A DUP4 PUSH2 0x9C5 JUMP JUMPDEST SWAP2 POP PUSH2 0x1065 DUP3 PUSH2 0xFFE JUMP JUMPDEST PUSH1 0x40 DUP3 ADD SWAP1 POP SWAP2 SWAP1 POP JUMP JUMPDEST PUSH1 0x0 PUSH1 0x20 DUP3 ADD SWAP1 POP DUP2 DUP2 SUB PUSH1 0x0 DUP4 ADD MSTORE PUSH2 0x1089 DUP2 PUSH2 0x104D JUMP JUMPDEST SWAP1 POP SWAP2 SWAP1 POP JUMP JUMPDEST PUSH1 0x0 PUSH2 0x109B DUP3 PUSH2 0x957 JUMP JUMPDEST SWAP2 POP PUSH2 0x10A6 DUP4 PUSH2 0x957 JUMP JUMPDEST SWAP3 POP DUP2 PUSH32 0xFFFFFFFFFFFFFFFFFFFFFFFFFFFFFFFFFFFFFFFFFFFFFFFFFFFFFFFFFFFFFFFF DIV DUP4 GT DUP3 ISZERO ISZERO AND ISZERO PUSH2 0x10DF JUMPI PUSH2 0x10DE PUSH2 0xDD3 JUMP JUMPDEST JUMPDEST DUP3 DUP3 MUL SWAP1 POP SWAP3 SWAP2 POP POP JUMP JUMPDEST PUSH32 0x496E76616C696420506572696F642C20766F74696E6720656E64206D696E7574 PUSH1 0x0 DUP3 ADD MSTORE PUSH32 0x6573206D7573742067726561746572207468616E20766F74696E672073746172 PUSH1 0x20 DUP3 ADD MSTORE PUSH32 0x74206D696E757465730000000000000000000000000000000000000000000000 PUSH1 0x40 DUP3 ADD MSTORE POP JUMP JUMPDEST PUSH1 0x0 PUSH2 0x116C PUSH1 0x49 DUP4 PUSH2 0x9C5 JUMP JUMPDEST SWAP2 POP PUSH2 0x1177 DUP3 PUSH2 0x10EA JUMP JUMPDEST PUSH1 0x60 DUP3 ADD SWAP1 POP SWAP2 SWAP1 POP JUMP JUMPDEST PUSH1 0x0 PUSH1 0x20 DUP3 ADD SWAP1 POP DUP2 DUP2 SUB PUSH1 0x0 DUP4 ADD MSTORE PUSH2 0x119B DUP2 PUSH2 0x115F JUMP JUMPDEST SWAP1 POP SWAP2 SWAP1 POP JUMP INVALID LOG2 PUSH5 0x6970667358 0x22 SLT KECCAK256 0xA5 0x2E EXTCODEHASH 0xEB SWAP14 CREATE2 DUP2 CALL PUSH23 0xC0188729BB228024EA3875A0235581D4D1F9F3B019FC46 PUSH5 0x736F6C6343 STOP ADDMOD 0xD STOP CALLER "
				},
				"gasEstimates": {
					"creation": {
						"codeDepositCost": "913600",
						"executionCost": "infinite",
						"totalCost": "infinite"
					},
					"external": {
						"chairperson()": "2578",
						"definePeriod(uint256,uint256)": "infinite",
						"giveRightToVote(address)": "29325",
						"proposals(uint256)": "infinite",
						"vote(uint256)": "infinite",
						"voters(address)": "infinite",
						"votingEnd()": "2429",
						"votingStart()": "2474",
						"winner()": "infinite",
						"winningProposal()": "infinite"
					}
				},
				"methodIdentifiers": {
					"chairperson()": "2e4176cf",
					"definePeriod(uint256,uint256)": "acf7b570",
					"giveRightToVote(address)": "9e7b8d61",
					"proposals(uint256)": "013cf08b",
					"vote(uint256)": "0121b93f",
					"voters(address)": "a3ec138d",
					"votingEnd()": "85a38635",
					"votingStart()": "101158af",
					"winner()": "dfbf53ae",
					"winningProposal()": "609ff1bd"
				}
			},
			"userdoc": {
				"kind": "user",
				"methods": {},
				"version": 1
			}
		}
	}
}