{
	"unit-testing/electionAntikode_test.sol": {
		"testSuite": {
			"abi": [
				{
					"inputs": [],
					"name": "beforeAll",
					"outputs": [],
					"stateMutability": "nonpayable",
					"type": "function"
				},
				{
					"inputs": [],
					"name": "checkFailure",
					"outputs": [],
					"stateMutability": "nonpayable",
					"type": "function"
				},
				{
					"inputs": [],
					"name": "checkSenderAndValue",
					"outputs": [],
					"stateMutability": "payable",
					"type": "function"
				},
				{
					"inputs": [],
					"name": "checkSuccess",
					"outputs": [],
					"stateMutability": "nonpayable",
					"type": "function"
				},
				{
					"inputs": [],
					"name": "checkSuccess2",
					"outputs": [
						{
							"internalType": "bool",
							"name": "",
							"type": "bool"
						}
					],
					"stateMutability": "pure",
					"type": "function"
				}
			],
			"devdoc": {
				"kind": "dev",
				"methods": {},
				"version": 1
			},
			"evm": {
				"assembly": "    /* \"unit-testing/electionAntikode_test.sol\":515:1836  contract testSuite {... */\n  mstore(0x40, 0x80)\n  callvalue\n  dup1\n  iszero\n  tag_1\n  jumpi\n  0x00\n  dup1\n  revert\ntag_1:\n  pop\n  dataSize(sub_0)\n  dup1\n  dataOffset(sub_0)\n  0x00\n  codecopy\n  0x00\n  return\nstop\n\nsub_0: assembly {\n        /* \"unit-testing/electionAntikode_test.sol\":515:1836  contract testSuite {... */\n      mstore(0x40, 0x80)\n      jumpi(tag_1, lt(calldatasize, 0x04))\n      shr(0xe0, calldataload(0x00))\n      dup1\n      0x011e6492\n      eq\n      tag_2\n      jumpi\n      dup1\n      0x12d487ea\n      eq\n      tag_3\n      jumpi\n      dup1\n      0x36c00656\n      eq\n      tag_4\n      jumpi\n      dup1\n      0x7fea0d4b\n      eq\n      tag_5\n      jumpi\n      dup1\n      0x9074416d\n      eq\n      tag_6\n      jumpi\n    tag_1:\n      0x00\n      dup1\n      revert\n        /* \"unit-testing/electionAntikode_test.sol\":818:1153  function checkSuccess() public {... */\n    tag_2:\n      callvalue\n      dup1\n      iszero\n      tag_7\n      jumpi\n      0x00\n      dup1\n      revert\n    tag_7:\n      pop\n      tag_8\n      tag_9\n      jump\t// in\n    tag_8:\n      stop\n        /* \"unit-testing/electionAntikode_test.sol\":1159:1308  function checkSuccess2() public pure returns (bool) {... */\n    tag_3:\n      callvalue\n      dup1\n      iszero\n      tag_10\n      jumpi\n      0x00\n      dup1\n      revert\n    tag_10:\n      pop\n      tag_11\n      tag_12\n      jump\t// in\n    tag_11:\n      mload(0x40)\n      tag_13\n      swap2\n      swap1\n      tag_14\n      jump\t// in\n    tag_13:\n      mload(0x40)\n      dup1\n      swap2\n      sub\n      swap1\n      return\n        /* \"unit-testing/electionAntikode_test.sol\":1318:1429  function checkFailure() public {... */\n    tag_4:\n      callvalue\n      dup1\n      iszero\n      tag_15\n      jumpi\n      0x00\n      dup1\n      revert\n    tag_15:\n      pop\n      tag_16\n      tag_17\n      jump\t// in\n    tag_16:\n      stop\n        /* \"unit-testing/electionAntikode_test.sol\":677:812  function beforeAll() public {... */\n    tag_5:\n      callvalue\n      dup1\n      iszero\n      tag_18\n      jumpi\n      0x00\n      dup1\n      revert\n    tag_18:\n      pop\n      tag_19\n      tag_20\n      jump\t// in\n    tag_19:\n      stop\n        /* \"unit-testing/electionAntikode_test.sol\":1592:1834  function checkSenderAndValue() public payable {... */\n    tag_6:\n      tag_21\n      tag_22\n      jump\t// in\n    tag_21:\n      stop\n        /* \"unit-testing/electionAntikode_test.sol\":818:1153  function checkSuccess() public {... */\n    tag_9:\n        /* \"unit-testing/electionAntikode_test.sol\":955:961  Assert */\n      linkerSymbol(\"acbfb1c35000d78352310b16a054a6b1066124b9c6f054b10c085f549bff80c6\")\n        /* \"unit-testing/electionAntikode_test.sol\":955:964  Assert.ok */\n      0x39df137f\n        /* \"unit-testing/electionAntikode_test.sol\":970:971  2 */\n      0x02\n        /* \"unit-testing/electionAntikode_test.sol\":965:966  2 */\n      dup1\n        /* \"unit-testing/electionAntikode_test.sol\":965:971  2 == 2 */\n      eq\n        /* \"unit-testing/electionAntikode_test.sol\":955:990  Assert.ok(2 == 2, 'should be true') */\n      mload(0x40)\n      dup3\n      0xffffffff\n      and\n      0xe0\n      shl\n      dup2\n      mstore\n      0x04\n      add\n      tag_24\n      swap2\n      swap1\n      tag_25\n      jump\t// in\n    tag_24:\n      0x20\n      mload(0x40)\n      dup1\n      dup4\n      sub\n      dup2\n      dup7\n      gas\n      delegatecall\n      iszero\n      dup1\n      iszero\n      tag_27\n      jumpi\n      returndatasize\n      0x00\n      dup1\n      returndatacopy\n      revert(0x00, returndatasize)\n    tag_27:\n      pop\n      pop\n      pop\n      pop\n      mload(0x40)\n      returndatasize\n      not(0x1f)\n      0x1f\n      dup3\n      add\n      and\n      dup3\n      add\n      dup1\n      0x40\n      mstore\n      pop\n      dup2\n      add\n      swap1\n      tag_28\n      swap2\n      swap1\n      tag_29\n      jump\t// in\n    tag_28:\n      pop\n        /* \"unit-testing/electionAntikode_test.sol\":1000:1006  Assert */\n      linkerSymbol(\"acbfb1c35000d78352310b16a054a6b1066124b9c6f054b10c085f549bff80c6\")\n        /* \"unit-testing/electionAntikode_test.sol\":1000:1018  Assert.greaterThan */\n      0xa079f1a3\n        /* \"unit-testing/electionAntikode_test.sol\":1024:1025  2 */\n      0x02\n        /* \"unit-testing/electionAntikode_test.sol\":1033:1034  1 */\n      0x01\n        /* \"unit-testing/electionAntikode_test.sol\":1000:1069  Assert.greaterThan(uint(2), uint(1), \"2 should be greater than to 1\") */\n      mload(0x40)\n      dup4\n      0xffffffff\n      and\n      0xe0\n      shl\n      dup2\n      mstore\n      0x04\n      add\n      tag_30\n      swap3\n      swap2\n      swap1\n      tag_31\n      jump\t// in\n    tag_30:\n      0x20\n      mload(0x40)\n      dup1\n      dup4\n      sub\n      dup2\n      dup7\n      gas\n      delegatecall\n      iszero\n      dup1\n      iszero\n      tag_33\n      jumpi\n      returndatasize\n      0x00\n      dup1\n      returndatacopy\n      revert(0x00, returndatasize)\n    tag_33:\n      pop\n      pop\n      pop\n      pop\n      mload(0x40)\n      returndatasize\n      not(0x1f)\n      0x1f\n      dup3\n      add\n      and\n      dup3\n      add\n      dup1\n      0x40\n      mstore\n      pop\n      dup2\n      add\n      swap1\n      tag_34\n      swap2\n      swap1\n      tag_29\n      jump\t// in\n    tag_34:\n      pop\n        /* \"unit-testing/electionAntikode_test.sol\":1079:1085  Assert */\n      linkerSymbol(\"acbfb1c35000d78352310b16a054a6b1066124b9c6f054b10c085f549bff80c6\")\n        /* \"unit-testing/electionAntikode_test.sol\":1079:1096  Assert.lesserThan */\n      0xaea88952\n        /* \"unit-testing/electionAntikode_test.sol\":1102:1103  2 */\n      0x02\n        /* \"unit-testing/electionAntikode_test.sol\":1111:1112  3 */\n      0x03\n        /* \"unit-testing/electionAntikode_test.sol\":1079:1146  Assert.lesserThan(uint(2), uint(3), \"2 should be lesser than to 3\") */\n      mload(0x40)\n      dup4\n      0xffffffff\n      and\n      0xe0\n      shl\n      dup2\n      mstore\n      0x04\n      add\n      tag_35\n      swap3\n      swap2\n      swap1\n      tag_36\n      jump\t// in\n    tag_35:\n      0x20\n      mload(0x40)\n      dup1\n      dup4\n      sub\n      dup2\n      dup7\n      gas\n      delegatecall\n      iszero\n      dup1\n      iszero\n      tag_38\n      jumpi\n      returndatasize\n      0x00\n      dup1\n      returndatacopy\n      revert(0x00, returndatasize)\n    tag_38:\n      pop\n      pop\n      pop\n      pop\n      mload(0x40)\n      returndatasize\n      not(0x1f)\n      0x1f\n      dup3\n      add\n      and\n      dup3\n      add\n      dup1\n      0x40\n      mstore\n      pop\n      dup2\n      add\n      swap1\n      tag_39\n      swap2\n      swap1\n      tag_29\n      jump\t// in\n    tag_39:\n      pop\n        /* \"unit-testing/electionAntikode_test.sol\":818:1153  function checkSuccess() public {... */\n      jump\t// out\n        /* \"unit-testing/electionAntikode_test.sol\":1159:1308  function checkSuccess2() public pure returns (bool) {... */\n    tag_12:\n        /* \"unit-testing/electionAntikode_test.sol\":1205:1209  bool */\n      0x00\n        /* \"unit-testing/electionAntikode_test.sol\":1297:1301  true */\n      0x01\n        /* \"unit-testing/electionAntikode_test.sol\":1290:1301  return true */\n      swap1\n      pop\n        /* \"unit-testing/electionAntikode_test.sol\":1159:1308  function checkSuccess2() public pure returns (bool) {... */\n      swap1\n      jump\t// out\n        /* \"unit-testing/electionAntikode_test.sol\":1318:1429  function checkFailure() public {... */\n    tag_17:\n        /* \"unit-testing/electionAntikode_test.sol\":1359:1365  Assert */\n      linkerSymbol(\"acbfb1c35000d78352310b16a054a6b1066124b9c6f054b10c085f549bff80c6\")\n        /* \"unit-testing/electionAntikode_test.sol\":1359:1374  Assert.notEqual */\n      0x561015e2\n        /* \"unit-testing/electionAntikode_test.sol\":1380:1381  1 */\n      0x01\n        /* \"unit-testing/electionAntikode_test.sol\":1389:1390  1 */\n      dup1\n        /* \"unit-testing/electionAntikode_test.sol\":1359:1422  Assert.notEqual(uint(1), uint(1), \"1 should not be equal to 1\") */\n      mload(0x40)\n      dup4\n      0xffffffff\n      and\n      0xe0\n      shl\n      dup2\n      mstore\n      0x04\n      add\n      tag_42\n      swap3\n      swap2\n      swap1\n      tag_43\n      jump\t// in\n    tag_42:\n      0x20\n      mload(0x40)\n      dup1\n      dup4\n      sub\n      dup2\n      dup7\n      gas\n      delegatecall\n      iszero\n      dup1\n      iszero\n      tag_45\n      jumpi\n      returndatasize\n      0x00\n      dup1\n      returndatacopy\n      revert(0x00, returndatasize)\n    tag_45:\n      pop\n      pop\n      pop\n      pop\n      mload(0x40)\n      returndatasize\n      not(0x1f)\n      0x1f\n      dup3\n      add\n      and\n      dup3\n      add\n      dup1\n      0x40\n      mstore\n      pop\n      dup2\n      add\n      swap1\n      tag_46\n      swap2\n      swap1\n      tag_29\n      jump\t// in\n    tag_46:\n      pop\n        /* \"unit-testing/electionAntikode_test.sol\":1318:1429  function checkFailure() public {... */\n      jump\t// out\n        /* \"unit-testing/electionAntikode_test.sol\":677:812  function beforeAll() public {... */\n    tag_20:\n        /* \"unit-testing/electionAntikode_test.sol\":749:755  Assert */\n      linkerSymbol(\"acbfb1c35000d78352310b16a054a6b1066124b9c6f054b10c085f549bff80c6\")\n        /* \"unit-testing/electionAntikode_test.sol\":749:761  Assert.equal */\n      0xabcd7960\n        /* \"unit-testing/electionAntikode_test.sol\":767:768  1 */\n      0x01\n        /* \"unit-testing/electionAntikode_test.sol\":776:777  1 */\n      dup1\n        /* \"unit-testing/electionAntikode_test.sol\":749:805  Assert.equal(uint(1), uint(1), \"1 should be equal to 1\") */\n      mload(0x40)\n      dup4\n      0xffffffff\n      and\n      0xe0\n      shl\n      dup2\n      mstore\n      0x04\n      add\n      tag_48\n      swap3\n      swap2\n      swap1\n      tag_49\n      jump\t// in\n    tag_48:\n      0x20\n      mload(0x40)\n      dup1\n      dup4\n      sub\n      dup2\n      dup7\n      gas\n      delegatecall\n      iszero\n      dup1\n      iszero\n      tag_51\n      jumpi\n      returndatasize\n      0x00\n      dup1\n      returndatacopy\n      revert(0x00, returndatasize)\n    tag_51:\n      pop\n      pop\n      pop\n      pop\n      mload(0x40)\n      returndatasize\n      not(0x1f)\n      0x1f\n      dup3\n      add\n      and\n      dup3\n      add\n      dup1\n      0x40\n      mstore\n      pop\n      dup2\n      add\n      swap1\n      tag_52\n      swap2\n      swap1\n      tag_29\n      jump\t// in\n    tag_52:\n      pop\n        /* \"unit-testing/electionAntikode_test.sol\":677:812  function beforeAll() public {... */\n      jump\t// out\n        /* \"unit-testing/electionAntikode_test.sol\":1592:1834  function checkSenderAndValue() public payable {... */\n    tag_22:\n        /* \"unit-testing/electionAntikode_test.sol\":1701:1707  Assert */\n      linkerSymbol(\"acbfb1c35000d78352310b16a054a6b1066124b9c6f054b10c085f549bff80c6\")\n        /* \"unit-testing/electionAntikode_test.sol\":1701:1713  Assert.equal */\n      0xbfba5dd6\n        /* \"unit-testing/electionAntikode_test.sol\":1714:1724  msg.sender */\n      caller\n        /* \"unit-testing/electionAntikode_test.sol\":1726:1739  TestsAccounts */\n      linkerSymbol(\"1068a87eb54ed04c4e435de35b2ebf536f41f3ff436b4a9bd78b8044f97a1889\")\n        /* \"unit-testing/electionAntikode_test.sol\":1726:1750  TestsAccounts.getAccount */\n      0xce88b145\n        /* \"unit-testing/electionAntikode_test.sol\":1751:1752  1 */\n      0x01\n        /* \"unit-testing/electionAntikode_test.sol\":1726:1753  TestsAccounts.getAccount(1) */\n      mload(0x40)\n      dup3\n      0xffffffff\n      and\n      0xe0\n      shl\n      dup2\n      mstore\n      0x04\n      add\n      tag_54\n      swap2\n      swap1\n      tag_55\n      jump\t// in\n    tag_54:\n      0x20\n      mload(0x40)\n      dup1\n      dup4\n      sub\n      dup2\n      dup7\n      gas\n      delegatecall\n      iszero\n      dup1\n      iszero\n      tag_57\n      jumpi\n      returndatasize\n      0x00\n      dup1\n      returndatacopy\n      revert(0x00, returndatasize)\n    tag_57:\n      pop\n      pop\n      pop\n      pop\n      mload(0x40)\n      returndatasize\n      not(0x1f)\n      0x1f\n      dup3\n      add\n      and\n      dup3\n      add\n      dup1\n      0x40\n      mstore\n      pop\n      dup2\n      add\n      swap1\n      tag_58\n      swap2\n      swap1\n      tag_59\n      jump\t// in\n    tag_58:\n        /* \"unit-testing/electionAntikode_test.sol\":1701:1772  Assert.equal(msg.sender, TestsAccounts.getAccount(1), \"Invalid sender\") */\n      mload(0x40)\n      dup4\n      0xffffffff\n      and\n      0xe0\n      shl\n      dup2\n      mstore\n      0x04\n      add\n      tag_60\n      swap3\n      swap2\n      swap1\n      tag_61\n      jump\t// in\n    tag_60:\n      0x20\n      mload(0x40)\n      dup1\n      dup4\n      sub\n      dup2\n      dup7\n      gas\n      delegatecall\n      iszero\n      dup1\n      iszero\n      tag_63\n      jumpi\n      returndatasize\n      0x00\n      dup1\n      returndatacopy\n      revert(0x00, returndatasize)\n    tag_63:\n      pop\n      pop\n      pop\n      pop\n      mload(0x40)\n      returndatasize\n      not(0x1f)\n      0x1f\n      dup3\n      add\n      and\n      dup3\n      add\n      dup1\n      0x40\n      mstore\n      pop\n      dup2\n      add\n      swap1\n      tag_64\n      swap2\n      swap1\n      tag_29\n      jump\t// in\n    tag_64:\n      pop\n        /* \"unit-testing/electionAntikode_test.sol\":1782:1788  Assert */\n      linkerSymbol(\"acbfb1c35000d78352310b16a054a6b1066124b9c6f054b10c085f549bff80c6\")\n        /* \"unit-testing/electionAntikode_test.sol\":1782:1794  Assert.equal */\n      0xabcd7960\n        /* \"unit-testing/electionAntikode_test.sol\":1795:1804  msg.value */\n      callvalue\n        /* \"unit-testing/electionAntikode_test.sol\":1806:1809  100 */\n      0x64\n        /* \"unit-testing/electionAntikode_test.sol\":1782:1827  Assert.equal(msg.value, 100, \"Invalid value\") */\n      mload(0x40)\n      dup4\n      0xffffffff\n      and\n      0xe0\n      shl\n      dup2\n      mstore\n      0x04\n      add\n      tag_65\n      swap3\n      swap2\n      swap1\n      tag_66\n      jump\t// in\n    tag_65:\n      0x20\n      mload(0x40)\n      dup1\n      dup4\n      sub\n      dup2\n      dup7\n      gas\n      delegatecall\n      iszero\n      dup1\n      iszero\n      tag_68\n      jumpi\n      returndatasize\n      0x00\n      dup1\n      returndatacopy\n      revert(0x00, returndatasize)\n    tag_68:\n      pop\n      pop\n      pop\n      pop\n      mload(0x40)\n      returndatasize\n      not(0x1f)\n      0x1f\n      dup3\n      add\n      and\n      dup3\n      add\n      dup1\n      0x40\n      mstore\n      pop\n      dup2\n      add\n      swap1\n      tag_69\n      swap2\n      swap1\n      tag_29\n      jump\t// in\n    tag_69:\n      pop\n        /* \"unit-testing/electionAntikode_test.sol\":1592:1834  function checkSenderAndValue() public payable {... */\n      jump\t// out\n        /* \"#utility.yul\":7:97   */\n    tag_70:\n        /* \"#utility.yul\":41:48   */\n      0x00\n        /* \"#utility.yul\":84:89   */\n      dup2\n        /* \"#utility.yul\":77:90   */\n      iszero\n        /* \"#utility.yul\":70:91   */\n      iszero\n        /* \"#utility.yul\":59:91   */\n      swap1\n      pop\n        /* \"#utility.yul\":7:97   */\n      swap2\n      swap1\n      pop\n      jump\t// out\n        /* \"#utility.yul\":103:212   */\n    tag_71:\n        /* \"#utility.yul\":184:205   */\n      tag_110\n        /* \"#utility.yul\":199:204   */\n      dup2\n        /* \"#utility.yul\":184:205   */\n      tag_70\n      jump\t// in\n    tag_110:\n        /* \"#utility.yul\":179:182   */\n      dup3\n        /* \"#utility.yul\":172:206   */\n      mstore\n        /* \"#utility.yul\":103:212   */\n      pop\n      pop\n      jump\t// out\n        /* \"#utility.yul\":218:428   */\n    tag_14:\n        /* \"#utility.yul\":305:309   */\n      0x00\n        /* \"#utility.yul\":343:345   */\n      0x20\n        /* \"#utility.yul\":332:341   */\n      dup3\n        /* \"#utility.yul\":328:346   */\n      add\n        /* \"#utility.yul\":320:346   */\n      swap1\n      pop\n        /* \"#utility.yul\":356:421   */\n      tag_112\n        /* \"#utility.yul\":418:419   */\n      0x00\n        /* \"#utility.yul\":407:416   */\n      dup4\n        /* \"#utility.yul\":403:420   */\n      add\n        /* \"#utility.yul\":394:400   */\n      dup5\n        /* \"#utility.yul\":356:421   */\n      tag_71\n      jump\t// in\n    tag_112:\n        /* \"#utility.yul\":218:428   */\n      swap3\n      swap2\n      pop\n      pop\n      jump\t// out\n        /* \"#utility.yul\":434:551   */\n    tag_72:\n        /* \"#utility.yul\":523:544   */\n      tag_114\n        /* \"#utility.yul\":538:543   */\n      dup2\n        /* \"#utility.yul\":523:544   */\n      tag_70\n      jump\t// in\n    tag_114:\n        /* \"#utility.yul\":518:521   */\n      dup3\n        /* \"#utility.yul\":511:545   */\n      mstore\n        /* \"#utility.yul\":434:551   */\n      pop\n      pop\n      jump\t// out\n        /* \"#utility.yul\":557:734   */\n    tag_73:\n        /* \"#utility.yul\":649:660   */\n      0x00\n        /* \"#utility.yul\":683:689   */\n      dup3\n        /* \"#utility.yul\":678:681   */\n      dup3\n        /* \"#utility.yul\":671:690   */\n      mstore\n        /* \"#utility.yul\":723:727   */\n      0x20\n        /* \"#utility.yul\":718:721   */\n      dup3\n        /* \"#utility.yul\":714:728   */\n      add\n        /* \"#utility.yul\":699:728   */\n      swap1\n      pop\n        /* \"#utility.yul\":557:734   */\n      swap3\n      swap2\n      pop\n      pop\n      jump\t// out\n        /* \"#utility.yul\":740:904   */\n    tag_74:\n        /* \"#utility.yul\":880:896   */\n      0x73686f756c642062652074727565000000000000000000000000000000000000\n        /* \"#utility.yul\":876:877   */\n      0x00\n        /* \"#utility.yul\":868:874   */\n      dup3\n        /* \"#utility.yul\":864:878   */\n      add\n        /* \"#utility.yul\":857:897   */\n      mstore\n        /* \"#utility.yul\":740:904   */\n      pop\n      jump\t// out\n        /* \"#utility.yul\":910:1292   */\n    tag_75:\n        /* \"#utility.yul\":1060:1063   */\n      0x00\n        /* \"#utility.yul\":1081:1156   */\n      tag_118\n        /* \"#utility.yul\":1153:1155   */\n      0x0e\n        /* \"#utility.yul\":1148:1151   */\n      dup4\n        /* \"#utility.yul\":1081:1156   */\n      tag_73\n      jump\t// in\n    tag_118:\n        /* \"#utility.yul\":1074:1156   */\n      swap2\n      pop\n        /* \"#utility.yul\":1165:1258   */\n      tag_119\n        /* \"#utility.yul\":1254:1257   */\n      dup3\n        /* \"#utility.yul\":1165:1258   */\n      tag_74\n      jump\t// in\n    tag_119:\n        /* \"#utility.yul\":1283:1285   */\n      0x20\n        /* \"#utility.yul\":1278:1281   */\n      dup3\n        /* \"#utility.yul\":1274:1286   */\n      add\n        /* \"#utility.yul\":1267:1286   */\n      swap1\n      pop\n        /* \"#utility.yul\":910:1292   */\n      swap2\n      swap1\n      pop\n      jump\t// out\n        /* \"#utility.yul\":1298:1839   */\n    tag_25:\n        /* \"#utility.yul\":1494:1498   */\n      0x00\n        /* \"#utility.yul\":1532:1534   */\n      0x40\n        /* \"#utility.yul\":1521:1530   */\n      dup3\n        /* \"#utility.yul\":1517:1535   */\n      add\n        /* \"#utility.yul\":1509:1535   */\n      swap1\n      pop\n        /* \"#utility.yul\":1545:1618   */\n      tag_121\n        /* \"#utility.yul\":1615:1616   */\n      0x00\n        /* \"#utility.yul\":1604:1613   */\n      dup4\n        /* \"#utility.yul\":1600:1617   */\n      add\n        /* \"#utility.yul\":1591:1597   */\n      dup5\n        /* \"#utility.yul\":1545:1618   */\n      tag_72\n      jump\t// in\n    tag_121:\n        /* \"#utility.yul\":1665:1674   */\n      dup2\n        /* \"#utility.yul\":1659:1663   */\n      dup2\n        /* \"#utility.yul\":1655:1675   */\n      sub\n        /* \"#utility.yul\":1650:1652   */\n      0x20\n        /* \"#utility.yul\":1639:1648   */\n      dup4\n        /* \"#utility.yul\":1635:1653   */\n      add\n        /* \"#utility.yul\":1628:1676   */\n      mstore\n        /* \"#utility.yul\":1693:1832   */\n      tag_122\n        /* \"#utility.yul\":1827:1831   */\n      dup2\n        /* \"#utility.yul\":1693:1832   */\n      tag_75\n      jump\t// in\n    tag_122:\n        /* \"#utility.yul\":1685:1832   */\n      swap1\n      pop\n        /* \"#utility.yul\":1298:1839   */\n      swap3\n      swap2\n      pop\n      pop\n      jump\t// out\n        /* \"#utility.yul\":1926:2043   */\n    tag_77:\n        /* \"#utility.yul\":2035:2036   */\n      0x00\n        /* \"#utility.yul\":2032:2033   */\n      dup1\n        /* \"#utility.yul\":2025:2037   */\n      revert\n        /* \"#utility.yul\":2172:2288   */\n    tag_79:\n        /* \"#utility.yul\":2242:2263   */\n      tag_127\n        /* \"#utility.yul\":2257:2262   */\n      dup2\n        /* \"#utility.yul\":2242:2263   */\n      tag_70\n      jump\t// in\n    tag_127:\n        /* \"#utility.yul\":2235:2240   */\n      dup2\n        /* \"#utility.yul\":2232:2264   */\n      eq\n        /* \"#utility.yul\":2222:2282   */\n      tag_128\n      jumpi\n        /* \"#utility.yul\":2278:2279   */\n      0x00\n        /* \"#utility.yul\":2275:2276   */\n      dup1\n        /* \"#utility.yul\":2268:2280   */\n      revert\n        /* \"#utility.yul\":2222:2282   */\n    tag_128:\n        /* \"#utility.yul\":2172:2288   */\n      pop\n      jump\t// out\n        /* \"#utility.yul\":2294:2431   */\n    tag_80:\n        /* \"#utility.yul\":2348:2353   */\n      0x00\n        /* \"#utility.yul\":2379:2385   */\n      dup2\n        /* \"#utility.yul\":2373:2386   */\n      mload\n        /* \"#utility.yul\":2364:2386   */\n      swap1\n      pop\n        /* \"#utility.yul\":2395:2425   */\n      tag_130\n        /* \"#utility.yul\":2419:2424   */\n      dup2\n        /* \"#utility.yul\":2395:2425   */\n      tag_79\n      jump\t// in\n    tag_130:\n        /* \"#utility.yul\":2294:2431   */\n      swap3\n      swap2\n      pop\n      pop\n      jump\t// out\n        /* \"#utility.yul\":2437:2782   */\n    tag_29:\n        /* \"#utility.yul\":2504:2510   */\n      0x00\n        /* \"#utility.yul\":2553:2555   */\n      0x20\n        /* \"#utility.yul\":2541:2550   */\n      dup3\n        /* \"#utility.yul\":2532:2539   */\n      dup5\n        /* \"#utility.yul\":2528:2551   */\n      sub\n        /* \"#utility.yul\":2524:2556   */\n      slt\n        /* \"#utility.yul\":2521:2640   */\n      iszero\n      tag_132\n      jumpi\n        /* \"#utility.yul\":2559:2638   */\n      tag_133\n      tag_77\n      jump\t// in\n    tag_133:\n        /* \"#utility.yul\":2521:2640   */\n    tag_132:\n        /* \"#utility.yul\":2679:2680   */\n      0x00\n        /* \"#utility.yul\":2704:2765   */\n      tag_134\n        /* \"#utility.yul\":2757:2764   */\n      dup5\n        /* \"#utility.yul\":2748:2754   */\n      dup3\n        /* \"#utility.yul\":2737:2746   */\n      dup6\n        /* \"#utility.yul\":2733:2755   */\n      add\n        /* \"#utility.yul\":2704:2765   */\n      tag_80\n      jump\t// in\n    tag_134:\n        /* \"#utility.yul\":2694:2765   */\n      swap2\n      pop\n        /* \"#utility.yul\":2650:2775   */\n      pop\n        /* \"#utility.yul\":2437:2782   */\n      swap3\n      swap2\n      pop\n      pop\n      jump\t// out\n        /* \"#utility.yul\":2788:2865   */\n    tag_81:\n        /* \"#utility.yul\":2825:2832   */\n      0x00\n        /* \"#utility.yul\":2854:2859   */\n      dup2\n        /* \"#utility.yul\":2843:2859   */\n      swap1\n      pop\n        /* \"#utility.yul\":2788:2865   */\n      swap2\n      swap1\n      pop\n      jump\t// out\n        /* \"#utility.yul\":2871:2997   */\n    tag_82:\n        /* \"#utility.yul\":2966:2990   */\n      tag_137\n        /* \"#utility.yul\":2984:2989   */\n      dup2\n        /* \"#utility.yul\":2966:2990   */\n      tag_81\n      jump\t// in\n    tag_137:\n        /* \"#utility.yul\":2961:2964   */\n      dup3\n        /* \"#utility.yul\":2954:2991   */\n      mstore\n        /* \"#utility.yul\":2871:2997   */\n      pop\n      pop\n      jump\t// out\n        /* \"#utility.yul\":3003:3182   */\n    tag_83:\n        /* \"#utility.yul\":3143:3174   */\n      0x322073686f756c642062652067726561746572207468616e20746f2031000000\n        /* \"#utility.yul\":3139:3140   */\n      0x00\n        /* \"#utility.yul\":3131:3137   */\n      dup3\n        /* \"#utility.yul\":3127:3141   */\n      add\n        /* \"#utility.yul\":3120:3175   */\n      mstore\n        /* \"#utility.yul\":3003:3182   */\n      pop\n      jump\t// out\n        /* \"#utility.yul\":3188:3570   */\n    tag_84:\n        /* \"#utility.yul\":3338:3341   */\n      0x00\n        /* \"#utility.yul\":3359:3434   */\n      tag_140\n        /* \"#utility.yul\":3431:3433   */\n      0x1d\n        /* \"#utility.yul\":3426:3429   */\n      dup4\n        /* \"#utility.yul\":3359:3434   */\n      tag_73\n      jump\t// in\n    tag_140:\n        /* \"#utility.yul\":3352:3434   */\n      swap2\n      pop\n        /* \"#utility.yul\":3443:3536   */\n      tag_141\n        /* \"#utility.yul\":3532:3535   */\n      dup3\n        /* \"#utility.yul\":3443:3536   */\n      tag_83\n      jump\t// in\n    tag_141:\n        /* \"#utility.yul\":3561:3563   */\n      0x20\n        /* \"#utility.yul\":3556:3559   */\n      dup3\n        /* \"#utility.yul\":3552:3564   */\n      add\n        /* \"#utility.yul\":3545:3564   */\n      swap1\n      pop\n        /* \"#utility.yul\":3188:3570   */\n      swap2\n      swap1\n      pop\n      jump\t// out\n        /* \"#utility.yul\":3576:4247   */\n    tag_31:\n        /* \"#utility.yul\":3806:3810   */\n      0x00\n        /* \"#utility.yul\":3844:3846   */\n      0x60\n        /* \"#utility.yul\":3833:3842   */\n      dup3\n        /* \"#utility.yul\":3829:3847   */\n      add\n        /* \"#utility.yul\":3821:3847   */\n      swap1\n      pop\n        /* \"#utility.yul\":3857:3936   */\n      tag_143\n        /* \"#utility.yul\":3933:3934   */\n      0x00\n        /* \"#utility.yul\":3922:3931   */\n      dup4\n        /* \"#utility.yul\":3918:3935   */\n      add\n        /* \"#utility.yul\":3909:3915   */\n      dup6\n        /* \"#utility.yul\":3857:3936   */\n      tag_82\n      jump\t// in\n    tag_143:\n        /* \"#utility.yul\":3946:4026   */\n      tag_144\n        /* \"#utility.yul\":4022:4024   */\n      0x20\n        /* \"#utility.yul\":4011:4020   */\n      dup4\n        /* \"#utility.yul\":4007:4025   */\n      add\n        /* \"#utility.yul\":3998:4004   */\n      dup5\n        /* \"#utility.yul\":3946:4026   */\n      tag_82\n      jump\t// in\n    tag_144:\n        /* \"#utility.yul\":4073:4082   */\n      dup2\n        /* \"#utility.yul\":4067:4071   */\n      dup2\n        /* \"#utility.yul\":4063:4083   */\n      sub\n        /* \"#utility.yul\":4058:4060   */\n      0x40\n        /* \"#utility.yul\":4047:4056   */\n      dup4\n        /* \"#utility.yul\":4043:4061   */\n      add\n        /* \"#utility.yul\":4036:4084   */\n      mstore\n        /* \"#utility.yul\":4101:4240   */\n      tag_145\n        /* \"#utility.yul\":4235:4239   */\n      dup2\n        /* \"#utility.yul\":4101:4240   */\n      tag_84\n      jump\t// in\n    tag_145:\n        /* \"#utility.yul\":4093:4240   */\n      swap1\n      pop\n        /* \"#utility.yul\":3576:4247   */\n      swap4\n      swap3\n      pop\n      pop\n      pop\n      jump\t// out\n        /* \"#utility.yul\":4253:4431   */\n    tag_85:\n        /* \"#utility.yul\":4393:4423   */\n      0x322073686f756c64206265206c6573736572207468616e20746f203300000000\n        /* \"#utility.yul\":4389:4390   */\n      0x00\n        /* \"#utility.yul\":4381:4387   */\n      dup3\n        /* \"#utility.yul\":4377:4391   */\n      add\n        /* \"#utility.yul\":4370:4424   */\n      mstore\n        /* \"#utility.yul\":4253:4431   */\n      pop\n      jump\t// out\n        /* \"#utility.yul\":4437:4819   */\n    tag_86:\n        /* \"#utility.yul\":4587:4590   */\n      0x00\n        /* \"#utility.yul\":4608:4683   */\n      tag_148\n        /* \"#utility.yul\":4680:4682   */\n      0x1c\n        /* \"#utility.yul\":4675:4678   */\n      dup4\n        /* \"#utility.yul\":4608:4683   */\n      tag_73\n      jump\t// in\n    tag_148:\n        /* \"#utility.yul\":4601:4683   */\n      swap2\n      pop\n        /* \"#utility.yul\":4692:4785   */\n      tag_149\n        /* \"#utility.yul\":4781:4784   */\n      dup3\n        /* \"#utility.yul\":4692:4785   */\n      tag_85\n      jump\t// in\n    tag_149:\n        /* \"#utility.yul\":4810:4812   */\n      0x20\n        /* \"#utility.yul\":4805:4808   */\n      dup3\n        /* \"#utility.yul\":4801:4813   */\n      add\n        /* \"#utility.yul\":4794:4813   */\n      swap1\n      pop\n        /* \"#utility.yul\":4437:4819   */\n      swap2\n      swap1\n      pop\n      jump\t// out\n        /* \"#utility.yul\":4825:5496   */\n    tag_36:\n        /* \"#utility.yul\":5055:5059   */\n      0x00\n        /* \"#utility.yul\":5093:5095   */\n      0x60\n        /* \"#utility.yul\":5082:5091   */\n      dup3\n        /* \"#utility.yul\":5078:5096   */\n      add\n        /* \"#utility.yul\":5070:5096   */\n      swap1\n      pop\n        /* \"#utility.yul\":5106:5185   */\n      tag_151\n        /* \"#utility.yul\":5182:5183   */\n      0x00\n        /* \"#utility.yul\":5171:5180   */\n      dup4\n        /* \"#utility.yul\":5167:5184   */\n      add\n        /* \"#utility.yul\":5158:5164   */\n      dup6\n        /* \"#utility.yul\":5106:5185   */\n      tag_82\n      jump\t// in\n    tag_151:\n        /* \"#utility.yul\":5195:5275   */\n      tag_152\n        /* \"#utility.yul\":5271:5273   */\n      0x20\n        /* \"#utility.yul\":5260:5269   */\n      dup4\n        /* \"#utility.yul\":5256:5274   */\n      add\n        /* \"#utility.yul\":5247:5253   */\n      dup5\n        /* \"#utility.yul\":5195:5275   */\n      tag_82\n      jump\t// in\n    tag_152:\n        /* \"#utility.yul\":5322:5331   */\n      dup2\n        /* \"#utility.yul\":5316:5320   */\n      dup2\n        /* \"#utility.yul\":5312:5332   */\n      sub\n        /* \"#utility.yul\":5307:5309   */\n      0x40\n        /* \"#utility.yul\":5296:5305   */\n      dup4\n        /* \"#utility.yul\":5292:5310   */\n      add\n        /* \"#utility.yul\":5285:5333   */\n      mstore\n        /* \"#utility.yul\":5350:5489   */\n      tag_153\n        /* \"#utility.yul\":5484:5488   */\n      dup2\n        /* \"#utility.yul\":5350:5489   */\n      tag_86\n      jump\t// in\n    tag_153:\n        /* \"#utility.yul\":5342:5489   */\n      swap1\n      pop\n        /* \"#utility.yul\":4825:5496   */\n      swap4\n      swap3\n      pop\n      pop\n      pop\n      jump\t// out\n        /* \"#utility.yul\":5502:5678   */\n    tag_87:\n        /* \"#utility.yul\":5642:5670   */\n      0x312073686f756c64206e6f7420626520657175616c20746f2031000000000000\n        /* \"#utility.yul\":5638:5639   */\n      0x00\n        /* \"#utility.yul\":5630:5636   */\n      dup3\n        /* \"#utility.yul\":5626:5640   */\n      add\n        /* \"#utility.yul\":5619:5671   */\n      mstore\n        /* \"#utility.yul\":5502:5678   */\n      pop\n      jump\t// out\n        /* \"#utility.yul\":5684:6066   */\n    tag_88:\n        /* \"#utility.yul\":5834:5837   */\n      0x00\n        /* \"#utility.yul\":5855:5930   */\n      tag_156\n        /* \"#utility.yul\":5927:5929   */\n      0x1a\n        /* \"#utility.yul\":5922:5925   */\n      dup4\n        /* \"#utility.yul\":5855:5930   */\n      tag_73\n      jump\t// in\n    tag_156:\n        /* \"#utility.yul\":5848:5930   */\n      swap2\n      pop\n        /* \"#utility.yul\":5939:6032   */\n      tag_157\n        /* \"#utility.yul\":6028:6031   */\n      dup3\n        /* \"#utility.yul\":5939:6032   */\n      tag_87\n      jump\t// in\n    tag_157:\n        /* \"#utility.yul\":6057:6059   */\n      0x20\n        /* \"#utility.yul\":6052:6055   */\n      dup3\n        /* \"#utility.yul\":6048:6060   */\n      add\n        /* \"#utility.yul\":6041:6060   */\n      swap1\n      pop\n        /* \"#utility.yul\":5684:6066   */\n      swap2\n      swap1\n      pop\n      jump\t// out\n        /* \"#utility.yul\":6072:6743   */\n    tag_43:\n        /* \"#utility.yul\":6302:6306   */\n      0x00\n        /* \"#utility.yul\":6340:6342   */\n      0x60\n        /* \"#utility.yul\":6329:6338   */\n      dup3\n        /* \"#utility.yul\":6325:6343   */\n      add\n        /* \"#utility.yul\":6317:6343   */\n      swap1\n      pop\n        /* \"#utility.yul\":6353:6432   */\n      tag_159\n        /* \"#utility.yul\":6429:6430   */\n      0x00\n        /* \"#utility.yul\":6418:6427   */\n      dup4\n        /* \"#utility.yul\":6414:6431   */\n      add\n        /* \"#utility.yul\":6405:6411   */\n      dup6\n        /* \"#utility.yul\":6353:6432   */\n      tag_82\n      jump\t// in\n    tag_159:\n        /* \"#utility.yul\":6442:6522   */\n      tag_160\n        /* \"#utility.yul\":6518:6520   */\n      0x20\n        /* \"#utility.yul\":6507:6516   */\n      dup4\n        /* \"#utility.yul\":6503:6521   */\n      add\n        /* \"#utility.yul\":6494:6500   */\n      dup5\n        /* \"#utility.yul\":6442:6522   */\n      tag_82\n      jump\t// in\n    tag_160:\n        /* \"#utility.yul\":6569:6578   */\n      dup2\n        /* \"#utility.yul\":6563:6567   */\n      dup2\n        /* \"#utility.yul\":6559:6579   */\n      sub\n        /* \"#utility.yul\":6554:6556   */\n      0x40\n        /* \"#utility.yul\":6543:6552   */\n      dup4\n        /* \"#utility.yul\":6539:6557   */\n      add\n        /* \"#utility.yul\":6532:6580   */\n      mstore\n        /* \"#utility.yul\":6597:6736   */\n      tag_161\n        /* \"#utility.yul\":6731:6735   */\n      dup2\n        /* \"#utility.yul\":6597:6736   */\n      tag_88\n      jump\t// in\n    tag_161:\n        /* \"#utility.yul\":6589:6736   */\n      swap1\n      pop\n        /* \"#utility.yul\":6072:6743   */\n      swap4\n      swap3\n      pop\n      pop\n      pop\n      jump\t// out\n        /* \"#utility.yul\":6749:6921   */\n    tag_89:\n        /* \"#utility.yul\":6889:6913   */\n      0x312073686f756c6420626520657175616c20746f203100000000000000000000\n        /* \"#utility.yul\":6885:6886   */\n      0x00\n        /* \"#utility.yul\":6877:6883   */\n      dup3\n        /* \"#utility.yul\":6873:6887   */\n      add\n        /* \"#utility.yul\":6866:6914   */\n      mstore\n        /* \"#utility.yul\":6749:6921   */\n      pop\n      jump\t// out\n        /* \"#utility.yul\":6927:7309   */\n    tag_90:\n        /* \"#utility.yul\":7077:7080   */\n      0x00\n        /* \"#utility.yul\":7098:7173   */\n      tag_164\n        /* \"#utility.yul\":7170:7172   */\n      0x16\n        /* \"#utility.yul\":7165:7168   */\n      dup4\n        /* \"#utility.yul\":7098:7173   */\n      tag_73\n      jump\t// in\n    tag_164:\n        /* \"#utility.yul\":7091:7173   */\n      swap2\n      pop\n        /* \"#utility.yul\":7182:7275   */\n      tag_165\n        /* \"#utility.yul\":7271:7274   */\n      dup3\n        /* \"#utility.yul\":7182:7275   */\n      tag_89\n      jump\t// in\n    tag_165:\n        /* \"#utility.yul\":7300:7302   */\n      0x20\n        /* \"#utility.yul\":7295:7298   */\n      dup3\n        /* \"#utility.yul\":7291:7303   */\n      add\n        /* \"#utility.yul\":7284:7303   */\n      swap1\n      pop\n        /* \"#utility.yul\":6927:7309   */\n      swap2\n      swap1\n      pop\n      jump\t// out\n        /* \"#utility.yul\":7315:7986   */\n    tag_49:\n        /* \"#utility.yul\":7545:7549   */\n      0x00\n        /* \"#utility.yul\":7583:7585   */\n      0x60\n        /* \"#utility.yul\":7572:7581   */\n      dup3\n        /* \"#utility.yul\":7568:7586   */\n      add\n        /* \"#utility.yul\":7560:7586   */\n      swap1\n      pop\n        /* \"#utility.yul\":7596:7675   */\n      tag_167\n        /* \"#utility.yul\":7672:7673   */\n      0x00\n        /* \"#utility.yul\":7661:7670   */\n      dup4\n        /* \"#utility.yul\":7657:7674   */\n      add\n        /* \"#utility.yul\":7648:7654   */\n      dup6\n        /* \"#utility.yul\":7596:7675   */\n      tag_82\n      jump\t// in\n    tag_167:\n        /* \"#utility.yul\":7685:7765   */\n      tag_168\n        /* \"#utility.yul\":7761:7763   */\n      0x20\n        /* \"#utility.yul\":7750:7759   */\n      dup4\n        /* \"#utility.yul\":7746:7764   */\n      add\n        /* \"#utility.yul\":7737:7743   */\n      dup5\n        /* \"#utility.yul\":7685:7765   */\n      tag_82\n      jump\t// in\n    tag_168:\n        /* \"#utility.yul\":7812:7821   */\n      dup2\n        /* \"#utility.yul\":7806:7810   */\n      dup2\n        /* \"#utility.yul\":7802:7822   */\n      sub\n        /* \"#utility.yul\":7797:7799   */\n      0x40\n        /* \"#utility.yul\":7786:7795   */\n      dup4\n        /* \"#utility.yul\":7782:7800   */\n      add\n        /* \"#utility.yul\":7775:7823   */\n      mstore\n        /* \"#utility.yul\":7840:7979   */\n      tag_169\n        /* \"#utility.yul\":7974:7978   */\n      dup2\n        /* \"#utility.yul\":7840:7979   */\n      tag_90\n      jump\t// in\n    tag_169:\n        /* \"#utility.yul\":7832:7979   */\n      swap1\n      pop\n        /* \"#utility.yul\":7315:7986   */\n      swap4\n      swap3\n      pop\n      pop\n      pop\n      jump\t// out\n        /* \"#utility.yul\":7992:8077   */\n    tag_91:\n        /* \"#utility.yul\":8037:8044   */\n      0x00\n        /* \"#utility.yul\":8066:8071   */\n      dup2\n        /* \"#utility.yul\":8055:8071   */\n      swap1\n      pop\n        /* \"#utility.yul\":7992:8077   */\n      swap2\n      swap1\n      pop\n      jump\t// out\n        /* \"#utility.yul\":8083:8143   */\n    tag_92:\n        /* \"#utility.yul\":8111:8114   */\n      0x00\n        /* \"#utility.yul\":8132:8137   */\n      dup2\n        /* \"#utility.yul\":8125:8137   */\n      swap1\n      pop\n        /* \"#utility.yul\":8083:8143   */\n      swap2\n      swap1\n      pop\n      jump\t// out\n        /* \"#utility.yul\":8149:8307   */\n    tag_93:\n        /* \"#utility.yul\":8207:8216   */\n      0x00\n        /* \"#utility.yul\":8240:8301   */\n      tag_173\n        /* \"#utility.yul\":8258:8300   */\n      tag_174\n        /* \"#utility.yul\":8267:8299   */\n      tag_175\n        /* \"#utility.yul\":8293:8298   */\n      dup5\n        /* \"#utility.yul\":8267:8299   */\n      tag_91\n      jump\t// in\n    tag_175:\n        /* \"#utility.yul\":8258:8300   */\n      tag_92\n      jump\t// in\n    tag_174:\n        /* \"#utility.yul\":8240:8301   */\n      tag_81\n      jump\t// in\n    tag_173:\n        /* \"#utility.yul\":8227:8301   */\n      swap1\n      pop\n        /* \"#utility.yul\":8149:8307   */\n      swap2\n      swap1\n      pop\n      jump\t// out\n        /* \"#utility.yul\":8313:8468   */\n    tag_94:\n        /* \"#utility.yul\":8416:8461   */\n      tag_177\n        /* \"#utility.yul\":8455:8460   */\n      dup2\n        /* \"#utility.yul\":8416:8461   */\n      tag_93\n      jump\t// in\n    tag_177:\n        /* \"#utility.yul\":8411:8414   */\n      dup3\n        /* \"#utility.yul\":8404:8462   */\n      mstore\n        /* \"#utility.yul\":8313:8468   */\n      pop\n      pop\n      jump\t// out\n        /* \"#utility.yul\":8474:8728   */\n    tag_55:\n        /* \"#utility.yul\":8583:8587   */\n      0x00\n        /* \"#utility.yul\":8621:8623   */\n      0x20\n        /* \"#utility.yul\":8610:8619   */\n      dup3\n        /* \"#utility.yul\":8606:8624   */\n      add\n        /* \"#utility.yul\":8598:8624   */\n      swap1\n      pop\n        /* \"#utility.yul\":8634:8721   */\n      tag_179\n        /* \"#utility.yul\":8718:8719   */\n      0x00\n        /* \"#utility.yul\":8707:8716   */\n      dup4\n        /* \"#utility.yul\":8703:8720   */\n      add\n        /* \"#utility.yul\":8694:8700   */\n      dup5\n        /* \"#utility.yul\":8634:8721   */\n      tag_94\n      jump\t// in\n    tag_179:\n        /* \"#utility.yul\":8474:8728   */\n      swap3\n      swap2\n      pop\n      pop\n      jump\t// out\n        /* \"#utility.yul\":8734:8860   */\n    tag_95:\n        /* \"#utility.yul\":8771:8778   */\n      0x00\n        /* \"#utility.yul\":8811:8853   */\n      0xffffffffffffffffffffffffffffffffffffffff\n        /* \"#utility.yul\":8804:8809   */\n      dup3\n        /* \"#utility.yul\":8800:8854   */\n      and\n        /* \"#utility.yul\":8789:8854   */\n      swap1\n      pop\n        /* \"#utility.yul\":8734:8860   */\n      swap2\n      swap1\n      pop\n      jump\t// out\n        /* \"#utility.yul\":8866:8962   */\n    tag_96:\n        /* \"#utility.yul\":8903:8910   */\n      0x00\n        /* \"#utility.yul\":8932:8956   */\n      tag_182\n        /* \"#utility.yul\":8950:8955   */\n      dup3\n        /* \"#utility.yul\":8932:8956   */\n      tag_95\n      jump\t// in\n    tag_182:\n        /* \"#utility.yul\":8921:8956   */\n      swap1\n      pop\n        /* \"#utility.yul\":8866:8962   */\n      swap2\n      swap1\n      pop\n      jump\t// out\n        /* \"#utility.yul\":8968:9090   */\n    tag_97:\n        /* \"#utility.yul\":9041:9065   */\n      tag_184\n        /* \"#utility.yul\":9059:9064   */\n      dup2\n        /* \"#utility.yul\":9041:9065   */\n      tag_96\n      jump\t// in\n    tag_184:\n        /* \"#utility.yul\":9034:9039   */\n      dup2\n        /* \"#utility.yul\":9031:9066   */\n      eq\n        /* \"#utility.yul\":9021:9084   */\n      tag_185\n      jumpi\n        /* \"#utility.yul\":9080:9081   */\n      0x00\n        /* \"#utility.yul\":9077:9078   */\n      dup1\n        /* \"#utility.yul\":9070:9082   */\n      revert\n        /* \"#utility.yul\":9021:9084   */\n    tag_185:\n        /* \"#utility.yul\":8968:9090   */\n      pop\n      jump\t// out\n        /* \"#utility.yul\":9096:9239   */\n    tag_98:\n        /* \"#utility.yul\":9153:9158   */\n      0x00\n        /* \"#utility.yul\":9184:9190   */\n      dup2\n        /* \"#utility.yul\":9178:9191   */\n      mload\n        /* \"#utility.yul\":9169:9191   */\n      swap1\n      pop\n        /* \"#utility.yul\":9200:9233   */\n      tag_187\n        /* \"#utility.yul\":9227:9232   */\n      dup2\n        /* \"#utility.yul\":9200:9233   */\n      tag_97\n      jump\t// in\n    tag_187:\n        /* \"#utility.yul\":9096:9239   */\n      swap3\n      swap2\n      pop\n      pop\n      jump\t// out\n        /* \"#utility.yul\":9245:9596   */\n    tag_59:\n        /* \"#utility.yul\":9315:9321   */\n      0x00\n        /* \"#utility.yul\":9364:9366   */\n      0x20\n        /* \"#utility.yul\":9352:9361   */\n      dup3\n        /* \"#utility.yul\":9343:9350   */\n      dup5\n        /* \"#utility.yul\":9339:9362   */\n      sub\n        /* \"#utility.yul\":9335:9367   */\n      slt\n        /* \"#utility.yul\":9332:9451   */\n      iszero\n      tag_189\n      jumpi\n        /* \"#utility.yul\":9370:9449   */\n      tag_190\n      tag_77\n      jump\t// in\n    tag_190:\n        /* \"#utility.yul\":9332:9451   */\n    tag_189:\n        /* \"#utility.yul\":9490:9491   */\n      0x00\n        /* \"#utility.yul\":9515:9579   */\n      tag_191\n        /* \"#utility.yul\":9571:9578   */\n      dup5\n        /* \"#utility.yul\":9562:9568   */\n      dup3\n        /* \"#utility.yul\":9551:9560   */\n      dup6\n        /* \"#utility.yul\":9547:9569   */\n      add\n        /* \"#utility.yul\":9515:9579   */\n      tag_98\n      jump\t// in\n    tag_191:\n        /* \"#utility.yul\":9505:9579   */\n      swap2\n      pop\n        /* \"#utility.yul\":9461:9589   */\n      pop\n        /* \"#utility.yul\":9245:9596   */\n      swap3\n      swap2\n      pop\n      pop\n      jump\t// out\n        /* \"#utility.yul\":9602:9728   */\n    tag_99:\n        /* \"#utility.yul\":9697:9721   */\n      tag_193\n        /* \"#utility.yul\":9715:9720   */\n      dup2\n        /* \"#utility.yul\":9697:9721   */\n      tag_96\n      jump\t// in\n    tag_193:\n        /* \"#utility.yul\":9692:9695   */\n      dup3\n        /* \"#utility.yul\":9685:9722   */\n      mstore\n        /* \"#utility.yul\":9602:9728   */\n      pop\n      pop\n      jump\t// out\n        /* \"#utility.yul\":9734:9898   */\n    tag_100:\n        /* \"#utility.yul\":9874:9890   */\n      0x496e76616c69642073656e646572000000000000000000000000000000000000\n        /* \"#utility.yul\":9870:9871   */\n      0x00\n        /* \"#utility.yul\":9862:9868   */\n      dup3\n        /* \"#utility.yul\":9858:9872   */\n      add\n        /* \"#utility.yul\":9851:9891   */\n      mstore\n        /* \"#utility.yul\":9734:9898   */\n      pop\n      jump\t// out\n        /* \"#utility.yul\":9904:10286   */\n    tag_101:\n        /* \"#utility.yul\":10054:10057   */\n      0x00\n        /* \"#utility.yul\":10075:10150   */\n      tag_196\n        /* \"#utility.yul\":10147:10149   */\n      0x0e\n        /* \"#utility.yul\":10142:10145   */\n      dup4\n        /* \"#utility.yul\":10075:10150   */\n      tag_73\n      jump\t// in\n    tag_196:\n        /* \"#utility.yul\":10068:10150   */\n      swap2\n      pop\n        /* \"#utility.yul\":10159:10252   */\n      tag_197\n        /* \"#utility.yul\":10248:10251   */\n      dup3\n        /* \"#utility.yul\":10159:10252   */\n      tag_100\n      jump\t// in\n    tag_197:\n        /* \"#utility.yul\":10277:10279   */\n      0x20\n        /* \"#utility.yul\":10272:10275   */\n      dup3\n        /* \"#utility.yul\":10268:10280   */\n      add\n        /* \"#utility.yul\":10261:10280   */\n      swap1\n      pop\n        /* \"#utility.yul\":9904:10286   */\n      swap2\n      swap1\n      pop\n      jump\t// out\n        /* \"#utility.yul\":10292:10963   */\n    tag_61:\n        /* \"#utility.yul\":10522:10526   */\n      0x00\n        /* \"#utility.yul\":10560:10562   */\n      0x60\n        /* \"#utility.yul\":10549:10558   */\n      dup3\n        /* \"#utility.yul\":10545:10563   */\n      add\n        /* \"#utility.yul\":10537:10563   */\n      swap1\n      pop\n        /* \"#utility.yul\":10573:10652   */\n      tag_199\n        /* \"#utility.yul\":10649:10650   */\n      0x00\n        /* \"#utility.yul\":10638:10647   */\n      dup4\n        /* \"#utility.yul\":10634:10651   */\n      add\n        /* \"#utility.yul\":10625:10631   */\n      dup6\n        /* \"#utility.yul\":10573:10652   */\n      tag_99\n      jump\t// in\n    tag_199:\n        /* \"#utility.yul\":10662:10742   */\n      tag_200\n        /* \"#utility.yul\":10738:10740   */\n      0x20\n        /* \"#utility.yul\":10727:10736   */\n      dup4\n        /* \"#utility.yul\":10723:10741   */\n      add\n        /* \"#utility.yul\":10714:10720   */\n      dup5\n        /* \"#utility.yul\":10662:10742   */\n      tag_99\n      jump\t// in\n    tag_200:\n        /* \"#utility.yul\":10789:10798   */\n      dup2\n        /* \"#utility.yul\":10783:10787   */\n      dup2\n        /* \"#utility.yul\":10779:10799   */\n      sub\n        /* \"#utility.yul\":10774:10776   */\n      0x40\n        /* \"#utility.yul\":10763:10772   */\n      dup4\n        /* \"#utility.yul\":10759:10777   */\n      add\n        /* \"#utility.yul\":10752:10800   */\n      mstore\n        /* \"#utility.yul\":10817:10956   */\n      tag_201\n        /* \"#utility.yul\":10951:10955   */\n      dup2\n        /* \"#utility.yul\":10817:10956   */\n      tag_101\n      jump\t// in\n    tag_201:\n        /* \"#utility.yul\":10809:10956   */\n      swap1\n      pop\n        /* \"#utility.yul\":10292:10963   */\n      swap4\n      swap3\n      pop\n      pop\n      pop\n      jump\t// out\n        /* \"#utility.yul\":10969:11056   */\n    tag_102:\n        /* \"#utility.yul\":11016:11023   */\n      0x00\n        /* \"#utility.yul\":11045:11050   */\n      dup2\n        /* \"#utility.yul\":11034:11050   */\n      swap1\n      pop\n        /* \"#utility.yul\":10969:11056   */\n      swap2\n      swap1\n      pop\n      jump\t// out\n        /* \"#utility.yul\":11062:11224   */\n    tag_103:\n        /* \"#utility.yul\":11122:11131   */\n      0x00\n        /* \"#utility.yul\":11155:11218   */\n      tag_204\n        /* \"#utility.yul\":11173:11217   */\n      tag_205\n        /* \"#utility.yul\":11182:11216   */\n      tag_206\n        /* \"#utility.yul\":11210:11215   */\n      dup5\n        /* \"#utility.yul\":11182:11216   */\n      tag_102\n      jump\t// in\n    tag_206:\n        /* \"#utility.yul\":11173:11217   */\n      tag_92\n      jump\t// in\n    tag_205:\n        /* \"#utility.yul\":11155:11218   */\n      tag_81\n      jump\t// in\n    tag_204:\n        /* \"#utility.yul\":11142:11218   */\n      swap1\n      pop\n        /* \"#utility.yul\":11062:11224   */\n      swap2\n      swap1\n      pop\n      jump\t// out\n        /* \"#utility.yul\":11230:11389   */\n    tag_104:\n        /* \"#utility.yul\":11335:11382   */\n      tag_208\n        /* \"#utility.yul\":11376:11381   */\n      dup2\n        /* \"#utility.yul\":11335:11382   */\n      tag_103\n      jump\t// in\n    tag_208:\n        /* \"#utility.yul\":11330:11333   */\n      dup3\n        /* \"#utility.yul\":11323:11383   */\n      mstore\n        /* \"#utility.yul\":11230:11389   */\n      pop\n      pop\n      jump\t// out\n        /* \"#utility.yul\":11395:11558   */\n    tag_105:\n        /* \"#utility.yul\":11535:11550   */\n      0x496e76616c69642076616c756500000000000000000000000000000000000000\n        /* \"#utility.yul\":11531:11532   */\n      0x00\n        /* \"#utility.yul\":11523:11529   */\n      dup3\n        /* \"#utility.yul\":11519:11533   */\n      add\n        /* \"#utility.yul\":11512:11551   */\n      mstore\n        /* \"#utility.yul\":11395:11558   */\n      pop\n      jump\t// out\n        /* \"#utility.yul\":11564:11946   */\n    tag_106:\n        /* \"#utility.yul\":11714:11717   */\n      0x00\n        /* \"#utility.yul\":11735:11810   */\n      tag_211\n        /* \"#utility.yul\":11807:11809   */\n      0x0d\n        /* \"#utility.yul\":11802:11805   */\n      dup4\n        /* \"#utility.yul\":11735:11810   */\n      tag_73\n      jump\t// in\n    tag_211:\n        /* \"#utility.yul\":11728:11810   */\n      swap2\n      pop\n        /* \"#utility.yul\":11819:11912   */\n      tag_212\n        /* \"#utility.yul\":11908:11911   */\n      dup3\n        /* \"#utility.yul\":11819:11912   */\n      tag_105\n      jump\t// in\n    tag_212:\n        /* \"#utility.yul\":11937:11939   */\n      0x20\n        /* \"#utility.yul\":11932:11935   */\n      dup3\n        /* \"#utility.yul\":11928:11940   */\n      add\n        /* \"#utility.yul\":11921:11940   */\n      swap1\n      pop\n        /* \"#utility.yul\":11564:11946   */\n      swap2\n      swap1\n      pop\n      jump\t// out\n        /* \"#utility.yul\":11952:12643   */\n    tag_66:\n        /* \"#utility.yul\":12192:12196   */\n      0x00\n        /* \"#utility.yul\":12230:12232   */\n      0x60\n        /* \"#utility.yul\":12219:12228   */\n      dup3\n        /* \"#utility.yul\":12215:12233   */\n      add\n        /* \"#utility.yul\":12207:12233   */\n      swap1\n      pop\n        /* \"#utility.yul\":12243:12322   */\n      tag_214\n        /* \"#utility.yul\":12319:12320   */\n      0x00\n        /* \"#utility.yul\":12308:12317   */\n      dup4\n        /* \"#utility.yul\":12304:12321   */\n      add\n        /* \"#utility.yul\":12295:12301   */\n      dup6\n        /* \"#utility.yul\":12243:12322   */\n      tag_82\n      jump\t// in\n    tag_214:\n        /* \"#utility.yul\":12332:12422   */\n      tag_215\n        /* \"#utility.yul\":12418:12420   */\n      0x20\n        /* \"#utility.yul\":12407:12416   */\n      dup4\n        /* \"#utility.yul\":12403:12421   */\n      add\n        /* \"#utility.yul\":12394:12400   */\n      dup5\n        /* \"#utility.yul\":12332:12422   */\n      tag_104\n      jump\t// in\n    tag_215:\n        /* \"#utility.yul\":12469:12478   */\n      dup2\n        /* \"#utility.yul\":12463:12467   */\n      dup2\n        /* \"#utility.yul\":12459:12479   */\n      sub\n        /* \"#utility.yul\":12454:12456   */\n      0x40\n        /* \"#utility.yul\":12443:12452   */\n      dup4\n        /* \"#utility.yul\":12439:12457   */\n      add\n        /* \"#utility.yul\":12432:12480   */\n      mstore\n        /* \"#utility.yul\":12497:12636   */\n      tag_216\n        /* \"#utility.yul\":12631:12635   */\n      dup2\n        /* \"#utility.yul\":12497:12636   */\n      tag_106\n      jump\t// in\n    tag_216:\n        /* \"#utility.yul\":12489:12636   */\n      swap1\n      pop\n        /* \"#utility.yul\":11952:12643   */\n      swap4\n      swap3\n      pop\n      pop\n      pop\n      jump\t// out\n\n    auxdata: 0xa264697066735822122006079e6a4aeee04f1ed869a303b1766021e7e2a28a2efb96e1f60c69cb65701d64736f6c634300080d0033\n}\n",
				"bytecode": {
					"linkReferences": {
						"remix_accounts.sol": {
							"TestsAccounts": [
								{
									"length": 20,
									"start": 899
								}
							]
						},
						"remix_tests.sol": {
							"Assert": [
								{
									"length": 20,
									"start": 235
								},
								{
									"length": 20,
									"start": 359
								},
								{
									"length": 20,
									"start": 484
								},
								{
									"length": 20,
									"start": 620
								},
								{
									"length": 20,
									"start": 746
								},
								{
									"length": 20,
									"start": 872
								},
								{
									"length": 20,
									"start": 1115
								}
							]
						}
					},
					"object": "608060405234801561001057600080fd5b50610a99806100206000396000f3fe60806040526004361061004a5760003560e01c8063011e64921461004f57806312d487ea1461006657806336c00656146100915780637fea0d4b146100a85780639074416d146100bf575b600080fd5b34801561005b57600080fd5b506100646100c9565b005b34801561007257600080fd5b5061007b610241565b60405161008891906104d2565b60405180910390f35b34801561009d57600080fd5b506100a661024a565b005b3480156100b457600080fd5b506100bd6102c8565b005b6100c7610346565b005b73__$acbfb1c35000d78352310b16a054a6b106$__6339df137f600280146040518263ffffffff1660e01b81526004016101039190610559565b602060405180830381865af4158015610120573d6000803e3d6000fd5b505050506040513d601f19601f8201168201806040525081019061014491906105b8565b5073__$acbfb1c35000d78352310b16a054a6b106$__63a079f1a3600260016040518363ffffffff1660e01b815260040161018092919061064a565b602060405180830381865af415801561019d573d6000803e3d6000fd5b505050506040513d601f19601f820116820180604052508101906101c191906105b8565b5073__$acbfb1c35000d78352310b16a054a6b106$__63aea88952600260036040518363ffffffff1660e01b81526004016101fd9291906106d2565b602060405180830381865af415801561021a573d6000803e3d6000fd5b505050506040513d601f19601f8201168201806040525081019061023e91906105b8565b50565b60006001905090565b73__$acbfb1c35000d78352310b16a054a6b106$__63561015e26001806040518363ffffffff1660e01b815260040161028492919061075a565b602060405180830381865af41580156102a1573d6000803e3d6000fd5b505050506040513d601f19601f820116820180604052508101906102c591906105b8565b50565b73__$acbfb1c35000d78352310b16a054a6b106$__63abcd79606001806040518363ffffffff1660e01b81526004016103029291906107e2565b602060405180830381865af415801561031f573d6000803e3d6000fd5b505050506040513d601f19601f8201168201806040525081019061034391906105b8565b50565b73__$acbfb1c35000d78352310b16a054a6b106$__63bfba5dd63373__$1068a87eb54ed04c4e435de35b2ebf536f$__63ce88b14560016040518263ffffffff1660e01b81526004016103999190610863565b602060405180830381865af41580156103b6573d6000803e3d6000fd5b505050506040513d601f19601f820116820180604052508101906103da91906108dc565b6040518363ffffffff1660e01b81526004016103f7929190610964565b602060405180830381865af4158015610414573d6000803e3d6000fd5b505050506040513d601f19601f8201168201806040525081019061043891906105b8565b5073__$acbfb1c35000d78352310b16a054a6b106$__63abcd79603460646040518363ffffffff1660e01b8152600401610473929190610a27565b602060405180830381865af4158015610490573d6000803e3d6000fd5b505050506040513d601f19601f820116820180604052508101906104b491906105b8565b50565b60008115159050919050565b6104cc816104b7565b82525050565b60006020820190506104e760008301846104c3565b92915050565b6104f6816104b7565b82525050565b600082825260208201905092915050565b7f73686f756c642062652074727565000000000000000000000000000000000000600082015250565b6000610543600e836104fc565b915061054e8261050d565b602082019050919050565b600060408201905061056e60008301846104ed565b818103602083015261057f81610536565b905092915050565b600080fd5b610595816104b7565b81146105a057600080fd5b50565b6000815190506105b28161058c565b92915050565b6000602082840312156105ce576105cd610587565b5b60006105dc848285016105a3565b91505092915050565b6000819050919050565b6105f8816105e5565b82525050565b7f322073686f756c642062652067726561746572207468616e20746f2031000000600082015250565b6000610634601d836104fc565b915061063f826105fe565b602082019050919050565b600060608201905061065f60008301856105ef565b61066c60208301846105ef565b818103604083015261067d81610627565b90509392505050565b7f322073686f756c64206265206c6573736572207468616e20746f203300000000600082015250565b60006106bc601c836104fc565b91506106c782610686565b602082019050919050565b60006060820190506106e760008301856105ef565b6106f460208301846105ef565b8181036040830152610705816106af565b90509392505050565b7f312073686f756c64206e6f7420626520657175616c20746f2031000000000000600082015250565b6000610744601a836104fc565b915061074f8261070e565b602082019050919050565b600060608201905061076f60008301856105ef565b61077c60208301846105ef565b818103604083015261078d81610737565b90509392505050565b7f312073686f756c6420626520657175616c20746f203100000000000000000000600082015250565b60006107cc6016836104fc565b91506107d782610796565b602082019050919050565b60006060820190506107f760008301856105ef565b61080460208301846105ef565b8181036040830152610815816107bf565b90509392505050565b6000819050919050565b6000819050919050565b600061084d6108486108438461081e565b610828565b6105e5565b9050919050565b61085d81610832565b82525050565b60006020820190506108786000830184610854565b92915050565b600073ffffffffffffffffffffffffffffffffffffffff82169050919050565b60006108a98261087e565b9050919050565b6108b98161089e565b81146108c457600080fd5b50565b6000815190506108d6816108b0565b92915050565b6000602082840312156108f2576108f1610587565b5b6000610900848285016108c7565b91505092915050565b6109128161089e565b82525050565b7f496e76616c69642073656e646572000000000000000000000000000000000000600082015250565b600061094e600e836104fc565b915061095982610918565b602082019050919050565b60006060820190506109796000830185610909565b6109866020830184610909565b818103604083015261099781610941565b90509392505050565b6000819050919050565b60006109c56109c06109bb846109a0565b610828565b6105e5565b9050919050565b6109d5816109aa565b82525050565b7f496e76616c69642076616c756500000000000000000000000000000000000000600082015250565b6000610a11600d836104fc565b9150610a1c826109db565b602082019050919050565b6000606082019050610a3c60008301856105ef565b610a4960208301846109cc565b8181036040830152610a5a81610a04565b9050939250505056fea264697066735822122006079e6a4aeee04f1ed869a303b1766021e7e2a28a2efb96e1f60c69cb65701d64736f6c634300080d0033",
					"opcodes": "PUSH1 0x80 PUSH1 0x40 MSTORE CALLVALUE DUP1 ISZERO PUSH2 0x10 JUMPI PUSH1 0x0 DUP1 REVERT JUMPDEST POP PUSH2 0xA99 DUP1 PUSH2 0x20 PUSH1 0x0 CODECOPY PUSH1 0x0 RETURN INVALID PUSH1 0x80 PUSH1 0x40 MSTORE PUSH1 0x4 CALLDATASIZE LT PUSH2 0x4A JUMPI PUSH1 0x0 CALLDATALOAD PUSH1 0xE0 SHR DUP1 PUSH4 0x11E6492 EQ PUSH2 0x4F JUMPI DUP1 PUSH4 0x12D487EA EQ PUSH2 0x66 JUMPI DUP1 PUSH4 0x36C00656 EQ PUSH2 0x91 JUMPI DUP1 PUSH4 0x7FEA0D4B EQ PUSH2 0xA8 JUMPI DUP1 PUSH4 0x9074416D EQ PUSH2 0xBF JUMPI JUMPDEST PUSH1 0x0 DUP1 REVERT JUMPDEST CALLVALUE DUP1 ISZERO PUSH2 0x5B JUMPI PUSH1 0x0 DUP1 REVERT JUMPDEST POP PUSH2 0x64 PUSH2 0xC9 JUMP JUMPDEST STOP JUMPDEST CALLVALUE DUP1 ISZERO PUSH2 0x72 JUMPI PUSH1 0x0 DUP1 REVERT JUMPDEST POP PUSH2 0x7B PUSH2 0x241 JUMP JUMPDEST PUSH1 0x40 MLOAD PUSH2 0x88 SWAP2 SWAP1 PUSH2 0x4D2 JUMP JUMPDEST PUSH1 0x40 MLOAD DUP1 SWAP2 SUB SWAP1 RETURN JUMPDEST CALLVALUE DUP1 ISZERO PUSH2 0x9D JUMPI PUSH1 0x0 DUP1 REVERT JUMPDEST POP PUSH2 0xA6 PUSH2 0x24A JUMP JUMPDEST STOP JUMPDEST CALLVALUE DUP1 ISZERO PUSH2 0xB4 JUMPI PUSH1 0x0 DUP1 REVERT JUMPDEST POP PUSH2 0xBD PUSH2 0x2C8 JUMP JUMPDEST STOP JUMPDEST PUSH2 0xC7 PUSH2 0x346 JUMP JUMPDEST STOP JUMPDEST PUSH20 0x0 PUSH4 0x39DF137F PUSH1 0x2 DUP1 EQ PUSH1 0x40 MLOAD DUP3 PUSH4 0xFFFFFFFF AND PUSH1 0xE0 SHL DUP2 MSTORE PUSH1 0x4 ADD PUSH2 0x103 SWAP2 SWAP1 PUSH2 0x559 JUMP JUMPDEST PUSH1 0x20 PUSH1 0x40 MLOAD DUP1 DUP4 SUB DUP2 DUP7 GAS DELEGATECALL ISZERO DUP1 ISZERO PUSH2 0x120 JUMPI RETURNDATASIZE PUSH1 0x0 DUP1 RETURNDATACOPY RETURNDATASIZE PUSH1 0x0 REVERT JUMPDEST POP POP POP POP PUSH1 0x40 MLOAD RETURNDATASIZE PUSH1 0x1F NOT PUSH1 0x1F DUP3 ADD AND DUP3 ADD DUP1 PUSH1 0x40 MSTORE POP DUP2 ADD SWAP1 PUSH2 0x144 SWAP2 SWAP1 PUSH2 0x5B8 JUMP JUMPDEST POP PUSH20 0x0 PUSH4 0xA079F1A3 PUSH1 0x2 PUSH1 0x1 PUSH1 0x40 MLOAD DUP4 PUSH4 0xFFFFFFFF AND PUSH1 0xE0 SHL DUP2 MSTORE PUSH1 0x4 ADD PUSH2 0x180 SWAP3 SWAP2 SWAP1 PUSH2 0x64A JUMP JUMPDEST PUSH1 0x20 PUSH1 0x40 MLOAD DUP1 DUP4 SUB DUP2 DUP7 GAS DELEGATECALL ISZERO DUP1 ISZERO PUSH2 0x19D JUMPI RETURNDATASIZE PUSH1 0x0 DUP1 RETURNDATACOPY RETURNDATASIZE PUSH1 0x0 REVERT JUMPDEST POP POP POP POP PUSH1 0x40 MLOAD RETURNDATASIZE PUSH1 0x1F NOT PUSH1 0x1F DUP3 ADD AND DUP3 ADD DUP1 PUSH1 0x40 MSTORE POP DUP2 ADD SWAP1 PUSH2 0x1C1 SWAP2 SWAP1 PUSH2 0x5B8 JUMP JUMPDEST POP PUSH20 0x0 PUSH4 0xAEA88952 PUSH1 0x2 PUSH1 0x3 PUSH1 0x40 MLOAD DUP4 PUSH4 0xFFFFFFFF AND PUSH1 0xE0 SHL DUP2 MSTORE PUSH1 0x4 ADD PUSH2 0x1FD SWAP3 SWAP2 SWAP1 PUSH2 0x6D2 JUMP JUMPDEST PUSH1 0x20 PUSH1 0x40 MLOAD DUP1 DUP4 SUB DUP2 DUP7 GAS DELEGATECALL ISZERO DUP1 ISZERO PUSH2 0x21A JUMPI RETURNDATASIZE PUSH1 0x0 DUP1 RETURNDATACOPY RETURNDATASIZE PUSH1 0x0 REVERT JUMPDEST POP POP POP POP PUSH1 0x40 MLOAD RETURNDATASIZE PUSH1 0x1F NOT PUSH1 0x1F DUP3 ADD AND DUP3 ADD DUP1 PUSH1 0x40 MSTORE POP DUP2 ADD SWAP1 PUSH2 0x23E SWAP2 SWAP1 PUSH2 0x5B8 JUMP JUMPDEST POP JUMP JUMPDEST PUSH1 0x0 PUSH1 0x1 SWAP1 POP SWAP1 JUMP JUMPDEST PUSH20 0x0 PUSH4 0x561015E2 PUSH1 0x1 DUP1 PUSH1 0x40 MLOAD DUP4 PUSH4 0xFFFFFFFF AND PUSH1 0xE0 SHL DUP2 MSTORE PUSH1 0x4 ADD PUSH2 0x284 SWAP3 SWAP2 SWAP1 PUSH2 0x75A JUMP JUMPDEST PUSH1 0x20 PUSH1 0x40 MLOAD DUP1 DUP4 SUB DUP2 DUP7 GAS DELEGATECALL ISZERO DUP1 ISZERO PUSH2 0x2A1 JUMPI RETURNDATASIZE PUSH1 0x0 DUP1 RETURNDATACOPY RETURNDATASIZE PUSH1 0x0 REVERT JUMPDEST POP POP POP POP PUSH1 0x40 MLOAD RETURNDATASIZE PUSH1 0x1F NOT PUSH1 0x1F DUP3 ADD AND DUP3 ADD DUP1 PUSH1 0x40 MSTORE POP DUP2 ADD SWAP1 PUSH2 0x2C5 SWAP2 SWAP1 PUSH2 0x5B8 JUMP JUMPDEST POP JUMP JUMPDEST PUSH20 0x0 PUSH4 0xABCD7960 PUSH1 0x1 DUP1 PUSH1 0x40 MLOAD DUP4 PUSH4 0xFFFFFFFF AND PUSH1 0xE0 SHL DUP2 MSTORE PUSH1 0x4 ADD PUSH2 0x302 SWAP3 SWAP2 SWAP1 PUSH2 0x7E2 JUMP JUMPDEST PUSH1 0x20 PUSH1 0x40 MLOAD DUP1 DUP4 SUB DUP2 DUP7 GAS DELEGATECALL ISZERO DUP1 ISZERO PUSH2 0x31F JUMPI RETURNDATASIZE PUSH1 0x0 DUP1 RETURNDATACOPY RETURNDATASIZE PUSH1 0x0 REVERT JUMPDEST POP POP POP POP PUSH1 0x40 MLOAD RETURNDATASIZE PUSH1 0x1F NOT PUSH1 0x1F DUP3 ADD AND DUP3 ADD DUP1 PUSH1 0x40 MSTORE POP DUP2 ADD SWAP1 PUSH2 0x343 SWAP2 SWAP1 PUSH2 0x5B8 JUMP JUMPDEST POP JUMP JUMPDEST PUSH20 0x0 PUSH4 0xBFBA5DD6 CALLER PUSH20 0x0 PUSH4 0xCE88B145 PUSH1 0x1 PUSH1 0x40 MLOAD DUP3 PUSH4 0xFFFFFFFF AND PUSH1 0xE0 SHL DUP2 MSTORE PUSH1 0x4 ADD PUSH2 0x399 SWAP2 SWAP1 PUSH2 0x863 JUMP JUMPDEST PUSH1 0x20 PUSH1 0x40 MLOAD DUP1 DUP4 SUB DUP2 DUP7 GAS DELEGATECALL ISZERO DUP1 ISZERO PUSH2 0x3B6 JUMPI RETURNDATASIZE PUSH1 0x0 DUP1 RETURNDATACOPY RETURNDATASIZE PUSH1 0x0 REVERT JUMPDEST POP POP POP POP PUSH1 0x40 MLOAD RETURNDATASIZE PUSH1 0x1F NOT PUSH1 0x1F DUP3 ADD AND DUP3 ADD DUP1 PUSH1 0x40 MSTORE POP DUP2 ADD SWAP1 PUSH2 0x3DA SWAP2 SWAP1 PUSH2 0x8DC JUMP JUMPDEST PUSH1 0x40 MLOAD DUP4 PUSH4 0xFFFFFFFF AND PUSH1 0xE0 SHL DUP2 MSTORE PUSH1 0x4 ADD PUSH2 0x3F7 SWAP3 SWAP2 SWAP1 PUSH2 0x964 JUMP JUMPDEST PUSH1 0x20 PUSH1 0x40 MLOAD DUP1 DUP4 SUB DUP2 DUP7 GAS DELEGATECALL ISZERO DUP1 ISZERO PUSH2 0x414 JUMPI RETURNDATASIZE PUSH1 0x0 DUP1 RETURNDATACOPY RETURNDATASIZE PUSH1 0x0 REVERT JUMPDEST POP POP POP POP PUSH1 0x40 MLOAD RETURNDATASIZE PUSH1 0x1F NOT PUSH1 0x1F DUP3 ADD AND DUP3 ADD DUP1 PUSH1 0x40 MSTORE POP DUP2 ADD SWAP1 PUSH2 0x438 SWAP2 SWAP1 PUSH2 0x5B8 JUMP JUMPDEST POP PUSH20 0x0 PUSH4 0xABCD7960 CALLVALUE PUSH1 0x64 PUSH1 0x40 MLOAD DUP4 PUSH4 0xFFFFFFFF AND PUSH1 0xE0 SHL DUP2 MSTORE PUSH1 0x4 ADD PUSH2 0x473 SWAP3 SWAP2 SWAP1 PUSH2 0xA27 JUMP JUMPDEST PUSH1 0x20 PUSH1 0x40 MLOAD DUP1 DUP4 SUB DUP2 DUP7 GAS DELEGATECALL ISZERO DUP1 ISZERO PUSH2 0x490 JUMPI RETURNDATASIZE PUSH1 0x0 DUP1 RETURNDATACOPY RETURNDATASIZE PUSH1 0x0 REVERT JUMPDEST POP POP POP POP PUSH1 0x40 MLOAD RETURNDATASIZE PUSH1 0x1F NOT PUSH1 0x1F DUP3 ADD AND DUP3 ADD DUP1 PUSH1 0x40 MSTORE POP DUP2 ADD SWAP1 PUSH2 0x4B4 SWAP2 SWAP1 PUSH2 0x5B8 JUMP JUMPDEST POP JUMP JUMPDEST PUSH1 0x0 DUP2 ISZERO ISZERO SWAP1 POP SWAP2 SWAP1 POP JUMP JUMPDEST PUSH2 0x4CC DUP2 PUSH2 0x4B7 JUMP JUMPDEST DUP3 MSTORE POP POP JUMP JUMPDEST PUSH1 0x0 PUSH1 0x20 DUP3 ADD SWAP1 POP PUSH2 0x4E7 PUSH1 0x0 DUP4 ADD DUP5 PUSH2 0x4C3 JUMP JUMPDEST SWAP3 SWAP2 POP POP JUMP JUMPDEST PUSH2 0x4F6 DUP2 PUSH2 0x4B7 JUMP JUMPDEST DUP3 MSTORE POP POP JUMP JUMPDEST PUSH1 0x0 DUP3 DUP3 MSTORE PUSH1 0x20 DUP3 ADD SWAP1 POP SWAP3 SWAP2 POP POP JUMP JUMPDEST PUSH32 0x73686F756C642062652074727565000000000000000000000000000000000000 PUSH1 0x0 DUP3 ADD MSTORE POP JUMP JUMPDEST PUSH1 0x0 PUSH2 0x543 PUSH1 0xE DUP4 PUSH2 0x4FC JUMP JUMPDEST SWAP2 POP PUSH2 0x54E DUP3 PUSH2 0x50D JUMP JUMPDEST PUSH1 0x20 DUP3 ADD SWAP1 POP SWAP2 SWAP1 POP JUMP JUMPDEST PUSH1 0x0 PUSH1 0x40 DUP3 ADD SWAP1 POP PUSH2 0x56E PUSH1 0x0 DUP4 ADD DUP5 PUSH2 0x4ED JUMP JUMPDEST DUP2 DUP2 SUB PUSH1 0x20 DUP4 ADD MSTORE PUSH2 0x57F DUP2 PUSH2 0x536 JUMP JUMPDEST SWAP1 POP SWAP3 SWAP2 POP POP JUMP JUMPDEST PUSH1 0x0 DUP1 REVERT JUMPDEST PUSH2 0x595 DUP2 PUSH2 0x4B7 JUMP JUMPDEST DUP2 EQ PUSH2 0x5A0 JUMPI PUSH1 0x0 DUP1 REVERT JUMPDEST POP JUMP JUMPDEST PUSH1 0x0 DUP2 MLOAD SWAP1 POP PUSH2 0x5B2 DUP2 PUSH2 0x58C JUMP JUMPDEST SWAP3 SWAP2 POP POP JUMP JUMPDEST PUSH1 0x0 PUSH1 0x20 DUP3 DUP5 SUB SLT ISZERO PUSH2 0x5CE JUMPI PUSH2 0x5CD PUSH2 0x587 JUMP JUMPDEST JUMPDEST PUSH1 0x0 PUSH2 0x5DC DUP5 DUP3 DUP6 ADD PUSH2 0x5A3 JUMP JUMPDEST SWAP2 POP POP SWAP3 SWAP2 POP POP JUMP JUMPDEST PUSH1 0x0 DUP2 SWAP1 POP SWAP2 SWAP1 POP JUMP JUMPDEST PUSH2 0x5F8 DUP2 PUSH2 0x5E5 JUMP JUMPDEST DUP3 MSTORE POP POP JUMP JUMPDEST PUSH32 0x322073686F756C642062652067726561746572207468616E20746F2031000000 PUSH1 0x0 DUP3 ADD MSTORE POP JUMP JUMPDEST PUSH1 0x0 PUSH2 0x634 PUSH1 0x1D DUP4 PUSH2 0x4FC JUMP JUMPDEST SWAP2 POP PUSH2 0x63F DUP3 PUSH2 0x5FE JUMP JUMPDEST PUSH1 0x20 DUP3 ADD SWAP1 POP SWAP2 SWAP1 POP JUMP JUMPDEST PUSH1 0x0 PUSH1 0x60 DUP3 ADD SWAP1 POP PUSH2 0x65F PUSH1 0x0 DUP4 ADD DUP6 PUSH2 0x5EF JUMP JUMPDEST PUSH2 0x66C PUSH1 0x20 DUP4 ADD DUP5 PUSH2 0x5EF JUMP JUMPDEST DUP2 DUP2 SUB PUSH1 0x40 DUP4 ADD MSTORE PUSH2 0x67D DUP2 PUSH2 0x627 JUMP JUMPDEST SWAP1 POP SWAP4 SWAP3 POP POP POP JUMP JUMPDEST PUSH32 0x322073686F756C64206265206C6573736572207468616E20746F203300000000 PUSH1 0x0 DUP3 ADD MSTORE POP JUMP JUMPDEST PUSH1 0x0 PUSH2 0x6BC PUSH1 0x1C DUP4 PUSH2 0x4FC JUMP JUMPDEST SWAP2 POP PUSH2 0x6C7 DUP3 PUSH2 0x686 JUMP JUMPDEST PUSH1 0x20 DUP3 ADD SWAP1 POP SWAP2 SWAP1 POP JUMP JUMPDEST PUSH1 0x0 PUSH1 0x60 DUP3 ADD SWAP1 POP PUSH2 0x6E7 PUSH1 0x0 DUP4 ADD DUP6 PUSH2 0x5EF JUMP JUMPDEST PUSH2 0x6F4 PUSH1 0x20 DUP4 ADD DUP5 PUSH2 0x5EF JUMP JUMPDEST DUP2 DUP2 SUB PUSH1 0x40 DUP4 ADD MSTORE PUSH2 0x705 DUP2 PUSH2 0x6AF JUMP JUMPDEST SWAP1 POP SWAP4 SWAP3 POP POP POP JUMP JUMPDEST PUSH32 0x312073686F756C64206E6F7420626520657175616C20746F2031000000000000 PUSH1 0x0 DUP3 ADD MSTORE POP JUMP JUMPDEST PUSH1 0x0 PUSH2 0x744 PUSH1 0x1A DUP4 PUSH2 0x4FC JUMP JUMPDEST SWAP2 POP PUSH2 0x74F DUP3 PUSH2 0x70E JUMP JUMPDEST PUSH1 0x20 DUP3 ADD SWAP1 POP SWAP2 SWAP1 POP JUMP JUMPDEST PUSH1 0x0 PUSH1 0x60 DUP3 ADD SWAP1 POP PUSH2 0x76F PUSH1 0x0 DUP4 ADD DUP6 PUSH2 0x5EF JUMP JUMPDEST PUSH2 0x77C PUSH1 0x20 DUP4 ADD DUP5 PUSH2 0x5EF JUMP JUMPDEST DUP2 DUP2 SUB PUSH1 0x40 DUP4 ADD MSTORE PUSH2 0x78D DUP2 PUSH2 0x737 JUMP JUMPDEST SWAP1 POP SWAP4 SWAP3 POP POP POP JUMP JUMPDEST PUSH32 0x312073686F756C6420626520657175616C20746F203100000000000000000000 PUSH1 0x0 DUP3 ADD MSTORE POP JUMP JUMPDEST PUSH1 0x0 PUSH2 0x7CC PUSH1 0x16 DUP4 PUSH2 0x4FC JUMP JUMPDEST SWAP2 POP PUSH2 0x7D7 DUP3 PUSH2 0x796 JUMP JUMPDEST PUSH1 0x20 DUP3 ADD SWAP1 POP SWAP2 SWAP1 POP JUMP JUMPDEST PUSH1 0x0 PUSH1 0x60 DUP3 ADD SWAP1 POP PUSH2 0x7F7 PUSH1 0x0 DUP4 ADD DUP6 PUSH2 0x5EF JUMP JUMPDEST PUSH2 0x804 PUSH1 0x20 DUP4 ADD DUP5 PUSH2 0x5EF JUMP JUMPDEST DUP2 DUP2 SUB PUSH1 0x40 DUP4 ADD MSTORE PUSH2 0x815 DUP2 PUSH2 0x7BF JUMP JUMPDEST SWAP1 POP SWAP4 SWAP3 POP POP POP JUMP JUMPDEST PUSH1 0x0 DUP2 SWAP1 POP SWAP2 SWAP1 POP JUMP JUMPDEST PUSH1 0x0 DUP2 SWAP1 POP SWAP2 SWAP1 POP JUMP JUMPDEST PUSH1 0x0 PUSH2 0x84D PUSH2 0x848 PUSH2 0x843 DUP5 PUSH2 0x81E JUMP JUMPDEST PUSH2 0x828 JUMP JUMPDEST PUSH2 0x5E5 JUMP JUMPDEST SWAP1 POP SWAP2 SWAP1 POP JUMP JUMPDEST PUSH2 0x85D DUP2 PUSH2 0x832 JUMP JUMPDEST DUP3 MSTORE POP POP JUMP JUMPDEST PUSH1 0x0 PUSH1 0x20 DUP3 ADD SWAP1 POP PUSH2 0x878 PUSH1 0x0 DUP4 ADD DUP5 PUSH2 0x854 JUMP JUMPDEST SWAP3 SWAP2 POP POP JUMP JUMPDEST PUSH1 0x0 PUSH20 0xFFFFFFFFFFFFFFFFFFFFFFFFFFFFFFFFFFFFFFFF DUP3 AND SWAP1 POP SWAP2 SWAP1 POP JUMP JUMPDEST PUSH1 0x0 PUSH2 0x8A9 DUP3 PUSH2 0x87E JUMP JUMPDEST SWAP1 POP SWAP2 SWAP1 POP JUMP JUMPDEST PUSH2 0x8B9 DUP2 PUSH2 0x89E JUMP JUMPDEST DUP2 EQ PUSH2 0x8C4 JUMPI PUSH1 0x0 DUP1 REVERT JUMPDEST POP JUMP JUMPDEST PUSH1 0x0 DUP2 MLOAD SWAP1 POP PUSH2 0x8D6 DUP2 PUSH2 0x8B0 JUMP JUMPDEST SWAP3 SWAP2 POP POP JUMP JUMPDEST PUSH1 0x0 PUSH1 0x20 DUP3 DUP5 SUB SLT ISZERO PUSH2 0x8F2 JUMPI PUSH2 0x8F1 PUSH2 0x587 JUMP JUMPDEST JUMPDEST PUSH1 0x0 PUSH2 0x900 DUP5 DUP3 DUP6 ADD PUSH2 0x8C7 JUMP JUMPDEST SWAP2 POP POP SWAP3 SWAP2 POP POP JUMP JUMPDEST PUSH2 0x912 DUP2 PUSH2 0x89E JUMP JUMPDEST DUP3 MSTORE POP POP JUMP JUMPDEST PUSH32 0x496E76616C69642073656E646572000000000000000000000000000000000000 PUSH1 0x0 DUP3 ADD MSTORE POP JUMP JUMPDEST PUSH1 0x0 PUSH2 0x94E PUSH1 0xE DUP4 PUSH2 0x4FC JUMP JUMPDEST SWAP2 POP PUSH2 0x959 DUP3 PUSH2 0x918 JUMP JUMPDEST PUSH1 0x20 DUP3 ADD SWAP1 POP SWAP2 SWAP1 POP JUMP JUMPDEST PUSH1 0x0 PUSH1 0x60 DUP3 ADD SWAP1 POP PUSH2 0x979 PUSH1 0x0 DUP4 ADD DUP6 PUSH2 0x909 JUMP JUMPDEST PUSH2 0x986 PUSH1 0x20 DUP4 ADD DUP5 PUSH2 0x909 JUMP JUMPDEST DUP2 DUP2 SUB PUSH1 0x40 DUP4 ADD MSTORE PUSH2 0x997 DUP2 PUSH2 0x941 JUMP JUMPDEST SWAP1 POP SWAP4 SWAP3 POP POP POP JUMP JUMPDEST PUSH1 0x0 DUP2 SWAP1 POP SWAP2 SWAP1 POP JUMP JUMPDEST PUSH1 0x0 PUSH2 0x9C5 PUSH2 0x9C0 PUSH2 0x9BB DUP5 PUSH2 0x9A0 JUMP JUMPDEST PUSH2 0x828 JUMP JUMPDEST PUSH2 0x5E5 JUMP JUMPDEST SWAP1 POP SWAP2 SWAP1 POP JUMP JUMPDEST PUSH2 0x9D5 DUP2 PUSH2 0x9AA JUMP JUMPDEST DUP3 MSTORE POP POP JUMP JUMPDEST PUSH32 0x496E76616C69642076616C756500000000000000000000000000000000000000 PUSH1 0x0 DUP3 ADD MSTORE POP JUMP JUMPDEST PUSH1 0x0 PUSH2 0xA11 PUSH1 0xD DUP4 PUSH2 0x4FC JUMP JUMPDEST SWAP2 POP PUSH2 0xA1C DUP3 PUSH2 0x9DB JUMP JUMPDEST PUSH1 0x20 DUP3 ADD SWAP1 POP SWAP2 SWAP1 POP JUMP JUMPDEST PUSH1 0x0 PUSH1 0x60 DUP3 ADD SWAP1 POP PUSH2 0xA3C PUSH1 0x0 DUP4 ADD DUP6 PUSH2 0x5EF JUMP JUMPDEST PUSH2 0xA49 PUSH1 0x20 DUP4 ADD DUP5 PUSH2 0x9CC JUMP JUMPDEST DUP2 DUP2 SUB PUSH1 0x40 DUP4 ADD MSTORE PUSH2 0xA5A DUP2 PUSH2 0xA04 JUMP JUMPDEST SWAP1 POP SWAP4 SWAP3 POP POP POP JUMP INVALID LOG2 PUSH5 0x6970667358 0x22 SLT KECCAK256 MOD SMOD SWAP15 PUSH11 0x4AEEE04F1ED869A303B176 PUSH1 0x21 0xE7 0xE2 LOG2 DUP11 0x2E 0xFB SWAP7 0xE1 0xF6 0xC PUSH10 0xCB65701D64736F6C6343 STOP ADDMOD 0xD STOP CALLER "
				},
				"gasEstimates": {
					"creation": {
						"codeDepositCost": "542600",
						"executionCost": "575",
						"totalCost": "543175"
					},
					"external": {
						"beforeAll()": "infinite",
						"checkFailure()": "infinite",
						"checkSenderAndValue()": "infinite",
						"checkSuccess()": "infinite",
						"checkSuccess2()": "343"
					}
				},
				"methodIdentifiers": {
					"beforeAll()": "7fea0d4b",
					"checkFailure()": "36c00656",
					"checkSenderAndValue()": "9074416d",
					"checkSuccess()": "011e6492",
					"checkSuccess2()": "12d487ea"
				}
			},
			"userdoc": {
				"kind": "user",
				"methods": {
					"beforeAll()": {
						"notice": "'beforeAll' runs before all other tests More special functions are: 'beforeEach', 'beforeAll', 'afterEach' & 'afterAll'"
					},
					"checkSenderAndValue()": {
						"notice": "Custom Transaction Context: https://remix-ide.readthedocs.io/en/latest/unittesting.html#customization #sender: account-1 #value: 100"
					}
				},
				"version": 1
			}
		}
	}
}