{
	"contracts/electionAntikode.sol": {
		"Ballot": {
			"abi": [
				{
					"inputs": [
						{
							"internalType": "string[]",
							"name": "proposalNames",
							"type": "string[]"
						}
					],
					"stateMutability": "nonpayable",
					"type": "constructor"
				},
				{
					"inputs": [],
					"name": "chairperson",
					"outputs": [
						{
							"internalType": "address",
							"name": "",
							"type": "address"
						}
					],
					"stateMutability": "view",
					"type": "function"
				},
				{
					"inputs": [
						{
							"internalType": "uint256",
							"name": "startPeriod",
							"type": "uint256"
						},
						{
							"internalType": "uint256",
							"name": "endPeriod",
							"type": "uint256"
						}
					],
					"name": "definePeriod",
					"outputs": [],
					"stateMutability": "nonpayable",
					"type": "function"
				},
				{
					"inputs": [
						{
							"internalType": "address",
							"name": "voter",
							"type": "address"
						}
					],
					"name": "giveRightToVote",
					"outputs": [],
					"stateMutability": "nonpayable",
					"type": "function"
				},
				{
					"inputs": [
						{
							"internalType": "uint256",
							"name": "",
							"type": "uint256"
						}
					],
					"name": "proposals",
					"outputs": [
						{
							"internalType": "string",
							"name": "name",
							"type": "string"
						},
						{
							"internalType": "uint256",
							"name": "voteCount",
							"type": "uint256"
						}
					],
					"stateMutability": "view",
					"type": "function"
				},
				{
					"inputs": [],
					"name": "state",
					"outputs": [
						{
							"internalType": "enum Ballot.State",
							"name": "",
							"type": "uint8"
						}
					],
					"stateMutability": "view",
					"type": "function"
				},
				{
					"inputs": [
						{
							"internalType": "uint256",
							"name": "proposal",
							"type": "uint256"
						}
					],
					"name": "vote",
					"outputs": [],
					"stateMutability": "nonpayable",
					"type": "function"
				},
				{
					"inputs": [
						{
							"internalType": "address",
							"name": "",
							"type": "address"
						}
					],
					"name": "voters",
					"outputs": [
						{
							"internalType": "uint256",
							"name": "weight",
							"type": "uint256"
						},
						{
							"internalType": "bool",
							"name": "voted",
							"type": "bool"
						},
						{
							"internalType": "uint256",
							"name": "vote",
							"type": "uint256"
						}
					],
					"stateMutability": "view",
					"type": "function"
				},
				{
					"inputs": [],
					"name": "votingEnd",
					"outputs": [
						{
							"internalType": "uint256",
							"name": "",
							"type": "uint256"
						}
					],
					"stateMutability": "view",
					"type": "function"
				},
				{
					"inputs": [],
					"name": "votingStart",
					"outputs": [
						{
							"internalType": "uint256",
							"name": "",
							"type": "uint256"
						}
					],
					"stateMutability": "view",
					"type": "function"
				},
				{
					"inputs": [],
					"name": "winner",
					"outputs": [
						{
							"internalType": "string",
							"name": "winnerName_",
							"type": "string"
						},
						{
							"internalType": "uint256",
							"name": "winnerCount_",
							"type": "uint256"
						}
					],
					"stateMutability": "view",
					"type": "function"
				},
				{
					"inputs": [],
					"name": "winningProposal",
					"outputs": [
						{
							"internalType": "uint256",
							"name": "winningProposal_",
							"type": "uint256"
						}
					],
					"stateMutability": "view",
					"type": "function"
				}
			],
			"devdoc": {
				"details": "Implements voting process along with vote delegation",
				"kind": "dev",
				"methods": {
					"constructor": {
						"details": "Create a new ballot to choose one of 'proposalNames'.",
						"params": {
							"proposalNames": "names of proposals"
						}
					},
					"giveRightToVote(address)": {
						"details": "Give 'voter' the right to vote on this ballot. May only be called by 'chairperson'.",
						"params": {
							"voter": "address of voter"
						}
					},
					"vote(uint256)": {
						"details": "Give your vote (including votes delegated to you) to proposal 'proposals[proposal].name'.",
						"params": {
							"proposal": "index of proposal in the proposals array"
						}
					},
					"winner()": {
						"details": "Calls winningProposal() function to get the index of the winner contained in the proposals array and then",
						"returns": {
							"winnerName_": "the name of the winner"
						}
					},
					"winningProposal()": {
						"details": "Computes the winning proposal taking all previous votes into account.",
						"returns": {
							"winningProposal_": "index of winning proposal in the proposals array"
						}
					}
				},
				"title": "Ballot",
				"version": 1
			},
			"evm": {
				"assembly": "    /* \"contracts/electionAntikode.sol\":157:4516  contract Ballot {... */\n  mstore(0x40, 0x80)\n    /* \"contracts/electionAntikode.sol\":978:979  0 */\n  0x00\n    /* \"contracts/electionAntikode.sol\":952:979  uint public votingStart = 0 */\n  0x01\n  sstore\n    /* \"contracts/electionAntikode.sol\":1009:1010  0 */\n  0x00\n    /* \"contracts/electionAntikode.sol\":985:1010  uint public votingEnd = 0 */\n  0x02\n  sstore\n    /* \"contracts/electionAntikode.sol\":1227:1707  constructor(string[] memory proposalNames) {... */\n  callvalue\n  dup1\n  iszero\n  tag_1\n  jumpi\n  0x00\n  dup1\n  revert\ntag_1:\n  pop\n  mload(0x40)\n  sub(codesize, bytecodeSize)\n  dup1\n  bytecodeSize\n  dup4\n  codecopy\n  dup2\n  dup2\n  add\n  0x40\n  mstore\n  dup2\n  add\n  swap1\n  tag_2\n  swap2\n  swap1\n  tag_3\n  jump\t// in\ntag_2:\n    /* \"contracts/electionAntikode.sol\":1294:1304  msg.sender */\n  caller\n    /* \"contracts/electionAntikode.sol\":1280:1291  chairperson */\n  0x00\n  0x01\n    /* \"contracts/electionAntikode.sol\":1280:1304  chairperson = msg.sender */\n  0x0100\n  exp\n  dup2\n  sload\n  dup2\n  0xffffffffffffffffffffffffffffffffffffffff\n  mul\n  not\n  and\n  swap1\n  dup4\n  0xffffffffffffffffffffffffffffffffffffffff\n  and\n  mul\n  or\n  swap1\n  sstore\n  pop\n    /* \"contracts/electionAntikode.sol\":1343:1344  1 */\n  0x01\n    /* \"contracts/electionAntikode.sol\":1314:1320  voters */\n  0x03\n    /* \"contracts/electionAntikode.sol\":1314:1333  voters[chairperson] */\n  0x00\n    /* \"contracts/electionAntikode.sol\":1321:1332  chairperson */\n  dup1\n  0x01\n  swap1\n  sload\n  swap1\n  0x0100\n  exp\n  swap1\n  div\n  0xffffffffffffffffffffffffffffffffffffffff\n  and\n    /* \"contracts/electionAntikode.sol\":1314:1333  voters[chairperson] */\n  0xffffffffffffffffffffffffffffffffffffffff\n  and\n  0xffffffffffffffffffffffffffffffffffffffff\n  and\n  dup2\n  mstore\n  0x20\n  add\n  swap1\n  dup2\n  mstore\n  0x20\n  add\n  0x00\n  keccak256\n    /* \"contracts/electionAntikode.sol\":1314:1340  voters[chairperson].weight */\n  0x00\n  add\n    /* \"contracts/electionAntikode.sol\":1314:1344  voters[chairperson].weight = 1 */\n  dup2\n  swap1\n  sstore\n  pop\n    /* \"contracts/electionAntikode.sol\":1360:1366  uint i */\n  0x00\n    /* \"contracts/electionAntikode.sol\":1355:1701  for (uint i = 0; i < proposalNames.length; i++) {... */\ntag_6:\n    /* \"contracts/electionAntikode.sol\":1376:1389  proposalNames */\n  dup2\n    /* \"contracts/electionAntikode.sol\":1376:1396  proposalNames.length */\n  mload\n    /* \"contracts/electionAntikode.sol\":1372:1373  i */\n  dup2\n    /* \"contracts/electionAntikode.sol\":1372:1396  i < proposalNames.length */\n  lt\n    /* \"contracts/electionAntikode.sol\":1355:1701  for (uint i = 0; i < proposalNames.length; i++) {... */\n  iszero\n  tag_7\n  jumpi\n    /* \"contracts/electionAntikode.sol\":1580:1589  proposals */\n  0x04\n    /* \"contracts/electionAntikode.sol\":1595:1689  Proposal({... */\n  mload(0x40)\n  dup1\n  0x40\n  add\n  0x40\n  mstore\n  dup1\n    /* \"contracts/electionAntikode.sol\":1628:1641  proposalNames */\n  dup5\n    /* \"contracts/electionAntikode.sol\":1642:1643  i */\n  dup5\n    /* \"contracts/electionAntikode.sol\":1628:1644  proposalNames[i] */\n  dup2\n  mload\n  dup2\n  lt\n  tag_9\n  jumpi\n  tag_10\n  tag_11\n  jump\t// in\ntag_10:\ntag_9:\n  0x20\n  mul\n  0x20\n  add\n  add\n  mload\n    /* \"contracts/electionAntikode.sol\":1595:1689  Proposal({... */\n  dup2\n  mstore\n  0x20\n  add\n    /* \"contracts/electionAntikode.sol\":1673:1674  0 */\n  0x00\n    /* \"contracts/electionAntikode.sol\":1595:1689  Proposal({... */\n  dup2\n  mstore\n  pop\n    /* \"contracts/electionAntikode.sol\":1580:1690  proposals.push(Proposal({... */\n  swap1\n  dup1\n  0x01\n  dup2\n  sload\n  add\n  dup1\n  dup3\n  sstore\n  dup1\n  swap2\n  pop\n  pop\n  0x01\n  swap1\n  sub\n  swap1\n  0x00\n  mstore\n  keccak256(0x00, 0x20)\n  swap1\n  0x02\n  mul\n  add\n  0x00\n  swap1\n  swap2\n  swap1\n  swap2\n  swap1\n  swap2\n  pop\n  0x00\n  dup3\n  add\n  mload\n  dup2\n  0x00\n  add\n  swap1\n  dup1\n  mload\n  swap1\n  0x20\n  add\n  swap1\n  tag_13\n  swap3\n  swap2\n  swap1\n  tag_14\n  jump\t// in\ntag_13:\n  pop\n  0x20\n  dup3\n  add\n  mload\n  dup2\n  0x01\n  add\n  sstore\n  pop\n  pop\n    /* \"contracts/electionAntikode.sol\":1398:1401  i++ */\n  dup1\n  dup1\n  tag_15\n  swap1\n  tag_16\n  jump\t// in\ntag_15:\n  swap2\n  pop\n  pop\n    /* \"contracts/electionAntikode.sol\":1355:1701  for (uint i = 0; i < proposalNames.length; i++) {... */\n  jump(tag_6)\ntag_7:\n  pop\n    /* \"contracts/electionAntikode.sol\":1227:1707  constructor(string[] memory proposalNames) {... */\n  pop\n    /* \"contracts/electionAntikode.sol\":157:4516  contract Ballot {... */\n  jump(tag_17)\ntag_14:\n  dup3\n  dup1\n  sload\n  tag_18\n  swap1\n  tag_19\n  jump\t// in\ntag_18:\n  swap1\n  0x00\n  mstore\n  keccak256(0x00, 0x20)\n  swap1\n  0x1f\n  add\n  0x20\n  swap1\n  div\n  dup2\n  add\n  swap3\n  dup3\n  tag_21\n  jumpi\n  0x00\n  dup6\n  sstore\n  jump(tag_20)\ntag_21:\n  dup3\n  0x1f\n  lt\n  tag_22\n  jumpi\n  dup1\n  mload\n  not(0xff)\n  and\n  dup4\n  dup1\n  add\n  or\n  dup6\n  sstore\n  jump(tag_20)\ntag_22:\n  dup3\n  dup1\n  add\n  0x01\n  add\n  dup6\n  sstore\n  dup3\n  iszero\n  tag_20\n  jumpi\n  swap2\n  dup3\n  add\ntag_23:\n  dup3\n  dup2\n  gt\n  iszero\n  tag_24\n  jumpi\n  dup3\n  mload\n  dup3\n  sstore\n  swap2\n  0x20\n  add\n  swap2\n  swap1\n  0x01\n  add\n  swap1\n  jump(tag_23)\ntag_24:\ntag_20:\n  pop\n  swap1\n  pop\n  tag_25\n  swap2\n  swap1\n  tag_26\n  jump\t// in\ntag_25:\n  pop\n  swap1\n  jump\t// out\ntag_26:\ntag_27:\n  dup1\n  dup3\n  gt\n  iszero\n  tag_28\n  jumpi\n  0x00\n  dup2\n  0x00\n  swap1\n  sstore\n  pop\n  0x01\n  add\n  jump(tag_27)\ntag_28:\n  pop\n  swap1\n  jump\t// out\n    /* \"#utility.yul\":7:82   */\ntag_29:\n    /* \"#utility.yul\":40:46   */\n  0x00\n    /* \"#utility.yul\":73:75   */\n  0x40\n    /* \"#utility.yul\":67:76   */\n  mload\n    /* \"#utility.yul\":57:76   */\n  swap1\n  pop\n    /* \"#utility.yul\":7:82   */\n  swap1\n  jump\t// out\n    /* \"#utility.yul\":88:205   */\ntag_30:\n    /* \"#utility.yul\":197:198   */\n  0x00\n    /* \"#utility.yul\":194:195   */\n  dup1\n    /* \"#utility.yul\":187:199   */\n  revert\n    /* \"#utility.yul\":211:328   */\ntag_31:\n    /* \"#utility.yul\":320:321   */\n  0x00\n    /* \"#utility.yul\":317:318   */\n  dup1\n    /* \"#utility.yul\":310:322   */\n  revert\n    /* \"#utility.yul\":334:451   */\ntag_32:\n    /* \"#utility.yul\":443:444   */\n  0x00\n    /* \"#utility.yul\":440:441   */\n  dup1\n    /* \"#utility.yul\":433:445   */\n  revert\n    /* \"#utility.yul\":457:559   */\ntag_33:\n    /* \"#utility.yul\":498:504   */\n  0x00\n    /* \"#utility.yul\":549:551   */\n  0x1f\n    /* \"#utility.yul\":545:552   */\n  not\n    /* \"#utility.yul\":540:542   */\n  0x1f\n    /* \"#utility.yul\":533:538   */\n  dup4\n    /* \"#utility.yul\":529:543   */\n  add\n    /* \"#utility.yul\":525:553   */\n  and\n    /* \"#utility.yul\":515:553   */\n  swap1\n  pop\n    /* \"#utility.yul\":457:559   */\n  swap2\n  swap1\n  pop\n  jump\t// out\n    /* \"#utility.yul\":565:745   */\ntag_34:\n    /* \"#utility.yul\":613:690   */\n  0x4e487b7100000000000000000000000000000000000000000000000000000000\n    /* \"#utility.yul\":610:611   */\n  0x00\n    /* \"#utility.yul\":603:691   */\n  mstore\n    /* \"#utility.yul\":710:714   */\n  0x41\n    /* \"#utility.yul\":707:708   */\n  0x04\n    /* \"#utility.yul\":700:715   */\n  mstore\n    /* \"#utility.yul\":734:738   */\n  0x24\n    /* \"#utility.yul\":731:732   */\n  0x00\n    /* \"#utility.yul\":724:739   */\n  revert\n    /* \"#utility.yul\":751:1032   */\ntag_35:\n    /* \"#utility.yul\":834:861   */\n  tag_57\n    /* \"#utility.yul\":856:860   */\n  dup3\n    /* \"#utility.yul\":834:861   */\n  tag_33\n  jump\t// in\ntag_57:\n    /* \"#utility.yul\":826:832   */\n  dup2\n    /* \"#utility.yul\":822:862   */\n  add\n    /* \"#utility.yul\":964:970   */\n  dup2\n    /* \"#utility.yul\":952:962   */\n  dup2\n    /* \"#utility.yul\":949:971   */\n  lt\n    /* \"#utility.yul\":928:946   */\n  0xffffffffffffffff\n    /* \"#utility.yul\":916:926   */\n  dup3\n    /* \"#utility.yul\":913:947   */\n  gt\n    /* \"#utility.yul\":910:972   */\n  or\n    /* \"#utility.yul\":907:995   */\n  iszero\n  tag_58\n  jumpi\n    /* \"#utility.yul\":975:993   */\n  tag_59\n  tag_34\n  jump\t// in\ntag_59:\n    /* \"#utility.yul\":907:995   */\ntag_58:\n    /* \"#utility.yul\":1015:1025   */\n  dup1\n    /* \"#utility.yul\":1011:1013   */\n  0x40\n    /* \"#utility.yul\":1004:1026   */\n  mstore\n    /* \"#utility.yul\":794:1032   */\n  pop\n    /* \"#utility.yul\":751:1032   */\n  pop\n  pop\n  jump\t// out\n    /* \"#utility.yul\":1038:1167   */\ntag_36:\n    /* \"#utility.yul\":1072:1078   */\n  0x00\n    /* \"#utility.yul\":1099:1119   */\n  tag_61\n  tag_29\n  jump\t// in\ntag_61:\n    /* \"#utility.yul\":1089:1119   */\n  swap1\n  pop\n    /* \"#utility.yul\":1128:1161   */\n  tag_62\n    /* \"#utility.yul\":1156:1160   */\n  dup3\n    /* \"#utility.yul\":1148:1154   */\n  dup3\n    /* \"#utility.yul\":1128:1161   */\n  tag_35\n  jump\t// in\ntag_62:\n    /* \"#utility.yul\":1038:1167   */\n  swap2\n  swap1\n  pop\n  jump\t// out\n    /* \"#utility.yul\":1173:1494   */\ntag_37:\n    /* \"#utility.yul\":1260:1264   */\n  0x00\n    /* \"#utility.yul\":1350:1368   */\n  0xffffffffffffffff\n    /* \"#utility.yul\":1342:1348   */\n  dup3\n    /* \"#utility.yul\":1339:1369   */\n  gt\n    /* \"#utility.yul\":1336:1392   */\n  iszero\n  tag_64\n  jumpi\n    /* \"#utility.yul\":1372:1390   */\n  tag_65\n  tag_34\n  jump\t// in\ntag_65:\n    /* \"#utility.yul\":1336:1392   */\ntag_64:\n    /* \"#utility.yul\":1422:1426   */\n  0x20\n    /* \"#utility.yul\":1414:1420   */\n  dup3\n    /* \"#utility.yul\":1410:1427   */\n  mul\n    /* \"#utility.yul\":1402:1427   */\n  swap1\n  pop\n    /* \"#utility.yul\":1482:1486   */\n  0x20\n    /* \"#utility.yul\":1476:1480   */\n  dup2\n    /* \"#utility.yul\":1472:1487   */\n  add\n    /* \"#utility.yul\":1464:1487   */\n  swap1\n  pop\n    /* \"#utility.yul\":1173:1494   */\n  swap2\n  swap1\n  pop\n  jump\t// out\n    /* \"#utility.yul\":1500:1617   */\ntag_38:\n    /* \"#utility.yul\":1609:1610   */\n  0x00\n    /* \"#utility.yul\":1606:1607   */\n  dup1\n    /* \"#utility.yul\":1599:1611   */\n  revert\n    /* \"#utility.yul\":1623:1740   */\ntag_39:\n    /* \"#utility.yul\":1732:1733   */\n  0x00\n    /* \"#utility.yul\":1729:1730   */\n  dup1\n    /* \"#utility.yul\":1722:1734   */\n  revert\n    /* \"#utility.yul\":1746:2054   */\ntag_40:\n    /* \"#utility.yul\":1808:1812   */\n  0x00\n    /* \"#utility.yul\":1898:1916   */\n  0xffffffffffffffff\n    /* \"#utility.yul\":1890:1896   */\n  dup3\n    /* \"#utility.yul\":1887:1917   */\n  gt\n    /* \"#utility.yul\":1884:1940   */\n  iszero\n  tag_69\n  jumpi\n    /* \"#utility.yul\":1920:1938   */\n  tag_70\n  tag_34\n  jump\t// in\ntag_70:\n    /* \"#utility.yul\":1884:1940   */\ntag_69:\n    /* \"#utility.yul\":1958:1987   */\n  tag_71\n    /* \"#utility.yul\":1980:1986   */\n  dup3\n    /* \"#utility.yul\":1958:1987   */\n  tag_33\n  jump\t// in\ntag_71:\n    /* \"#utility.yul\":1950:1987   */\n  swap1\n  pop\n    /* \"#utility.yul\":2042:2046   */\n  0x20\n    /* \"#utility.yul\":2036:2040   */\n  dup2\n    /* \"#utility.yul\":2032:2047   */\n  add\n    /* \"#utility.yul\":2024:2047   */\n  swap1\n  pop\n    /* \"#utility.yul\":1746:2054   */\n  swap2\n  swap1\n  pop\n  jump\t// out\n    /* \"#utility.yul\":2060:2367   */\ntag_41:\n    /* \"#utility.yul\":2128:2129   */\n  0x00\n    /* \"#utility.yul\":2138:2251   */\ntag_73:\n    /* \"#utility.yul\":2152:2158   */\n  dup4\n    /* \"#utility.yul\":2149:2150   */\n  dup2\n    /* \"#utility.yul\":2146:2159   */\n  lt\n    /* \"#utility.yul\":2138:2251   */\n  iszero\n  tag_75\n  jumpi\n    /* \"#utility.yul\":2237:2238   */\n  dup1\n    /* \"#utility.yul\":2232:2235   */\n  dup3\n    /* \"#utility.yul\":2228:2239   */\n  add\n    /* \"#utility.yul\":2222:2240   */\n  mload\n    /* \"#utility.yul\":2218:2219   */\n  dup2\n    /* \"#utility.yul\":2213:2216   */\n  dup5\n    /* \"#utility.yul\":2209:2220   */\n  add\n    /* \"#utility.yul\":2202:2241   */\n  mstore\n    /* \"#utility.yul\":2174:2176   */\n  0x20\n    /* \"#utility.yul\":2171:2172   */\n  dup2\n    /* \"#utility.yul\":2167:2177   */\n  add\n    /* \"#utility.yul\":2162:2177   */\n  swap1\n  pop\n    /* \"#utility.yul\":2138:2251   */\n  jump(tag_73)\ntag_75:\n    /* \"#utility.yul\":2269:2275   */\n  dup4\n    /* \"#utility.yul\":2266:2267   */\n  dup2\n    /* \"#utility.yul\":2263:2276   */\n  gt\n    /* \"#utility.yul\":2260:2361   */\n  iszero\n  tag_76\n  jumpi\n    /* \"#utility.yul\":2349:2350   */\n  0x00\n    /* \"#utility.yul\":2340:2346   */\n  dup5\n    /* \"#utility.yul\":2335:2338   */\n  dup5\n    /* \"#utility.yul\":2331:2347   */\n  add\n    /* \"#utility.yul\":2324:2351   */\n  mstore\n    /* \"#utility.yul\":2260:2361   */\ntag_76:\n    /* \"#utility.yul\":2109:2367   */\n  pop\n    /* \"#utility.yul\":2060:2367   */\n  pop\n  pop\n  pop\n  jump\t// out\n    /* \"#utility.yul\":2373:2794   */\ntag_42:\n    /* \"#utility.yul\":2462:2467   */\n  0x00\n    /* \"#utility.yul\":2487:2553   */\n  tag_78\n    /* \"#utility.yul\":2503:2552   */\n  tag_79\n    /* \"#utility.yul\":2545:2551   */\n  dup5\n    /* \"#utility.yul\":2503:2552   */\n  tag_40\n  jump\t// in\ntag_79:\n    /* \"#utility.yul\":2487:2553   */\n  tag_36\n  jump\t// in\ntag_78:\n    /* \"#utility.yul\":2478:2553   */\n  swap1\n  pop\n    /* \"#utility.yul\":2576:2582   */\n  dup3\n    /* \"#utility.yul\":2569:2574   */\n  dup2\n    /* \"#utility.yul\":2562:2583   */\n  mstore\n    /* \"#utility.yul\":2614:2618   */\n  0x20\n    /* \"#utility.yul\":2607:2612   */\n  dup2\n    /* \"#utility.yul\":2603:2619   */\n  add\n    /* \"#utility.yul\":2652:2655   */\n  dup5\n    /* \"#utility.yul\":2643:2649   */\n  dup5\n    /* \"#utility.yul\":2638:2641   */\n  dup5\n    /* \"#utility.yul\":2634:2650   */\n  add\n    /* \"#utility.yul\":2631:2656   */\n  gt\n    /* \"#utility.yul\":2628:2740   */\n  iszero\n  tag_80\n  jumpi\n    /* \"#utility.yul\":2659:2738   */\n  tag_81\n  tag_39\n  jump\t// in\ntag_81:\n    /* \"#utility.yul\":2628:2740   */\ntag_80:\n    /* \"#utility.yul\":2749:2788   */\n  tag_82\n    /* \"#utility.yul\":2781:2787   */\n  dup5\n    /* \"#utility.yul\":2776:2779   */\n  dup3\n    /* \"#utility.yul\":2771:2774   */\n  dup6\n    /* \"#utility.yul\":2749:2788   */\n  tag_41\n  jump\t// in\ntag_82:\n    /* \"#utility.yul\":2468:2794   */\n  pop\n    /* \"#utility.yul\":2373:2794   */\n  swap4\n  swap3\n  pop\n  pop\n  pop\n  jump\t// out\n    /* \"#utility.yul\":2814:3169   */\ntag_43:\n    /* \"#utility.yul\":2881:2886   */\n  0x00\n    /* \"#utility.yul\":2930:2933   */\n  dup3\n    /* \"#utility.yul\":2923:2927   */\n  0x1f\n    /* \"#utility.yul\":2915:2921   */\n  dup4\n    /* \"#utility.yul\":2911:2928   */\n  add\n    /* \"#utility.yul\":2907:2934   */\n  slt\n    /* \"#utility.yul\":2897:3019   */\n  tag_84\n  jumpi\n    /* \"#utility.yul\":2938:3017   */\n  tag_85\n  tag_32\n  jump\t// in\ntag_85:\n    /* \"#utility.yul\":2897:3019   */\ntag_84:\n    /* \"#utility.yul\":3048:3054   */\n  dup2\n    /* \"#utility.yul\":3042:3055   */\n  mload\n    /* \"#utility.yul\":3073:3163   */\n  tag_86\n    /* \"#utility.yul\":3159:3162   */\n  dup5\n    /* \"#utility.yul\":3151:3157   */\n  dup3\n    /* \"#utility.yul\":3144:3148   */\n  0x20\n    /* \"#utility.yul\":3136:3142   */\n  dup7\n    /* \"#utility.yul\":3132:3149   */\n  add\n    /* \"#utility.yul\":3073:3163   */\n  tag_42\n  jump\t// in\ntag_86:\n    /* \"#utility.yul\":3064:3163   */\n  swap2\n  pop\n    /* \"#utility.yul\":2887:3169   */\n  pop\n    /* \"#utility.yul\":2814:3169   */\n  swap3\n  swap2\n  pop\n  pop\n  jump\t// out\n    /* \"#utility.yul\":3191:4151   */\ntag_44:\n    /* \"#utility.yul\":3308:3313   */\n  0x00\n    /* \"#utility.yul\":3333:3424   */\n  tag_88\n    /* \"#utility.yul\":3349:3423   */\n  tag_89\n    /* \"#utility.yul\":3416:3422   */\n  dup5\n    /* \"#utility.yul\":3349:3423   */\n  tag_37\n  jump\t// in\ntag_89:\n    /* \"#utility.yul\":3333:3424   */\n  tag_36\n  jump\t// in\ntag_88:\n    /* \"#utility.yul\":3324:3424   */\n  swap1\n  pop\n    /* \"#utility.yul\":3444:3449   */\n  dup1\n    /* \"#utility.yul\":3473:3479   */\n  dup4\n    /* \"#utility.yul\":3466:3471   */\n  dup3\n    /* \"#utility.yul\":3459:3480   */\n  mstore\n    /* \"#utility.yul\":3507:3511   */\n  0x20\n    /* \"#utility.yul\":3500:3505   */\n  dup3\n    /* \"#utility.yul\":3496:3512   */\n  add\n    /* \"#utility.yul\":3489:3512   */\n  swap1\n  pop\n    /* \"#utility.yul\":3560:3564   */\n  0x20\n    /* \"#utility.yul\":3552:3558   */\n  dup5\n    /* \"#utility.yul\":3548:3565   */\n  mul\n    /* \"#utility.yul\":3540:3546   */\n  dup4\n    /* \"#utility.yul\":3536:3566   */\n  add\n    /* \"#utility.yul\":3589:3592   */\n  dup6\n    /* \"#utility.yul\":3581:3587   */\n  dup2\n    /* \"#utility.yul\":3578:3593   */\n  gt\n    /* \"#utility.yul\":3575:3697   */\n  iszero\n  tag_90\n  jumpi\n    /* \"#utility.yul\":3608:3687   */\n  tag_91\n  tag_38\n  jump\t// in\ntag_91:\n    /* \"#utility.yul\":3575:3697   */\ntag_90:\n    /* \"#utility.yul\":3723:3729   */\n  dup4\n    /* \"#utility.yul\":3706:4145   */\ntag_92:\n    /* \"#utility.yul\":3740:3746   */\n  dup2\n    /* \"#utility.yul\":3735:3738   */\n  dup2\n    /* \"#utility.yul\":3732:3747   */\n  lt\n    /* \"#utility.yul\":3706:4145   */\n  iszero\n  tag_94\n  jumpi\n    /* \"#utility.yul\":3822:3825   */\n  dup1\n    /* \"#utility.yul\":3816:3826   */\n  mload\n    /* \"#utility.yul\":3858:3876   */\n  0xffffffffffffffff\n    /* \"#utility.yul\":3845:3856   */\n  dup2\n    /* \"#utility.yul\":3842:3877   */\n  gt\n    /* \"#utility.yul\":3839:3961   */\n  iszero\n  tag_95\n  jumpi\n    /* \"#utility.yul\":3880:3959   */\n  tag_96\n  tag_32\n  jump\t// in\ntag_96:\n    /* \"#utility.yul\":3839:3961   */\ntag_95:\n    /* \"#utility.yul\":4004:4015   */\n  dup1\n    /* \"#utility.yul\":3996:4002   */\n  dup7\n    /* \"#utility.yul\":3992:4016   */\n  add\n    /* \"#utility.yul\":4042:4100   */\n  tag_97\n    /* \"#utility.yul\":4096:4099   */\n  dup10\n    /* \"#utility.yul\":4084:4094   */\n  dup3\n    /* \"#utility.yul\":4042:4100   */\n  tag_43\n  jump\t// in\ntag_97:\n    /* \"#utility.yul\":4037:4040   */\n  dup6\n    /* \"#utility.yul\":4030:4101   */\n  mstore\n    /* \"#utility.yul\":4130:4134   */\n  0x20\n    /* \"#utility.yul\":4125:4128   */\n  dup6\n    /* \"#utility.yul\":4121:4135   */\n  add\n    /* \"#utility.yul\":4114:4135   */\n  swap5\n  pop\n    /* \"#utility.yul\":3782:4145   */\n  pop\n  pop\n    /* \"#utility.yul\":3766:3770   */\n  0x20\n    /* \"#utility.yul\":3761:3764   */\n  dup2\n    /* \"#utility.yul\":3757:3771   */\n  add\n    /* \"#utility.yul\":3750:3771   */\n  swap1\n  pop\n    /* \"#utility.yul\":3706:4145   */\n  jump(tag_92)\ntag_94:\n    /* \"#utility.yul\":3710:3731   */\n  pop\n    /* \"#utility.yul\":3314:4151   */\n  pop\n  pop\n    /* \"#utility.yul\":3191:4151   */\n  swap4\n  swap3\n  pop\n  pop\n  pop\n  jump\t// out\n    /* \"#utility.yul\":4173:4578   */\ntag_45:\n    /* \"#utility.yul\":4265:4270   */\n  0x00\n    /* \"#utility.yul\":4314:4317   */\n  dup3\n    /* \"#utility.yul\":4307:4311   */\n  0x1f\n    /* \"#utility.yul\":4299:4305   */\n  dup4\n    /* \"#utility.yul\":4295:4312   */\n  add\n    /* \"#utility.yul\":4291:4318   */\n  slt\n    /* \"#utility.yul\":4281:4403   */\n  tag_99\n  jumpi\n    /* \"#utility.yul\":4322:4401   */\n  tag_100\n  tag_32\n  jump\t// in\ntag_100:\n    /* \"#utility.yul\":4281:4403   */\ntag_99:\n    /* \"#utility.yul\":4432:4438   */\n  dup2\n    /* \"#utility.yul\":4426:4439   */\n  mload\n    /* \"#utility.yul\":4457:4572   */\n  tag_101\n    /* \"#utility.yul\":4568:4571   */\n  dup5\n    /* \"#utility.yul\":4560:4566   */\n  dup3\n    /* \"#utility.yul\":4553:4557   */\n  0x20\n    /* \"#utility.yul\":4545:4551   */\n  dup7\n    /* \"#utility.yul\":4541:4558   */\n  add\n    /* \"#utility.yul\":4457:4572   */\n  tag_44\n  jump\t// in\ntag_101:\n    /* \"#utility.yul\":4448:4572   */\n  swap2\n  pop\n    /* \"#utility.yul\":4271:4578   */\n  pop\n    /* \"#utility.yul\":4173:4578   */\n  swap3\n  swap2\n  pop\n  pop\n  jump\t// out\n    /* \"#utility.yul\":4584:5158   */\ntag_3:\n    /* \"#utility.yul\":4689:4695   */\n  0x00\n    /* \"#utility.yul\":4738:4740   */\n  0x20\n    /* \"#utility.yul\":4726:4735   */\n  dup3\n    /* \"#utility.yul\":4717:4724   */\n  dup5\n    /* \"#utility.yul\":4713:4736   */\n  sub\n    /* \"#utility.yul\":4709:4741   */\n  slt\n    /* \"#utility.yul\":4706:4825   */\n  iszero\n  tag_103\n  jumpi\n    /* \"#utility.yul\":4744:4823   */\n  tag_104\n  tag_30\n  jump\t// in\ntag_104:\n    /* \"#utility.yul\":4706:4825   */\ntag_103:\n    /* \"#utility.yul\":4885:4886   */\n  0x00\n    /* \"#utility.yul\":4874:4883   */\n  dup3\n    /* \"#utility.yul\":4870:4887   */\n  add\n    /* \"#utility.yul\":4864:4888   */\n  mload\n    /* \"#utility.yul\":4915:4933   */\n  0xffffffffffffffff\n    /* \"#utility.yul\":4907:4913   */\n  dup2\n    /* \"#utility.yul\":4904:4934   */\n  gt\n    /* \"#utility.yul\":4901:5018   */\n  iszero\n  tag_105\n  jumpi\n    /* \"#utility.yul\":4937:5016   */\n  tag_106\n  tag_31\n  jump\t// in\ntag_106:\n    /* \"#utility.yul\":4901:5018   */\ntag_105:\n    /* \"#utility.yul\":5042:5141   */\n  tag_107\n    /* \"#utility.yul\":5133:5140   */\n  dup5\n    /* \"#utility.yul\":5124:5130   */\n  dup3\n    /* \"#utility.yul\":5113:5122   */\n  dup6\n    /* \"#utility.yul\":5109:5131   */\n  add\n    /* \"#utility.yul\":5042:5141   */\n  tag_45\n  jump\t// in\ntag_107:\n    /* \"#utility.yul\":5032:5141   */\n  swap2\n  pop\n    /* \"#utility.yul\":4835:5151   */\n  pop\n    /* \"#utility.yul\":4584:5158   */\n  swap3\n  swap2\n  pop\n  pop\n  jump\t// out\n    /* \"#utility.yul\":5164:5344   */\ntag_11:\n    /* \"#utility.yul\":5212:5289   */\n  0x4e487b7100000000000000000000000000000000000000000000000000000000\n    /* \"#utility.yul\":5209:5210   */\n  0x00\n    /* \"#utility.yul\":5202:5290   */\n  mstore\n    /* \"#utility.yul\":5309:5313   */\n  0x32\n    /* \"#utility.yul\":5306:5307   */\n  0x04\n    /* \"#utility.yul\":5299:5314   */\n  mstore\n    /* \"#utility.yul\":5333:5337   */\n  0x24\n    /* \"#utility.yul\":5330:5331   */\n  0x00\n    /* \"#utility.yul\":5323:5338   */\n  revert\n    /* \"#utility.yul\":5350:5530   */\ntag_46:\n    /* \"#utility.yul\":5398:5475   */\n  0x4e487b7100000000000000000000000000000000000000000000000000000000\n    /* \"#utility.yul\":5395:5396   */\n  0x00\n    /* \"#utility.yul\":5388:5476   */\n  mstore\n    /* \"#utility.yul\":5495:5499   */\n  0x11\n    /* \"#utility.yul\":5492:5493   */\n  0x04\n    /* \"#utility.yul\":5485:5500   */\n  mstore\n    /* \"#utility.yul\":5519:5523   */\n  0x24\n    /* \"#utility.yul\":5516:5517   */\n  0x00\n    /* \"#utility.yul\":5509:5524   */\n  revert\n    /* \"#utility.yul\":5536:5613   */\ntag_47:\n    /* \"#utility.yul\":5573:5580   */\n  0x00\n    /* \"#utility.yul\":5602:5607   */\n  dup2\n    /* \"#utility.yul\":5591:5607   */\n  swap1\n  pop\n    /* \"#utility.yul\":5536:5613   */\n  swap2\n  swap1\n  pop\n  jump\t// out\n    /* \"#utility.yul\":5619:5852   */\ntag_16:\n    /* \"#utility.yul\":5658:5661   */\n  0x00\n    /* \"#utility.yul\":5681:5705   */\n  tag_112\n    /* \"#utility.yul\":5699:5704   */\n  dup3\n    /* \"#utility.yul\":5681:5705   */\n  tag_47\n  jump\t// in\ntag_112:\n    /* \"#utility.yul\":5672:5705   */\n  swap2\n  pop\n    /* \"#utility.yul\":5727:5793   */\n  0xffffffffffffffffffffffffffffffffffffffffffffffffffffffffffffffff\n    /* \"#utility.yul\":5720:5725   */\n  dup3\n    /* \"#utility.yul\":5717:5794   */\n  sub\n    /* \"#utility.yul\":5714:5817   */\n  tag_113\n  jumpi\n    /* \"#utility.yul\":5797:5815   */\n  tag_114\n  tag_46\n  jump\t// in\ntag_114:\n    /* \"#utility.yul\":5714:5817   */\ntag_113:\n    /* \"#utility.yul\":5844:5845   */\n  0x01\n    /* \"#utility.yul\":5837:5842   */\n  dup3\n    /* \"#utility.yul\":5833:5846   */\n  add\n    /* \"#utility.yul\":5826:5846   */\n  swap1\n  pop\n    /* \"#utility.yul\":5619:5852   */\n  swap2\n  swap1\n  pop\n  jump\t// out\n    /* \"#utility.yul\":5858:6038   */\ntag_48:\n    /* \"#utility.yul\":5906:5983   */\n  0x4e487b7100000000000000000000000000000000000000000000000000000000\n    /* \"#utility.yul\":5903:5904   */\n  0x00\n    /* \"#utility.yul\":5896:5984   */\n  mstore\n    /* \"#utility.yul\":6003:6007   */\n  0x22\n    /* \"#utility.yul\":6000:6001   */\n  0x04\n    /* \"#utility.yul\":5993:6008   */\n  mstore\n    /* \"#utility.yul\":6027:6031   */\n  0x24\n    /* \"#utility.yul\":6024:6025   */\n  0x00\n    /* \"#utility.yul\":6017:6032   */\n  revert\n    /* \"#utility.yul\":6044:6364   */\ntag_19:\n    /* \"#utility.yul\":6088:6094   */\n  0x00\n    /* \"#utility.yul\":6125:6126   */\n  0x02\n    /* \"#utility.yul\":6119:6123   */\n  dup3\n    /* \"#utility.yul\":6115:6127   */\n  div\n    /* \"#utility.yul\":6105:6127   */\n  swap1\n  pop\n    /* \"#utility.yul\":6172:6173   */\n  0x01\n    /* \"#utility.yul\":6166:6170   */\n  dup3\n    /* \"#utility.yul\":6162:6174   */\n  and\n    /* \"#utility.yul\":6193:6211   */\n  dup1\n    /* \"#utility.yul\":6183:6264   */\n  tag_117\n  jumpi\n    /* \"#utility.yul\":6249:6253   */\n  0x7f\n    /* \"#utility.yul\":6241:6247   */\n  dup3\n    /* \"#utility.yul\":6237:6254   */\n  and\n    /* \"#utility.yul\":6227:6254   */\n  swap2\n  pop\n    /* \"#utility.yul\":6183:6264   */\ntag_117:\n    /* \"#utility.yul\":6311:6313   */\n  0x20\n    /* \"#utility.yul\":6303:6309   */\n  dup3\n    /* \"#utility.yul\":6300:6314   */\n  lt\n    /* \"#utility.yul\":6280:6298   */\n  dup2\n    /* \"#utility.yul\":6277:6315   */\n  sub\n    /* \"#utility.yul\":6274:6358   */\n  tag_118\n  jumpi\n    /* \"#utility.yul\":6330:6348   */\n  tag_119\n  tag_48\n  jump\t// in\ntag_119:\n    /* \"#utility.yul\":6274:6358   */\ntag_118:\n    /* \"#utility.yul\":6095:6364   */\n  pop\n    /* \"#utility.yul\":6044:6364   */\n  swap2\n  swap1\n  pop\n  jump\t// out\n    /* \"contracts/electionAntikode.sol\":157:4516  contract Ballot {... */\ntag_17:\n  dataSize(sub_0)\n  dup1\n  dataOffset(sub_0)\n  0x00\n  codecopy\n  0x00\n  return\nstop\n\nsub_0: assembly {\n        /* \"contracts/electionAntikode.sol\":157:4516  contract Ballot {... */\n      mstore(0x40, 0x80)\n      callvalue\n      dup1\n      iszero\n      tag_1\n      jumpi\n      0x00\n      dup1\n      revert\n    tag_1:\n      pop\n      jumpi(tag_2, lt(calldatasize, 0x04))\n      shr(0xe0, calldataload(0x00))\n      dup1\n      0x85a38635\n      gt\n      tag_14\n      jumpi\n      dup1\n      0x85a38635\n      eq\n      tag_8\n      jumpi\n      dup1\n      0x9e7b8d61\n      eq\n      tag_9\n      jumpi\n      dup1\n      0xa3ec138d\n      eq\n      tag_10\n      jumpi\n      dup1\n      0xacf7b570\n      eq\n      tag_11\n      jumpi\n      dup1\n      0xc19d93fb\n      eq\n      tag_12\n      jumpi\n      dup1\n      0xdfbf53ae\n      eq\n      tag_13\n      jumpi\n      jump(tag_2)\n    tag_14:\n      dup1\n      0x0121b93f\n      eq\n      tag_3\n      jumpi\n      dup1\n      0x013cf08b\n      eq\n      tag_4\n      jumpi\n      dup1\n      0x101158af\n      eq\n      tag_5\n      jumpi\n      dup1\n      0x2e4176cf\n      eq\n      tag_6\n      jumpi\n      dup1\n      0x609ff1bd\n      eq\n      tag_7\n      jumpi\n    tag_2:\n      0x00\n      dup1\n      revert\n        /* \"contracts/electionAntikode.sol\":2915:3551  function vote(uint proposal) public {... */\n    tag_3:\n      tag_15\n      0x04\n      dup1\n      calldatasize\n      sub\n      dup2\n      add\n      swap1\n      tag_16\n      swap2\n      swap1\n      tag_17\n      jump\t// in\n    tag_16:\n      tag_18\n      jump\t// in\n    tag_15:\n      stop\n        /* \"contracts/electionAntikode.sol\":1063:1090  Proposal[] public proposals */\n    tag_4:\n      tag_19\n      0x04\n      dup1\n      calldatasize\n      sub\n      dup2\n      add\n      swap1\n      tag_20\n      swap2\n      swap1\n      tag_17\n      jump\t// in\n    tag_20:\n      tag_21\n      jump\t// in\n    tag_19:\n      mload(0x40)\n      tag_22\n      swap3\n      swap2\n      swap1\n      tag_23\n      jump\t// in\n    tag_22:\n      mload(0x40)\n      dup1\n      swap2\n      sub\n      swap1\n      return\n        /* \"contracts/electionAntikode.sol\":952:979  uint public votingStart = 0 */\n    tag_5:\n      tag_24\n      tag_25\n      jump\t// in\n    tag_24:\n      mload(0x40)\n      tag_26\n      swap2\n      swap1\n      tag_27\n      jump\t// in\n    tag_26:\n      mload(0x40)\n      dup1\n      swap2\n      sub\n      swap1\n      return\n        /* \"contracts/electionAntikode.sol\":920:946  address public chairperson */\n    tag_6:\n      tag_28\n      tag_29\n      jump\t// in\n    tag_28:\n      mload(0x40)\n      tag_30\n      swap2\n      swap1\n      tag_31\n      jump\t// in\n    tag_30:\n      mload(0x40)\n      dup1\n      swap2\n      sub\n      swap1\n      return\n        /* \"contracts/electionAntikode.sol\":3737:4102  function winningProposal() public view... */\n    tag_7:\n      tag_32\n      tag_33\n      jump\t// in\n    tag_32:\n      mload(0x40)\n      tag_34\n      swap2\n      swap1\n      tag_27\n      jump\t// in\n    tag_34:\n      mload(0x40)\n      dup1\n      swap2\n      sub\n      swap1\n      return\n        /* \"contracts/electionAntikode.sol\":985:1010  uint public votingEnd = 0 */\n    tag_8:\n      tag_35\n      tag_36\n      jump\t// in\n    tag_35:\n      mload(0x40)\n      tag_37\n      swap2\n      swap1\n      tag_27\n      jump\t// in\n    tag_37:\n      mload(0x40)\n      dup1\n      swap2\n      sub\n      swap1\n      return\n        /* \"contracts/electionAntikode.sol\":1867:2222  function giveRightToVote(address voter) public {... */\n    tag_9:\n      tag_38\n      0x04\n      dup1\n      calldatasize\n      sub\n      dup2\n      add\n      swap1\n      tag_39\n      swap2\n      swap1\n      tag_40\n      jump\t// in\n    tag_39:\n      tag_41\n      jump\t// in\n    tag_38:\n      stop\n        /* \"contracts/electionAntikode.sol\":1017:1056  mapping(address => Voter) public voters */\n    tag_10:\n      tag_42\n      0x04\n      dup1\n      calldatasize\n      sub\n      dup2\n      add\n      swap1\n      tag_43\n      swap2\n      swap1\n      tag_40\n      jump\t// in\n    tag_43:\n      tag_44\n      jump\t// in\n    tag_42:\n      mload(0x40)\n      tag_45\n      swap4\n      swap3\n      swap2\n      swap1\n      tag_46\n      jump\t// in\n    tag_45:\n      mload(0x40)\n      dup1\n      swap2\n      sub\n      swap1\n      return\n        /* \"contracts/electionAntikode.sol\":2228:2727  function definePeriod (uint startPeriod, uint endPeriod) public {... */\n    tag_11:\n      tag_47\n      0x04\n      dup1\n      calldatasize\n      sub\n      dup2\n      add\n      swap1\n      tag_48\n      swap2\n      swap1\n      tag_49\n      jump\t// in\n    tag_48:\n      tag_50\n      jump\t// in\n    tag_47:\n      stop\n        /* \"contracts/electionAntikode.sol\":707:725  State public state */\n    tag_12:\n      tag_51\n      tag_52\n      jump\t// in\n    tag_51:\n      mload(0x40)\n      tag_53\n      swap2\n      swap1\n      tag_54\n      jump\t// in\n    tag_53:\n      mload(0x40)\n      dup1\n      swap2\n      sub\n      swap1\n      return\n        /* \"contracts/electionAntikode.sol\":4293:4509  function winner() public view returns (string memory winnerName_, uint winnerCount_)... */\n    tag_13:\n      tag_55\n      tag_56\n      jump\t// in\n    tag_55:\n      mload(0x40)\n      tag_57\n      swap3\n      swap2\n      swap1\n      tag_23\n      jump\t// in\n    tag_57:\n      mload(0x40)\n      dup1\n      swap2\n      sub\n      swap1\n      return\n        /* \"contracts/electionAntikode.sol\":2915:3551  function vote(uint proposal) public {... */\n    tag_18:\n        /* \"contracts/electionAntikode.sol\":2961:2981  Voter storage sender */\n      0x00\n        /* \"contracts/electionAntikode.sol\":2984:2990  voters */\n      0x03\n        /* \"contracts/electionAntikode.sol\":2984:3002  voters[msg.sender] */\n      0x00\n        /* \"contracts/electionAntikode.sol\":2991:3001  msg.sender */\n      caller\n        /* \"contracts/electionAntikode.sol\":2984:3002  voters[msg.sender] */\n      0xffffffffffffffffffffffffffffffffffffffff\n      and\n      0xffffffffffffffffffffffffffffffffffffffff\n      and\n      dup2\n      mstore\n      0x20\n      add\n      swap1\n      dup2\n      mstore\n      0x20\n      add\n      0x00\n      keccak256\n        /* \"contracts/electionAntikode.sol\":2961:3002  Voter storage sender = voters[msg.sender] */\n      swap1\n      pop\n        /* \"contracts/electionAntikode.sol\":3035:3036  0 */\n      0x00\n        /* \"contracts/electionAntikode.sol\":3020:3031  votingStart */\n      sload(0x01)\n        /* \"contracts/electionAntikode.sol\":3020:3036  votingStart != 0 */\n      eq\n      iszero\n        /* \"contracts/electionAntikode.sol\":3020:3070  votingStart != 0 && votingStart <= block.timestamp */\n      dup1\n      iszero\n      tag_59\n      jumpi\n      pop\n        /* \"contracts/electionAntikode.sol\":3055:3070  block.timestamp */\n      timestamp\n        /* \"contracts/electionAntikode.sol\":3040:3051  votingStart */\n      sload(0x01)\n        /* \"contracts/electionAntikode.sol\":3040:3070  votingStart <= block.timestamp */\n      gt\n      iszero\n        /* \"contracts/electionAntikode.sol\":3020:3070  votingStart != 0 && votingStart <= block.timestamp */\n    tag_59:\n        /* \"contracts/electionAntikode.sol\":3012:3096  require(votingStart != 0 && votingStart <= block.timestamp, \"Vote not started yet!\") */\n      tag_60\n      jumpi\n      mload(0x40)\n      0x08c379a000000000000000000000000000000000000000000000000000000000\n      dup2\n      mstore\n      0x04\n      add\n      tag_61\n      swap1\n      tag_62\n      jump\t// in\n    tag_61:\n      mload(0x40)\n      dup1\n      swap2\n      sub\n      swap1\n      revert\n    tag_60:\n        /* \"contracts/electionAntikode.sol\":3127:3128  0 */\n      0x00\n        /* \"contracts/electionAntikode.sol\":3114:3123  votingEnd */\n      sload(0x02)\n        /* \"contracts/electionAntikode.sol\":3114:3128  votingEnd != 0 */\n      eq\n      iszero\n        /* \"contracts/electionAntikode.sol\":3114:3160  votingEnd != 0 && votingEnd >= block.timestamp */\n      dup1\n      iszero\n      tag_63\n      jumpi\n      pop\n        /* \"contracts/electionAntikode.sol\":3145:3160  block.timestamp */\n      timestamp\n        /* \"contracts/electionAntikode.sol\":3132:3141  votingEnd */\n      sload(0x02)\n        /* \"contracts/electionAntikode.sol\":3132:3160  votingEnd >= block.timestamp */\n      lt\n      iszero\n        /* \"contracts/electionAntikode.sol\":3114:3160  votingEnd != 0 && votingEnd >= block.timestamp */\n    tag_63:\n        /* \"contracts/electionAntikode.sol\":3106:3180  require(votingEnd != 0 && votingEnd >= block.timestamp, \"Vote has ended!\") */\n      tag_64\n      jumpi\n      mload(0x40)\n      0x08c379a000000000000000000000000000000000000000000000000000000000\n      dup2\n      mstore\n      0x04\n      add\n      tag_65\n      swap1\n      tag_66\n      jump\t// in\n    tag_65:\n      mload(0x40)\n      dup1\n      swap2\n      sub\n      swap1\n      revert\n    tag_64:\n        /* \"contracts/electionAntikode.sol\":3215:3216  0 */\n      0x00\n        /* \"contracts/electionAntikode.sol\":3198:3204  sender */\n      dup2\n        /* \"contracts/electionAntikode.sol\":3198:3211  sender.weight */\n      0x00\n      add\n      sload\n        /* \"contracts/electionAntikode.sol\":3198:3216  sender.weight != 0 */\n      sub\n        /* \"contracts/electionAntikode.sol\":3190:3241  require(sender.weight != 0, \"Has no right to vote\") */\n      tag_67\n      jumpi\n      mload(0x40)\n      0x08c379a000000000000000000000000000000000000000000000000000000000\n      dup2\n      mstore\n      0x04\n      add\n      tag_68\n      swap1\n      tag_69\n      jump\t// in\n    tag_68:\n      mload(0x40)\n      dup1\n      swap2\n      sub\n      swap1\n      revert\n    tag_67:\n        /* \"contracts/electionAntikode.sol\":3260:3266  sender */\n      dup1\n        /* \"contracts/electionAntikode.sol\":3260:3272  sender.voted */\n      0x01\n      add\n      0x00\n      swap1\n      sload\n      swap1\n      0x0100\n      exp\n      swap1\n      div\n      0xff\n      and\n        /* \"contracts/electionAntikode.sol\":3259:3272  !sender.voted */\n      iszero\n        /* \"contracts/electionAntikode.sol\":3251:3291  require(!sender.voted, \"Already voted.\") */\n      tag_70\n      jumpi\n      mload(0x40)\n      0x08c379a000000000000000000000000000000000000000000000000000000000\n      dup2\n      mstore\n      0x04\n      add\n      tag_71\n      swap1\n      tag_72\n      jump\t// in\n    tag_71:\n      mload(0x40)\n      dup1\n      swap2\n      sub\n      swap1\n      revert\n    tag_70:\n        /* \"contracts/electionAntikode.sol\":3316:3320  true */\n      0x01\n        /* \"contracts/electionAntikode.sol\":3301:3307  sender */\n      dup2\n        /* \"contracts/electionAntikode.sol\":3301:3313  sender.voted */\n      0x01\n      add\n      0x00\n        /* \"contracts/electionAntikode.sol\":3301:3320  sender.voted = true */\n      0x0100\n      exp\n      dup2\n      sload\n      dup2\n      0xff\n      mul\n      not\n      and\n      swap1\n      dup4\n      iszero\n      iszero\n      mul\n      or\n      swap1\n      sstore\n      pop\n        /* \"contracts/electionAntikode.sol\":3344:3352  proposal */\n      dup2\n        /* \"contracts/electionAntikode.sol\":3330:3336  sender */\n      dup2\n        /* \"contracts/electionAntikode.sol\":3330:3341  sender.vote */\n      0x02\n      add\n        /* \"contracts/electionAntikode.sol\":3330:3352  sender.vote = proposal */\n      dup2\n      swap1\n      sstore\n      pop\n        /* \"contracts/electionAntikode.sol\":3531:3537  sender */\n      dup1\n        /* \"contracts/electionAntikode.sol\":3531:3544  sender.weight */\n      0x00\n      add\n      sload\n        /* \"contracts/electionAntikode.sol\":3498:3507  proposals */\n      0x04\n        /* \"contracts/electionAntikode.sol\":3508:3516  proposal */\n      dup4\n        /* \"contracts/electionAntikode.sol\":3498:3517  proposals[proposal] */\n      dup2\n      sload\n      dup2\n      lt\n      tag_73\n      jumpi\n      tag_74\n      tag_75\n      jump\t// in\n    tag_74:\n    tag_73:\n      swap1\n      0x00\n      mstore\n      keccak256(0x00, 0x20)\n      swap1\n      0x02\n      mul\n      add\n        /* \"contracts/electionAntikode.sol\":3498:3527  proposals[proposal].voteCount */\n      0x01\n      add\n      0x00\n        /* \"contracts/electionAntikode.sol\":3498:3544  proposals[proposal].voteCount += sender.weight */\n      dup3\n      dup3\n      sload\n      tag_77\n      swap2\n      swap1\n      tag_78\n      jump\t// in\n    tag_77:\n      swap3\n      pop\n      pop\n      dup2\n      swap1\n      sstore\n      pop\n        /* \"contracts/electionAntikode.sol\":2951:3551  {... */\n      pop\n        /* \"contracts/electionAntikode.sol\":2915:3551  function vote(uint proposal) public {... */\n      pop\n      jump\t// out\n        /* \"contracts/electionAntikode.sol\":1063:1090  Proposal[] public proposals */\n    tag_21:\n      0x04\n      dup2\n      dup2\n      sload\n      dup2\n      lt\n      tag_79\n      jumpi\n      0x00\n      dup1\n      revert\n    tag_79:\n      swap1\n      0x00\n      mstore\n      keccak256(0x00, 0x20)\n      swap1\n      0x02\n      mul\n      add\n      0x00\n      swap2\n      pop\n      swap1\n      pop\n      dup1\n      0x00\n      add\n      dup1\n      sload\n      tag_81\n      swap1\n      tag_82\n      jump\t// in\n    tag_81:\n      dup1\n      0x1f\n      add\n      0x20\n      dup1\n      swap2\n      div\n      mul\n      0x20\n      add\n      mload(0x40)\n      swap1\n      dup2\n      add\n      0x40\n      mstore\n      dup1\n      swap3\n      swap2\n      swap1\n      dup2\n      dup2\n      mstore\n      0x20\n      add\n      dup3\n      dup1\n      sload\n      tag_83\n      swap1\n      tag_82\n      jump\t// in\n    tag_83:\n      dup1\n      iszero\n      tag_84\n      jumpi\n      dup1\n      0x1f\n      lt\n      tag_85\n      jumpi\n      0x0100\n      dup1\n      dup4\n      sload\n      div\n      mul\n      dup4\n      mstore\n      swap2\n      0x20\n      add\n      swap2\n      jump(tag_84)\n    tag_85:\n      dup3\n      add\n      swap2\n      swap1\n      0x00\n      mstore\n      keccak256(0x00, 0x20)\n      swap1\n    tag_86:\n      dup2\n      sload\n      dup2\n      mstore\n      swap1\n      0x01\n      add\n      swap1\n      0x20\n      add\n      dup1\n      dup4\n      gt\n      tag_86\n      jumpi\n      dup3\n      swap1\n      sub\n      0x1f\n      and\n      dup3\n      add\n      swap2\n    tag_84:\n      pop\n      pop\n      pop\n      pop\n      pop\n      swap1\n      dup1\n      0x01\n      add\n      sload\n      swap1\n      pop\n      dup3\n      jump\t// out\n        /* \"contracts/electionAntikode.sol\":952:979  uint public votingStart = 0 */\n    tag_25:\n      sload(0x01)\n      dup2\n      jump\t// out\n        /* \"contracts/electionAntikode.sol\":920:946  address public chairperson */\n    tag_29:\n      0x00\n      0x01\n      swap1\n      sload\n      swap1\n      0x0100\n      exp\n      swap1\n      div\n      0xffffffffffffffffffffffffffffffffffffffff\n      and\n      dup2\n      jump\t// out\n        /* \"contracts/electionAntikode.sol\":3737:4102  function winningProposal() public view... */\n    tag_33:\n        /* \"contracts/electionAntikode.sol\":3797:3818  uint winningProposal_ */\n      0x00\n        /* \"contracts/electionAntikode.sol\":3834:3855  uint winningVoteCount */\n      dup1\n        /* \"contracts/electionAntikode.sol\":3858:3859  0 */\n      0x00\n        /* \"contracts/electionAntikode.sol\":3834:3859  uint winningVoteCount = 0 */\n      swap1\n      pop\n        /* \"contracts/electionAntikode.sol\":3874:3880  uint p */\n      0x00\n        /* \"contracts/electionAntikode.sol\":3869:4096  for (uint p = 0; p < proposals.length; p++) {... */\n    tag_88:\n        /* \"contracts/electionAntikode.sol\":3890:3899  proposals */\n      0x04\n        /* \"contracts/electionAntikode.sol\":3890:3906  proposals.length */\n      dup1\n      sload\n      swap1\n      pop\n        /* \"contracts/electionAntikode.sol\":3886:3887  p */\n      dup2\n        /* \"contracts/electionAntikode.sol\":3886:3906  p < proposals.length */\n      lt\n        /* \"contracts/electionAntikode.sol\":3869:4096  for (uint p = 0; p < proposals.length; p++) {... */\n      iszero\n      tag_89\n      jumpi\n        /* \"contracts/electionAntikode.sol\":3956:3972  winningVoteCount */\n      dup2\n        /* \"contracts/electionAntikode.sol\":3931:3940  proposals */\n      0x04\n        /* \"contracts/electionAntikode.sol\":3941:3942  p */\n      dup3\n        /* \"contracts/electionAntikode.sol\":3931:3943  proposals[p] */\n      dup2\n      sload\n      dup2\n      lt\n      tag_91\n      jumpi\n      tag_92\n      tag_75\n      jump\t// in\n    tag_92:\n    tag_91:\n      swap1\n      0x00\n      mstore\n      keccak256(0x00, 0x20)\n      swap1\n      0x02\n      mul\n      add\n        /* \"contracts/electionAntikode.sol\":3931:3953  proposals[p].voteCount */\n      0x01\n      add\n      sload\n        /* \"contracts/electionAntikode.sol\":3931:3972  proposals[p].voteCount > winningVoteCount */\n      gt\n        /* \"contracts/electionAntikode.sol\":3927:4086  if (proposals[p].voteCount > winningVoteCount) {... */\n      iszero\n      tag_94\n      jumpi\n        /* \"contracts/electionAntikode.sol\":4011:4020  proposals */\n      0x04\n        /* \"contracts/electionAntikode.sol\":4021:4022  p */\n      dup2\n        /* \"contracts/electionAntikode.sol\":4011:4023  proposals[p] */\n      dup2\n      sload\n      dup2\n      lt\n      tag_95\n      jumpi\n      tag_96\n      tag_75\n      jump\t// in\n    tag_96:\n    tag_95:\n      swap1\n      0x00\n      mstore\n      keccak256(0x00, 0x20)\n      swap1\n      0x02\n      mul\n      add\n        /* \"contracts/electionAntikode.sol\":4011:4033  proposals[p].voteCount */\n      0x01\n      add\n      sload\n        /* \"contracts/electionAntikode.sol\":3992:4033  winningVoteCount = proposals[p].voteCount */\n      swap2\n      pop\n        /* \"contracts/electionAntikode.sol\":4070:4071  p */\n      dup1\n        /* \"contracts/electionAntikode.sol\":4051:4071  winningProposal_ = p */\n      swap3\n      pop\n        /* \"contracts/electionAntikode.sol\":3927:4086  if (proposals[p].voteCount > winningVoteCount) {... */\n    tag_94:\n        /* \"contracts/electionAntikode.sol\":3908:3911  p++ */\n      dup1\n      dup1\n      tag_98\n      swap1\n      tag_99\n      jump\t// in\n    tag_98:\n      swap2\n      pop\n      pop\n        /* \"contracts/electionAntikode.sol\":3869:4096  for (uint p = 0; p < proposals.length; p++) {... */\n      jump(tag_88)\n    tag_89:\n      pop\n        /* \"contracts/electionAntikode.sol\":3824:4102  {... */\n      pop\n        /* \"contracts/electionAntikode.sol\":3737:4102  function winningProposal() public view... */\n      swap1\n      jump\t// out\n        /* \"contracts/electionAntikode.sol\":985:1010  uint public votingEnd = 0 */\n    tag_36:\n      sload(0x02)\n      dup2\n      jump\t// out\n        /* \"contracts/electionAntikode.sol\":1867:2222  function giveRightToVote(address voter) public {... */\n    tag_41:\n        /* \"contracts/electionAntikode.sol\":1959:1970  chairperson */\n      0x00\n      0x01\n      swap1\n      sload\n      swap1\n      0x0100\n      exp\n      swap1\n      div\n      0xffffffffffffffffffffffffffffffffffffffff\n      and\n        /* \"contracts/electionAntikode.sol\":1945:1970  msg.sender == chairperson */\n      0xffffffffffffffffffffffffffffffffffffffff\n      and\n        /* \"contracts/electionAntikode.sol\":1945:1955  msg.sender */\n      caller\n        /* \"contracts/electionAntikode.sol\":1945:1970  msg.sender == chairperson */\n      0xffffffffffffffffffffffffffffffffffffffff\n      and\n      eq\n        /* \"contracts/electionAntikode.sol\":1924:2036  require(... */\n      tag_101\n      jumpi\n      mload(0x40)\n      0x08c379a000000000000000000000000000000000000000000000000000000000\n      dup2\n      mstore\n      0x04\n      add\n      tag_102\n      swap1\n      tag_103\n      jump\t// in\n    tag_102:\n      mload(0x40)\n      dup1\n      swap2\n      sub\n      swap1\n      revert\n    tag_101:\n        /* \"contracts/electionAntikode.sol\":2068:2074  voters */\n      0x03\n        /* \"contracts/electionAntikode.sol\":2068:2081  voters[voter] */\n      0x00\n        /* \"contracts/electionAntikode.sol\":2075:2080  voter */\n      dup3\n        /* \"contracts/electionAntikode.sol\":2068:2081  voters[voter] */\n      0xffffffffffffffffffffffffffffffffffffffff\n      and\n      0xffffffffffffffffffffffffffffffffffffffff\n      and\n      dup2\n      mstore\n      0x20\n      add\n      swap1\n      dup2\n      mstore\n      0x20\n      add\n      0x00\n      keccak256\n        /* \"contracts/electionAntikode.sol\":2068:2087  voters[voter].voted */\n      0x01\n      add\n      0x00\n      swap1\n      sload\n      swap1\n      0x0100\n      exp\n      swap1\n      div\n      0xff\n      and\n        /* \"contracts/electionAntikode.sol\":2067:2087  !voters[voter].voted */\n      iszero\n        /* \"contracts/electionAntikode.sol\":2046:2137  require(... */\n      tag_104\n      jumpi\n      mload(0x40)\n      0x08c379a000000000000000000000000000000000000000000000000000000000\n      dup2\n      mstore\n      0x04\n      add\n      tag_105\n      swap1\n      tag_106\n      jump\t// in\n    tag_105:\n      mload(0x40)\n      dup1\n      swap2\n      sub\n      swap1\n      revert\n    tag_104:\n        /* \"contracts/electionAntikode.sol\":2179:2180  0 */\n      0x00\n        /* \"contracts/electionAntikode.sol\":2155:2161  voters */\n      0x03\n        /* \"contracts/electionAntikode.sol\":2155:2168  voters[voter] */\n      0x00\n        /* \"contracts/electionAntikode.sol\":2162:2167  voter */\n      dup4\n        /* \"contracts/electionAntikode.sol\":2155:2168  voters[voter] */\n      0xffffffffffffffffffffffffffffffffffffffff\n      and\n      0xffffffffffffffffffffffffffffffffffffffff\n      and\n      dup2\n      mstore\n      0x20\n      add\n      swap1\n      dup2\n      mstore\n      0x20\n      add\n      0x00\n      keccak256\n        /* \"contracts/electionAntikode.sol\":2155:2175  voters[voter].weight */\n      0x00\n      add\n      sload\n        /* \"contracts/electionAntikode.sol\":2155:2180  voters[voter].weight == 0 */\n      eq\n        /* \"contracts/electionAntikode.sol\":2147:2181  require(voters[voter].weight == 0) */\n      tag_107\n      jumpi\n      0x00\n      dup1\n      revert\n    tag_107:\n        /* \"contracts/electionAntikode.sol\":2214:2215  1 */\n      0x01\n        /* \"contracts/electionAntikode.sol\":2191:2197  voters */\n      0x03\n        /* \"contracts/electionAntikode.sol\":2191:2204  voters[voter] */\n      0x00\n        /* \"contracts/electionAntikode.sol\":2198:2203  voter */\n      dup4\n        /* \"contracts/electionAntikode.sol\":2191:2204  voters[voter] */\n      0xffffffffffffffffffffffffffffffffffffffff\n      and\n      0xffffffffffffffffffffffffffffffffffffffff\n      and\n      dup2\n      mstore\n      0x20\n      add\n      swap1\n      dup2\n      mstore\n      0x20\n      add\n      0x00\n      keccak256\n        /* \"contracts/electionAntikode.sol\":2191:2211  voters[voter].weight */\n      0x00\n      add\n        /* \"contracts/electionAntikode.sol\":2191:2215  voters[voter].weight = 1 */\n      dup2\n      swap1\n      sstore\n      pop\n        /* \"contracts/electionAntikode.sol\":1867:2222  function giveRightToVote(address voter) public {... */\n      pop\n      jump\t// out\n        /* \"contracts/electionAntikode.sol\":1017:1056  mapping(address => Voter) public voters */\n    tag_44:\n      mstore(0x20, 0x03)\n      dup1\n      0x00\n      mstore\n      keccak256(0x00, 0x40)\n      0x00\n      swap2\n      pop\n      swap1\n      pop\n      dup1\n      0x00\n      add\n      sload\n      swap1\n      dup1\n      0x01\n      add\n      0x00\n      swap1\n      sload\n      swap1\n      0x0100\n      exp\n      swap1\n      div\n      0xff\n      and\n      swap1\n      dup1\n      0x02\n      add\n      sload\n      swap1\n      pop\n      dup4\n      jump\t// out\n        /* \"contracts/electionAntikode.sol\":2228:2727  function definePeriod (uint startPeriod, uint endPeriod) public {... */\n    tag_50:\n        /* \"contracts/electionAntikode.sol\":2337:2348  chairperson */\n      0x00\n      0x01\n      swap1\n      sload\n      swap1\n      0x0100\n      exp\n      swap1\n      div\n      0xffffffffffffffffffffffffffffffffffffffff\n      and\n        /* \"contracts/electionAntikode.sol\":2323:2348  msg.sender == chairperson */\n      0xffffffffffffffffffffffffffffffffffffffff\n      and\n        /* \"contracts/electionAntikode.sol\":2323:2333  msg.sender */\n      caller\n        /* \"contracts/electionAntikode.sol\":2323:2348  msg.sender == chairperson */\n      0xffffffffffffffffffffffffffffffffffffffff\n      and\n      eq\n        /* \"contracts/electionAntikode.sol\":2302:2416  require(... */\n      tag_109\n      jumpi\n      mload(0x40)\n      0x08c379a000000000000000000000000000000000000000000000000000000000\n      dup2\n      mstore\n      0x04\n      add\n      tag_110\n      swap1\n      tag_111\n      jump\t// in\n    tag_110:\n      mload(0x40)\n      dup1\n      swap2\n      sub\n      swap1\n      revert\n    tag_109:\n        /* \"contracts/electionAntikode.sol\":2474:2483  1 minutes */\n      0x3c\n        /* \"contracts/electionAntikode.sol\":2460:2471  startPeriod */\n      dup3\n        /* \"contracts/electionAntikode.sol\":2460:2483  startPeriod * 1 minutes */\n      tag_112\n      swap2\n      swap1\n      tag_113\n      jump\t// in\n    tag_112:\n        /* \"contracts/electionAntikode.sol\":2441:2456  block.timestamp */\n      timestamp\n        /* \"contracts/electionAntikode.sol\":2441:2484  block.timestamp + (startPeriod * 1 minutes) */\n      tag_114\n      swap2\n      swap1\n      tag_78\n      jump\t// in\n    tag_114:\n        /* \"contracts/electionAntikode.sol\":2427:2438  votingStart */\n      0x01\n        /* \"contracts/electionAntikode.sol\":2427:2484  votingStart = block.timestamp + (startPeriod * 1 minutes) */\n      dup2\n      swap1\n      sstore\n      pop\n        /* \"contracts/electionAntikode.sol\":2537:2546  1 minutes */\n      0x3c\n        /* \"contracts/electionAntikode.sol\":2525:2534  endPeriod */\n      dup2\n        /* \"contracts/electionAntikode.sol\":2525:2546  endPeriod * 1 minutes */\n      tag_115\n      swap2\n      swap1\n      tag_113\n      jump\t// in\n    tag_115:\n        /* \"contracts/electionAntikode.sol\":2506:2521  block.timestamp */\n      timestamp\n        /* \"contracts/electionAntikode.sol\":2506:2547  block.timestamp + (endPeriod * 1 minutes) */\n      tag_116\n      swap2\n      swap1\n      tag_78\n      jump\t// in\n    tag_116:\n        /* \"contracts/electionAntikode.sol\":2494:2503  votingEnd */\n      0x02\n        /* \"contracts/electionAntikode.sol\":2494:2547  votingEnd = block.timestamp + (endPeriod * 1 minutes) */\n      dup2\n      swap1\n      sstore\n      pop\n        /* \"contracts/electionAntikode.sol\":2593:2594  0 */\n      0x00\n        /* \"contracts/electionAntikode.sol\":2579:2590  votingStart */\n      sload(0x01)\n        /* \"contracts/electionAntikode.sol\":2579:2594  votingStart > 0 */\n      gt\n        /* \"contracts/electionAntikode.sol\":2579:2621  votingStart > 0 && votingStart < votingEnd */\n      dup1\n      iszero\n      tag_117\n      jumpi\n      pop\n        /* \"contracts/electionAntikode.sol\":2612:2621  votingEnd */\n      sload(0x02)\n        /* \"contracts/electionAntikode.sol\":2598:2609  votingStart */\n      sload(0x01)\n        /* \"contracts/electionAntikode.sol\":2598:2621  votingStart < votingEnd */\n      lt\n        /* \"contracts/electionAntikode.sol\":2579:2621  votingStart > 0 && votingStart < votingEnd */\n    tag_117:\n        /* \"contracts/electionAntikode.sol\":2558:2720  require(... */\n      tag_118\n      jumpi\n      mload(0x40)\n      0x08c379a000000000000000000000000000000000000000000000000000000000\n      dup2\n      mstore\n      0x04\n      add\n      tag_119\n      swap1\n      tag_120\n      jump\t// in\n    tag_119:\n      mload(0x40)\n      dup1\n      swap2\n      sub\n      swap1\n      revert\n    tag_118:\n        /* \"contracts/electionAntikode.sol\":2228:2727  function definePeriod (uint startPeriod, uint endPeriod) public {... */\n      pop\n      pop\n      jump\t// out\n        /* \"contracts/electionAntikode.sol\":707:725  State public state */\n    tag_52:\n      0x00\n      dup1\n      sload\n      swap1\n      0x0100\n      exp\n      swap1\n      div\n      0xff\n      and\n      dup2\n      jump\t// out\n        /* \"contracts/electionAntikode.sol\":4293:4509  function winner() public view returns (string memory winnerName_, uint winnerCount_)... */\n    tag_56:\n        /* \"contracts/electionAntikode.sol\":4332:4357  string memory winnerName_ */\n      0x60\n        /* \"contracts/electionAntikode.sol\":4359:4376  uint winnerCount_ */\n      0x00\n        /* \"contracts/electionAntikode.sol\":4406:4415  proposals */\n      0x04\n        /* \"contracts/electionAntikode.sol\":4416:4433  winningProposal() */\n      tag_122\n        /* \"contracts/electionAntikode.sol\":4416:4431  winningProposal */\n      tag_33\n        /* \"contracts/electionAntikode.sol\":4416:4433  winningProposal() */\n      jump\t// in\n    tag_122:\n        /* \"contracts/electionAntikode.sol\":4406:4434  proposals[winningProposal()] */\n      dup2\n      sload\n      dup2\n      lt\n      tag_123\n      jumpi\n      tag_124\n      tag_75\n      jump\t// in\n    tag_124:\n    tag_123:\n      swap1\n      0x00\n      mstore\n      keccak256(0x00, 0x20)\n      swap1\n      0x02\n      mul\n      add\n        /* \"contracts/electionAntikode.sol\":4406:4439  proposals[winningProposal()].name */\n      0x00\n      add\n        /* \"contracts/electionAntikode.sol\":4392:4439  winnerName_ = proposals[winningProposal()].name */\n      dup1\n      sload\n      tag_126\n      swap1\n      tag_82\n      jump\t// in\n    tag_126:\n      dup1\n      0x1f\n      add\n      0x20\n      dup1\n      swap2\n      div\n      mul\n      0x20\n      add\n      mload(0x40)\n      swap1\n      dup2\n      add\n      0x40\n      mstore\n      dup1\n      swap3\n      swap2\n      swap1\n      dup2\n      dup2\n      mstore\n      0x20\n      add\n      dup3\n      dup1\n      sload\n      tag_127\n      swap1\n      tag_82\n      jump\t// in\n    tag_127:\n      dup1\n      iszero\n      tag_128\n      jumpi\n      dup1\n      0x1f\n      lt\n      tag_129\n      jumpi\n      0x0100\n      dup1\n      dup4\n      sload\n      div\n      mul\n      dup4\n      mstore\n      swap2\n      0x20\n      add\n      swap2\n      jump(tag_128)\n    tag_129:\n      dup3\n      add\n      swap2\n      swap1\n      0x00\n      mstore\n      keccak256(0x00, 0x20)\n      swap1\n    tag_130:\n      dup2\n      sload\n      dup2\n      mstore\n      swap1\n      0x01\n      add\n      swap1\n      0x20\n      add\n      dup1\n      dup4\n      gt\n      tag_130\n      jumpi\n      dup3\n      swap1\n      sub\n      0x1f\n      and\n      dup3\n      add\n      swap2\n    tag_128:\n      pop\n      pop\n      pop\n      pop\n      pop\n      swap2\n      pop\n        /* \"contracts/electionAntikode.sol\":4464:4473  proposals */\n      0x04\n        /* \"contracts/electionAntikode.sol\":4474:4491  winningProposal() */\n      tag_131\n        /* \"contracts/electionAntikode.sol\":4474:4489  winningProposal */\n      tag_33\n        /* \"contracts/electionAntikode.sol\":4474:4491  winningProposal() */\n      jump\t// in\n    tag_131:\n        /* \"contracts/electionAntikode.sol\":4464:4492  proposals[winningProposal()] */\n      dup2\n      sload\n      dup2\n      lt\n      tag_132\n      jumpi\n      tag_133\n      tag_75\n      jump\t// in\n    tag_133:\n    tag_132:\n      swap1\n      0x00\n      mstore\n      keccak256(0x00, 0x20)\n      swap1\n      0x02\n      mul\n      add\n        /* \"contracts/electionAntikode.sol\":4464:4502  proposals[winningProposal()].voteCount */\n      0x01\n      add\n      sload\n        /* \"contracts/electionAntikode.sol\":4449:4502  winnerCount_ = proposals[winningProposal()].voteCount */\n      swap1\n      pop\n        /* \"contracts/electionAntikode.sol\":4293:4509  function winner() public view returns (string memory winnerName_, uint winnerCount_)... */\n      swap1\n      swap2\n      jump\t// out\n        /* \"#utility.yul\":88:205   */\n    tag_136:\n        /* \"#utility.yul\":197:198   */\n      0x00\n        /* \"#utility.yul\":194:195   */\n      dup1\n        /* \"#utility.yul\":187:199   */\n      revert\n        /* \"#utility.yul\":334:411   */\n    tag_138:\n        /* \"#utility.yul\":371:378   */\n      0x00\n        /* \"#utility.yul\":400:405   */\n      dup2\n        /* \"#utility.yul\":389:405   */\n      swap1\n      pop\n        /* \"#utility.yul\":334:411   */\n      swap2\n      swap1\n      pop\n      jump\t// out\n        /* \"#utility.yul\":417:539   */\n    tag_139:\n        /* \"#utility.yul\":490:514   */\n      tag_183\n        /* \"#utility.yul\":508:513   */\n      dup2\n        /* \"#utility.yul\":490:514   */\n      tag_138\n      jump\t// in\n    tag_183:\n        /* \"#utility.yul\":483:488   */\n      dup2\n        /* \"#utility.yul\":480:515   */\n      eq\n        /* \"#utility.yul\":470:533   */\n      tag_184\n      jumpi\n        /* \"#utility.yul\":529:530   */\n      0x00\n        /* \"#utility.yul\":526:527   */\n      dup1\n        /* \"#utility.yul\":519:531   */\n      revert\n        /* \"#utility.yul\":470:533   */\n    tag_184:\n        /* \"#utility.yul\":417:539   */\n      pop\n      jump\t// out\n        /* \"#utility.yul\":545:684   */\n    tag_140:\n        /* \"#utility.yul\":591:596   */\n      0x00\n        /* \"#utility.yul\":629:635   */\n      dup2\n        /* \"#utility.yul\":616:636   */\n      calldataload\n        /* \"#utility.yul\":607:636   */\n      swap1\n      pop\n        /* \"#utility.yul\":645:678   */\n      tag_186\n        /* \"#utility.yul\":672:677   */\n      dup2\n        /* \"#utility.yul\":645:678   */\n      tag_139\n      jump\t// in\n    tag_186:\n        /* \"#utility.yul\":545:684   */\n      swap3\n      swap2\n      pop\n      pop\n      jump\t// out\n        /* \"#utility.yul\":690:1019   */\n    tag_17:\n        /* \"#utility.yul\":749:755   */\n      0x00\n        /* \"#utility.yul\":798:800   */\n      0x20\n        /* \"#utility.yul\":786:795   */\n      dup3\n        /* \"#utility.yul\":777:784   */\n      dup5\n        /* \"#utility.yul\":773:796   */\n      sub\n        /* \"#utility.yul\":769:801   */\n      slt\n        /* \"#utility.yul\":766:885   */\n      iszero\n      tag_188\n      jumpi\n        /* \"#utility.yul\":804:883   */\n      tag_189\n      tag_136\n      jump\t// in\n    tag_189:\n        /* \"#utility.yul\":766:885   */\n    tag_188:\n        /* \"#utility.yul\":924:925   */\n      0x00\n        /* \"#utility.yul\":949:1002   */\n      tag_190\n        /* \"#utility.yul\":994:1001   */\n      dup5\n        /* \"#utility.yul\":985:991   */\n      dup3\n        /* \"#utility.yul\":974:983   */\n      dup6\n        /* \"#utility.yul\":970:992   */\n      add\n        /* \"#utility.yul\":949:1002   */\n      tag_140\n      jump\t// in\n    tag_190:\n        /* \"#utility.yul\":939:1002   */\n      swap2\n      pop\n        /* \"#utility.yul\":895:1012   */\n      pop\n        /* \"#utility.yul\":690:1019   */\n      swap3\n      swap2\n      pop\n      pop\n      jump\t// out\n        /* \"#utility.yul\":1025:1124   */\n    tag_141:\n        /* \"#utility.yul\":1077:1083   */\n      0x00\n        /* \"#utility.yul\":1111:1116   */\n      dup2\n        /* \"#utility.yul\":1105:1117   */\n      mload\n        /* \"#utility.yul\":1095:1117   */\n      swap1\n      pop\n        /* \"#utility.yul\":1025:1124   */\n      swap2\n      swap1\n      pop\n      jump\t// out\n        /* \"#utility.yul\":1130:1299   */\n    tag_142:\n        /* \"#utility.yul\":1214:1225   */\n      0x00\n        /* \"#utility.yul\":1248:1254   */\n      dup3\n        /* \"#utility.yul\":1243:1246   */\n      dup3\n        /* \"#utility.yul\":1236:1255   */\n      mstore\n        /* \"#utility.yul\":1288:1292   */\n      0x20\n        /* \"#utility.yul\":1283:1286   */\n      dup3\n        /* \"#utility.yul\":1279:1293   */\n      add\n        /* \"#utility.yul\":1264:1293   */\n      swap1\n      pop\n        /* \"#utility.yul\":1130:1299   */\n      swap3\n      swap2\n      pop\n      pop\n      jump\t// out\n        /* \"#utility.yul\":1305:1612   */\n    tag_143:\n        /* \"#utility.yul\":1373:1374   */\n      0x00\n        /* \"#utility.yul\":1383:1496   */\n    tag_194:\n        /* \"#utility.yul\":1397:1403   */\n      dup4\n        /* \"#utility.yul\":1394:1395   */\n      dup2\n        /* \"#utility.yul\":1391:1404   */\n      lt\n        /* \"#utility.yul\":1383:1496   */\n      iszero\n      tag_196\n      jumpi\n        /* \"#utility.yul\":1482:1483   */\n      dup1\n        /* \"#utility.yul\":1477:1480   */\n      dup3\n        /* \"#utility.yul\":1473:1484   */\n      add\n        /* \"#utility.yul\":1467:1485   */\n      mload\n        /* \"#utility.yul\":1463:1464   */\n      dup2\n        /* \"#utility.yul\":1458:1461   */\n      dup5\n        /* \"#utility.yul\":1454:1465   */\n      add\n        /* \"#utility.yul\":1447:1486   */\n      mstore\n        /* \"#utility.yul\":1419:1421   */\n      0x20\n        /* \"#utility.yul\":1416:1417   */\n      dup2\n        /* \"#utility.yul\":1412:1422   */\n      add\n        /* \"#utility.yul\":1407:1422   */\n      swap1\n      pop\n        /* \"#utility.yul\":1383:1496   */\n      jump(tag_194)\n    tag_196:\n        /* \"#utility.yul\":1514:1520   */\n      dup4\n        /* \"#utility.yul\":1511:1512   */\n      dup2\n        /* \"#utility.yul\":1508:1521   */\n      gt\n        /* \"#utility.yul\":1505:1606   */\n      iszero\n      tag_197\n      jumpi\n        /* \"#utility.yul\":1594:1595   */\n      0x00\n        /* \"#utility.yul\":1585:1591   */\n      dup5\n        /* \"#utility.yul\":1580:1583   */\n      dup5\n        /* \"#utility.yul\":1576:1592   */\n      add\n        /* \"#utility.yul\":1569:1596   */\n      mstore\n        /* \"#utility.yul\":1505:1606   */\n    tag_197:\n        /* \"#utility.yul\":1354:1612   */\n      pop\n        /* \"#utility.yul\":1305:1612   */\n      pop\n      pop\n      pop\n      jump\t// out\n        /* \"#utility.yul\":1618:1720   */\n    tag_144:\n        /* \"#utility.yul\":1659:1665   */\n      0x00\n        /* \"#utility.yul\":1710:1712   */\n      0x1f\n        /* \"#utility.yul\":1706:1713   */\n      not\n        /* \"#utility.yul\":1701:1703   */\n      0x1f\n        /* \"#utility.yul\":1694:1699   */\n      dup4\n        /* \"#utility.yul\":1690:1704   */\n      add\n        /* \"#utility.yul\":1686:1714   */\n      and\n        /* \"#utility.yul\":1676:1714   */\n      swap1\n      pop\n        /* \"#utility.yul\":1618:1720   */\n      swap2\n      swap1\n      pop\n      jump\t// out\n        /* \"#utility.yul\":1726:2090   */\n    tag_145:\n        /* \"#utility.yul\":1814:1817   */\n      0x00\n        /* \"#utility.yul\":1842:1881   */\n      tag_200\n        /* \"#utility.yul\":1875:1880   */\n      dup3\n        /* \"#utility.yul\":1842:1881   */\n      tag_141\n      jump\t// in\n    tag_200:\n        /* \"#utility.yul\":1897:1968   */\n      tag_201\n        /* \"#utility.yul\":1961:1967   */\n      dup2\n        /* \"#utility.yul\":1956:1959   */\n      dup6\n        /* \"#utility.yul\":1897:1968   */\n      tag_142\n      jump\t// in\n    tag_201:\n        /* \"#utility.yul\":1890:1968   */\n      swap4\n      pop\n        /* \"#utility.yul\":1977:2029   */\n      tag_202\n        /* \"#utility.yul\":2022:2028   */\n      dup2\n        /* \"#utility.yul\":2017:2020   */\n      dup6\n        /* \"#utility.yul\":2010:2014   */\n      0x20\n        /* \"#utility.yul\":2003:2008   */\n      dup7\n        /* \"#utility.yul\":1999:2015   */\n      add\n        /* \"#utility.yul\":1977:2029   */\n      tag_143\n      jump\t// in\n    tag_202:\n        /* \"#utility.yul\":2054:2083   */\n      tag_203\n        /* \"#utility.yul\":2076:2082   */\n      dup2\n        /* \"#utility.yul\":2054:2083   */\n      tag_144\n      jump\t// in\n    tag_203:\n        /* \"#utility.yul\":2049:2052   */\n      dup5\n        /* \"#utility.yul\":2045:2084   */\n      add\n        /* \"#utility.yul\":2038:2084   */\n      swap2\n      pop\n        /* \"#utility.yul\":1818:2090   */\n      pop\n        /* \"#utility.yul\":1726:2090   */\n      swap3\n      swap2\n      pop\n      pop\n      jump\t// out\n        /* \"#utility.yul\":2096:2214   */\n    tag_146:\n        /* \"#utility.yul\":2183:2207   */\n      tag_205\n        /* \"#utility.yul\":2201:2206   */\n      dup2\n        /* \"#utility.yul\":2183:2207   */\n      tag_138\n      jump\t// in\n    tag_205:\n        /* \"#utility.yul\":2178:2181   */\n      dup3\n        /* \"#utility.yul\":2171:2208   */\n      mstore\n        /* \"#utility.yul\":2096:2214   */\n      pop\n      pop\n      jump\t// out\n        /* \"#utility.yul\":2220:2643   */\n    tag_23:\n        /* \"#utility.yul\":2361:2365   */\n      0x00\n        /* \"#utility.yul\":2399:2401   */\n      0x40\n        /* \"#utility.yul\":2388:2397   */\n      dup3\n        /* \"#utility.yul\":2384:2402   */\n      add\n        /* \"#utility.yul\":2376:2402   */\n      swap1\n      pop\n        /* \"#utility.yul\":2448:2457   */\n      dup2\n        /* \"#utility.yul\":2442:2446   */\n      dup2\n        /* \"#utility.yul\":2438:2458   */\n      sub\n        /* \"#utility.yul\":2434:2435   */\n      0x00\n        /* \"#utility.yul\":2423:2432   */\n      dup4\n        /* \"#utility.yul\":2419:2436   */\n      add\n        /* \"#utility.yul\":2412:2459   */\n      mstore\n        /* \"#utility.yul\":2476:2554   */\n      tag_207\n        /* \"#utility.yul\":2549:2553   */\n      dup2\n        /* \"#utility.yul\":2540:2546   */\n      dup6\n        /* \"#utility.yul\":2476:2554   */\n      tag_145\n      jump\t// in\n    tag_207:\n        /* \"#utility.yul\":2468:2554   */\n      swap1\n      pop\n        /* \"#utility.yul\":2564:2636   */\n      tag_208\n        /* \"#utility.yul\":2632:2634   */\n      0x20\n        /* \"#utility.yul\":2621:2630   */\n      dup4\n        /* \"#utility.yul\":2617:2635   */\n      add\n        /* \"#utility.yul\":2608:2614   */\n      dup5\n        /* \"#utility.yul\":2564:2636   */\n      tag_146\n      jump\t// in\n    tag_208:\n        /* \"#utility.yul\":2220:2643   */\n      swap4\n      swap3\n      pop\n      pop\n      pop\n      jump\t// out\n        /* \"#utility.yul\":2649:2871   */\n    tag_27:\n        /* \"#utility.yul\":2742:2746   */\n      0x00\n        /* \"#utility.yul\":2780:2782   */\n      0x20\n        /* \"#utility.yul\":2769:2778   */\n      dup3\n        /* \"#utility.yul\":2765:2783   */\n      add\n        /* \"#utility.yul\":2757:2783   */\n      swap1\n      pop\n        /* \"#utility.yul\":2793:2864   */\n      tag_210\n        /* \"#utility.yul\":2861:2862   */\n      0x00\n        /* \"#utility.yul\":2850:2859   */\n      dup4\n        /* \"#utility.yul\":2846:2863   */\n      add\n        /* \"#utility.yul\":2837:2843   */\n      dup5\n        /* \"#utility.yul\":2793:2864   */\n      tag_146\n      jump\t// in\n    tag_210:\n        /* \"#utility.yul\":2649:2871   */\n      swap3\n      swap2\n      pop\n      pop\n      jump\t// out\n        /* \"#utility.yul\":2877:3003   */\n    tag_147:\n        /* \"#utility.yul\":2914:2921   */\n      0x00\n        /* \"#utility.yul\":2954:2996   */\n      0xffffffffffffffffffffffffffffffffffffffff\n        /* \"#utility.yul\":2947:2952   */\n      dup3\n        /* \"#utility.yul\":2943:2997   */\n      and\n        /* \"#utility.yul\":2932:2997   */\n      swap1\n      pop\n        /* \"#utility.yul\":2877:3003   */\n      swap2\n      swap1\n      pop\n      jump\t// out\n        /* \"#utility.yul\":3009:3105   */\n    tag_148:\n        /* \"#utility.yul\":3046:3053   */\n      0x00\n        /* \"#utility.yul\":3075:3099   */\n      tag_213\n        /* \"#utility.yul\":3093:3098   */\n      dup3\n        /* \"#utility.yul\":3075:3099   */\n      tag_147\n      jump\t// in\n    tag_213:\n        /* \"#utility.yul\":3064:3099   */\n      swap1\n      pop\n        /* \"#utility.yul\":3009:3105   */\n      swap2\n      swap1\n      pop\n      jump\t// out\n        /* \"#utility.yul\":3111:3229   */\n    tag_149:\n        /* \"#utility.yul\":3198:3222   */\n      tag_215\n        /* \"#utility.yul\":3216:3221   */\n      dup2\n        /* \"#utility.yul\":3198:3222   */\n      tag_148\n      jump\t// in\n    tag_215:\n        /* \"#utility.yul\":3193:3196   */\n      dup3\n        /* \"#utility.yul\":3186:3223   */\n      mstore\n        /* \"#utility.yul\":3111:3229   */\n      pop\n      pop\n      jump\t// out\n        /* \"#utility.yul\":3235:3457   */\n    tag_31:\n        /* \"#utility.yul\":3328:3332   */\n      0x00\n        /* \"#utility.yul\":3366:3368   */\n      0x20\n        /* \"#utility.yul\":3355:3364   */\n      dup3\n        /* \"#utility.yul\":3351:3369   */\n      add\n        /* \"#utility.yul\":3343:3369   */\n      swap1\n      pop\n        /* \"#utility.yul\":3379:3450   */\n      tag_217\n        /* \"#utility.yul\":3447:3448   */\n      0x00\n        /* \"#utility.yul\":3436:3445   */\n      dup4\n        /* \"#utility.yul\":3432:3449   */\n      add\n        /* \"#utility.yul\":3423:3429   */\n      dup5\n        /* \"#utility.yul\":3379:3450   */\n      tag_149\n      jump\t// in\n    tag_217:\n        /* \"#utility.yul\":3235:3457   */\n      swap3\n      swap2\n      pop\n      pop\n      jump\t// out\n        /* \"#utility.yul\":3463:3585   */\n    tag_150:\n        /* \"#utility.yul\":3536:3560   */\n      tag_219\n        /* \"#utility.yul\":3554:3559   */\n      dup2\n        /* \"#utility.yul\":3536:3560   */\n      tag_148\n      jump\t// in\n    tag_219:\n        /* \"#utility.yul\":3529:3534   */\n      dup2\n        /* \"#utility.yul\":3526:3561   */\n      eq\n        /* \"#utility.yul\":3516:3579   */\n      tag_220\n      jumpi\n        /* \"#utility.yul\":3575:3576   */\n      0x00\n        /* \"#utility.yul\":3572:3573   */\n      dup1\n        /* \"#utility.yul\":3565:3577   */\n      revert\n        /* \"#utility.yul\":3516:3579   */\n    tag_220:\n        /* \"#utility.yul\":3463:3585   */\n      pop\n      jump\t// out\n        /* \"#utility.yul\":3591:3730   */\n    tag_151:\n        /* \"#utility.yul\":3637:3642   */\n      0x00\n        /* \"#utility.yul\":3675:3681   */\n      dup2\n        /* \"#utility.yul\":3662:3682   */\n      calldataload\n        /* \"#utility.yul\":3653:3682   */\n      swap1\n      pop\n        /* \"#utility.yul\":3691:3724   */\n      tag_222\n        /* \"#utility.yul\":3718:3723   */\n      dup2\n        /* \"#utility.yul\":3691:3724   */\n      tag_150\n      jump\t// in\n    tag_222:\n        /* \"#utility.yul\":3591:3730   */\n      swap3\n      swap2\n      pop\n      pop\n      jump\t// out\n        /* \"#utility.yul\":3736:4065   */\n    tag_40:\n        /* \"#utility.yul\":3795:3801   */\n      0x00\n        /* \"#utility.yul\":3844:3846   */\n      0x20\n        /* \"#utility.yul\":3832:3841   */\n      dup3\n        /* \"#utility.yul\":3823:3830   */\n      dup5\n        /* \"#utility.yul\":3819:3842   */\n      sub\n        /* \"#utility.yul\":3815:3847   */\n      slt\n        /* \"#utility.yul\":3812:3931   */\n      iszero\n      tag_224\n      jumpi\n        /* \"#utility.yul\":3850:3929   */\n      tag_225\n      tag_136\n      jump\t// in\n    tag_225:\n        /* \"#utility.yul\":3812:3931   */\n    tag_224:\n        /* \"#utility.yul\":3970:3971   */\n      0x00\n        /* \"#utility.yul\":3995:4048   */\n      tag_226\n        /* \"#utility.yul\":4040:4047   */\n      dup5\n        /* \"#utility.yul\":4031:4037   */\n      dup3\n        /* \"#utility.yul\":4020:4029   */\n      dup6\n        /* \"#utility.yul\":4016:4038   */\n      add\n        /* \"#utility.yul\":3995:4048   */\n      tag_151\n      jump\t// in\n    tag_226:\n        /* \"#utility.yul\":3985:4048   */\n      swap2\n      pop\n        /* \"#utility.yul\":3941:4058   */\n      pop\n        /* \"#utility.yul\":3736:4065   */\n      swap3\n      swap2\n      pop\n      pop\n      jump\t// out\n        /* \"#utility.yul\":4071:4161   */\n    tag_152:\n        /* \"#utility.yul\":4105:4112   */\n      0x00\n        /* \"#utility.yul\":4148:4153   */\n      dup2\n        /* \"#utility.yul\":4141:4154   */\n      iszero\n        /* \"#utility.yul\":4134:4155   */\n      iszero\n        /* \"#utility.yul\":4123:4155   */\n      swap1\n      pop\n        /* \"#utility.yul\":4071:4161   */\n      swap2\n      swap1\n      pop\n      jump\t// out\n        /* \"#utility.yul\":4167:4276   */\n    tag_153:\n        /* \"#utility.yul\":4248:4269   */\n      tag_229\n        /* \"#utility.yul\":4263:4268   */\n      dup2\n        /* \"#utility.yul\":4248:4269   */\n      tag_152\n      jump\t// in\n    tag_229:\n        /* \"#utility.yul\":4243:4246   */\n      dup3\n        /* \"#utility.yul\":4236:4270   */\n      mstore\n        /* \"#utility.yul\":4167:4276   */\n      pop\n      pop\n      jump\t// out\n        /* \"#utility.yul\":4282:4712   */\n    tag_46:\n        /* \"#utility.yul\":4425:4429   */\n      0x00\n        /* \"#utility.yul\":4463:4465   */\n      0x60\n        /* \"#utility.yul\":4452:4461   */\n      dup3\n        /* \"#utility.yul\":4448:4466   */\n      add\n        /* \"#utility.yul\":4440:4466   */\n      swap1\n      pop\n        /* \"#utility.yul\":4476:4547   */\n      tag_231\n        /* \"#utility.yul\":4544:4545   */\n      0x00\n        /* \"#utility.yul\":4533:4542   */\n      dup4\n        /* \"#utility.yul\":4529:4546   */\n      add\n        /* \"#utility.yul\":4520:4526   */\n      dup7\n        /* \"#utility.yul\":4476:4547   */\n      tag_146\n      jump\t// in\n    tag_231:\n        /* \"#utility.yul\":4557:4623   */\n      tag_232\n        /* \"#utility.yul\":4619:4621   */\n      0x20\n        /* \"#utility.yul\":4608:4617   */\n      dup4\n        /* \"#utility.yul\":4604:4622   */\n      add\n        /* \"#utility.yul\":4595:4601   */\n      dup6\n        /* \"#utility.yul\":4557:4623   */\n      tag_153\n      jump\t// in\n    tag_232:\n        /* \"#utility.yul\":4633:4705   */\n      tag_233\n        /* \"#utility.yul\":4701:4703   */\n      0x40\n        /* \"#utility.yul\":4690:4699   */\n      dup4\n        /* \"#utility.yul\":4686:4704   */\n      add\n        /* \"#utility.yul\":4677:4683   */\n      dup5\n        /* \"#utility.yul\":4633:4705   */\n      tag_146\n      jump\t// in\n    tag_233:\n        /* \"#utility.yul\":4282:4712   */\n      swap5\n      swap4\n      pop\n      pop\n      pop\n      pop\n      jump\t// out\n        /* \"#utility.yul\":4718:5192   */\n    tag_49:\n        /* \"#utility.yul\":4786:4792   */\n      0x00\n        /* \"#utility.yul\":4794:4800   */\n      dup1\n        /* \"#utility.yul\":4843:4845   */\n      0x40\n        /* \"#utility.yul\":4831:4840   */\n      dup4\n        /* \"#utility.yul\":4822:4829   */\n      dup6\n        /* \"#utility.yul\":4818:4841   */\n      sub\n        /* \"#utility.yul\":4814:4846   */\n      slt\n        /* \"#utility.yul\":4811:4930   */\n      iszero\n      tag_235\n      jumpi\n        /* \"#utility.yul\":4849:4928   */\n      tag_236\n      tag_136\n      jump\t// in\n    tag_236:\n        /* \"#utility.yul\":4811:4930   */\n    tag_235:\n        /* \"#utility.yul\":4969:4970   */\n      0x00\n        /* \"#utility.yul\":4994:5047   */\n      tag_237\n        /* \"#utility.yul\":5039:5046   */\n      dup6\n        /* \"#utility.yul\":5030:5036   */\n      dup3\n        /* \"#utility.yul\":5019:5028   */\n      dup7\n        /* \"#utility.yul\":5015:5037   */\n      add\n        /* \"#utility.yul\":4994:5047   */\n      tag_140\n      jump\t// in\n    tag_237:\n        /* \"#utility.yul\":4984:5047   */\n      swap3\n      pop\n        /* \"#utility.yul\":4940:5057   */\n      pop\n        /* \"#utility.yul\":5096:5098   */\n      0x20\n        /* \"#utility.yul\":5122:5175   */\n      tag_238\n        /* \"#utility.yul\":5167:5174   */\n      dup6\n        /* \"#utility.yul\":5158:5164   */\n      dup3\n        /* \"#utility.yul\":5147:5156   */\n      dup7\n        /* \"#utility.yul\":5143:5165   */\n      add\n        /* \"#utility.yul\":5122:5175   */\n      tag_140\n      jump\t// in\n    tag_238:\n        /* \"#utility.yul\":5112:5175   */\n      swap2\n      pop\n        /* \"#utility.yul\":5067:5185   */\n      pop\n        /* \"#utility.yul\":4718:5192   */\n      swap3\n      pop\n      swap3\n      swap1\n      pop\n      jump\t// out\n        /* \"#utility.yul\":5198:5378   */\n    tag_154:\n        /* \"#utility.yul\":5246:5323   */\n      0x4e487b7100000000000000000000000000000000000000000000000000000000\n        /* \"#utility.yul\":5243:5244   */\n      0x00\n        /* \"#utility.yul\":5236:5324   */\n      mstore\n        /* \"#utility.yul\":5343:5347   */\n      0x21\n        /* \"#utility.yul\":5340:5341   */\n      0x04\n        /* \"#utility.yul\":5333:5348   */\n      mstore\n        /* \"#utility.yul\":5367:5371   */\n      0x24\n        /* \"#utility.yul\":5364:5365   */\n      0x00\n        /* \"#utility.yul\":5357:5372   */\n      revert\n        /* \"#utility.yul\":5384:5497   */\n    tag_155:\n        /* \"#utility.yul\":5465:5466   */\n      0x03\n        /* \"#utility.yul\":5458:5463   */\n      dup2\n        /* \"#utility.yul\":5455:5467   */\n      lt\n        /* \"#utility.yul\":5445:5491   */\n      tag_241\n      jumpi\n        /* \"#utility.yul\":5471:5489   */\n      tag_242\n      tag_154\n      jump\t// in\n    tag_242:\n        /* \"#utility.yul\":5445:5491   */\n    tag_241:\n        /* \"#utility.yul\":5384:5497   */\n      pop\n      jump\t// out\n        /* \"#utility.yul\":5503:5630   */\n    tag_156:\n        /* \"#utility.yul\":5548:5555   */\n      0x00\n        /* \"#utility.yul\":5577:5582   */\n      dup2\n        /* \"#utility.yul\":5566:5582   */\n      swap1\n      pop\n        /* \"#utility.yul\":5583:5624   */\n      tag_244\n        /* \"#utility.yul\":5618:5623   */\n      dup3\n        /* \"#utility.yul\":5583:5624   */\n      tag_155\n      jump\t// in\n    tag_244:\n        /* \"#utility.yul\":5503:5630   */\n      swap2\n      swap1\n      pop\n      jump\t// out\n        /* \"#utility.yul\":5636:5763   */\n    tag_157:\n        /* \"#utility.yul\":5692:5701   */\n      0x00\n        /* \"#utility.yul\":5725:5757   */\n      tag_246\n        /* \"#utility.yul\":5751:5756   */\n      dup3\n        /* \"#utility.yul\":5725:5757   */\n      tag_156\n      jump\t// in\n    tag_246:\n        /* \"#utility.yul\":5712:5757   */\n      swap1\n      pop\n        /* \"#utility.yul\":5636:5763   */\n      swap2\n      swap1\n      pop\n      jump\t// out\n        /* \"#utility.yul\":5769:5912   */\n    tag_158:\n        /* \"#utility.yul\":5862:5905   */\n      tag_248\n        /* \"#utility.yul\":5899:5904   */\n      dup2\n        /* \"#utility.yul\":5862:5905   */\n      tag_157\n      jump\t// in\n    tag_248:\n        /* \"#utility.yul\":5857:5860   */\n      dup3\n        /* \"#utility.yul\":5850:5906   */\n      mstore\n        /* \"#utility.yul\":5769:5912   */\n      pop\n      pop\n      jump\t// out\n        /* \"#utility.yul\":5918:6152   */\n    tag_54:\n        /* \"#utility.yul\":6017:6021   */\n      0x00\n        /* \"#utility.yul\":6055:6057   */\n      0x20\n        /* \"#utility.yul\":6044:6053   */\n      dup3\n        /* \"#utility.yul\":6040:6058   */\n      add\n        /* \"#utility.yul\":6032:6058   */\n      swap1\n      pop\n        /* \"#utility.yul\":6068:6145   */\n      tag_250\n        /* \"#utility.yul\":6142:6143   */\n      0x00\n        /* \"#utility.yul\":6131:6140   */\n      dup4\n        /* \"#utility.yul\":6127:6144   */\n      add\n        /* \"#utility.yul\":6118:6124   */\n      dup5\n        /* \"#utility.yul\":6068:6145   */\n      tag_158\n      jump\t// in\n    tag_250:\n        /* \"#utility.yul\":5918:6152   */\n      swap3\n      swap2\n      pop\n      pop\n      jump\t// out\n        /* \"#utility.yul\":6158:6329   */\n    tag_159:\n        /* \"#utility.yul\":6298:6321   */\n      0x566f7465206e6f74207374617274656420796574210000000000000000000000\n        /* \"#utility.yul\":6294:6295   */\n      0x00\n        /* \"#utility.yul\":6286:6292   */\n      dup3\n        /* \"#utility.yul\":6282:6296   */\n      add\n        /* \"#utility.yul\":6275:6322   */\n      mstore\n        /* \"#utility.yul\":6158:6329   */\n      pop\n      jump\t// out\n        /* \"#utility.yul\":6335:6701   */\n    tag_160:\n        /* \"#utility.yul\":6477:6480   */\n      0x00\n        /* \"#utility.yul\":6498:6565   */\n      tag_253\n        /* \"#utility.yul\":6562:6564   */\n      0x15\n        /* \"#utility.yul\":6557:6560   */\n      dup4\n        /* \"#utility.yul\":6498:6565   */\n      tag_142\n      jump\t// in\n    tag_253:\n        /* \"#utility.yul\":6491:6565   */\n      swap2\n      pop\n        /* \"#utility.yul\":6574:6667   */\n      tag_254\n        /* \"#utility.yul\":6663:6666   */\n      dup3\n        /* \"#utility.yul\":6574:6667   */\n      tag_159\n      jump\t// in\n    tag_254:\n        /* \"#utility.yul\":6692:6694   */\n      0x20\n        /* \"#utility.yul\":6687:6690   */\n      dup3\n        /* \"#utility.yul\":6683:6695   */\n      add\n        /* \"#utility.yul\":6676:6695   */\n      swap1\n      pop\n        /* \"#utility.yul\":6335:6701   */\n      swap2\n      swap1\n      pop\n      jump\t// out\n        /* \"#utility.yul\":6707:7126   */\n    tag_62:\n        /* \"#utility.yul\":6873:6877   */\n      0x00\n        /* \"#utility.yul\":6911:6913   */\n      0x20\n        /* \"#utility.yul\":6900:6909   */\n      dup3\n        /* \"#utility.yul\":6896:6914   */\n      add\n        /* \"#utility.yul\":6888:6914   */\n      swap1\n      pop\n        /* \"#utility.yul\":6960:6969   */\n      dup2\n        /* \"#utility.yul\":6954:6958   */\n      dup2\n        /* \"#utility.yul\":6950:6970   */\n      sub\n        /* \"#utility.yul\":6946:6947   */\n      0x00\n        /* \"#utility.yul\":6935:6944   */\n      dup4\n        /* \"#utility.yul\":6931:6948   */\n      add\n        /* \"#utility.yul\":6924:6971   */\n      mstore\n        /* \"#utility.yul\":6988:7119   */\n      tag_256\n        /* \"#utility.yul\":7114:7118   */\n      dup2\n        /* \"#utility.yul\":6988:7119   */\n      tag_160\n      jump\t// in\n    tag_256:\n        /* \"#utility.yul\":6980:7119   */\n      swap1\n      pop\n        /* \"#utility.yul\":6707:7126   */\n      swap2\n      swap1\n      pop\n      jump\t// out\n        /* \"#utility.yul\":7132:7297   */\n    tag_161:\n        /* \"#utility.yul\":7272:7289   */\n      0x566f74652068617320656e646564210000000000000000000000000000000000\n        /* \"#utility.yul\":7268:7269   */\n      0x00\n        /* \"#utility.yul\":7260:7266   */\n      dup3\n        /* \"#utility.yul\":7256:7270   */\n      add\n        /* \"#utility.yul\":7249:7290   */\n      mstore\n        /* \"#utility.yul\":7132:7297   */\n      pop\n      jump\t// out\n        /* \"#utility.yul\":7303:7669   */\n    tag_162:\n        /* \"#utility.yul\":7445:7448   */\n      0x00\n        /* \"#utility.yul\":7466:7533   */\n      tag_259\n        /* \"#utility.yul\":7530:7532   */\n      0x0f\n        /* \"#utility.yul\":7525:7528   */\n      dup4\n        /* \"#utility.yul\":7466:7533   */\n      tag_142\n      jump\t// in\n    tag_259:\n        /* \"#utility.yul\":7459:7533   */\n      swap2\n      pop\n        /* \"#utility.yul\":7542:7635   */\n      tag_260\n        /* \"#utility.yul\":7631:7634   */\n      dup3\n        /* \"#utility.yul\":7542:7635   */\n      tag_161\n      jump\t// in\n    tag_260:\n        /* \"#utility.yul\":7660:7662   */\n      0x20\n        /* \"#utility.yul\":7655:7658   */\n      dup3\n        /* \"#utility.yul\":7651:7663   */\n      add\n        /* \"#utility.yul\":7644:7663   */\n      swap1\n      pop\n        /* \"#utility.yul\":7303:7669   */\n      swap2\n      swap1\n      pop\n      jump\t// out\n        /* \"#utility.yul\":7675:8094   */\n    tag_66:\n        /* \"#utility.yul\":7841:7845   */\n      0x00\n        /* \"#utility.yul\":7879:7881   */\n      0x20\n        /* \"#utility.yul\":7868:7877   */\n      dup3\n        /* \"#utility.yul\":7864:7882   */\n      add\n        /* \"#utility.yul\":7856:7882   */\n      swap1\n      pop\n        /* \"#utility.yul\":7928:7937   */\n      dup2\n        /* \"#utility.yul\":7922:7926   */\n      dup2\n        /* \"#utility.yul\":7918:7938   */\n      sub\n        /* \"#utility.yul\":7914:7915   */\n      0x00\n        /* \"#utility.yul\":7903:7912   */\n      dup4\n        /* \"#utility.yul\":7899:7916   */\n      add\n        /* \"#utility.yul\":7892:7939   */\n      mstore\n        /* \"#utility.yul\":7956:8087   */\n      tag_262\n        /* \"#utility.yul\":8082:8086   */\n      dup2\n        /* \"#utility.yul\":7956:8087   */\n      tag_162\n      jump\t// in\n    tag_262:\n        /* \"#utility.yul\":7948:8087   */\n      swap1\n      pop\n        /* \"#utility.yul\":7675:8094   */\n      swap2\n      swap1\n      pop\n      jump\t// out\n        /* \"#utility.yul\":8100:8270   */\n    tag_163:\n        /* \"#utility.yul\":8240:8262   */\n      0x486173206e6f20726967687420746f20766f7465000000000000000000000000\n        /* \"#utility.yul\":8236:8237   */\n      0x00\n        /* \"#utility.yul\":8228:8234   */\n      dup3\n        /* \"#utility.yul\":8224:8238   */\n      add\n        /* \"#utility.yul\":8217:8263   */\n      mstore\n        /* \"#utility.yul\":8100:8270   */\n      pop\n      jump\t// out\n        /* \"#utility.yul\":8276:8642   */\n    tag_164:\n        /* \"#utility.yul\":8418:8421   */\n      0x00\n        /* \"#utility.yul\":8439:8506   */\n      tag_265\n        /* \"#utility.yul\":8503:8505   */\n      0x14\n        /* \"#utility.yul\":8498:8501   */\n      dup4\n        /* \"#utility.yul\":8439:8506   */\n      tag_142\n      jump\t// in\n    tag_265:\n        /* \"#utility.yul\":8432:8506   */\n      swap2\n      pop\n        /* \"#utility.yul\":8515:8608   */\n      tag_266\n        /* \"#utility.yul\":8604:8607   */\n      dup3\n        /* \"#utility.yul\":8515:8608   */\n      tag_163\n      jump\t// in\n    tag_266:\n        /* \"#utility.yul\":8633:8635   */\n      0x20\n        /* \"#utility.yul\":8628:8631   */\n      dup3\n        /* \"#utility.yul\":8624:8636   */\n      add\n        /* \"#utility.yul\":8617:8636   */\n      swap1\n      pop\n        /* \"#utility.yul\":8276:8642   */\n      swap2\n      swap1\n      pop\n      jump\t// out\n        /* \"#utility.yul\":8648:9067   */\n    tag_69:\n        /* \"#utility.yul\":8814:8818   */\n      0x00\n        /* \"#utility.yul\":8852:8854   */\n      0x20\n        /* \"#utility.yul\":8841:8850   */\n      dup3\n        /* \"#utility.yul\":8837:8855   */\n      add\n        /* \"#utility.yul\":8829:8855   */\n      swap1\n      pop\n        /* \"#utility.yul\":8901:8910   */\n      dup2\n        /* \"#utility.yul\":8895:8899   */\n      dup2\n        /* \"#utility.yul\":8891:8911   */\n      sub\n        /* \"#utility.yul\":8887:8888   */\n      0x00\n        /* \"#utility.yul\":8876:8885   */\n      dup4\n        /* \"#utility.yul\":8872:8889   */\n      add\n        /* \"#utility.yul\":8865:8912   */\n      mstore\n        /* \"#utility.yul\":8929:9060   */\n      tag_268\n        /* \"#utility.yul\":9055:9059   */\n      dup2\n        /* \"#utility.yul\":8929:9060   */\n      tag_164\n      jump\t// in\n    tag_268:\n        /* \"#utility.yul\":8921:9060   */\n      swap1\n      pop\n        /* \"#utility.yul\":8648:9067   */\n      swap2\n      swap1\n      pop\n      jump\t// out\n        /* \"#utility.yul\":9073:9237   */\n    tag_165:\n        /* \"#utility.yul\":9213:9229   */\n      0x416c726561647920766f7465642e000000000000000000000000000000000000\n        /* \"#utility.yul\":9209:9210   */\n      0x00\n        /* \"#utility.yul\":9201:9207   */\n      dup3\n        /* \"#utility.yul\":9197:9211   */\n      add\n        /* \"#utility.yul\":9190:9230   */\n      mstore\n        /* \"#utility.yul\":9073:9237   */\n      pop\n      jump\t// out\n        /* \"#utility.yul\":9243:9609   */\n    tag_166:\n        /* \"#utility.yul\":9385:9388   */\n      0x00\n        /* \"#utility.yul\":9406:9473   */\n      tag_271\n        /* \"#utility.yul\":9470:9472   */\n      0x0e\n        /* \"#utility.yul\":9465:9468   */\n      dup4\n        /* \"#utility.yul\":9406:9473   */\n      tag_142\n      jump\t// in\n    tag_271:\n        /* \"#utility.yul\":9399:9473   */\n      swap2\n      pop\n        /* \"#utility.yul\":9482:9575   */\n      tag_272\n        /* \"#utility.yul\":9571:9574   */\n      dup3\n        /* \"#utility.yul\":9482:9575   */\n      tag_165\n      jump\t// in\n    tag_272:\n        /* \"#utility.yul\":9600:9602   */\n      0x20\n        /* \"#utility.yul\":9595:9598   */\n      dup3\n        /* \"#utility.yul\":9591:9603   */\n      add\n        /* \"#utility.yul\":9584:9603   */\n      swap1\n      pop\n        /* \"#utility.yul\":9243:9609   */\n      swap2\n      swap1\n      pop\n      jump\t// out\n        /* \"#utility.yul\":9615:10034   */\n    tag_72:\n        /* \"#utility.yul\":9781:9785   */\n      0x00\n        /* \"#utility.yul\":9819:9821   */\n      0x20\n        /* \"#utility.yul\":9808:9817   */\n      dup3\n        /* \"#utility.yul\":9804:9822   */\n      add\n        /* \"#utility.yul\":9796:9822   */\n      swap1\n      pop\n        /* \"#utility.yul\":9868:9877   */\n      dup2\n        /* \"#utility.yul\":9862:9866   */\n      dup2\n        /* \"#utility.yul\":9858:9878   */\n      sub\n        /* \"#utility.yul\":9854:9855   */\n      0x00\n        /* \"#utility.yul\":9843:9852   */\n      dup4\n        /* \"#utility.yul\":9839:9856   */\n      add\n        /* \"#utility.yul\":9832:9879   */\n      mstore\n        /* \"#utility.yul\":9896:10027   */\n      tag_274\n        /* \"#utility.yul\":10022:10026   */\n      dup2\n        /* \"#utility.yul\":9896:10027   */\n      tag_166\n      jump\t// in\n    tag_274:\n        /* \"#utility.yul\":9888:10027   */\n      swap1\n      pop\n        /* \"#utility.yul\":9615:10034   */\n      swap2\n      swap1\n      pop\n      jump\t// out\n        /* \"#utility.yul\":10040:10220   */\n    tag_75:\n        /* \"#utility.yul\":10088:10165   */\n      0x4e487b7100000000000000000000000000000000000000000000000000000000\n        /* \"#utility.yul\":10085:10086   */\n      0x00\n        /* \"#utility.yul\":10078:10166   */\n      mstore\n        /* \"#utility.yul\":10185:10189   */\n      0x32\n        /* \"#utility.yul\":10182:10183   */\n      0x04\n        /* \"#utility.yul\":10175:10190   */\n      mstore\n        /* \"#utility.yul\":10209:10213   */\n      0x24\n        /* \"#utility.yul\":10206:10207   */\n      0x00\n        /* \"#utility.yul\":10199:10214   */\n      revert\n        /* \"#utility.yul\":10226:10406   */\n    tag_167:\n        /* \"#utility.yul\":10274:10351   */\n      0x4e487b7100000000000000000000000000000000000000000000000000000000\n        /* \"#utility.yul\":10271:10272   */\n      0x00\n        /* \"#utility.yul\":10264:10352   */\n      mstore\n        /* \"#utility.yul\":10371:10375   */\n      0x11\n        /* \"#utility.yul\":10368:10369   */\n      0x04\n        /* \"#utility.yul\":10361:10376   */\n      mstore\n        /* \"#utility.yul\":10395:10399   */\n      0x24\n        /* \"#utility.yul\":10392:10393   */\n      0x00\n        /* \"#utility.yul\":10385:10400   */\n      revert\n        /* \"#utility.yul\":10412:10717   */\n    tag_78:\n        /* \"#utility.yul\":10452:10455   */\n      0x00\n        /* \"#utility.yul\":10471:10491   */\n      tag_278\n        /* \"#utility.yul\":10489:10490   */\n      dup3\n        /* \"#utility.yul\":10471:10491   */\n      tag_138\n      jump\t// in\n    tag_278:\n        /* \"#utility.yul\":10466:10491   */\n      swap2\n      pop\n        /* \"#utility.yul\":10505:10525   */\n      tag_279\n        /* \"#utility.yul\":10523:10524   */\n      dup4\n        /* \"#utility.yul\":10505:10525   */\n      tag_138\n      jump\t// in\n    tag_279:\n        /* \"#utility.yul\":10500:10525   */\n      swap3\n      pop\n        /* \"#utility.yul\":10659:10660   */\n      dup3\n        /* \"#utility.yul\":10591:10657   */\n      0xffffffffffffffffffffffffffffffffffffffffffffffffffffffffffffffff\n        /* \"#utility.yul\":10587:10661   */\n      sub\n        /* \"#utility.yul\":10584:10585   */\n      dup3\n        /* \"#utility.yul\":10581:10662   */\n      gt\n        /* \"#utility.yul\":10578:10685   */\n      iszero\n      tag_280\n      jumpi\n        /* \"#utility.yul\":10665:10683   */\n      tag_281\n      tag_167\n      jump\t// in\n    tag_281:\n        /* \"#utility.yul\":10578:10685   */\n    tag_280:\n        /* \"#utility.yul\":10709:10710   */\n      dup3\n        /* \"#utility.yul\":10706:10707   */\n      dup3\n        /* \"#utility.yul\":10702:10711   */\n      add\n        /* \"#utility.yul\":10695:10711   */\n      swap1\n      pop\n        /* \"#utility.yul\":10412:10717   */\n      swap3\n      swap2\n      pop\n      pop\n      jump\t// out\n        /* \"#utility.yul\":10723:10903   */\n    tag_168:\n        /* \"#utility.yul\":10771:10848   */\n      0x4e487b7100000000000000000000000000000000000000000000000000000000\n        /* \"#utility.yul\":10768:10769   */\n      0x00\n        /* \"#utility.yul\":10761:10849   */\n      mstore\n        /* \"#utility.yul\":10868:10872   */\n      0x22\n        /* \"#utility.yul\":10865:10866   */\n      0x04\n        /* \"#utility.yul\":10858:10873   */\n      mstore\n        /* \"#utility.yul\":10892:10896   */\n      0x24\n        /* \"#utility.yul\":10889:10890   */\n      0x00\n        /* \"#utility.yul\":10882:10897   */\n      revert\n        /* \"#utility.yul\":10909:11229   */\n    tag_82:\n        /* \"#utility.yul\":10953:10959   */\n      0x00\n        /* \"#utility.yul\":10990:10991   */\n      0x02\n        /* \"#utility.yul\":10984:10988   */\n      dup3\n        /* \"#utility.yul\":10980:10992   */\n      div\n        /* \"#utility.yul\":10970:10992   */\n      swap1\n      pop\n        /* \"#utility.yul\":11037:11038   */\n      0x01\n        /* \"#utility.yul\":11031:11035   */\n      dup3\n        /* \"#utility.yul\":11027:11039   */\n      and\n        /* \"#utility.yul\":11058:11076   */\n      dup1\n        /* \"#utility.yul\":11048:11129   */\n      tag_284\n      jumpi\n        /* \"#utility.yul\":11114:11118   */\n      0x7f\n        /* \"#utility.yul\":11106:11112   */\n      dup3\n        /* \"#utility.yul\":11102:11119   */\n      and\n        /* \"#utility.yul\":11092:11119   */\n      swap2\n      pop\n        /* \"#utility.yul\":11048:11129   */\n    tag_284:\n        /* \"#utility.yul\":11176:11178   */\n      0x20\n        /* \"#utility.yul\":11168:11174   */\n      dup3\n        /* \"#utility.yul\":11165:11179   */\n      lt\n        /* \"#utility.yul\":11145:11163   */\n      dup2\n        /* \"#utility.yul\":11142:11180   */\n      sub\n        /* \"#utility.yul\":11139:11223   */\n      tag_285\n      jumpi\n        /* \"#utility.yul\":11195:11213   */\n      tag_286\n      tag_168\n      jump\t// in\n    tag_286:\n        /* \"#utility.yul\":11139:11223   */\n    tag_285:\n        /* \"#utility.yul\":10960:11229   */\n      pop\n        /* \"#utility.yul\":10909:11229   */\n      swap2\n      swap1\n      pop\n      jump\t// out\n        /* \"#utility.yul\":11235:11468   */\n    tag_99:\n        /* \"#utility.yul\":11274:11277   */\n      0x00\n        /* \"#utility.yul\":11297:11321   */\n      tag_288\n        /* \"#utility.yul\":11315:11320   */\n      dup3\n        /* \"#utility.yul\":11297:11321   */\n      tag_138\n      jump\t// in\n    tag_288:\n        /* \"#utility.yul\":11288:11321   */\n      swap2\n      pop\n        /* \"#utility.yul\":11343:11409   */\n      0xffffffffffffffffffffffffffffffffffffffffffffffffffffffffffffffff\n        /* \"#utility.yul\":11336:11341   */\n      dup3\n        /* \"#utility.yul\":11333:11410   */\n      sub\n        /* \"#utility.yul\":11330:11433   */\n      tag_289\n      jumpi\n        /* \"#utility.yul\":11413:11431   */\n      tag_290\n      tag_167\n      jump\t// in\n    tag_290:\n        /* \"#utility.yul\":11330:11433   */\n    tag_289:\n        /* \"#utility.yul\":11460:11461   */\n      0x01\n        /* \"#utility.yul\":11453:11458   */\n      dup3\n        /* \"#utility.yul\":11449:11462   */\n      add\n        /* \"#utility.yul\":11442:11462   */\n      swap1\n      pop\n        /* \"#utility.yul\":11235:11468   */\n      swap2\n      swap1\n      pop\n      jump\t// out\n        /* \"#utility.yul\":11474:11701   */\n    tag_169:\n        /* \"#utility.yul\":11614:11648   */\n      0x4f6e6c79206368616972706572736f6e2063616e206769766520726967687420\n        /* \"#utility.yul\":11610:11611   */\n      0x00\n        /* \"#utility.yul\":11602:11608   */\n      dup3\n        /* \"#utility.yul\":11598:11612   */\n      add\n        /* \"#utility.yul\":11591:11649   */\n      mstore\n        /* \"#utility.yul\":11683:11693   */\n      0x746f20766f74652e000000000000000000000000000000000000000000000000\n        /* \"#utility.yul\":11678:11680   */\n      0x20\n        /* \"#utility.yul\":11670:11676   */\n      dup3\n        /* \"#utility.yul\":11666:11681   */\n      add\n        /* \"#utility.yul\":11659:11694   */\n      mstore\n        /* \"#utility.yul\":11474:11701   */\n      pop\n      jump\t// out\n        /* \"#utility.yul\":11707:12073   */\n    tag_170:\n        /* \"#utility.yul\":11849:11852   */\n      0x00\n        /* \"#utility.yul\":11870:11937   */\n      tag_293\n        /* \"#utility.yul\":11934:11936   */\n      0x28\n        /* \"#utility.yul\":11929:11932   */\n      dup4\n        /* \"#utility.yul\":11870:11937   */\n      tag_142\n      jump\t// in\n    tag_293:\n        /* \"#utility.yul\":11863:11937   */\n      swap2\n      pop\n        /* \"#utility.yul\":11946:12039   */\n      tag_294\n        /* \"#utility.yul\":12035:12038   */\n      dup3\n        /* \"#utility.yul\":11946:12039   */\n      tag_169\n      jump\t// in\n    tag_294:\n        /* \"#utility.yul\":12064:12066   */\n      0x40\n        /* \"#utility.yul\":12059:12062   */\n      dup3\n        /* \"#utility.yul\":12055:12067   */\n      add\n        /* \"#utility.yul\":12048:12067   */\n      swap1\n      pop\n        /* \"#utility.yul\":11707:12073   */\n      swap2\n      swap1\n      pop\n      jump\t// out\n        /* \"#utility.yul\":12079:12498   */\n    tag_103:\n        /* \"#utility.yul\":12245:12249   */\n      0x00\n        /* \"#utility.yul\":12283:12285   */\n      0x20\n        /* \"#utility.yul\":12272:12281   */\n      dup3\n        /* \"#utility.yul\":12268:12286   */\n      add\n        /* \"#utility.yul\":12260:12286   */\n      swap1\n      pop\n        /* \"#utility.yul\":12332:12341   */\n      dup2\n        /* \"#utility.yul\":12326:12330   */\n      dup2\n        /* \"#utility.yul\":12322:12342   */\n      sub\n        /* \"#utility.yul\":12318:12319   */\n      0x00\n        /* \"#utility.yul\":12307:12316   */\n      dup4\n        /* \"#utility.yul\":12303:12320   */\n      add\n        /* \"#utility.yul\":12296:12343   */\n      mstore\n        /* \"#utility.yul\":12360:12491   */\n      tag_296\n        /* \"#utility.yul\":12486:12490   */\n      dup2\n        /* \"#utility.yul\":12360:12491   */\n      tag_170\n      jump\t// in\n    tag_296:\n        /* \"#utility.yul\":12352:12491   */\n      swap1\n      pop\n        /* \"#utility.yul\":12079:12498   */\n      swap2\n      swap1\n      pop\n      jump\t// out\n        /* \"#utility.yul\":12504:12678   */\n    tag_171:\n        /* \"#utility.yul\":12644:12670   */\n      0x54686520766f74657220616c726561647920766f7465642e0000000000000000\n        /* \"#utility.yul\":12640:12641   */\n      0x00\n        /* \"#utility.yul\":12632:12638   */\n      dup3\n        /* \"#utility.yul\":12628:12642   */\n      add\n        /* \"#utility.yul\":12621:12671   */\n      mstore\n        /* \"#utility.yul\":12504:12678   */\n      pop\n      jump\t// out\n        /* \"#utility.yul\":12684:13050   */\n    tag_172:\n        /* \"#utility.yul\":12826:12829   */\n      0x00\n        /* \"#utility.yul\":12847:12914   */\n      tag_299\n        /* \"#utility.yul\":12911:12913   */\n      0x18\n        /* \"#utility.yul\":12906:12909   */\n      dup4\n        /* \"#utility.yul\":12847:12914   */\n      tag_142\n      jump\t// in\n    tag_299:\n        /* \"#utility.yul\":12840:12914   */\n      swap2\n      pop\n        /* \"#utility.yul\":12923:13016   */\n      tag_300\n        /* \"#utility.yul\":13012:13015   */\n      dup3\n        /* \"#utility.yul\":12923:13016   */\n      tag_171\n      jump\t// in\n    tag_300:\n        /* \"#utility.yul\":13041:13043   */\n      0x20\n        /* \"#utility.yul\":13036:13039   */\n      dup3\n        /* \"#utility.yul\":13032:13044   */\n      add\n        /* \"#utility.yul\":13025:13044   */\n      swap1\n      pop\n        /* \"#utility.yul\":12684:13050   */\n      swap2\n      swap1\n      pop\n      jump\t// out\n        /* \"#utility.yul\":13056:13475   */\n    tag_106:\n        /* \"#utility.yul\":13222:13226   */\n      0x00\n        /* \"#utility.yul\":13260:13262   */\n      0x20\n        /* \"#utility.yul\":13249:13258   */\n      dup3\n        /* \"#utility.yul\":13245:13263   */\n      add\n        /* \"#utility.yul\":13237:13263   */\n      swap1\n      pop\n        /* \"#utility.yul\":13309:13318   */\n      dup2\n        /* \"#utility.yul\":13303:13307   */\n      dup2\n        /* \"#utility.yul\":13299:13319   */\n      sub\n        /* \"#utility.yul\":13295:13296   */\n      0x00\n        /* \"#utility.yul\":13284:13293   */\n      dup4\n        /* \"#utility.yul\":13280:13297   */\n      add\n        /* \"#utility.yul\":13273:13320   */\n      mstore\n        /* \"#utility.yul\":13337:13468   */\n      tag_302\n        /* \"#utility.yul\":13463:13467   */\n      dup2\n        /* \"#utility.yul\":13337:13468   */\n      tag_172\n      jump\t// in\n    tag_302:\n        /* \"#utility.yul\":13329:13468   */\n      swap1\n      pop\n        /* \"#utility.yul\":13056:13475   */\n      swap2\n      swap1\n      pop\n      jump\t// out\n        /* \"#utility.yul\":13481:13710   */\n    tag_173:\n        /* \"#utility.yul\":13621:13655   */\n      0x4f6e6c79206368616972706572736f6e2063616e20646566696e6520766f7469\n        /* \"#utility.yul\":13617:13618   */\n      0x00\n        /* \"#utility.yul\":13609:13615   */\n      dup3\n        /* \"#utility.yul\":13605:13619   */\n      add\n        /* \"#utility.yul\":13598:13656   */\n      mstore\n        /* \"#utility.yul\":13690:13702   */\n      0x6e6720706572696f642e00000000000000000000000000000000000000000000\n        /* \"#utility.yul\":13685:13687   */\n      0x20\n        /* \"#utility.yul\":13677:13683   */\n      dup3\n        /* \"#utility.yul\":13673:13688   */\n      add\n        /* \"#utility.yul\":13666:13703   */\n      mstore\n        /* \"#utility.yul\":13481:13710   */\n      pop\n      jump\t// out\n        /* \"#utility.yul\":13716:14082   */\n    tag_174:\n        /* \"#utility.yul\":13858:13861   */\n      0x00\n        /* \"#utility.yul\":13879:13946   */\n      tag_305\n        /* \"#utility.yul\":13943:13945   */\n      0x2a\n        /* \"#utility.yul\":13938:13941   */\n      dup4\n        /* \"#utility.yul\":13879:13946   */\n      tag_142\n      jump\t// in\n    tag_305:\n        /* \"#utility.yul\":13872:13946   */\n      swap2\n      pop\n        /* \"#utility.yul\":13955:14048   */\n      tag_306\n        /* \"#utility.yul\":14044:14047   */\n      dup3\n        /* \"#utility.yul\":13955:14048   */\n      tag_173\n      jump\t// in\n    tag_306:\n        /* \"#utility.yul\":14073:14075   */\n      0x40\n        /* \"#utility.yul\":14068:14071   */\n      dup3\n        /* \"#utility.yul\":14064:14076   */\n      add\n        /* \"#utility.yul\":14057:14076   */\n      swap1\n      pop\n        /* \"#utility.yul\":13716:14082   */\n      swap2\n      swap1\n      pop\n      jump\t// out\n        /* \"#utility.yul\":14088:14507   */\n    tag_111:\n        /* \"#utility.yul\":14254:14258   */\n      0x00\n        /* \"#utility.yul\":14292:14294   */\n      0x20\n        /* \"#utility.yul\":14281:14290   */\n      dup3\n        /* \"#utility.yul\":14277:14295   */\n      add\n        /* \"#utility.yul\":14269:14295   */\n      swap1\n      pop\n        /* \"#utility.yul\":14341:14350   */\n      dup2\n        /* \"#utility.yul\":14335:14339   */\n      dup2\n        /* \"#utility.yul\":14331:14351   */\n      sub\n        /* \"#utility.yul\":14327:14328   */\n      0x00\n        /* \"#utility.yul\":14316:14325   */\n      dup4\n        /* \"#utility.yul\":14312:14329   */\n      add\n        /* \"#utility.yul\":14305:14352   */\n      mstore\n        /* \"#utility.yul\":14369:14500   */\n      tag_308\n        /* \"#utility.yul\":14495:14499   */\n      dup2\n        /* \"#utility.yul\":14369:14500   */\n      tag_174\n      jump\t// in\n    tag_308:\n        /* \"#utility.yul\":14361:14500   */\n      swap1\n      pop\n        /* \"#utility.yul\":14088:14507   */\n      swap2\n      swap1\n      pop\n      jump\t// out\n        /* \"#utility.yul\":14513:14861   */\n    tag_113:\n        /* \"#utility.yul\":14553:14560   */\n      0x00\n        /* \"#utility.yul\":14576:14596   */\n      tag_310\n        /* \"#utility.yul\":14594:14595   */\n      dup3\n        /* \"#utility.yul\":14576:14596   */\n      tag_138\n      jump\t// in\n    tag_310:\n        /* \"#utility.yul\":14571:14596   */\n      swap2\n      pop\n        /* \"#utility.yul\":14610:14630   */\n      tag_311\n        /* \"#utility.yul\":14628:14629   */\n      dup4\n        /* \"#utility.yul\":14610:14630   */\n      tag_138\n      jump\t// in\n    tag_311:\n        /* \"#utility.yul\":14605:14630   */\n      swap3\n      pop\n        /* \"#utility.yul\":14798:14799   */\n      dup2\n        /* \"#utility.yul\":14730:14796   */\n      0xffffffffffffffffffffffffffffffffffffffffffffffffffffffffffffffff\n        /* \"#utility.yul\":14726:14800   */\n      div\n        /* \"#utility.yul\":14723:14724   */\n      dup4\n        /* \"#utility.yul\":14720:14801   */\n      gt\n        /* \"#utility.yul\":14715:14716   */\n      dup3\n        /* \"#utility.yul\":14708:14717   */\n      iszero\n        /* \"#utility.yul\":14701:14718   */\n      iszero\n        /* \"#utility.yul\":14697:14802   */\n      and\n        /* \"#utility.yul\":14694:14825   */\n      iszero\n      tag_312\n      jumpi\n        /* \"#utility.yul\":14805:14823   */\n      tag_313\n      tag_167\n      jump\t// in\n    tag_313:\n        /* \"#utility.yul\":14694:14825   */\n    tag_312:\n        /* \"#utility.yul\":14853:14854   */\n      dup3\n        /* \"#utility.yul\":14850:14851   */\n      dup3\n        /* \"#utility.yul\":14846:14855   */\n      mul\n        /* \"#utility.yul\":14835:14855   */\n      swap1\n      pop\n        /* \"#utility.yul\":14513:14861   */\n      swap3\n      swap2\n      pop\n      pop\n      jump\t// out\n        /* \"#utility.yul\":14867:15164   */\n    tag_175:\n        /* \"#utility.yul\":15007:15041   */\n      0x496e76616c696420506572696f642c20766f74696e6720656e64206d696e7574\n        /* \"#utility.yul\":15003:15004   */\n      0x00\n        /* \"#utility.yul\":14995:15001   */\n      dup3\n        /* \"#utility.yul\":14991:15005   */\n      add\n        /* \"#utility.yul\":14984:15042   */\n      mstore\n        /* \"#utility.yul\":15076:15110   */\n      0x6573206d7573742067726561746572207468616e20766f74696e672073746172\n        /* \"#utility.yul\":15071:15073   */\n      0x20\n        /* \"#utility.yul\":15063:15069   */\n      dup3\n        /* \"#utility.yul\":15059:15074   */\n      add\n        /* \"#utility.yul\":15052:15111   */\n      mstore\n        /* \"#utility.yul\":15145:15156   */\n      0x74206d696e757465730000000000000000000000000000000000000000000000\n        /* \"#utility.yul\":15140:15142   */\n      0x40\n        /* \"#utility.yul\":15132:15138   */\n      dup3\n        /* \"#utility.yul\":15128:15143   */\n      add\n        /* \"#utility.yul\":15121:15157   */\n      mstore\n        /* \"#utility.yul\":14867:15164   */\n      pop\n      jump\t// out\n        /* \"#utility.yul\":15170:15536   */\n    tag_176:\n        /* \"#utility.yul\":15312:15315   */\n      0x00\n        /* \"#utility.yul\":15333:15400   */\n      tag_316\n        /* \"#utility.yul\":15397:15399   */\n      0x49\n        /* \"#utility.yul\":15392:15395   */\n      dup4\n        /* \"#utility.yul\":15333:15400   */\n      tag_142\n      jump\t// in\n    tag_316:\n        /* \"#utility.yul\":15326:15400   */\n      swap2\n      pop\n        /* \"#utility.yul\":15409:15502   */\n      tag_317\n        /* \"#utility.yul\":15498:15501   */\n      dup3\n        /* \"#utility.yul\":15409:15502   */\n      tag_175\n      jump\t// in\n    tag_317:\n        /* \"#utility.yul\":15527:15529   */\n      0x60\n        /* \"#utility.yul\":15522:15525   */\n      dup3\n        /* \"#utility.yul\":15518:15530   */\n      add\n        /* \"#utility.yul\":15511:15530   */\n      swap1\n      pop\n        /* \"#utility.yul\":15170:15536   */\n      swap2\n      swap1\n      pop\n      jump\t// out\n        /* \"#utility.yul\":15542:15961   */\n    tag_120:\n        /* \"#utility.yul\":15708:15712   */\n      0x00\n        /* \"#utility.yul\":15746:15748   */\n      0x20\n        /* \"#utility.yul\":15735:15744   */\n      dup3\n        /* \"#utility.yul\":15731:15749   */\n      add\n        /* \"#utility.yul\":15723:15749   */\n      swap1\n      pop\n        /* \"#utility.yul\":15795:15804   */\n      dup2\n        /* \"#utility.yul\":15789:15793   */\n      dup2\n        /* \"#utility.yul\":15785:15805   */\n      sub\n        /* \"#utility.yul\":15781:15782   */\n      0x00\n        /* \"#utility.yul\":15770:15779   */\n      dup4\n        /* \"#utility.yul\":15766:15783   */\n      add\n        /* \"#utility.yul\":15759:15806   */\n      mstore\n        /* \"#utility.yul\":15823:15954   */\n      tag_319\n        /* \"#utility.yul\":15949:15953   */\n      dup2\n        /* \"#utility.yul\":15823:15954   */\n      tag_176\n      jump\t// in\n    tag_319:\n        /* \"#utility.yul\":15815:15954   */\n      swap1\n      pop\n        /* \"#utility.yul\":15542:15961   */\n      swap2\n      swap1\n      pop\n      jump\t// out\n\n    auxdata: 0xa2646970667358221220f3a0acf97c56210f100ba23b895b5909282c1edcb0fc713a7640174fd6d0482164736f6c634300080d0033\n}\n",
				"bytecode": {
					"linkReferences": {},
					"object": "6080604052600060015560006002553480156200001b57600080fd5b506040516200190c3803806200190c8339818101604052810190620000419190620004e8565b33600060016101000a81548173ffffffffffffffffffffffffffffffffffffffff021916908373ffffffffffffffffffffffffffffffffffffffff1602179055506001600360008060019054906101000a900473ffffffffffffffffffffffffffffffffffffffff1673ffffffffffffffffffffffffffffffffffffffff1673ffffffffffffffffffffffffffffffffffffffff1681526020019081526020016000206000018190555060005b81518110156200019757600460405180604001604052808484815181106200011b576200011a62000539565b5b60200260200101518152602001600081525090806001815401808255809150506001900390600052602060002090600202016000909190919091506000820151816000019080519060200190620001749291906200019f565b5060208201518160010155505080806200018e90620005a1565b915050620000ee565b505062000652565b828054620001ad906200061d565b90600052602060002090601f016020900481019282620001d157600085556200021d565b82601f10620001ec57805160ff19168380011785556200021d565b828001600101855582156200021d579182015b828111156200021c578251825591602001919060010190620001ff565b5b5090506200022c919062000230565b5090565b5b808211156200024b57600081600090555060010162000231565b5090565b6000604051905090565b600080fd5b600080fd5b600080fd5b6000601f19601f8301169050919050565b7f4e487b7100000000000000000000000000000000000000000000000000000000600052604160045260246000fd5b620002b38262000268565b810181811067ffffffffffffffff82111715620002d557620002d462000279565b5b80604052505050565b6000620002ea6200024f565b9050620002f88282620002a8565b919050565b600067ffffffffffffffff8211156200031b576200031a62000279565b5b602082029050602081019050919050565b600080fd5b600080fd5b600067ffffffffffffffff82111562000354576200035362000279565b5b6200035f8262000268565b9050602081019050919050565b60005b838110156200038c5780820151818401526020810190506200036f565b838111156200039c576000848401525b50505050565b6000620003b9620003b38462000336565b620002de565b905082815260208101848484011115620003d857620003d762000331565b5b620003e58482856200036c565b509392505050565b600082601f83011262000405576200040462000263565b5b815162000417848260208601620003a2565b91505092915050565b6000620004376200043184620002fd565b620002de565b905080838252602082019050602084028301858111156200045d576200045c6200032c565b5b835b81811015620004ab57805167ffffffffffffffff81111562000486576200048562000263565b5b808601620004958982620003ed565b855260208501945050506020810190506200045f565b5050509392505050565b600082601f830112620004cd57620004cc62000263565b5b8151620004df84826020860162000420565b91505092915050565b60006020828403121562000501576200050062000259565b5b600082015167ffffffffffffffff8111156200052257620005216200025e565b5b6200053084828501620004b5565b91505092915050565b7f4e487b7100000000000000000000000000000000000000000000000000000000600052603260045260246000fd5b7f4e487b7100000000000000000000000000000000000000000000000000000000600052601160045260246000fd5b6000819050919050565b6000620005ae8262000597565b91507fffffffffffffffffffffffffffffffffffffffffffffffffffffffffffffffff8203620005e357620005e262000568565b5b600182019050919050565b7f4e487b7100000000000000000000000000000000000000000000000000000000600052602260045260246000fd5b600060028204905060018216806200063657607f821691505b6020821081036200064c576200064b620005ee565b5b50919050565b6112aa80620006626000396000f3fe608060405234801561001057600080fd5b50600436106100a95760003560e01c806385a386351161007157806385a38635146101555780639e7b8d6114610173578063a3ec138d1461018f578063acf7b570146101c1578063c19d93fb146101dd578063dfbf53ae146101fb576100a9565b80630121b93f146100ae578063013cf08b146100ca578063101158af146100fb5780632e4176cf14610119578063609ff1bd14610137575b600080fd5b6100c860048036038101906100c391906109cd565b61021a565b005b6100e460048036038101906100df91906109cd565b610408565b6040516100f2929190610aa2565b60405180910390f35b6101036104c4565b6040516101109190610ad2565b60405180910390f35b6101216104ca565b60405161012e9190610b2e565b60405180910390f35b61013f6104f0565b60405161014c9190610ad2565b60405180910390f35b61015d610578565b60405161016a9190610ad2565b60405180910390f35b61018d60048036038101906101889190610b75565b61057e565b005b6101a960048036038101906101a49190610b75565b610738565b6040516101b893929190610bbd565b60405180910390f35b6101db60048036038101906101d69190610bf4565b61076f565b005b6101e5610893565b6040516101f29190610cab565b60405180910390f35b6102036108a4565b604051610211929190610aa2565b60405180910390f35b6000600360003373ffffffffffffffffffffffffffffffffffffffff1673ffffffffffffffffffffffffffffffffffffffff168152602001908152602001600020905060006001541415801561027257504260015411155b6102b1576040517f08c379a00000000000000000000000000000000000000000000000000000000081526004016102a890610d12565b60405180910390fd5b6000600254141580156102c657504260025410155b610305576040517f08c379a00000000000000000000000000000000000000000000000000000000081526004016102fc90610d7e565b60405180910390fd5b600081600001540361034c576040517f08c379a000000000000000000000000000000000000000000000000000000000815260040161034390610dea565b60405180910390fd5b8060010160009054906101000a900460ff161561039e576040517f08c379a000000000000000000000000000000000000000000000000000000000815260040161039590610e56565b60405180910390fd5b60018160010160006101000a81548160ff0219169083151502179055508181600201819055508060000154600483815481106103dd576103dc610e76565b5b906000526020600020906002020160010160008282546103fd9190610ed4565b925050819055505050565b6004818154811061041857600080fd5b906000526020600020906002020160009150905080600001805461043b90610f59565b80601f016020809104026020016040519081016040528092919081815260200182805461046790610f59565b80156104b45780601f10610489576101008083540402835291602001916104b4565b820191906000526020600020905b81548152906001019060200180831161049757829003601f168201915b5050505050908060010154905082565b60015481565b600060019054906101000a900473ffffffffffffffffffffffffffffffffffffffff1681565b6000806000905060005b60048054905081101561057357816004828154811061051c5761051b610e76565b5b9060005260206000209060020201600101541115610560576004818154811061054857610547610e76565b5b90600052602060002090600202016001015491508092505b808061056b90610f8a565b9150506104fa565b505090565b60025481565b600060019054906101000a900473ffffffffffffffffffffffffffffffffffffffff1673ffffffffffffffffffffffffffffffffffffffff163373ffffffffffffffffffffffffffffffffffffffff161461060e576040517f08c379a000000000000000000000000000000000000000000000000000000000815260040161060590611044565b60405180910390fd5b600360008273ffffffffffffffffffffffffffffffffffffffff1673ffffffffffffffffffffffffffffffffffffffff16815260200190815260200160002060010160009054906101000a900460ff161561069e576040517f08c379a0000000000000000000000000000000000000000000000000000000008152600401610695906110b0565b60405180910390fd5b6000600360008373ffffffffffffffffffffffffffffffffffffffff1673ffffffffffffffffffffffffffffffffffffffff16815260200190815260200160002060000154146106ed57600080fd5b6001600360008373ffffffffffffffffffffffffffffffffffffffff1673ffffffffffffffffffffffffffffffffffffffff1681526020019081526020016000206000018190555050565b60036020528060005260406000206000915090508060000154908060010160009054906101000a900460ff16908060020154905083565b600060019054906101000a900473ffffffffffffffffffffffffffffffffffffffff1673ffffffffffffffffffffffffffffffffffffffff163373ffffffffffffffffffffffffffffffffffffffff16146107ff576040517f08c379a00000000000000000000000000000000000000000000000000000000081526004016107f690611142565b60405180910390fd5b603c8261080c9190611162565b426108179190610ed4565b600181905550603c8161082a9190611162565b426108359190610ed4565b60028190555060006001541180156108505750600254600154105b61088f576040517f08c379a000000000000000000000000000000000000000000000000000000000815260040161088690611254565b60405180910390fd5b5050565b60008054906101000a900460ff1681565b6060600060046108b26104f0565b815481106108c3576108c2610e76565b5b906000526020600020906002020160000180546108df90610f59565b80601f016020809104026020016040519081016040528092919081815260200182805461090b90610f59565b80156109585780601f1061092d57610100808354040283529160200191610958565b820191906000526020600020905b81548152906001019060200180831161093b57829003601f168201915b5050505050915060046109696104f0565b8154811061097a57610979610e76565b5b90600052602060002090600202016001015490509091565b600080fd5b6000819050919050565b6109aa81610997565b81146109b557600080fd5b50565b6000813590506109c7816109a1565b92915050565b6000602082840312156109e3576109e2610992565b5b60006109f1848285016109b8565b91505092915050565b600081519050919050565b600082825260208201905092915050565b60005b83811015610a34578082015181840152602081019050610a19565b83811115610a43576000848401525b50505050565b6000601f19601f8301169050919050565b6000610a65826109fa565b610a6f8185610a05565b9350610a7f818560208601610a16565b610a8881610a49565b840191505092915050565b610a9c81610997565b82525050565b60006040820190508181036000830152610abc8185610a5a565b9050610acb6020830184610a93565b9392505050565b6000602082019050610ae76000830184610a93565b92915050565b600073ffffffffffffffffffffffffffffffffffffffff82169050919050565b6000610b1882610aed565b9050919050565b610b2881610b0d565b82525050565b6000602082019050610b436000830184610b1f565b92915050565b610b5281610b0d565b8114610b5d57600080fd5b50565b600081359050610b6f81610b49565b92915050565b600060208284031215610b8b57610b8a610992565b5b6000610b9984828501610b60565b91505092915050565b60008115159050919050565b610bb781610ba2565b82525050565b6000606082019050610bd26000830186610a93565b610bdf6020830185610bae565b610bec6040830184610a93565b949350505050565b60008060408385031215610c0b57610c0a610992565b5b6000610c19858286016109b8565b9250506020610c2a858286016109b8565b9150509250929050565b7f4e487b7100000000000000000000000000000000000000000000000000000000600052602160045260246000fd5b60038110610c7457610c73610c34565b5b50565b6000819050610c8582610c63565b919050565b6000610c9582610c77565b9050919050565b610ca581610c8a565b82525050565b6000602082019050610cc06000830184610c9c565b92915050565b7f566f7465206e6f74207374617274656420796574210000000000000000000000600082015250565b6000610cfc601583610a05565b9150610d0782610cc6565b602082019050919050565b60006020820190508181036000830152610d2b81610cef565b9050919050565b7f566f74652068617320656e646564210000000000000000000000000000000000600082015250565b6000610d68600f83610a05565b9150610d7382610d32565b602082019050919050565b60006020820190508181036000830152610d9781610d5b565b9050919050565b7f486173206e6f20726967687420746f20766f7465000000000000000000000000600082015250565b6000610dd4601483610a05565b9150610ddf82610d9e565b602082019050919050565b60006020820190508181036000830152610e0381610dc7565b9050919050565b7f416c726561647920766f7465642e000000000000000000000000000000000000600082015250565b6000610e40600e83610a05565b9150610e4b82610e0a565b602082019050919050565b60006020820190508181036000830152610e6f81610e33565b9050919050565b7f4e487b7100000000000000000000000000000000000000000000000000000000600052603260045260246000fd5b7f4e487b7100000000000000000000000000000000000000000000000000000000600052601160045260246000fd5b6000610edf82610997565b9150610eea83610997565b9250827fffffffffffffffffffffffffffffffffffffffffffffffffffffffffffffffff03821115610f1f57610f1e610ea5565b5b828201905092915050565b7f4e487b7100000000000000000000000000000000000000000000000000000000600052602260045260246000fd5b60006002820490506001821680610f7157607f821691505b602082108103610f8457610f83610f2a565b5b50919050565b6000610f9582610997565b91507fffffffffffffffffffffffffffffffffffffffffffffffffffffffffffffffff8203610fc757610fc6610ea5565b5b600182019050919050565b7f4f6e6c79206368616972706572736f6e2063616e20676976652072696768742060008201527f746f20766f74652e000000000000000000000000000000000000000000000000602082015250565b600061102e602883610a05565b915061103982610fd2565b604082019050919050565b6000602082019050818103600083015261105d81611021565b9050919050565b7f54686520766f74657220616c726561647920766f7465642e0000000000000000600082015250565b600061109a601883610a05565b91506110a582611064565b602082019050919050565b600060208201905081810360008301526110c98161108d565b9050919050565b7f4f6e6c79206368616972706572736f6e2063616e20646566696e6520766f746960008201527f6e6720706572696f642e00000000000000000000000000000000000000000000602082015250565b600061112c602a83610a05565b9150611137826110d0565b604082019050919050565b6000602082019050818103600083015261115b8161111f565b9050919050565b600061116d82610997565b915061117883610997565b9250817fffffffffffffffffffffffffffffffffffffffffffffffffffffffffffffffff04831182151516156111b1576111b0610ea5565b5b828202905092915050565b7f496e76616c696420506572696f642c20766f74696e6720656e64206d696e757460008201527f6573206d7573742067726561746572207468616e20766f74696e67207374617260208201527f74206d696e757465730000000000000000000000000000000000000000000000604082015250565b600061123e604983610a05565b9150611249826111bc565b606082019050919050565b6000602082019050818103600083015261126d81611231565b905091905056fea2646970667358221220f3a0acf97c56210f100ba23b895b5909282c1edcb0fc713a7640174fd6d0482164736f6c634300080d0033",
					"opcodes": "PUSH1 0x80 PUSH1 0x40 MSTORE PUSH1 0x0 PUSH1 0x1 SSTORE PUSH1 0x0 PUSH1 0x2 SSTORE CALLVALUE DUP1 ISZERO PUSH3 0x1B JUMPI PUSH1 0x0 DUP1 REVERT JUMPDEST POP PUSH1 0x40 MLOAD PUSH3 0x190C CODESIZE SUB DUP1 PUSH3 0x190C DUP4 CODECOPY DUP2 DUP2 ADD PUSH1 0x40 MSTORE DUP2 ADD SWAP1 PUSH3 0x41 SWAP2 SWAP1 PUSH3 0x4E8 JUMP JUMPDEST CALLER PUSH1 0x0 PUSH1 0x1 PUSH2 0x100 EXP DUP2 SLOAD DUP2 PUSH20 0xFFFFFFFFFFFFFFFFFFFFFFFFFFFFFFFFFFFFFFFF MUL NOT AND SWAP1 DUP4 PUSH20 0xFFFFFFFFFFFFFFFFFFFFFFFFFFFFFFFFFFFFFFFF AND MUL OR SWAP1 SSTORE POP PUSH1 0x1 PUSH1 0x3 PUSH1 0x0 DUP1 PUSH1 0x1 SWAP1 SLOAD SWAP1 PUSH2 0x100 EXP SWAP1 DIV PUSH20 0xFFFFFFFFFFFFFFFFFFFFFFFFFFFFFFFFFFFFFFFF AND PUSH20 0xFFFFFFFFFFFFFFFFFFFFFFFFFFFFFFFFFFFFFFFF AND PUSH20 0xFFFFFFFFFFFFFFFFFFFFFFFFFFFFFFFFFFFFFFFF AND DUP2 MSTORE PUSH1 0x20 ADD SWAP1 DUP2 MSTORE PUSH1 0x20 ADD PUSH1 0x0 KECCAK256 PUSH1 0x0 ADD DUP2 SWAP1 SSTORE POP PUSH1 0x0 JUMPDEST DUP2 MLOAD DUP2 LT ISZERO PUSH3 0x197 JUMPI PUSH1 0x4 PUSH1 0x40 MLOAD DUP1 PUSH1 0x40 ADD PUSH1 0x40 MSTORE DUP1 DUP5 DUP5 DUP2 MLOAD DUP2 LT PUSH3 0x11B JUMPI PUSH3 0x11A PUSH3 0x539 JUMP JUMPDEST JUMPDEST PUSH1 0x20 MUL PUSH1 0x20 ADD ADD MLOAD DUP2 MSTORE PUSH1 0x20 ADD PUSH1 0x0 DUP2 MSTORE POP SWAP1 DUP1 PUSH1 0x1 DUP2 SLOAD ADD DUP1 DUP3 SSTORE DUP1 SWAP2 POP POP PUSH1 0x1 SWAP1 SUB SWAP1 PUSH1 0x0 MSTORE PUSH1 0x20 PUSH1 0x0 KECCAK256 SWAP1 PUSH1 0x2 MUL ADD PUSH1 0x0 SWAP1 SWAP2 SWAP1 SWAP2 SWAP1 SWAP2 POP PUSH1 0x0 DUP3 ADD MLOAD DUP2 PUSH1 0x0 ADD SWAP1 DUP1 MLOAD SWAP1 PUSH1 0x20 ADD SWAP1 PUSH3 0x174 SWAP3 SWAP2 SWAP1 PUSH3 0x19F JUMP JUMPDEST POP PUSH1 0x20 DUP3 ADD MLOAD DUP2 PUSH1 0x1 ADD SSTORE POP POP DUP1 DUP1 PUSH3 0x18E SWAP1 PUSH3 0x5A1 JUMP JUMPDEST SWAP2 POP POP PUSH3 0xEE JUMP JUMPDEST POP POP PUSH3 0x652 JUMP JUMPDEST DUP3 DUP1 SLOAD PUSH3 0x1AD SWAP1 PUSH3 0x61D JUMP JUMPDEST SWAP1 PUSH1 0x0 MSTORE PUSH1 0x20 PUSH1 0x0 KECCAK256 SWAP1 PUSH1 0x1F ADD PUSH1 0x20 SWAP1 DIV DUP2 ADD SWAP3 DUP3 PUSH3 0x1D1 JUMPI PUSH1 0x0 DUP6 SSTORE PUSH3 0x21D JUMP JUMPDEST DUP3 PUSH1 0x1F LT PUSH3 0x1EC JUMPI DUP1 MLOAD PUSH1 0xFF NOT AND DUP4 DUP1 ADD OR DUP6 SSTORE PUSH3 0x21D JUMP JUMPDEST DUP3 DUP1 ADD PUSH1 0x1 ADD DUP6 SSTORE DUP3 ISZERO PUSH3 0x21D JUMPI SWAP2 DUP3 ADD JUMPDEST DUP3 DUP2 GT ISZERO PUSH3 0x21C JUMPI DUP3 MLOAD DUP3 SSTORE SWAP2 PUSH1 0x20 ADD SWAP2 SWAP1 PUSH1 0x1 ADD SWAP1 PUSH3 0x1FF JUMP JUMPDEST JUMPDEST POP SWAP1 POP PUSH3 0x22C SWAP2 SWAP1 PUSH3 0x230 JUMP JUMPDEST POP SWAP1 JUMP JUMPDEST JUMPDEST DUP1 DUP3 GT ISZERO PUSH3 0x24B JUMPI PUSH1 0x0 DUP2 PUSH1 0x0 SWAP1 SSTORE POP PUSH1 0x1 ADD PUSH3 0x231 JUMP JUMPDEST POP SWAP1 JUMP JUMPDEST PUSH1 0x0 PUSH1 0x40 MLOAD SWAP1 POP SWAP1 JUMP JUMPDEST PUSH1 0x0 DUP1 REVERT JUMPDEST PUSH1 0x0 DUP1 REVERT JUMPDEST PUSH1 0x0 DUP1 REVERT JUMPDEST PUSH1 0x0 PUSH1 0x1F NOT PUSH1 0x1F DUP4 ADD AND SWAP1 POP SWAP2 SWAP1 POP JUMP JUMPDEST PUSH32 0x4E487B7100000000000000000000000000000000000000000000000000000000 PUSH1 0x0 MSTORE PUSH1 0x41 PUSH1 0x4 MSTORE PUSH1 0x24 PUSH1 0x0 REVERT JUMPDEST PUSH3 0x2B3 DUP3 PUSH3 0x268 JUMP JUMPDEST DUP2 ADD DUP2 DUP2 LT PUSH8 0xFFFFFFFFFFFFFFFF DUP3 GT OR ISZERO PUSH3 0x2D5 JUMPI PUSH3 0x2D4 PUSH3 0x279 JUMP JUMPDEST JUMPDEST DUP1 PUSH1 0x40 MSTORE POP POP POP JUMP JUMPDEST PUSH1 0x0 PUSH3 0x2EA PUSH3 0x24F JUMP JUMPDEST SWAP1 POP PUSH3 0x2F8 DUP3 DUP3 PUSH3 0x2A8 JUMP JUMPDEST SWAP2 SWAP1 POP JUMP JUMPDEST PUSH1 0x0 PUSH8 0xFFFFFFFFFFFFFFFF DUP3 GT ISZERO PUSH3 0x31B JUMPI PUSH3 0x31A PUSH3 0x279 JUMP JUMPDEST JUMPDEST PUSH1 0x20 DUP3 MUL SWAP1 POP PUSH1 0x20 DUP2 ADD SWAP1 POP SWAP2 SWAP1 POP JUMP JUMPDEST PUSH1 0x0 DUP1 REVERT JUMPDEST PUSH1 0x0 DUP1 REVERT JUMPDEST PUSH1 0x0 PUSH8 0xFFFFFFFFFFFFFFFF DUP3 GT ISZERO PUSH3 0x354 JUMPI PUSH3 0x353 PUSH3 0x279 JUMP JUMPDEST JUMPDEST PUSH3 0x35F DUP3 PUSH3 0x268 JUMP JUMPDEST SWAP1 POP PUSH1 0x20 DUP2 ADD SWAP1 POP SWAP2 SWAP1 POP JUMP JUMPDEST PUSH1 0x0 JUMPDEST DUP4 DUP2 LT ISZERO PUSH3 0x38C JUMPI DUP1 DUP3 ADD MLOAD DUP2 DUP5 ADD MSTORE PUSH1 0x20 DUP2 ADD SWAP1 POP PUSH3 0x36F JUMP JUMPDEST DUP4 DUP2 GT ISZERO PUSH3 0x39C JUMPI PUSH1 0x0 DUP5 DUP5 ADD MSTORE JUMPDEST POP POP POP POP JUMP JUMPDEST PUSH1 0x0 PUSH3 0x3B9 PUSH3 0x3B3 DUP5 PUSH3 0x336 JUMP JUMPDEST PUSH3 0x2DE JUMP JUMPDEST SWAP1 POP DUP3 DUP2 MSTORE PUSH1 0x20 DUP2 ADD DUP5 DUP5 DUP5 ADD GT ISZERO PUSH3 0x3D8 JUMPI PUSH3 0x3D7 PUSH3 0x331 JUMP JUMPDEST JUMPDEST PUSH3 0x3E5 DUP5 DUP3 DUP6 PUSH3 0x36C JUMP JUMPDEST POP SWAP4 SWAP3 POP POP POP JUMP JUMPDEST PUSH1 0x0 DUP3 PUSH1 0x1F DUP4 ADD SLT PUSH3 0x405 JUMPI PUSH3 0x404 PUSH3 0x263 JUMP JUMPDEST JUMPDEST DUP2 MLOAD PUSH3 0x417 DUP5 DUP3 PUSH1 0x20 DUP7 ADD PUSH3 0x3A2 JUMP JUMPDEST SWAP2 POP POP SWAP3 SWAP2 POP POP JUMP JUMPDEST PUSH1 0x0 PUSH3 0x437 PUSH3 0x431 DUP5 PUSH3 0x2FD JUMP JUMPDEST PUSH3 0x2DE JUMP JUMPDEST SWAP1 POP DUP1 DUP4 DUP3 MSTORE PUSH1 0x20 DUP3 ADD SWAP1 POP PUSH1 0x20 DUP5 MUL DUP4 ADD DUP6 DUP2 GT ISZERO PUSH3 0x45D JUMPI PUSH3 0x45C PUSH3 0x32C JUMP JUMPDEST JUMPDEST DUP4 JUMPDEST DUP2 DUP2 LT ISZERO PUSH3 0x4AB JUMPI DUP1 MLOAD PUSH8 0xFFFFFFFFFFFFFFFF DUP2 GT ISZERO PUSH3 0x486 JUMPI PUSH3 0x485 PUSH3 0x263 JUMP JUMPDEST JUMPDEST DUP1 DUP7 ADD PUSH3 0x495 DUP10 DUP3 PUSH3 0x3ED JUMP JUMPDEST DUP6 MSTORE PUSH1 0x20 DUP6 ADD SWAP5 POP POP POP PUSH1 0x20 DUP2 ADD SWAP1 POP PUSH3 0x45F JUMP JUMPDEST POP POP POP SWAP4 SWAP3 POP POP POP JUMP JUMPDEST PUSH1 0x0 DUP3 PUSH1 0x1F DUP4 ADD SLT PUSH3 0x4CD JUMPI PUSH3 0x4CC PUSH3 0x263 JUMP JUMPDEST JUMPDEST DUP2 MLOAD PUSH3 0x4DF DUP5 DUP3 PUSH1 0x20 DUP7 ADD PUSH3 0x420 JUMP JUMPDEST SWAP2 POP POP SWAP3 SWAP2 POP POP JUMP JUMPDEST PUSH1 0x0 PUSH1 0x20 DUP3 DUP5 SUB SLT ISZERO PUSH3 0x501 JUMPI PUSH3 0x500 PUSH3 0x259 JUMP JUMPDEST JUMPDEST PUSH1 0x0 DUP3 ADD MLOAD PUSH8 0xFFFFFFFFFFFFFFFF DUP2 GT ISZERO PUSH3 0x522 JUMPI PUSH3 0x521 PUSH3 0x25E JUMP JUMPDEST JUMPDEST PUSH3 0x530 DUP5 DUP3 DUP6 ADD PUSH3 0x4B5 JUMP JUMPDEST SWAP2 POP POP SWAP3 SWAP2 POP POP JUMP JUMPDEST PUSH32 0x4E487B7100000000000000000000000000000000000000000000000000000000 PUSH1 0x0 MSTORE PUSH1 0x32 PUSH1 0x4 MSTORE PUSH1 0x24 PUSH1 0x0 REVERT JUMPDEST PUSH32 0x4E487B7100000000000000000000000000000000000000000000000000000000 PUSH1 0x0 MSTORE PUSH1 0x11 PUSH1 0x4 MSTORE PUSH1 0x24 PUSH1 0x0 REVERT JUMPDEST PUSH1 0x0 DUP2 SWAP1 POP SWAP2 SWAP1 POP JUMP JUMPDEST PUSH1 0x0 PUSH3 0x5AE DUP3 PUSH3 0x597 JUMP JUMPDEST SWAP2 POP PUSH32 0xFFFFFFFFFFFFFFFFFFFFFFFFFFFFFFFFFFFFFFFFFFFFFFFFFFFFFFFFFFFFFFFF DUP3 SUB PUSH3 0x5E3 JUMPI PUSH3 0x5E2 PUSH3 0x568 JUMP JUMPDEST JUMPDEST PUSH1 0x1 DUP3 ADD SWAP1 POP SWAP2 SWAP1 POP JUMP JUMPDEST PUSH32 0x4E487B7100000000000000000000000000000000000000000000000000000000 PUSH1 0x0 MSTORE PUSH1 0x22 PUSH1 0x4 MSTORE PUSH1 0x24 PUSH1 0x0 REVERT JUMPDEST PUSH1 0x0 PUSH1 0x2 DUP3 DIV SWAP1 POP PUSH1 0x1 DUP3 AND DUP1 PUSH3 0x636 JUMPI PUSH1 0x7F DUP3 AND SWAP2 POP JUMPDEST PUSH1 0x20 DUP3 LT DUP2 SUB PUSH3 0x64C JUMPI PUSH3 0x64B PUSH3 0x5EE JUMP JUMPDEST JUMPDEST POP SWAP2 SWAP1 POP JUMP JUMPDEST PUSH2 0x12AA DUP1 PUSH3 0x662 PUSH1 0x0 CODECOPY PUSH1 0x0 RETURN INVALID PUSH1 0x80 PUSH1 0x40 MSTORE CALLVALUE DUP1 ISZERO PUSH2 0x10 JUMPI PUSH1 0x0 DUP1 REVERT JUMPDEST POP PUSH1 0x4 CALLDATASIZE LT PUSH2 0xA9 JUMPI PUSH1 0x0 CALLDATALOAD PUSH1 0xE0 SHR DUP1 PUSH4 0x85A38635 GT PUSH2 0x71 JUMPI DUP1 PUSH4 0x85A38635 EQ PUSH2 0x155 JUMPI DUP1 PUSH4 0x9E7B8D61 EQ PUSH2 0x173 JUMPI DUP1 PUSH4 0xA3EC138D EQ PUSH2 0x18F JUMPI DUP1 PUSH4 0xACF7B570 EQ PUSH2 0x1C1 JUMPI DUP1 PUSH4 0xC19D93FB EQ PUSH2 0x1DD JUMPI DUP1 PUSH4 0xDFBF53AE EQ PUSH2 0x1FB JUMPI PUSH2 0xA9 JUMP JUMPDEST DUP1 PUSH4 0x121B93F EQ PUSH2 0xAE JUMPI DUP1 PUSH4 0x13CF08B EQ PUSH2 0xCA JUMPI DUP1 PUSH4 0x101158AF EQ PUSH2 0xFB JUMPI DUP1 PUSH4 0x2E4176CF EQ PUSH2 0x119 JUMPI DUP1 PUSH4 0x609FF1BD EQ PUSH2 0x137 JUMPI JUMPDEST PUSH1 0x0 DUP1 REVERT JUMPDEST PUSH2 0xC8 PUSH1 0x4 DUP1 CALLDATASIZE SUB DUP2 ADD SWAP1 PUSH2 0xC3 SWAP2 SWAP1 PUSH2 0x9CD JUMP JUMPDEST PUSH2 0x21A JUMP JUMPDEST STOP JUMPDEST PUSH2 0xE4 PUSH1 0x4 DUP1 CALLDATASIZE SUB DUP2 ADD SWAP1 PUSH2 0xDF SWAP2 SWAP1 PUSH2 0x9CD JUMP JUMPDEST PUSH2 0x408 JUMP JUMPDEST PUSH1 0x40 MLOAD PUSH2 0xF2 SWAP3 SWAP2 SWAP1 PUSH2 0xAA2 JUMP JUMPDEST PUSH1 0x40 MLOAD DUP1 SWAP2 SUB SWAP1 RETURN JUMPDEST PUSH2 0x103 PUSH2 0x4C4 JUMP JUMPDEST PUSH1 0x40 MLOAD PUSH2 0x110 SWAP2 SWAP1 PUSH2 0xAD2 JUMP JUMPDEST PUSH1 0x40 MLOAD DUP1 SWAP2 SUB SWAP1 RETURN JUMPDEST PUSH2 0x121 PUSH2 0x4CA JUMP JUMPDEST PUSH1 0x40 MLOAD PUSH2 0x12E SWAP2 SWAP1 PUSH2 0xB2E JUMP JUMPDEST PUSH1 0x40 MLOAD DUP1 SWAP2 SUB SWAP1 RETURN JUMPDEST PUSH2 0x13F PUSH2 0x4F0 JUMP JUMPDEST PUSH1 0x40 MLOAD PUSH2 0x14C SWAP2 SWAP1 PUSH2 0xAD2 JUMP JUMPDEST PUSH1 0x40 MLOAD DUP1 SWAP2 SUB SWAP1 RETURN JUMPDEST PUSH2 0x15D PUSH2 0x578 JUMP JUMPDEST PUSH1 0x40 MLOAD PUSH2 0x16A SWAP2 SWAP1 PUSH2 0xAD2 JUMP JUMPDEST PUSH1 0x40 MLOAD DUP1 SWAP2 SUB SWAP1 RETURN JUMPDEST PUSH2 0x18D PUSH1 0x4 DUP1 CALLDATASIZE SUB DUP2 ADD SWAP1 PUSH2 0x188 SWAP2 SWAP1 PUSH2 0xB75 JUMP JUMPDEST PUSH2 0x57E JUMP JUMPDEST STOP JUMPDEST PUSH2 0x1A9 PUSH1 0x4 DUP1 CALLDATASIZE SUB DUP2 ADD SWAP1 PUSH2 0x1A4 SWAP2 SWAP1 PUSH2 0xB75 JUMP JUMPDEST PUSH2 0x738 JUMP JUMPDEST PUSH1 0x40 MLOAD PUSH2 0x1B8 SWAP4 SWAP3 SWAP2 SWAP1 PUSH2 0xBBD JUMP JUMPDEST PUSH1 0x40 MLOAD DUP1 SWAP2 SUB SWAP1 RETURN JUMPDEST PUSH2 0x1DB PUSH1 0x4 DUP1 CALLDATASIZE SUB DUP2 ADD SWAP1 PUSH2 0x1D6 SWAP2 SWAP1 PUSH2 0xBF4 JUMP JUMPDEST PUSH2 0x76F JUMP JUMPDEST STOP JUMPDEST PUSH2 0x1E5 PUSH2 0x893 JUMP JUMPDEST PUSH1 0x40 MLOAD PUSH2 0x1F2 SWAP2 SWAP1 PUSH2 0xCAB JUMP JUMPDEST PUSH1 0x40 MLOAD DUP1 SWAP2 SUB SWAP1 RETURN JUMPDEST PUSH2 0x203 PUSH2 0x8A4 JUMP JUMPDEST PUSH1 0x40 MLOAD PUSH2 0x211 SWAP3 SWAP2 SWAP1 PUSH2 0xAA2 JUMP JUMPDEST PUSH1 0x40 MLOAD DUP1 SWAP2 SUB SWAP1 RETURN JUMPDEST PUSH1 0x0 PUSH1 0x3 PUSH1 0x0 CALLER PUSH20 0xFFFFFFFFFFFFFFFFFFFFFFFFFFFFFFFFFFFFFFFF AND PUSH20 0xFFFFFFFFFFFFFFFFFFFFFFFFFFFFFFFFFFFFFFFF AND DUP2 MSTORE PUSH1 0x20 ADD SWAP1 DUP2 MSTORE PUSH1 0x20 ADD PUSH1 0x0 KECCAK256 SWAP1 POP PUSH1 0x0 PUSH1 0x1 SLOAD EQ ISZERO DUP1 ISZERO PUSH2 0x272 JUMPI POP TIMESTAMP PUSH1 0x1 SLOAD GT ISZERO JUMPDEST PUSH2 0x2B1 JUMPI PUSH1 0x40 MLOAD PUSH32 0x8C379A000000000000000000000000000000000000000000000000000000000 DUP2 MSTORE PUSH1 0x4 ADD PUSH2 0x2A8 SWAP1 PUSH2 0xD12 JUMP JUMPDEST PUSH1 0x40 MLOAD DUP1 SWAP2 SUB SWAP1 REVERT JUMPDEST PUSH1 0x0 PUSH1 0x2 SLOAD EQ ISZERO DUP1 ISZERO PUSH2 0x2C6 JUMPI POP TIMESTAMP PUSH1 0x2 SLOAD LT ISZERO JUMPDEST PUSH2 0x305 JUMPI PUSH1 0x40 MLOAD PUSH32 0x8C379A000000000000000000000000000000000000000000000000000000000 DUP2 MSTORE PUSH1 0x4 ADD PUSH2 0x2FC SWAP1 PUSH2 0xD7E JUMP JUMPDEST PUSH1 0x40 MLOAD DUP1 SWAP2 SUB SWAP1 REVERT JUMPDEST PUSH1 0x0 DUP2 PUSH1 0x0 ADD SLOAD SUB PUSH2 0x34C JUMPI PUSH1 0x40 MLOAD PUSH32 0x8C379A000000000000000000000000000000000000000000000000000000000 DUP2 MSTORE PUSH1 0x4 ADD PUSH2 0x343 SWAP1 PUSH2 0xDEA JUMP JUMPDEST PUSH1 0x40 MLOAD DUP1 SWAP2 SUB SWAP1 REVERT JUMPDEST DUP1 PUSH1 0x1 ADD PUSH1 0x0 SWAP1 SLOAD SWAP1 PUSH2 0x100 EXP SWAP1 DIV PUSH1 0xFF AND ISZERO PUSH2 0x39E JUMPI PUSH1 0x40 MLOAD PUSH32 0x8C379A000000000000000000000000000000000000000000000000000000000 DUP2 MSTORE PUSH1 0x4 ADD PUSH2 0x395 SWAP1 PUSH2 0xE56 JUMP JUMPDEST PUSH1 0x40 MLOAD DUP1 SWAP2 SUB SWAP1 REVERT JUMPDEST PUSH1 0x1 DUP2 PUSH1 0x1 ADD PUSH1 0x0 PUSH2 0x100 EXP DUP2 SLOAD DUP2 PUSH1 0xFF MUL NOT AND SWAP1 DUP4 ISZERO ISZERO MUL OR SWAP1 SSTORE POP DUP2 DUP2 PUSH1 0x2 ADD DUP2 SWAP1 SSTORE POP DUP1 PUSH1 0x0 ADD SLOAD PUSH1 0x4 DUP4 DUP2 SLOAD DUP2 LT PUSH2 0x3DD JUMPI PUSH2 0x3DC PUSH2 0xE76 JUMP JUMPDEST JUMPDEST SWAP1 PUSH1 0x0 MSTORE PUSH1 0x20 PUSH1 0x0 KECCAK256 SWAP1 PUSH1 0x2 MUL ADD PUSH1 0x1 ADD PUSH1 0x0 DUP3 DUP3 SLOAD PUSH2 0x3FD SWAP2 SWAP1 PUSH2 0xED4 JUMP JUMPDEST SWAP3 POP POP DUP2 SWAP1 SSTORE POP POP POP JUMP JUMPDEST PUSH1 0x4 DUP2 DUP2 SLOAD DUP2 LT PUSH2 0x418 JUMPI PUSH1 0x0 DUP1 REVERT JUMPDEST SWAP1 PUSH1 0x0 MSTORE PUSH1 0x20 PUSH1 0x0 KECCAK256 SWAP1 PUSH1 0x2 MUL ADD PUSH1 0x0 SWAP2 POP SWAP1 POP DUP1 PUSH1 0x0 ADD DUP1 SLOAD PUSH2 0x43B SWAP1 PUSH2 0xF59 JUMP JUMPDEST DUP1 PUSH1 0x1F ADD PUSH1 0x20 DUP1 SWAP2 DIV MUL PUSH1 0x20 ADD PUSH1 0x40 MLOAD SWAP1 DUP2 ADD PUSH1 0x40 MSTORE DUP1 SWAP3 SWAP2 SWAP1 DUP2 DUP2 MSTORE PUSH1 0x20 ADD DUP3 DUP1 SLOAD PUSH2 0x467 SWAP1 PUSH2 0xF59 JUMP JUMPDEST DUP1 ISZERO PUSH2 0x4B4 JUMPI DUP1 PUSH1 0x1F LT PUSH2 0x489 JUMPI PUSH2 0x100 DUP1 DUP4 SLOAD DIV MUL DUP4 MSTORE SWAP2 PUSH1 0x20 ADD SWAP2 PUSH2 0x4B4 JUMP JUMPDEST DUP3 ADD SWAP2 SWAP1 PUSH1 0x0 MSTORE PUSH1 0x20 PUSH1 0x0 KECCAK256 SWAP1 JUMPDEST DUP2 SLOAD DUP2 MSTORE SWAP1 PUSH1 0x1 ADD SWAP1 PUSH1 0x20 ADD DUP1 DUP4 GT PUSH2 0x497 JUMPI DUP3 SWAP1 SUB PUSH1 0x1F AND DUP3 ADD SWAP2 JUMPDEST POP POP POP POP POP SWAP1 DUP1 PUSH1 0x1 ADD SLOAD SWAP1 POP DUP3 JUMP JUMPDEST PUSH1 0x1 SLOAD DUP2 JUMP JUMPDEST PUSH1 0x0 PUSH1 0x1 SWAP1 SLOAD SWAP1 PUSH2 0x100 EXP SWAP1 DIV PUSH20 0xFFFFFFFFFFFFFFFFFFFFFFFFFFFFFFFFFFFFFFFF AND DUP2 JUMP JUMPDEST PUSH1 0x0 DUP1 PUSH1 0x0 SWAP1 POP PUSH1 0x0 JUMPDEST PUSH1 0x4 DUP1 SLOAD SWAP1 POP DUP2 LT ISZERO PUSH2 0x573 JUMPI DUP2 PUSH1 0x4 DUP3 DUP2 SLOAD DUP2 LT PUSH2 0x51C JUMPI PUSH2 0x51B PUSH2 0xE76 JUMP JUMPDEST JUMPDEST SWAP1 PUSH1 0x0 MSTORE PUSH1 0x20 PUSH1 0x0 KECCAK256 SWAP1 PUSH1 0x2 MUL ADD PUSH1 0x1 ADD SLOAD GT ISZERO PUSH2 0x560 JUMPI PUSH1 0x4 DUP2 DUP2 SLOAD DUP2 LT PUSH2 0x548 JUMPI PUSH2 0x547 PUSH2 0xE76 JUMP JUMPDEST JUMPDEST SWAP1 PUSH1 0x0 MSTORE PUSH1 0x20 PUSH1 0x0 KECCAK256 SWAP1 PUSH1 0x2 MUL ADD PUSH1 0x1 ADD SLOAD SWAP2 POP DUP1 SWAP3 POP JUMPDEST DUP1 DUP1 PUSH2 0x56B SWAP1 PUSH2 0xF8A JUMP JUMPDEST SWAP2 POP POP PUSH2 0x4FA JUMP JUMPDEST POP POP SWAP1 JUMP JUMPDEST PUSH1 0x2 SLOAD DUP2 JUMP JUMPDEST PUSH1 0x0 PUSH1 0x1 SWAP1 SLOAD SWAP1 PUSH2 0x100 EXP SWAP1 DIV PUSH20 0xFFFFFFFFFFFFFFFFFFFFFFFFFFFFFFFFFFFFFFFF AND PUSH20 0xFFFFFFFFFFFFFFFFFFFFFFFFFFFFFFFFFFFFFFFF AND CALLER PUSH20 0xFFFFFFFFFFFFFFFFFFFFFFFFFFFFFFFFFFFFFFFF AND EQ PUSH2 0x60E JUMPI PUSH1 0x40 MLOAD PUSH32 0x8C379A000000000000000000000000000000000000000000000000000000000 DUP2 MSTORE PUSH1 0x4 ADD PUSH2 0x605 SWAP1 PUSH2 0x1044 JUMP JUMPDEST PUSH1 0x40 MLOAD DUP1 SWAP2 SUB SWAP1 REVERT JUMPDEST PUSH1 0x3 PUSH1 0x0 DUP3 PUSH20 0xFFFFFFFFFFFFFFFFFFFFFFFFFFFFFFFFFFFFFFFF AND PUSH20 0xFFFFFFFFFFFFFFFFFFFFFFFFFFFFFFFFFFFFFFFF AND DUP2 MSTORE PUSH1 0x20 ADD SWAP1 DUP2 MSTORE PUSH1 0x20 ADD PUSH1 0x0 KECCAK256 PUSH1 0x1 ADD PUSH1 0x0 SWAP1 SLOAD SWAP1 PUSH2 0x100 EXP SWAP1 DIV PUSH1 0xFF AND ISZERO PUSH2 0x69E JUMPI PUSH1 0x40 MLOAD PUSH32 0x8C379A000000000000000000000000000000000000000000000000000000000 DUP2 MSTORE PUSH1 0x4 ADD PUSH2 0x695 SWAP1 PUSH2 0x10B0 JUMP JUMPDEST PUSH1 0x40 MLOAD DUP1 SWAP2 SUB SWAP1 REVERT JUMPDEST PUSH1 0x0 PUSH1 0x3 PUSH1 0x0 DUP4 PUSH20 0xFFFFFFFFFFFFFFFFFFFFFFFFFFFFFFFFFFFFFFFF AND PUSH20 0xFFFFFFFFFFFFFFFFFFFFFFFFFFFFFFFFFFFFFFFF AND DUP2 MSTORE PUSH1 0x20 ADD SWAP1 DUP2 MSTORE PUSH1 0x20 ADD PUSH1 0x0 KECCAK256 PUSH1 0x0 ADD SLOAD EQ PUSH2 0x6ED JUMPI PUSH1 0x0 DUP1 REVERT JUMPDEST PUSH1 0x1 PUSH1 0x3 PUSH1 0x0 DUP4 PUSH20 0xFFFFFFFFFFFFFFFFFFFFFFFFFFFFFFFFFFFFFFFF AND PUSH20 0xFFFFFFFFFFFFFFFFFFFFFFFFFFFFFFFFFFFFFFFF AND DUP2 MSTORE PUSH1 0x20 ADD SWAP1 DUP2 MSTORE PUSH1 0x20 ADD PUSH1 0x0 KECCAK256 PUSH1 0x0 ADD DUP2 SWAP1 SSTORE POP POP JUMP JUMPDEST PUSH1 0x3 PUSH1 0x20 MSTORE DUP1 PUSH1 0x0 MSTORE PUSH1 0x40 PUSH1 0x0 KECCAK256 PUSH1 0x0 SWAP2 POP SWAP1 POP DUP1 PUSH1 0x0 ADD SLOAD SWAP1 DUP1 PUSH1 0x1 ADD PUSH1 0x0 SWAP1 SLOAD SWAP1 PUSH2 0x100 EXP SWAP1 DIV PUSH1 0xFF AND SWAP1 DUP1 PUSH1 0x2 ADD SLOAD SWAP1 POP DUP4 JUMP JUMPDEST PUSH1 0x0 PUSH1 0x1 SWAP1 SLOAD SWAP1 PUSH2 0x100 EXP SWAP1 DIV PUSH20 0xFFFFFFFFFFFFFFFFFFFFFFFFFFFFFFFFFFFFFFFF AND PUSH20 0xFFFFFFFFFFFFFFFFFFFFFFFFFFFFFFFFFFFFFFFF AND CALLER PUSH20 0xFFFFFFFFFFFFFFFFFFFFFFFFFFFFFFFFFFFFFFFF AND EQ PUSH2 0x7FF JUMPI PUSH1 0x40 MLOAD PUSH32 0x8C379A000000000000000000000000000000000000000000000000000000000 DUP2 MSTORE PUSH1 0x4 ADD PUSH2 0x7F6 SWAP1 PUSH2 0x1142 JUMP JUMPDEST PUSH1 0x40 MLOAD DUP1 SWAP2 SUB SWAP1 REVERT JUMPDEST PUSH1 0x3C DUP3 PUSH2 0x80C SWAP2 SWAP1 PUSH2 0x1162 JUMP JUMPDEST TIMESTAMP PUSH2 0x817 SWAP2 SWAP1 PUSH2 0xED4 JUMP JUMPDEST PUSH1 0x1 DUP2 SWAP1 SSTORE POP PUSH1 0x3C DUP2 PUSH2 0x82A SWAP2 SWAP1 PUSH2 0x1162 JUMP JUMPDEST TIMESTAMP PUSH2 0x835 SWAP2 SWAP1 PUSH2 0xED4 JUMP JUMPDEST PUSH1 0x2 DUP2 SWAP1 SSTORE POP PUSH1 0x0 PUSH1 0x1 SLOAD GT DUP1 ISZERO PUSH2 0x850 JUMPI POP PUSH1 0x2 SLOAD PUSH1 0x1 SLOAD LT JUMPDEST PUSH2 0x88F JUMPI PUSH1 0x40 MLOAD PUSH32 0x8C379A000000000000000000000000000000000000000000000000000000000 DUP2 MSTORE PUSH1 0x4 ADD PUSH2 0x886 SWAP1 PUSH2 0x1254 JUMP JUMPDEST PUSH1 0x40 MLOAD DUP1 SWAP2 SUB SWAP1 REVERT JUMPDEST POP POP JUMP JUMPDEST PUSH1 0x0 DUP1 SLOAD SWAP1 PUSH2 0x100 EXP SWAP1 DIV PUSH1 0xFF AND DUP2 JUMP JUMPDEST PUSH1 0x60 PUSH1 0x0 PUSH1 0x4 PUSH2 0x8B2 PUSH2 0x4F0 JUMP JUMPDEST DUP2 SLOAD DUP2 LT PUSH2 0x8C3 JUMPI PUSH2 0x8C2 PUSH2 0xE76 JUMP JUMPDEST JUMPDEST SWAP1 PUSH1 0x0 MSTORE PUSH1 0x20 PUSH1 0x0 KECCAK256 SWAP1 PUSH1 0x2 MUL ADD PUSH1 0x0 ADD DUP1 SLOAD PUSH2 0x8DF SWAP1 PUSH2 0xF59 JUMP JUMPDEST DUP1 PUSH1 0x1F ADD PUSH1 0x20 DUP1 SWAP2 DIV MUL PUSH1 0x20 ADD PUSH1 0x40 MLOAD SWAP1 DUP2 ADD PUSH1 0x40 MSTORE DUP1 SWAP3 SWAP2 SWAP1 DUP2 DUP2 MSTORE PUSH1 0x20 ADD DUP3 DUP1 SLOAD PUSH2 0x90B SWAP1 PUSH2 0xF59 JUMP JUMPDEST DUP1 ISZERO PUSH2 0x958 JUMPI DUP1 PUSH1 0x1F LT PUSH2 0x92D JUMPI PUSH2 0x100 DUP1 DUP4 SLOAD DIV MUL DUP4 MSTORE SWAP2 PUSH1 0x20 ADD SWAP2 PUSH2 0x958 JUMP JUMPDEST DUP3 ADD SWAP2 SWAP1 PUSH1 0x0 MSTORE PUSH1 0x20 PUSH1 0x0 KECCAK256 SWAP1 JUMPDEST DUP2 SLOAD DUP2 MSTORE SWAP1 PUSH1 0x1 ADD SWAP1 PUSH1 0x20 ADD DUP1 DUP4 GT PUSH2 0x93B JUMPI DUP3 SWAP1 SUB PUSH1 0x1F AND DUP3 ADD SWAP2 JUMPDEST POP POP POP POP POP SWAP2 POP PUSH1 0x4 PUSH2 0x969 PUSH2 0x4F0 JUMP JUMPDEST DUP2 SLOAD DUP2 LT PUSH2 0x97A JUMPI PUSH2 0x979 PUSH2 0xE76 JUMP JUMPDEST JUMPDEST SWAP1 PUSH1 0x0 MSTORE PUSH1 0x20 PUSH1 0x0 KECCAK256 SWAP1 PUSH1 0x2 MUL ADD PUSH1 0x1 ADD SLOAD SWAP1 POP SWAP1 SWAP2 JUMP JUMPDEST PUSH1 0x0 DUP1 REVERT JUMPDEST PUSH1 0x0 DUP2 SWAP1 POP SWAP2 SWAP1 POP JUMP JUMPDEST PUSH2 0x9AA DUP2 PUSH2 0x997 JUMP JUMPDEST DUP2 EQ PUSH2 0x9B5 JUMPI PUSH1 0x0 DUP1 REVERT JUMPDEST POP JUMP JUMPDEST PUSH1 0x0 DUP2 CALLDATALOAD SWAP1 POP PUSH2 0x9C7 DUP2 PUSH2 0x9A1 JUMP JUMPDEST SWAP3 SWAP2 POP POP JUMP JUMPDEST PUSH1 0x0 PUSH1 0x20 DUP3 DUP5 SUB SLT ISZERO PUSH2 0x9E3 JUMPI PUSH2 0x9E2 PUSH2 0x992 JUMP JUMPDEST JUMPDEST PUSH1 0x0 PUSH2 0x9F1 DUP5 DUP3 DUP6 ADD PUSH2 0x9B8 JUMP JUMPDEST SWAP2 POP POP SWAP3 SWAP2 POP POP JUMP JUMPDEST PUSH1 0x0 DUP2 MLOAD SWAP1 POP SWAP2 SWAP1 POP JUMP JUMPDEST PUSH1 0x0 DUP3 DUP3 MSTORE PUSH1 0x20 DUP3 ADD SWAP1 POP SWAP3 SWAP2 POP POP JUMP JUMPDEST PUSH1 0x0 JUMPDEST DUP4 DUP2 LT ISZERO PUSH2 0xA34 JUMPI DUP1 DUP3 ADD MLOAD DUP2 DUP5 ADD MSTORE PUSH1 0x20 DUP2 ADD SWAP1 POP PUSH2 0xA19 JUMP JUMPDEST DUP4 DUP2 GT ISZERO PUSH2 0xA43 JUMPI PUSH1 0x0 DUP5 DUP5 ADD MSTORE JUMPDEST POP POP POP POP JUMP JUMPDEST PUSH1 0x0 PUSH1 0x1F NOT PUSH1 0x1F DUP4 ADD AND SWAP1 POP SWAP2 SWAP1 POP JUMP JUMPDEST PUSH1 0x0 PUSH2 0xA65 DUP3 PUSH2 0x9FA JUMP JUMPDEST PUSH2 0xA6F DUP2 DUP6 PUSH2 0xA05 JUMP JUMPDEST SWAP4 POP PUSH2 0xA7F DUP2 DUP6 PUSH1 0x20 DUP7 ADD PUSH2 0xA16 JUMP JUMPDEST PUSH2 0xA88 DUP2 PUSH2 0xA49 JUMP JUMPDEST DUP5 ADD SWAP2 POP POP SWAP3 SWAP2 POP POP JUMP JUMPDEST PUSH2 0xA9C DUP2 PUSH2 0x997 JUMP JUMPDEST DUP3 MSTORE POP POP JUMP JUMPDEST PUSH1 0x0 PUSH1 0x40 DUP3 ADD SWAP1 POP DUP2 DUP2 SUB PUSH1 0x0 DUP4 ADD MSTORE PUSH2 0xABC DUP2 DUP6 PUSH2 0xA5A JUMP JUMPDEST SWAP1 POP PUSH2 0xACB PUSH1 0x20 DUP4 ADD DUP5 PUSH2 0xA93 JUMP JUMPDEST SWAP4 SWAP3 POP POP POP JUMP JUMPDEST PUSH1 0x0 PUSH1 0x20 DUP3 ADD SWAP1 POP PUSH2 0xAE7 PUSH1 0x0 DUP4 ADD DUP5 PUSH2 0xA93 JUMP JUMPDEST SWAP3 SWAP2 POP POP JUMP JUMPDEST PUSH1 0x0 PUSH20 0xFFFFFFFFFFFFFFFFFFFFFFFFFFFFFFFFFFFFFFFF DUP3 AND SWAP1 POP SWAP2 SWAP1 POP JUMP JUMPDEST PUSH1 0x0 PUSH2 0xB18 DUP3 PUSH2 0xAED JUMP JUMPDEST SWAP1 POP SWAP2 SWAP1 POP JUMP JUMPDEST PUSH2 0xB28 DUP2 PUSH2 0xB0D JUMP JUMPDEST DUP3 MSTORE POP POP JUMP JUMPDEST PUSH1 0x0 PUSH1 0x20 DUP3 ADD SWAP1 POP PUSH2 0xB43 PUSH1 0x0 DUP4 ADD DUP5 PUSH2 0xB1F JUMP JUMPDEST SWAP3 SWAP2 POP POP JUMP JUMPDEST PUSH2 0xB52 DUP2 PUSH2 0xB0D JUMP JUMPDEST DUP2 EQ PUSH2 0xB5D JUMPI PUSH1 0x0 DUP1 REVERT JUMPDEST POP JUMP JUMPDEST PUSH1 0x0 DUP2 CALLDATALOAD SWAP1 POP PUSH2 0xB6F DUP2 PUSH2 0xB49 JUMP JUMPDEST SWAP3 SWAP2 POP POP JUMP JUMPDEST PUSH1 0x0 PUSH1 0x20 DUP3 DUP5 SUB SLT ISZERO PUSH2 0xB8B JUMPI PUSH2 0xB8A PUSH2 0x992 JUMP JUMPDEST JUMPDEST PUSH1 0x0 PUSH2 0xB99 DUP5 DUP3 DUP6 ADD PUSH2 0xB60 JUMP JUMPDEST SWAP2 POP POP SWAP3 SWAP2 POP POP JUMP JUMPDEST PUSH1 0x0 DUP2 ISZERO ISZERO SWAP1 POP SWAP2 SWAP1 POP JUMP JUMPDEST PUSH2 0xBB7 DUP2 PUSH2 0xBA2 JUMP JUMPDEST DUP3 MSTORE POP POP JUMP JUMPDEST PUSH1 0x0 PUSH1 0x60 DUP3 ADD SWAP1 POP PUSH2 0xBD2 PUSH1 0x0 DUP4 ADD DUP7 PUSH2 0xA93 JUMP JUMPDEST PUSH2 0xBDF PUSH1 0x20 DUP4 ADD DUP6 PUSH2 0xBAE JUMP JUMPDEST PUSH2 0xBEC PUSH1 0x40 DUP4 ADD DUP5 PUSH2 0xA93 JUMP JUMPDEST SWAP5 SWAP4 POP POP POP POP JUMP JUMPDEST PUSH1 0x0 DUP1 PUSH1 0x40 DUP4 DUP6 SUB SLT ISZERO PUSH2 0xC0B JUMPI PUSH2 0xC0A PUSH2 0x992 JUMP JUMPDEST JUMPDEST PUSH1 0x0 PUSH2 0xC19 DUP6 DUP3 DUP7 ADD PUSH2 0x9B8 JUMP JUMPDEST SWAP3 POP POP PUSH1 0x20 PUSH2 0xC2A DUP6 DUP3 DUP7 ADD PUSH2 0x9B8 JUMP JUMPDEST SWAP2 POP POP SWAP3 POP SWAP3 SWAP1 POP JUMP JUMPDEST PUSH32 0x4E487B7100000000000000000000000000000000000000000000000000000000 PUSH1 0x0 MSTORE PUSH1 0x21 PUSH1 0x4 MSTORE PUSH1 0x24 PUSH1 0x0 REVERT JUMPDEST PUSH1 0x3 DUP2 LT PUSH2 0xC74 JUMPI PUSH2 0xC73 PUSH2 0xC34 JUMP JUMPDEST JUMPDEST POP JUMP JUMPDEST PUSH1 0x0 DUP2 SWAP1 POP PUSH2 0xC85 DUP3 PUSH2 0xC63 JUMP JUMPDEST SWAP2 SWAP1 POP JUMP JUMPDEST PUSH1 0x0 PUSH2 0xC95 DUP3 PUSH2 0xC77 JUMP JUMPDEST SWAP1 POP SWAP2 SWAP1 POP JUMP JUMPDEST PUSH2 0xCA5 DUP2 PUSH2 0xC8A JUMP JUMPDEST DUP3 MSTORE POP POP JUMP JUMPDEST PUSH1 0x0 PUSH1 0x20 DUP3 ADD SWAP1 POP PUSH2 0xCC0 PUSH1 0x0 DUP4 ADD DUP5 PUSH2 0xC9C JUMP JUMPDEST SWAP3 SWAP2 POP POP JUMP JUMPDEST PUSH32 0x566F7465206E6F74207374617274656420796574210000000000000000000000 PUSH1 0x0 DUP3 ADD MSTORE POP JUMP JUMPDEST PUSH1 0x0 PUSH2 0xCFC PUSH1 0x15 DUP4 PUSH2 0xA05 JUMP JUMPDEST SWAP2 POP PUSH2 0xD07 DUP3 PUSH2 0xCC6 JUMP JUMPDEST PUSH1 0x20 DUP3 ADD SWAP1 POP SWAP2 SWAP1 POP JUMP JUMPDEST PUSH1 0x0 PUSH1 0x20 DUP3 ADD SWAP1 POP DUP2 DUP2 SUB PUSH1 0x0 DUP4 ADD MSTORE PUSH2 0xD2B DUP2 PUSH2 0xCEF JUMP JUMPDEST SWAP1 POP SWAP2 SWAP1 POP JUMP JUMPDEST PUSH32 0x566F74652068617320656E646564210000000000000000000000000000000000 PUSH1 0x0 DUP3 ADD MSTORE POP JUMP JUMPDEST PUSH1 0x0 PUSH2 0xD68 PUSH1 0xF DUP4 PUSH2 0xA05 JUMP JUMPDEST SWAP2 POP PUSH2 0xD73 DUP3 PUSH2 0xD32 JUMP JUMPDEST PUSH1 0x20 DUP3 ADD SWAP1 POP SWAP2 SWAP1 POP JUMP JUMPDEST PUSH1 0x0 PUSH1 0x20 DUP3 ADD SWAP1 POP DUP2 DUP2 SUB PUSH1 0x0 DUP4 ADD MSTORE PUSH2 0xD97 DUP2 PUSH2 0xD5B JUMP JUMPDEST SWAP1 POP SWAP2 SWAP1 POP JUMP JUMPDEST PUSH32 0x486173206E6F20726967687420746F20766F7465000000000000000000000000 PUSH1 0x0 DUP3 ADD MSTORE POP JUMP JUMPDEST PUSH1 0x0 PUSH2 0xDD4 PUSH1 0x14 DUP4 PUSH2 0xA05 JUMP JUMPDEST SWAP2 POP PUSH2 0xDDF DUP3 PUSH2 0xD9E JUMP JUMPDEST PUSH1 0x20 DUP3 ADD SWAP1 POP SWAP2 SWAP1 POP JUMP JUMPDEST PUSH1 0x0 PUSH1 0x20 DUP3 ADD SWAP1 POP DUP2 DUP2 SUB PUSH1 0x0 DUP4 ADD MSTORE PUSH2 0xE03 DUP2 PUSH2 0xDC7 JUMP JUMPDEST SWAP1 POP SWAP2 SWAP1 POP JUMP JUMPDEST PUSH32 0x416C726561647920766F7465642E000000000000000000000000000000000000 PUSH1 0x0 DUP3 ADD MSTORE POP JUMP JUMPDEST PUSH1 0x0 PUSH2 0xE40 PUSH1 0xE DUP4 PUSH2 0xA05 JUMP JUMPDEST SWAP2 POP PUSH2 0xE4B DUP3 PUSH2 0xE0A JUMP JUMPDEST PUSH1 0x20 DUP3 ADD SWAP1 POP SWAP2 SWAP1 POP JUMP JUMPDEST PUSH1 0x0 PUSH1 0x20 DUP3 ADD SWAP1 POP DUP2 DUP2 SUB PUSH1 0x0 DUP4 ADD MSTORE PUSH2 0xE6F DUP2 PUSH2 0xE33 JUMP JUMPDEST SWAP1 POP SWAP2 SWAP1 POP JUMP JUMPDEST PUSH32 0x4E487B7100000000000000000000000000000000000000000000000000000000 PUSH1 0x0 MSTORE PUSH1 0x32 PUSH1 0x4 MSTORE PUSH1 0x24 PUSH1 0x0 REVERT JUMPDEST PUSH32 0x4E487B7100000000000000000000000000000000000000000000000000000000 PUSH1 0x0 MSTORE PUSH1 0x11 PUSH1 0x4 MSTORE PUSH1 0x24 PUSH1 0x0 REVERT JUMPDEST PUSH1 0x0 PUSH2 0xEDF DUP3 PUSH2 0x997 JUMP JUMPDEST SWAP2 POP PUSH2 0xEEA DUP4 PUSH2 0x997 JUMP JUMPDEST SWAP3 POP DUP3 PUSH32 0xFFFFFFFFFFFFFFFFFFFFFFFFFFFFFFFFFFFFFFFFFFFFFFFFFFFFFFFFFFFFFFFF SUB DUP3 GT ISZERO PUSH2 0xF1F JUMPI PUSH2 0xF1E PUSH2 0xEA5 JUMP JUMPDEST JUMPDEST DUP3 DUP3 ADD SWAP1 POP SWAP3 SWAP2 POP POP JUMP JUMPDEST PUSH32 0x4E487B7100000000000000000000000000000000000000000000000000000000 PUSH1 0x0 MSTORE PUSH1 0x22 PUSH1 0x4 MSTORE PUSH1 0x24 PUSH1 0x0 REVERT JUMPDEST PUSH1 0x0 PUSH1 0x2 DUP3 DIV SWAP1 POP PUSH1 0x1 DUP3 AND DUP1 PUSH2 0xF71 JUMPI PUSH1 0x7F DUP3 AND SWAP2 POP JUMPDEST PUSH1 0x20 DUP3 LT DUP2 SUB PUSH2 0xF84 JUMPI PUSH2 0xF83 PUSH2 0xF2A JUMP JUMPDEST JUMPDEST POP SWAP2 SWAP1 POP JUMP JUMPDEST PUSH1 0x0 PUSH2 0xF95 DUP3 PUSH2 0x997 JUMP JUMPDEST SWAP2 POP PUSH32 0xFFFFFFFFFFFFFFFFFFFFFFFFFFFFFFFFFFFFFFFFFFFFFFFFFFFFFFFFFFFFFFFF DUP3 SUB PUSH2 0xFC7 JUMPI PUSH2 0xFC6 PUSH2 0xEA5 JUMP JUMPDEST JUMPDEST PUSH1 0x1 DUP3 ADD SWAP1 POP SWAP2 SWAP1 POP JUMP JUMPDEST PUSH32 0x4F6E6C79206368616972706572736F6E2063616E206769766520726967687420 PUSH1 0x0 DUP3 ADD MSTORE PUSH32 0x746F20766F74652E000000000000000000000000000000000000000000000000 PUSH1 0x20 DUP3 ADD MSTORE POP JUMP JUMPDEST PUSH1 0x0 PUSH2 0x102E PUSH1 0x28 DUP4 PUSH2 0xA05 JUMP JUMPDEST SWAP2 POP PUSH2 0x1039 DUP3 PUSH2 0xFD2 JUMP JUMPDEST PUSH1 0x40 DUP3 ADD SWAP1 POP SWAP2 SWAP1 POP JUMP JUMPDEST PUSH1 0x0 PUSH1 0x20 DUP3 ADD SWAP1 POP DUP2 DUP2 SUB PUSH1 0x0 DUP4 ADD MSTORE PUSH2 0x105D DUP2 PUSH2 0x1021 JUMP JUMPDEST SWAP1 POP SWAP2 SWAP1 POP JUMP JUMPDEST PUSH32 0x54686520766F74657220616C726561647920766F7465642E0000000000000000 PUSH1 0x0 DUP3 ADD MSTORE POP JUMP JUMPDEST PUSH1 0x0 PUSH2 0x109A PUSH1 0x18 DUP4 PUSH2 0xA05 JUMP JUMPDEST SWAP2 POP PUSH2 0x10A5 DUP3 PUSH2 0x1064 JUMP JUMPDEST PUSH1 0x20 DUP3 ADD SWAP1 POP SWAP2 SWAP1 POP JUMP JUMPDEST PUSH1 0x0 PUSH1 0x20 DUP3 ADD SWAP1 POP DUP2 DUP2 SUB PUSH1 0x0 DUP4 ADD MSTORE PUSH2 0x10C9 DUP2 PUSH2 0x108D JUMP JUMPDEST SWAP1 POP SWAP2 SWAP1 POP JUMP JUMPDEST PUSH32 0x4F6E6C79206368616972706572736F6E2063616E20646566696E6520766F7469 PUSH1 0x0 DUP3 ADD MSTORE PUSH32 0x6E6720706572696F642E00000000000000000000000000000000000000000000 PUSH1 0x20 DUP3 ADD MSTORE POP JUMP JUMPDEST PUSH1 0x0 PUSH2 0x112C PUSH1 0x2A DUP4 PUSH2 0xA05 JUMP JUMPDEST SWAP2 POP PUSH2 0x1137 DUP3 PUSH2 0x10D0 JUMP JUMPDEST PUSH1 0x40 DUP3 ADD SWAP1 POP SWAP2 SWAP1 POP JUMP JUMPDEST PUSH1 0x0 PUSH1 0x20 DUP3 ADD SWAP1 POP DUP2 DUP2 SUB PUSH1 0x0 DUP4 ADD MSTORE PUSH2 0x115B DUP2 PUSH2 0x111F JUMP JUMPDEST SWAP1 POP SWAP2 SWAP1 POP JUMP JUMPDEST PUSH1 0x0 PUSH2 0x116D DUP3 PUSH2 0x997 JUMP JUMPDEST SWAP2 POP PUSH2 0x1178 DUP4 PUSH2 0x997 JUMP JUMPDEST SWAP3 POP DUP2 PUSH32 0xFFFFFFFFFFFFFFFFFFFFFFFFFFFFFFFFFFFFFFFFFFFFFFFFFFFFFFFFFFFFFFFF DIV DUP4 GT DUP3 ISZERO ISZERO AND ISZERO PUSH2 0x11B1 JUMPI PUSH2 0x11B0 PUSH2 0xEA5 JUMP JUMPDEST JUMPDEST DUP3 DUP3 MUL SWAP1 POP SWAP3 SWAP2 POP POP JUMP JUMPDEST PUSH32 0x496E76616C696420506572696F642C20766F74696E6720656E64206D696E7574 PUSH1 0x0 DUP3 ADD MSTORE PUSH32 0x6573206D7573742067726561746572207468616E20766F74696E672073746172 PUSH1 0x20 DUP3 ADD MSTORE PUSH32 0x74206D696E757465730000000000000000000000000000000000000000000000 PUSH1 0x40 DUP3 ADD MSTORE POP JUMP JUMPDEST PUSH1 0x0 PUSH2 0x123E PUSH1 0x49 DUP4 PUSH2 0xA05 JUMP JUMPDEST SWAP2 POP PUSH2 0x1249 DUP3 PUSH2 0x11BC JUMP JUMPDEST PUSH1 0x60 DUP3 ADD SWAP1 POP SWAP2 SWAP1 POP JUMP JUMPDEST PUSH1 0x0 PUSH1 0x20 DUP3 ADD SWAP1 POP DUP2 DUP2 SUB PUSH1 0x0 DUP4 ADD MSTORE PUSH2 0x126D DUP2 PUSH2 0x1231 JUMP JUMPDEST SWAP1 POP SWAP2 SWAP1 POP JUMP INVALID LOG2 PUSH5 0x6970667358 0x22 SLT KECCAK256 RETURN LOG0 0xAC 0xF9 PUSH29 0x56210F100BA23B895B5909282C1EDCB0FC713A7640174FD6D048216473 PUSH16 0x6C634300080D00330000000000000000 "
				},
				"gasEstimates": {
					"creation": {
						"codeDepositCost": "955600",
						"executionCost": "infinite",
						"totalCost": "infinite"
					},
					"external": {
						"chairperson()": "2631",
						"definePeriod(uint256,uint256)": "infinite",
						"giveRightToVote(address)": "29378",
						"proposals(uint256)": "infinite",
						"state()": "2645",
						"vote(uint256)": "infinite",
						"voters(address)": "infinite",
						"votingEnd()": "2429",
						"votingStart()": "2474",
						"winner()": "infinite",
						"winningProposal()": "infinite"
					}
				},
				"methodIdentifiers": {
					"chairperson()": "2e4176cf",
					"definePeriod(uint256,uint256)": "acf7b570",
					"giveRightToVote(address)": "9e7b8d61",
					"proposals(uint256)": "013cf08b",
					"state()": "c19d93fb",
					"vote(uint256)": "0121b93f",
					"voters(address)": "a3ec138d",
					"votingEnd()": "85a38635",
					"votingStart()": "101158af",
					"winner()": "dfbf53ae",
					"winningProposal()": "609ff1bd"
				}
			},
			"userdoc": {
				"kind": "user",
				"methods": {},
				"version": 1
			}
		}
	}
}